{
  "_format": "hh-sol-artifact-1",
  "contractName": "AuthorizedERC20",
  "sourceName": "contracts/AuthorizedERC20.sol",
  "abi": [
    {
      "inputs": [
        {
          "internalType": "string",
          "name": "name_",
          "type": "string"
        },
        {
          "internalType": "string",
          "name": "symbol_",
          "type": "string"
        }
      ],
      "stateMutability": "nonpayable",
      "type": "constructor"
    },
    {
      "inputs": [
        {
          "internalType": "address",
          "name": "spender",
          "type": "address"
        },
        {
          "internalType": "uint256",
          "name": "allowance",
          "type": "uint256"
        },
        {
          "internalType": "uint256",
          "name": "needed",
          "type": "uint256"
        }
      ],
      "name": "ERC20InsufficientAllowance",
      "type": "error"
    },
    {
      "inputs": [
        {
          "internalType": "address",
          "name": "sender",
          "type": "address"
        },
        {
          "internalType": "uint256",
          "name": "balance",
          "type": "uint256"
        },
        {
          "internalType": "uint256",
          "name": "needed",
          "type": "uint256"
        }
      ],
      "name": "ERC20InsufficientBalance",
      "type": "error"
    },
    {
      "inputs": [
        {
          "internalType": "address",
          "name": "approver",
          "type": "address"
        }
      ],
      "name": "ERC20InvalidApprover",
      "type": "error"
    },
    {
      "inputs": [
        {
          "internalType": "address",
          "name": "receiver",
          "type": "address"
        }
      ],
      "name": "ERC20InvalidReceiver",
      "type": "error"
    },
    {
      "inputs": [
        {
          "internalType": "address",
          "name": "sender",
          "type": "address"
        }
      ],
      "name": "ERC20InvalidSender",
      "type": "error"
    },
    {
      "inputs": [
        {
          "internalType": "address",
          "name": "spender",
          "type": "address"
        }
      ],
      "name": "ERC20InvalidSpender",
      "type": "error"
    },
    {
      "inputs": [],
      "name": "ExceedsSupplyLimit",
      "type": "error"
    },
    {
      "inputs": [],
      "name": "OneTimeAuthorizationDone",
      "type": "error"
    },
    {
      "inputs": [
        {
          "internalType": "address",
          "name": "owner",
          "type": "address"
        }
      ],
      "name": "OwnableInvalidOwner",
      "type": "error"
    },
    {
      "inputs": [
        {
          "internalType": "address",
          "name": "account",
          "type": "address"
        }
      ],
      "name": "OwnableUnauthorizedAccount",
      "type": "error"
    },
    {
      "inputs": [],
      "name": "UnauthorizedAccess",
      "type": "error"
    },
    {
      "anonymous": false,
      "inputs": [
        {
          "indexed": true,
          "internalType": "address",
          "name": "owner",
          "type": "address"
        },
        {
          "indexed": true,
          "internalType": "address",
          "name": "spender",
          "type": "address"
        },
        {
          "indexed": false,
          "internalType": "uint256",
          "name": "value",
          "type": "uint256"
        }
      ],
      "name": "Approval",
      "type": "event"
    },
    {
      "anonymous": false,
      "inputs": [
        {
          "indexed": true,
          "internalType": "address",
          "name": "previousOwner",
          "type": "address"
        },
        {
          "indexed": true,
          "internalType": "address",
          "name": "newOwner",
          "type": "address"
        }
      ],
      "name": "OwnershipTransferred",
      "type": "event"
    },
    {
      "anonymous": false,
      "inputs": [
        {
          "indexed": true,
          "internalType": "address",
          "name": "from",
          "type": "address"
        },
        {
          "indexed": true,
          "internalType": "address",
          "name": "to",
          "type": "address"
        },
        {
          "indexed": false,
          "internalType": "uint256",
          "name": "value",
          "type": "uint256"
        }
      ],
      "name": "Transfer",
      "type": "event"
    },
    {
      "inputs": [
        {
          "internalType": "address",
          "name": "owner",
          "type": "address"
        },
        {
          "internalType": "address",
          "name": "spender",
          "type": "address"
        }
      ],
      "name": "allowance",
      "outputs": [
        {
          "internalType": "uint256",
          "name": "",
          "type": "uint256"
        }
      ],
      "stateMutability": "view",
      "type": "function"
    },
    {
      "inputs": [
        {
          "internalType": "address",
          "name": "spender",
          "type": "address"
        },
        {
          "internalType": "uint256",
          "name": "value",
          "type": "uint256"
        }
      ],
      "name": "approve",
      "outputs": [
        {
          "internalType": "bool",
          "name": "",
          "type": "bool"
        }
      ],
      "stateMutability": "nonpayable",
      "type": "function"
    },
    {
      "inputs": [
        {
          "internalType": "address",
          "name": "minter",
          "type": "address"
        }
      ],
      "name": "authorizeOnce",
      "outputs": [],
      "stateMutability": "nonpayable",
      "type": "function"
    },
    {
      "inputs": [
        {
          "internalType": "address",
          "name": "account",
          "type": "address"
        }
      ],
      "name": "balanceOf",
      "outputs": [
        {
          "internalType": "uint256",
          "name": "",
          "type": "uint256"
        }
      ],
      "stateMutability": "view",
      "type": "function"
    },
    {
      "inputs": [
        {
          "internalType": "uint256",
          "name": "value",
          "type": "uint256"
        }
      ],
      "name": "burn",
      "outputs": [],
      "stateMutability": "nonpayable",
      "type": "function"
    },
    {
      "inputs": [
        {
          "internalType": "address",
          "name": "account",
          "type": "address"
        },
        {
          "internalType": "uint256",
          "name": "value",
          "type": "uint256"
        }
      ],
      "name": "burnFrom",
      "outputs": [],
      "stateMutability": "nonpayable",
      "type": "function"
    },
    {
      "inputs": [],
      "name": "decimals",
      "outputs": [
        {
          "internalType": "uint8",
          "name": "",
          "type": "uint8"
        }
      ],
      "stateMutability": "view",
      "type": "function"
    },
    {
      "inputs": [
        {
          "internalType": "address",
          "name": "account",
          "type": "address"
        },
        {
          "internalType": "uint256",
          "name": "amount",
          "type": "uint256"
        }
      ],
      "name": "mint",
      "outputs": [],
      "stateMutability": "nonpayable",
      "type": "function"
    },
    {
      "inputs": [],
      "name": "mintableBalance",
      "outputs": [
        {
          "internalType": "uint256",
          "name": "",
          "type": "uint256"
        }
      ],
      "stateMutability": "view",
      "type": "function"
    },
    {
      "inputs": [],
      "name": "name",
      "outputs": [
        {
          "internalType": "string",
          "name": "",
          "type": "string"
        }
      ],
      "stateMutability": "view",
      "type": "function"
    },
    {
      "inputs": [],
      "name": "owner",
      "outputs": [
        {
          "internalType": "address",
          "name": "",
          "type": "address"
        }
      ],
      "stateMutability": "view",
      "type": "function"
    },
    {
      "inputs": [],
      "name": "renounceOwnership",
      "outputs": [],
      "stateMutability": "nonpayable",
      "type": "function"
    },
    {
      "inputs": [],
      "name": "symbol",
      "outputs": [
        {
          "internalType": "string",
          "name": "",
          "type": "string"
        }
      ],
      "stateMutability": "view",
      "type": "function"
    },
    {
      "inputs": [],
      "name": "totalSupply",
      "outputs": [
        {
          "internalType": "uint256",
          "name": "",
          "type": "uint256"
        }
      ],
      "stateMutability": "view",
      "type": "function"
    },
    {
      "inputs": [
        {
          "internalType": "address",
          "name": "to",
          "type": "address"
        },
        {
          "internalType": "uint256",
          "name": "value",
          "type": "uint256"
        }
      ],
      "name": "transfer",
      "outputs": [
        {
          "internalType": "bool",
          "name": "",
          "type": "bool"
        }
      ],
      "stateMutability": "nonpayable",
      "type": "function"
    },
    {
      "inputs": [
        {
          "internalType": "address",
          "name": "from",
          "type": "address"
        },
        {
          "internalType": "address",
          "name": "to",
          "type": "address"
        },
        {
          "internalType": "uint256",
          "name": "value",
          "type": "uint256"
        }
      ],
      "name": "transferFrom",
      "outputs": [
        {
          "internalType": "bool",
          "name": "",
          "type": "bool"
        }
      ],
      "stateMutability": "nonpayable",
      "type": "function"
    },
    {
      "inputs": [
        {
          "internalType": "address",
          "name": "newOwner",
          "type": "address"
        }
      ],
      "name": "transferOwnership",
      "outputs": [],
      "stateMutability": "nonpayable",
      "type": "function"
    }
  ],
  "bytecode": "0x608060405234620003675762000faf803803806200001d816200036b565b928339810190604081830312620003675780516001600160401b03908181116200036757836200004f91840162000391565b916020938482015183811162000367576200006b920162000391565b825182811162000272576003918254916001958684811c941680156200035c575b8885101462000348578190601f94858111620002f5575b50889085831160011462000292575f9262000286575b50505f1982861b1c191690861b1783555b8051938411620002725760049586548681811c9116801562000267575b8282101462000254578381116200020c575b5080928511600114620001a257509383949184925f9562000196575b50501b925f19911b1c19161781555b33156200017f5760058054336001600160a01b03198216811790925560405191906001600160a01b03167f8be0079c531659141344cd1fd0a4f28419497f9722a3daafe3b4186f6b6457e05f80a3610bad9081620004028239f35b6024905f60405191631e4fbdf760e01b8352820152fd5b015193505f8062000115565b92919084601f198116885f52855f20955f905b89838310620001f15750505010620001d7575b50505050811b01815562000124565b01519060f8845f19921b161c191690555f808080620001c8565b858701518955909701969485019488935090810190620001b5565b875f52815f208480880160051c8201928489106200024a575b0160051c019087905b8281106200023e575050620000f9565b5f81550187906200022e565b9250819262000225565b602288634e487b7160e01b5f525260245ffd5b90607f1690620000e7565b634e487b7160e01b5f52604160045260245ffd5b015190505f80620000b9565b90889350601f19831691875f528a5f20925f5b8c828210620002de5750508411620002c6575b505050811b018355620000ca565b01515f1983881b60f8161c191690555f8080620002b8565b8385015186558c97909501949384019301620002a5565b909150855f52885f208580850160051c8201928b86106200033e575b918a91869594930160051c01915b8281106200032f575050620000a3565b5f81558594508a91016200031f565b9250819262000311565b634e487b7160e01b5f52602260045260245ffd5b93607f16936200008c565b5f80fd5b6040519190601f01601f191682016001600160401b038111838210176200027257604052565b919080601f84011215620003675782516001600160401b0381116200027257602090620003c7601f8201601f191683016200036b565b9281845282828701011162000367575f5b818110620003ed5750825f9394955001015290565b8581018301518482018401528201620003d856fe608060409080825260049081361015610016575f80fd5b5f3560e01c90816306fdde031461073457508063095ea7b31461068b57806318160ddd1461066d57806323b872dd14610631578063313ce5671461061657806331ed9d5d146105cc57806340c10f19146104b957806342966c681461049c57806370a0823114610466578063715018a6146104005780637185c0771461037d57806379cc67901461034c5780638da5cb5b1461032557806395d89b4114610205578063a9059cbb146101d5578063dd62ed3e1461018b5763f2fde38b146100db575f80fd5b34610187576020366003190112610187576100f4610871565b906100fd610b33565b6001600160a01b038092169283156101585750506005548273ffffffffffffffffffffffffffffffffffffffff19821617600555167f8be0079c531659141344cd1fd0a4f28419497f9722a3daafe3b4186f6b6457e05f80a3005b905f60249251917f1e4fbdf7000000000000000000000000000000000000000000000000000000008352820152fd5b5f80fd5b82346101875780600319360112610187576020906101a7610871565b6101af610887565b906001600160a01b038091165f5260018452825f2091165f528252805f20549051908152f35b82346101875780600319360112610187576020906101fe6101f4610871565b60243590336109a3565b5160018152f35b509034610187575f366003190112610187578051905f835460018160011c906001831692831561031b575b6020938484108114610308578388529081156102ec5750600114610298575b505050829003601f01601f191682019267ffffffffffffffff841183851017610285575082918261028192528261082a565b0390f35b604190634e487b7160e01b5f525260245ffd5b5f878152929350837f8a35acfbc15ff81a39ae7d344fd709f28e8600b4aa8c65c6b64bfe7fe36bd19b5b8385106102d857505050508301015f808061024f565b8054888601830152930192849082016102c2565b60ff1916878501525050151560051b84010190505f808061024f565b602289634e487b7160e01b5f525260245ffd5b91607f1691610230565b8234610187575f366003190112610187576020906001600160a01b03600554169051908152f35b8234610187573660031901126101875761037b610367610871565b602435906103768233836108be565b610a94565b005b50903461018757602036600319011261018757610398610871565b916103a1610b33565b60ff600754166103d957506001600160a01b03600192165f5260066020525f2060ff1990828282541617905560075416176007555f80f35b90517fabd926a6000000000000000000000000000000000000000000000000000000008152fd5b34610187575f36600319011261018757610418610b33565b5f6001600160a01b0360055473ffffffffffffffffffffffffffffffffffffffff198116600555167f8be0079c531659141344cd1fd0a4f28419497f9722a3daafe3b4186f6b6457e08280a3005b8234610187576020366003190112610187576020906001600160a01b0361048b610871565b165f525f8252805f20549051908152f35b50346101875760203660031901126101875761037b903533610a94565b5090346101875780600319360112610187576104d3610871565b9060243591335f52600660205260ff825f205416156105a457600254906b033b2e3c9fd0803ce8000000610507858461089d565b1161057c576001600160a01b03169384156105665750827fddf252ad1be2c89b69c2b068fc378daa952ba7f163c4a11628f55a4df523b3ef9261054d5f9560209461089d565b60025585855284835280852082815401905551908152a3005b6024905f84519163ec442f0560e01b8352820152fd5b8483517f0d069d94000000000000000000000000000000000000000000000000000000008152fd5b8382517f344fd586000000000000000000000000000000000000000000000000000000008152fd5b509034610187575f36600319011261018757600254906b033b2e3c9fd0803ce8000000918203918211610603576020925051908152f35b601183634e487b7160e01b5f525260245ffd5b8234610187575f366003190112610187576020905160128152f35b8234610187576060366003190112610187576020906101fe610651610871565b610659610887565b604435916106688333836108be565b6109a3565b8234610187575f366003190112610187576020906002549051908152f35b5090346101875780600319360112610187576106a5610871565b60243590331561071e576001600160a01b03169081156107085760209350335f5260018452825f20825f52845280835f205582519081527f8c5be1e5ebec7d5bd14f71427d1e84f3dd0314c0f7b2291e5b200ac8c7c3b925843392a35160018152f35b6024845f855191634a1406b160e11b8352820152fd5b6024845f85519163e602df0560e01b8352820152fd5b90508234610187575f366003190112610187575f60035460018160011c9060018316928315610820575b60209384841081146103085783885290811561080457506001146107ae57505050829003601f01601f191682019267ffffffffffffffff841183851017610285575082918261028192528261082a565b60035f908152929350837fc2575a0e9e593c00f959f8c92f12db2869c3395a3b0502d05e2516446f71f85b5b8385106107f0575050505083010184808061024f565b8054888601830152930192849082016107da565b60ff1916878501525050151560051b840101905084808061024f565b91607f169161075e565b602080825282518183018190529093925f5b82811061085d57505060409293505f838284010152601f8019910116010190565b81810186015184820160400152850161083c565b600435906001600160a01b038216820361018757565b602435906001600160a01b038216820361018757565b919082018092116108aa57565b634e487b7160e01b5f52601160045260245ffd5b91906001600160a01b0380931692835f526001602052604093845f2091831691825f52602052845f2054925f1984036108fa575b505050505050565b84841061095a5750801561094457811561092e575f526001602052835f20905f5260205203905f20555f80808080806108f2565b60248551634a1406b160e11b81525f6004820152fd5b6024855163e602df0560e01b81525f6004820152fd5b85517ffb8f41b20000000000000000000000000000000000000000000000000000000081526001600160a01b039190911660048201526024810184905260448101859052606490fd5b916001600160a01b03808416928315610a645716928315610a4d57825f525f60205260405f205490828210610a1b5750817fddf252ad1be2c89b69c2b068fc378daa952ba7f163c4a11628f55a4df523b3ef92602092855f525f84520360405f2055845f5260405f20818154019055604051908152a3565b60405163391434e360e21b81526001600160a01b03919091166004820152602481019190915260448101829052606490fd5b602460405163ec442f0560e01b81525f6004820152fd5b60246040517f96c6fd1e0000000000000000000000000000000000000000000000000000000081525f6004820152fd5b91906001600160a01b038316908115610a6457815f525f60205260405f205493818510610b0157506020817fddf252ad1be2c89b69c2b068fc378daa952ba7f163c4a11628f55a4df523b3ef925f95968587528684520360408620558060025403600255604051908152a3565b60405163391434e360e21b81526001600160a01b03919091166004820152602481018590526044810191909152606490fd5b6001600160a01b03600554163303610b4757565b60246040517f118cdaa7000000000000000000000000000000000000000000000000000000008152336004820152fdfea26469706673582212204d2e41b64f3a35e1d69edf895fdfc93004c70c989a23be250f83f3342e76714364736f6c63430008180033",
  "linkReferences": {},
  "deployedLinkReferences": {}
}