{
  "_format": "hh-sol-artifact-1",
  "contractName": "PlantMarket",
  "sourceName": "contracts/PlantMarket.sol",
  "abi": [
    {
      "inputs": [
        {
          "internalType": "address",
          "name": "tokenContractAddress",
          "type": "address"
        }
      ],
      "stateMutability": "nonpayable",
      "type": "constructor"
    },
    {
      "inputs": [],
      "name": "InvalidAdoptionPrice",
      "type": "error"
    },
    {
      "inputs": [],
      "name": "InvalidPlantID",
      "type": "error"
    },
    {
      "inputs": [],
      "name": "InvalidPlantType",
      "type": "error"
    },
    {
      "inputs": [],
      "name": "NotAdoptionTime",
      "type": "error"
    },
    {
      "inputs": [],
      "name": "NotOwner",
      "type": "error"
    },
    {
      "inputs": [],
      "name": "NotReachingContractTerm",
      "type": "error"
    },
    {
      "inputs": [
        {
          "internalType": "address",
          "name": "owner",
          "type": "address"
        }
      ],
      "name": "OwnableInvalidOwner",
      "type": "error"
    },
    {
      "inputs": [
        {
          "internalType": "address",
          "name": "account",
          "type": "address"
        }
      ],
      "name": "OwnableUnauthorizedAccount",
      "type": "error"
    },
    {
      "inputs": [],
      "name": "PlantAlreadyAdopted",
      "type": "error"
    },
    {
      "inputs": [],
      "name": "PlantAlreadySplit",
      "type": "error"
    },
    {
      "inputs": [],
      "name": "PlantIDOverflow",
      "type": "error"
    },
    {
      "inputs": [],
      "name": "PlantNotAdopted",
      "type": "error"
    },
    {
      "inputs": [],
      "name": "ReentrancyGuardReentrantCall",
      "type": "error"
    },
    {
      "inputs": [],
      "name": "TransferFailed",
      "type": "error"
    },
    {
      "anonymous": false,
      "inputs": [
        {
          "indexed": true,
          "internalType": "address",
          "name": "previousOwner",
          "type": "address"
        },
        {
          "indexed": true,
          "internalType": "address",
          "name": "newOwner",
          "type": "address"
        }
      ],
      "name": "OwnershipTransferred",
      "type": "event"
    },
    {
      "anonymous": false,
      "inputs": [
        {
          "indexed": true,
          "internalType": "uint256",
          "name": "plantId",
          "type": "uint256"
        },
        {
          "indexed": true,
          "internalType": "address",
          "name": "owner",
          "type": "address"
        },
        {
          "indexed": false,
          "internalType": "enum PlantMarket.PlantType",
          "name": "plantType",
          "type": "uint8"
        },
        {
          "indexed": false,
          "internalType": "uint256",
          "name": "adoptionTime",
          "type": "uint256"
        }
      ],
      "name": "PlantAdopted",
      "type": "event"
    },
    {
      "anonymous": false,
      "inputs": [
        {
          "indexed": true,
          "internalType": "uint256",
          "name": "plantId",
          "type": "uint256"
        },
        {
          "indexed": true,
          "internalType": "address",
          "name": "seller",
          "type": "address"
        },
        {
          "indexed": false,
          "internalType": "uint256",
          "name": "price",
          "type": "uint256"
        }
      ],
      "name": "PlantCreated",
      "type": "event"
    },
    {
      "anonymous": false,
      "inputs": [
        {
          "indexed": true,
          "internalType": "uint256",
          "name": "plantId",
          "type": "uint256"
        },
        {
          "indexed": true,
          "internalType": "address",
          "name": "seller",
          "type": "address"
        },
        {
          "indexed": false,
          "internalType": "uint256",
          "name": "price",
          "type": "uint256"
        }
      ],
      "name": "PlantListed",
      "type": "event"
    },
    {
      "anonymous": false,
      "inputs": [
        {
          "indexed": true,
          "internalType": "uint256",
          "name": "plantId",
          "type": "uint256"
        },
        {
          "indexed": true,
          "internalType": "address",
          "name": "buyer",
          "type": "address"
        },
        {
          "indexed": true,
          "internalType": "address",
          "name": "seller",
          "type": "address"
        },
        {
          "indexed": false,
          "internalType": "uint256",
          "name": "price",
          "type": "uint256"
        }
      ],
      "name": "PlantSold",
      "type": "event"
    },
    {
      "inputs": [
        {
          "internalType": "uint256",
          "name": "_plantId",
          "type": "uint256"
        }
      ],
      "name": "adoptPlant",
      "outputs": [],
      "stateMutability": "payable",
      "type": "function"
    },
    {
      "inputs": [
        {
          "components": [
            {
              "internalType": "enum PlantMarket.PlantType",
              "name": "plantType",
              "type": "uint8"
            },
            {
              "internalType": "uint256",
              "name": "minEth",
              "type": "uint256"
            },
            {
              "internalType": "uint256",
              "name": "maxEth",
              "type": "uint256"
            }
          ],
          "internalType": "struct PlantMarket.PlantDTO",
          "name": "newPlantDTO",
          "type": "tuple"
        },
        {
          "internalType": "address",
          "name": "_owner",
          "type": "address"
        }
      ],
      "name": "createPlant",
      "outputs": [],
      "stateMutability": "nonpayable",
      "type": "function"
    },
    {
      "inputs": [],
      "name": "getMarketListings",
      "outputs": [
        {
          "components": [
            {
              "internalType": "uint256",
              "name": "plantId",
              "type": "uint256"
            },
            {
              "internalType": "enum PlantMarket.PlantType",
              "name": "plantType",
              "type": "uint8"
            },
            {
              "internalType": "uint256",
              "name": "minEth",
              "type": "uint256"
            },
            {
              "internalType": "uint256",
              "name": "maxEth",
              "type": "uint256"
            },
            {
              "internalType": "uint8",
              "name": "startTime",
              "type": "uint8"
            },
            {
              "internalType": "uint8",
              "name": "endTime",
              "type": "uint8"
            },
            {
              "internalType": "uint256",
              "name": "adoptedTimestamp",
              "type": "uint256"
            },
            {
              "internalType": "uint8",
              "name": "profitDays",
              "type": "uint8"
            },
            {
              "internalType": "uint16",
              "name": "profitRate",
              "type": "uint16"
            },
            {
              "internalType": "address",
              "name": "owner",
              "type": "address"
            },
            {
              "internalType": "bool",
              "name": "isAdopted",
              "type": "bool"
            },
            {
              "internalType": "bool",
              "name": "isSplit",
              "type": "bool"
            }
          ],
          "internalType": "struct PlantMarket.Plant[]",
          "name": "",
          "type": "tuple[]"
        }
      ],
      "stateMutability": "view",
      "type": "function"
    },
    {
      "inputs": [
        {
          "internalType": "uint256",
          "name": "_plantId",
          "type": "uint256"
        }
      ],
      "name": "getPlantInfoById",
      "outputs": [
        {
          "components": [
            {
              "internalType": "uint256",
              "name": "plantId",
              "type": "uint256"
            },
            {
              "internalType": "enum PlantMarket.PlantType",
              "name": "plantType",
              "type": "uint8"
            },
            {
              "internalType": "uint256",
              "name": "minEth",
              "type": "uint256"
            },
            {
              "internalType": "uint256",
              "name": "maxEth",
              "type": "uint256"
            },
            {
              "internalType": "uint8",
              "name": "startTime",
              "type": "uint8"
            },
            {
              "internalType": "uint8",
              "name": "endTime",
              "type": "uint8"
            },
            {
              "internalType": "uint256",
              "name": "adoptedTimestamp",
              "type": "uint256"
            },
            {
              "internalType": "uint8",
              "name": "profitDays",
              "type": "uint8"
            },
            {
              "internalType": "uint16",
              "name": "profitRate",
              "type": "uint16"
            },
            {
              "internalType": "address",
              "name": "owner",
              "type": "address"
            },
            {
              "internalType": "bool",
              "name": "isAdopted",
              "type": "bool"
            },
            {
              "internalType": "bool",
              "name": "isSplit",
              "type": "bool"
            }
          ],
          "internalType": "struct PlantMarket.Plant",
          "name": "",
          "type": "tuple"
        }
      ],
      "stateMutability": "view",
      "type": "function"
    },
    {
      "inputs": [
        {
          "internalType": "address",
          "name": "_user",
          "type": "address"
        },
        {
          "internalType": "bool",
          "name": "includeSplit",
          "type": "bool"
        }
      ],
      "name": "getUserAdoptedPlants",
      "outputs": [
        {
          "components": [
            {
              "internalType": "uint256",
              "name": "plantId",
              "type": "uint256"
            },
            {
              "internalType": "enum PlantMarket.PlantType",
              "name": "plantType",
              "type": "uint8"
            },
            {
              "internalType": "uint256",
              "name": "minEth",
              "type": "uint256"
            },
            {
              "internalType": "uint256",
              "name": "maxEth",
              "type": "uint256"
            },
            {
              "internalType": "uint8",
              "name": "startTime",
              "type": "uint8"
            },
            {
              "internalType": "uint8",
              "name": "endTime",
              "type": "uint8"
            },
            {
              "internalType": "uint256",
              "name": "adoptedTimestamp",
              "type": "uint256"
            },
            {
              "internalType": "uint8",
              "name": "profitDays",
              "type": "uint8"
            },
            {
              "internalType": "uint16",
              "name": "profitRate",
              "type": "uint16"
            },
            {
              "internalType": "address",
              "name": "owner",
              "type": "address"
            },
            {
              "internalType": "bool",
              "name": "isAdopted",
              "type": "bool"
            },
            {
              "internalType": "bool",
              "name": "isSplit",
              "type": "bool"
            }
          ],
          "internalType": "struct PlantMarket.Plant[]",
          "name": "",
          "type": "tuple[]"
        }
      ],
      "stateMutability": "view",
      "type": "function"
    },
    {
      "inputs": [
        {
          "internalType": "address",
          "name": "_user",
          "type": "address"
        }
      ],
      "name": "getUserAdoptionPlantIds",
      "outputs": [
        {
          "internalType": "uint256[]",
          "name": "",
          "type": "uint256[]"
        }
      ],
      "stateMutability": "view",
      "type": "function"
    },
    {
      "inputs": [
        {
          "internalType": "address",
          "name": "_user",
          "type": "address"
        },
        {
          "internalType": "enum PlantMarket.PlantType",
          "name": "_plantType",
          "type": "uint8"
        }
      ],
      "name": "getUserAdoptionRecord",
      "outputs": [
        {
          "internalType": "uint256",
          "name": "",
          "type": "uint256"
        }
      ],
      "stateMutability": "view",
      "type": "function"
    },
    {
      "inputs": [
        {
          "internalType": "uint256",
          "name": "plantId",
          "type": "uint256"
        }
      ],
      "name": "list",
      "outputs": [],
      "stateMutability": "nonpayable",
      "type": "function"
    },
    {
      "inputs": [],
      "name": "owner",
      "outputs": [
        {
          "internalType": "address",
          "name": "",
          "type": "address"
        }
      ],
      "stateMutability": "view",
      "type": "function"
    },
    {
      "inputs": [
        {
          "internalType": "uint256",
          "name": "",
          "type": "uint256"
        }
      ],
      "name": "plants",
      "outputs": [
        {
          "internalType": "uint256",
          "name": "plantId",
          "type": "uint256"
        },
        {
          "internalType": "enum PlantMarket.PlantType",
          "name": "plantType",
          "type": "uint8"
        },
        {
          "internalType": "uint256",
          "name": "minEth",
          "type": "uint256"
        },
        {
          "internalType": "uint256",
          "name": "maxEth",
          "type": "uint256"
        },
        {
          "internalType": "uint8",
          "name": "startTime",
          "type": "uint8"
        },
        {
          "internalType": "uint8",
          "name": "endTime",
          "type": "uint8"
        },
        {
          "internalType": "uint256",
          "name": "adoptedTimestamp",
          "type": "uint256"
        },
        {
          "internalType": "uint8",
          "name": "profitDays",
          "type": "uint8"
        },
        {
          "internalType": "uint16",
          "name": "profitRate",
          "type": "uint16"
        },
        {
          "internalType": "address",
          "name": "owner",
          "type": "address"
        },
        {
          "internalType": "bool",
          "name": "isAdopted",
          "type": "bool"
        },
        {
          "internalType": "bool",
          "name": "isSplit",
          "type": "bool"
        }
      ],
      "stateMutability": "view",
      "type": "function"
    },
    {
      "inputs": [
        {
          "internalType": "enum PlantMarket.PlantType",
          "name": "",
          "type": "uint8"
        }
      ],
      "name": "priceRanges",
      "outputs": [
        {
          "internalType": "uint256",
          "name": "minEth",
          "type": "uint256"
        },
        {
          "internalType": "uint256",
          "name": "maxEth",
          "type": "uint256"
        },
        {
          "internalType": "uint8",
          "name": "startTime",
          "type": "uint8"
        },
        {
          "internalType": "uint8",
          "name": "endTime",
          "type": "uint8"
        },
        {
          "internalType": "uint8",
          "name": "profitDays",
          "type": "uint8"
        },
        {
          "internalType": "uint16",
          "name": "profitRate",
          "type": "uint16"
        },
        {
          "internalType": "uint256",
          "name": "rewardAmounts",
          "type": "uint256"
        }
      ],
      "stateMutability": "view",
      "type": "function"
    },
    {
      "inputs": [],
      "name": "renounceOwnership",
      "outputs": [],
      "stateMutability": "nonpayable",
      "type": "function"
    },
    {
      "inputs": [
        {
          "internalType": "address",
          "name": "newOwner",
          "type": "address"
        }
      ],
      "name": "transferOwnership",
      "outputs": [],
      "stateMutability": "nonpayable",
      "type": "function"
    }
  ],
  "bytecode": "0x608034620003c857601f62001b0438819003918201601f1916830192916001600160401b03841183851017620003cc5780839260409586528339602092839181010312620003c857516001600160a01b039182821691829003620003c8573315620003b1575f54600160a01b60019003199333858316175f553391167f8be0079c531659141344cd1fd0a4f28419497f9722a3daafe3b4186f6b6457e05f80a3600191828055600293845416178355620000b8620003e0565b926611c37937e0800084528184019266354a6ba7a18000845285850191866007938481526060880190601782526080890198868a5260a08101906015825260c08101996103e88b525f805260068a52855f20915182555187820155858101925160ff1692805461ff00955162ff0000809e51918864ffff0000009889985164ffffffffff199a8b9160181b169616179160081b16179160101b16171790556003809a519101558989898989888a6200016f620003e0565b966635a55eb81bc00088528989878a0193669fdf42f6e480008552858b0197885260608b01966017885260808c01958b875260a08d01978d60098a5260c0019b610bb88d52835f52600690525f209c518d5551908c01558a01965160ff16928d8854975160081b16945160101b16945160181b169416171717179055519101558989898989888a62000200620003e0565b9666a03a36075ec00088528989878a01936701bc16d674ec80008552858b0197885260608b01966017885260808c01956005875260a08d01978d600d8a5260c0019b6113888d52845f52600690525f209c518d5551908c01558a01965160ff16928d8854975160081b16945160101b16945160181b169416171717179055519101558989898989888a62000293620003e0565b966701bc71c98566c00088528989878a0193670429d069189e00008552858b0197885260608b01966017885260808c0195600c875260a08d01978d60158a5260c0019b6127108d528d5f52600690525f209c518d5551908c01558a01965160ff16928d8854975160081b16945160101b16945160181b1694161717171790555191015562000320620003e0565b998a9567042a2b5c29184000875289870197670a688906bd8b00008952868801998a52606088019860178a5260808901976014895260a08a019960288b5260c0019c614e208e5260045f52600690525f20809e51905551908d01558b01975160ff16938854975160081b16945160101b16945160181b16941617171717905551910155516117039081620004018239f35b8351631e4fbdf760e01b81525f6004820152602490fd5b5f80fd5b634e487b7160e01b5f52604160045260245ffd5b6040519060e082016001600160401b03811183821017620003cc5760405256fe6080604081815260049182361015610015575f80fd5b5f905f3560e01c908163227a5c4814610ffe575080634f05caa314610f5357806365f5d1b414610f12578063715018a614610eae57806378c0dc9214610de857806380c9419e146109565780638da5cb5b146109305780638dd2361c1461086e578063c0cdaf51146103a3578063d06d55ed14610262578063d8156ba6146101e6578063f2fde38b146101355763fa23bf17146100b0575f80fd5b346101325781600319360112610132576100c86110ca565b9060243591600583101561012e5784831161010557836100fd93926020966001600160a01b03600194168252875220016111fa565b549051908152f35b505050517f36a7e4e5000000000000000000000000000000000000000000000000000000008152fd5b5080fd5b80fd5b5091346101e25760203660031901126101e2576101506110ca565b9061015961168a565b6001600160a01b038092169283156101b35750505f548273ffffffffffffffffffffffffffffffffffffffff198216175f55167f8be0079c531659141344cd1fd0a4f28419497f9722a3daafe3b4186f6b6457e05f80a380f35b908460249251917f1e4fbdf7000000000000000000000000000000000000000000000000000000008352820152fd5b8280fd5b5091346101e25760203660031901126101e25735916005831015610132575061021060e0926111e3565b9061ffff82549260018101549260036002830154920154938151958652602086015260ff82169085015260ff8160081c16606085015260ff8160101c16608085015260181c1660a083015260c0820152f35b503461013257816003193601126101325761027b6110ca565b916024358015938415820361039f579083916005549161029a83611606565b966001600160a01b0392831692875b858110610303575050505050506102bf81611606565b925b8181106102d9578251806102d5868261119a565b0390f35b806102e660019287611655565b516102f18287611655565b526102fc8186611655565b50016102c1565b808952600360205289888a2060068101548588868360181c16149182610390575b82610371575b505061033b575b50506001016102a9565b9761036791610356826103506001969c611547565b92611655565b52610361818d611655565b5061121c565b969050898b610331565b88925090610382575b50858e61032a565b60ff915060c01c168d61037a565b915060ff8260b81c1691610324565b8380fd5b50906020806003193601126107e357833560019260028454146108465760028455815f5260038352805f2084810160ff91828254166001600160a01b03908a82600254169189885180937f31ed9d5d00000000000000000000000000000000000000000000000000000000825281865afa91821561083c575f9261080d575b50600361042e826111e3565b0154670de0b6b3a764000092838202918083048514901517156107fa571015610738575b5050506006820190815490858260b81c1661071057858260c01c166106e8576002840154341080156106db575b6106b35761048c84611547565b617080420180421161069f57610e1060189104068780608084015116821015928361068f575b50505015610667578a8080938193349160181c165af13d15610662573d67ffffffffffffffff811161064f578651906104f4601f8201601f19168b01836110a8565b81528a893d92013e5b1561062757805476ffffffffffffffffffffffffffffffffffffffff00000019163360181b76ffffffffffffffffffffffffffffffffffffffff000000161781557701000000000000000000000000000000000000000000000060ff60b81b19825416179055600542910155338752878552828720805490680100000000000000008210156106145787820180825582101561060157857f2b6b59e9e3b93bd4ff38cc3502e1fa2606705a155cb514545fff555a841bd4c9959493928b928b52888b20015533895286526105d987848a200183835416906111fa565b6105e3815461121c565b90555416936105f4825180966110e0565b42908501523393a3805580f35b60248960328c634e487b7160e01b835252fd5b60248960418c634e487b7160e01b835252fd5b8985517f90b8ec18000000000000000000000000000000000000000000000000000000008152fd5b60248b60418e634e487b7160e01b835252fd5b6104fd565b8b87517fad7abdcb000000000000000000000000000000000000000000000000000000008152fd5b60a00151161190505f87816104b2565b5060248c60118f634e487b7160e01b835252fd5b8b87517f6b0574f2000000000000000000000000000000000000000000000000000000008152fd5b506003840154341161047f565b8b87517f0f6a68e3000000000000000000000000000000000000000000000000000000008152fd5b8b87517f1164df37000000000000000000000000000000000000000000000000000000008152fd5b6107436003916111e3565b01548181029181830414901517156107e757813b156107e3575f9060448d838a5195869485937f704432c9000000000000000000000000000000000000000000000000000000008552339085015260248401525af180156107d9576107aa575b8080610452565b90985067ffffffffffffffff81116107c65784525f975f6107a3565b60418a634e487b7160e01b5f525260245ffd5b86513d5f823e3d90fd5b5f80fd5b60118c634e487b7160e01b5f525260245ffd5b60118f634e487b7160e01b5f525260245ffd5b9091508981813d8311610835575b61082581836110a8565b810103126107e35751905f610422565b503d61081b565b88513d5f823e3d90fd5b8590517f3ee5aeb5000000000000000000000000000000000000000000000000000000008152fd5b8284346107e35760203660031901126107e3576101809181355f526003602052805f209182549260ff809381600184015416936002840154600385015491850154926108cd600660058801549701549782519a8b5260208b01906110e0565b8801526060870152818116608087015260081c1660a085015260c084015281811660e084015261ffff8160081c166101008401526001600160a01b038160181c16610120840152818160b81c16151561014084015260c01c161515610160820152f35b82346107e3575f3660031901126107e3576020906001600160a01b035f54169051908152f35b8284346107e35760203660031901126107e35780359060058054831015610dc057825f526003602052835f209060068201918254936001600160a01b0391828660181c163303610d985760ff8660b81c1615610d71576005810154603c60ff8816029060ff8216918203610d3657906109ce9161167d565b421015610d4957600281019561ffff87549160081c16808202908282041482151715610d3657906064610a0292049061167d565b808755670a688906bd8b0000811115610bff57505086519260c0840184811067ffffffffffffffff821117610bec578852600584526020840160a0368237845115610bd9575f905283519060019160011015610bd957600189860152845160021015610bd95760026060860152845160031015610bd957600360808601528451831015610bd95781908360a08701525f955f935b610b62575b505050508454928303928311610b4f575090610adf91865191610abd8361105b565b600383526020830152670429d069189e000087830152835460181c169061123e565b78010000000000000000000000000000000000000000000000007fffffffffffffff00ffffffffffffffffffffffffffffffffffffffffffffffff8254161790555b5491519182527f14ac6d84304037c1b2b045bc0ec013c584edaf1f3881c8c837c9c34c336a87b360203393a3005b601190634e487b7160e01b5f525260245ffd5b9091929581515f198101908111610bc657871015610bc057610b848783611655565b5183811015610bad57610ba585949392610b9e86936111e3565b549061167d565b970193610a96565b602186634e487b7160e01b5f525260245ffd5b95610a9b565b601186634e487b7160e01b5f525260245ffd5b603283634e487b7160e01b5f525260245ffd5b604183634e487b7160e01b5f525260245ffd5b919350915067042a2b5c29184000811180610d2e575b15610c3957506001019060ff198254161790555b60ff60b81b198154169055610b21565b9091506701bc71c98566c000811180610d1c575b15610c665750600101805460ff19166003179055610c29565b66a03a36075ec000811180610d0a575b15610c8f5750600101805460ff19166002179055610c29565b6635a55eb81bc000811180610cf9575b15610cb85750600101600160ff19825416179055610c29565b6611c37937e080008110159081610ce7575b50610cd6575b50610c29565b600101805460ff1916905584610cd0565b66354a6ba7a180009150111586610cca565b50669fdf42f6e48000811115610c9f565b506701bc16d674ec8000811115610c76565b50670429d069189e0000811115610c4d565b506001610c15565b601184634e487b7160e01b5f525260245ffd5b5086517f95c8b03d000000000000000000000000000000000000000000000000000000008152fd5b5086517e9c5685000000000000000000000000000000000000000000000000000000008152fd5b5086517f30cd7471000000000000000000000000000000000000000000000000000000008152fd5b5082517fe8fd6b9d000000000000000000000000000000000000000000000000000000008152fd5b82346107e3575f3660031901126107e357600554610e0581611606565b915f915f5b818110610e5d575050610e1c82611606565b915f5b818110610e33578251806102d5868261119a565b80610e4060019287611655565b51610e4b8287611655565b52610e568186611655565b5001610e1f565b805f526003602052825f2060ff600682015460b81c1615610e82575b50600101610e0a565b60019194610e92610ea792611547565b610e9c8289611655565b526103618188611655565b9390610e79565b346107e3575f3660031901126107e357610ec661168a565b5f6001600160a01b03815473ffffffffffffffffffffffffffffffffffffffff1981168355167f8be0079c531659141344cd1fd0a4f28419497f9722a3daafe3b4186f6b6457e08280a3005b5050346107e35760203660031901126107e35761018091610f316114ef565b50355f526003602052610f51610f48825f20611547565b91518092611101565bf35b8284346107e357602090816003193601126107e35782906001600160a01b03610f7a6110ca565b165f528252805f208151928381835491828152019081935f52825f20905f5b818110610fea5750505084610faf9103856110a8565b825181815293518185018190528493840192915f5b828110610fd357505050500390f35b835185528695509381019392810192600101610fc4565b825484529284019260019283019201610f99565b8385346107e3573660031901608081126107e3576060136107e3576110228361105b565b3560058110156107e35782526024356020830152604435908201526064356001600160a01b03811681036107e3576110599161123e565b005b6060810190811067ffffffffffffffff82111761107757604052565b634e487b7160e01b5f52604160045260245ffd5b610180810190811067ffffffffffffffff82111761107757604052565b90601f8019910116810190811067ffffffffffffffff82111761107757604052565b600435906001600160a01b03821682036107e357565b9060058210156110ed5752565b634e487b7160e01b5f52602160045260245ffd5b80518252611117602082015160208401906110e0565b604081015160408301526060810151606083015260ff608082015116608083015260ff60a08201511660a083015260c081015160c083015260ff60e08201511660e083015261010061ffff8183015116908301526101206001600160a01b0381830151169083015261014080820151151590830152610160809101511515910152565b60209060206040818301928281528551809452019301915f5b8281106111c1575050505090565b9091929382610180826111d76001948951611101565b019501939291016111b3565b60058110156110ed575f52600660205260405f2090565b9060058110156110ed575f5260205260405f2090565b60058210156110ed5752565b5f19811461122a5760010190565b634e487b7160e01b5f52601160045260245ffd5b60059081545f198110156114c5578151838110156110ed5761125f906111e3565b9060409485519360e085019185831067ffffffffffffffff8411176110775760a0928852845480875260018601549283602089015260028701549660ff9081891692838d8c0152828a60081c16908160608d0152600360808d0193858d60101c1685528d61ffff9b8c91019d60181c168d52015460c08d015251968c8810156110ed578d98848e9451169b5116948951926112f98461108b565b8b8452602084019961130b908b611210565b8a8401978852606084019283526080840191825260a0840190815260c08401925f845260e085019d8e5261010085019788526101208501986001600160a01b03809b168a5261014086019c5f8e5261016087019e8f5f90525f5260036020525f2095518655600186019b51968710156110ed5761141d9b6006978960ff198354169116179055516002860155516003850155856004850192511661ff008354925160081b169161ffff191617179055518c8201550197511662ffff008854925160081b169162ffffff1916171786555116849076ffffffffffffffffffffffffffffffffffffffff0000001976ffffffffffffffffffffffffffffffffffffffff00000083549260181b169116179055565b511515907fffffffffffffff0000ffffffffffffffffffffffffffffffffffffffffffffff77ff000000000000000000000000000000000000000000000078ff00000000000000000000000000000000000000000000000085549351151560c01b169360b81b16911617179055611494825461121c565b8092555191519182527f3c7450b5b54d32b4163bbab3477be25d90dec07e4e10a7a7717c1463ae336b3660203093a3565b60046040517f929fd583000000000000000000000000000000000000000000000000000000008152fd5b604051906114fc8261108b565b5f610160838281528260208201528260408201528260608201528260808201528260a08201528260c08201528260e08201528261010082015282610120820152826101408201520152565b906040516115548161108b565b610160819380548352600660ff916115758360018301541660208701611210565b6002810154604086015260038101546060860152826004820154818116608088015260081c1660a0860152600581015460c0860152015481811660e085015261ffff8160081c166101008501526001600160a01b038160181c16610120850152818160b81c16151561014085015260c01c161515910152565b67ffffffffffffffff81116110775760051b60200190565b90611610826115ee565b61161d60405191826110a8565b828152809261162e601f19916115ee565b01905f5b82811061163e57505050565b6020906116496114ef565b82828501015201611632565b80518210156116695760209160051b010190565b634e487b7160e01b5f52603260045260245ffd5b9190820180921161122a57565b6001600160a01b035f5416330361169d57565b60246040517f118cdaa7000000000000000000000000000000000000000000000000000000008152336004820152fdfea26469706673582212205874196c4549db5963076025e6c98d4c20457e58e41a7015ce096c158ca8e8f364736f6c63430008180033",
  "linkReferences": {},
  "deployedLinkReferences": {}
}