{
  "_format": "hh-sol-artifact-1",
  "contractName": "PlantMarket",
  "sourceName": "contracts/PlantMarket.sol",
  "abi": [
    {
      "inputs": [
        {
          "internalType": "address",
          "name": "tokenContractAddress",
          "type": "address"
        }
      ],
      "stateMutability": "nonpayable",
      "type": "constructor"
    },
    {
      "inputs": [
        {
          "internalType": "address",
          "name": "owner",
          "type": "address"
        }
      ],
      "name": "OwnableInvalidOwner",
      "type": "error"
    },
    {
      "inputs": [
        {
          "internalType": "address",
          "name": "account",
          "type": "address"
        }
      ],
      "name": "OwnableUnauthorizedAccount",
      "type": "error"
    },
    {
      "inputs": [],
      "name": "ReentrancyGuardReentrantCall",
      "type": "error"
    },
    {
      "anonymous": false,
      "inputs": [
        {
          "indexed": true,
          "internalType": "address",
          "name": "previousOwner",
          "type": "address"
        },
        {
          "indexed": true,
          "internalType": "address",
          "name": "newOwner",
          "type": "address"
        }
      ],
      "name": "OwnershipTransferred",
      "type": "event"
    },
    {
      "anonymous": false,
      "inputs": [
        {
          "indexed": true,
          "internalType": "uint256",
          "name": "plantId",
          "type": "uint256"
        },
        {
          "indexed": true,
          "internalType": "address",
          "name": "owner",
          "type": "address"
        },
        {
          "indexed": false,
          "internalType": "enum PlantMarket.PlantType",
          "name": "plantType",
          "type": "uint8"
        },
        {
          "indexed": false,
          "internalType": "uint256",
          "name": "adoptionTime",
          "type": "uint256"
        }
      ],
      "name": "PlantAdopted",
      "type": "event"
    },
    {
      "anonymous": false,
      "inputs": [
        {
          "indexed": true,
          "internalType": "uint256",
          "name": "plantId",
          "type": "uint256"
        },
        {
          "indexed": true,
          "internalType": "address",
          "name": "seller",
          "type": "address"
        },
        {
          "indexed": false,
          "internalType": "uint256",
          "name": "price",
          "type": "uint256"
        }
      ],
      "name": "PlantCreated",
      "type": "event"
    },
    {
      "anonymous": false,
      "inputs": [
        {
          "indexed": true,
          "internalType": "uint256",
          "name": "plantId",
          "type": "uint256"
        },
        {
          "indexed": true,
          "internalType": "address",
          "name": "seller",
          "type": "address"
        },
        {
          "indexed": false,
          "internalType": "uint256",
          "name": "price",
          "type": "uint256"
        }
      ],
      "name": "PlantListed",
      "type": "event"
    },
    {
      "anonymous": false,
      "inputs": [
        {
          "indexed": true,
          "internalType": "uint256",
          "name": "plantId",
          "type": "uint256"
        },
        {
          "indexed": true,
          "internalType": "address",
          "name": "buyer",
          "type": "address"
        },
        {
          "indexed": true,
          "internalType": "address",
          "name": "seller",
          "type": "address"
        },
        {
          "indexed": false,
          "internalType": "uint256",
          "name": "price",
          "type": "uint256"
        }
      ],
      "name": "PlantSold",
      "type": "event"
    },
    {
      "inputs": [
        {
          "internalType": "uint256",
          "name": "_plantId",
          "type": "uint256"
        }
      ],
      "name": "adoptPlant",
      "outputs": [],
      "stateMutability": "payable",
      "type": "function"
    },
    {
      "inputs": [
        {
          "components": [
            {
              "internalType": "uint256",
              "name": "minEth",
              "type": "uint256"
            },
            {
              "internalType": "uint256",
              "name": "maxEth",
              "type": "uint256"
            },
            {
              "internalType": "uint8",
              "name": "startTime",
              "type": "uint8"
            },
            {
              "internalType": "uint8",
              "name": "endTime",
              "type": "uint8"
            },
            {
              "internalType": "enum PlantMarket.PlantType",
              "name": "plantType",
              "type": "uint8"
            },
            {
              "internalType": "uint8",
              "name": "profitDays",
              "type": "uint8"
            },
            {
              "internalType": "uint16",
              "name": "profitRate",
              "type": "uint16"
            }
          ],
          "internalType": "struct PlantMarket.PlantDTO",
          "name": "plantDTO",
          "type": "tuple"
        }
      ],
      "name": "createPlant",
      "outputs": [],
      "stateMutability": "nonpayable",
      "type": "function"
    },
    {
      "inputs": [],
      "name": "getMarketListings",
      "outputs": [
        {
          "components": [
            {
              "internalType": "uint256",
              "name": "plantId",
              "type": "uint256"
            },
            {
              "internalType": "enum PlantMarket.PlantType",
              "name": "plantType",
              "type": "uint8"
            },
            {
              "internalType": "uint256",
              "name": "minEth",
              "type": "uint256"
            },
            {
              "internalType": "uint256",
              "name": "maxEth",
              "type": "uint256"
            },
            {
              "internalType": "uint8",
              "name": "startTime",
              "type": "uint8"
            },
            {
              "internalType": "uint8",
              "name": "endTime",
              "type": "uint8"
            },
            {
              "internalType": "uint256",
              "name": "adoptedTimestamp",
              "type": "uint256"
            },
            {
              "internalType": "uint8",
              "name": "profitDays",
              "type": "uint8"
            },
            {
              "internalType": "uint16",
              "name": "profitRate",
              "type": "uint16"
            },
            {
              "internalType": "address",
              "name": "owner",
              "type": "address"
            },
            {
              "internalType": "bool",
              "name": "isAdopted",
              "type": "bool"
            },
            {
              "internalType": "bool",
              "name": "isSplit",
              "type": "bool"
            }
          ],
          "internalType": "struct PlantMarket.Plant[]",
          "name": "",
          "type": "tuple[]"
        }
      ],
      "stateMutability": "view",
      "type": "function"
    },
    {
      "inputs": [
        {
          "internalType": "uint256",
          "name": "_plantId",
          "type": "uint256"
        }
      ],
      "name": "getPlantInfoById",
      "outputs": [
        {
          "components": [
            {
              "internalType": "uint256",
              "name": "plantId",
              "type": "uint256"
            },
            {
              "internalType": "enum PlantMarket.PlantType",
              "name": "plantType",
              "type": "uint8"
            },
            {
              "internalType": "uint256",
              "name": "minEth",
              "type": "uint256"
            },
            {
              "internalType": "uint256",
              "name": "maxEth",
              "type": "uint256"
            },
            {
              "internalType": "uint8",
              "name": "startTime",
              "type": "uint8"
            },
            {
              "internalType": "uint8",
              "name": "endTime",
              "type": "uint8"
            },
            {
              "internalType": "uint256",
              "name": "adoptedTimestamp",
              "type": "uint256"
            },
            {
              "internalType": "uint8",
              "name": "profitDays",
              "type": "uint8"
            },
            {
              "internalType": "uint16",
              "name": "profitRate",
              "type": "uint16"
            },
            {
              "internalType": "address",
              "name": "owner",
              "type": "address"
            },
            {
              "internalType": "bool",
              "name": "isAdopted",
              "type": "bool"
            },
            {
              "internalType": "bool",
              "name": "isSplit",
              "type": "bool"
            }
          ],
          "internalType": "struct PlantMarket.Plant",
          "name": "",
          "type": "tuple"
        }
      ],
      "stateMutability": "view",
      "type": "function"
    },
    {
      "inputs": [
        {
          "internalType": "address",
          "name": "_user",
          "type": "address"
        },
        {
          "internalType": "bool",
          "name": "includeSplit",
          "type": "bool"
        }
      ],
      "name": "getUserAdoptedPlants",
      "outputs": [
        {
          "components": [
            {
              "internalType": "uint256",
              "name": "plantId",
              "type": "uint256"
            },
            {
              "internalType": "enum PlantMarket.PlantType",
              "name": "plantType",
              "type": "uint8"
            },
            {
              "internalType": "uint256",
              "name": "minEth",
              "type": "uint256"
            },
            {
              "internalType": "uint256",
              "name": "maxEth",
              "type": "uint256"
            },
            {
              "internalType": "uint8",
              "name": "startTime",
              "type": "uint8"
            },
            {
              "internalType": "uint8",
              "name": "endTime",
              "type": "uint8"
            },
            {
              "internalType": "uint256",
              "name": "adoptedTimestamp",
              "type": "uint256"
            },
            {
              "internalType": "uint8",
              "name": "profitDays",
              "type": "uint8"
            },
            {
              "internalType": "uint16",
              "name": "profitRate",
              "type": "uint16"
            },
            {
              "internalType": "address",
              "name": "owner",
              "type": "address"
            },
            {
              "internalType": "bool",
              "name": "isAdopted",
              "type": "bool"
            },
            {
              "internalType": "bool",
              "name": "isSplit",
              "type": "bool"
            }
          ],
          "internalType": "struct PlantMarket.Plant[]",
          "name": "",
          "type": "tuple[]"
        }
      ],
      "stateMutability": "view",
      "type": "function"
    },
    {
      "inputs": [
        {
          "internalType": "address",
          "name": "_user",
          "type": "address"
        }
      ],
      "name": "getUserAdoptionPlantIds",
      "outputs": [
        {
          "internalType": "uint256[]",
          "name": "",
          "type": "uint256[]"
        }
      ],
      "stateMutability": "view",
      "type": "function"
    },
    {
      "inputs": [
        {
          "internalType": "address",
          "name": "_user",
          "type": "address"
        },
        {
          "internalType": "enum PlantMarket.PlantType",
          "name": "_plantType",
          "type": "uint8"
        }
      ],
      "name": "getUserAdoptionRecord",
      "outputs": [
        {
          "internalType": "uint256",
          "name": "",
          "type": "uint256"
        }
      ],
      "stateMutability": "view",
      "type": "function"
    },
    {
      "inputs": [
        {
          "internalType": "uint256",
          "name": "plantId",
          "type": "uint256"
        }
      ],
      "name": "list",
      "outputs": [],
      "stateMutability": "nonpayable",
      "type": "function"
    },
    {
      "inputs": [],
      "name": "owner",
      "outputs": [
        {
          "internalType": "address",
          "name": "",
          "type": "address"
        }
      ],
      "stateMutability": "view",
      "type": "function"
    },
    {
      "inputs": [
        {
          "internalType": "uint256",
          "name": "",
          "type": "uint256"
        }
      ],
      "name": "plants",
      "outputs": [
        {
          "internalType": "uint256",
          "name": "plantId",
          "type": "uint256"
        },
        {
          "internalType": "enum PlantMarket.PlantType",
          "name": "plantType",
          "type": "uint8"
        },
        {
          "internalType": "uint256",
          "name": "minEth",
          "type": "uint256"
        },
        {
          "internalType": "uint256",
          "name": "maxEth",
          "type": "uint256"
        },
        {
          "internalType": "uint8",
          "name": "startTime",
          "type": "uint8"
        },
        {
          "internalType": "uint8",
          "name": "endTime",
          "type": "uint8"
        },
        {
          "internalType": "uint256",
          "name": "adoptedTimestamp",
          "type": "uint256"
        },
        {
          "internalType": "uint8",
          "name": "profitDays",
          "type": "uint8"
        },
        {
          "internalType": "uint16",
          "name": "profitRate",
          "type": "uint16"
        },
        {
          "internalType": "address",
          "name": "owner",
          "type": "address"
        },
        {
          "internalType": "bool",
          "name": "isAdopted",
          "type": "bool"
        },
        {
          "internalType": "bool",
          "name": "isSplit",
          "type": "bool"
        }
      ],
      "stateMutability": "view",
      "type": "function"
    },
    {
      "inputs": [],
      "name": "renounceOwnership",
      "outputs": [],
      "stateMutability": "nonpayable",
      "type": "function"
    },
    {
      "inputs": [
        {
          "internalType": "address",
          "name": "newOwner",
          "type": "address"
        }
      ],
      "name": "transferOwnership",
      "outputs": [],
      "stateMutability": "nonpayable",
      "type": "function"
    }
  ],
  "bytecode": "0x6080346100c657601f61197a38819003918201601f19168301916001600160401b038311848410176100ca578084926020946040528339810103126100c657516001600160a01b0390818116908190036100c65733156100ae575f5460018060a01b03199033828216175f55604051933391167f8be0079c531659141344cd1fd0a4f28419497f9722a3daafe3b4186f6b6457e05f80a360018055600254161760025561189b90816100df8239f35b604051631e4fbdf760e01b81525f6004820152602490fd5b5f80fd5b634e487b7160e01b5f52604160045260245ffdfe6080806040526004361015610012575f80fd5b5f905f3560e01c9081634f05caa31461115b5750806365f5d1b414611119578063715018a6146110b557806378c0dc9214610fee57806380c9419e146109625780638da5cb5b1461093d5780638dd2361c14610879578063c0cdaf511461040c578063d06d55ed14610291578063ea2c36b1146101ef578063f2fde38b146101445763fa23bf17146100a2575f80fd5b34610141576040366003190112610141576100bb611205565b602435600581101561013d57600481116100f957600160406020946001600160a01b036100f095168152600486522001611592565b54604051908152f35b606460405162461bcd60e51b815260206004820152601260248201527f496e76616c696420706c616e74207479706500000000000000000000000000006044820152fd5b8280fd5b80fd5b50346101415760203660031901126101415761015e611205565b6101666115a8565b6001600160a01b038091169081156101be575f548273ffffffffffffffffffffffffffffffffffffffff198216175f55167f8be0079c531659141344cd1fd0a4f28419497f9722a3daafe3b4186f6b6457e05f80a380f35b602483604051907f1e4fbdf70000000000000000000000000000000000000000000000000000000082526004820152fd5b50346101415760e03660031901126101415760405161020d8161131e565b6004358152602435602082015260443560ff8116810361028d57604082015260643560ff8116810361028d576060820152608435600581101561013d57608082015260a43560ff8116810361028d5760a082015260c4359061ffff8216820361013d5761028a9160c08201526001600160a01b03835416906115f8565b80f35b5f80fd5b5034610141576040366003190112610141576102ab611205565b9060243590811590811583036101415780928192600554946001600160a01b03809716945b86811061039557506102e1906114b0565b9583805b8781106102fe57604051806102fa8b826112d5565b0390f35b80825260036020526040822060068101548589868360181c16149182610386575b82610367575b5050610335575b506001016102e5565b60019196610345610360926113f1565b61034f828d611570565b5261035a818c611570565b50611584565b959061032c565b88925090610378575b50855f610325565b60ff915060c01c165f610370565b915060ff8260b81c169161031f565b8085526003602052600660408620015483878a8360181c161491826103fd575b826103de575b50506103ca575b6001016102d0565b906103d6600191611584565b9190506103c2565b869250906103ef575b50835f6103bb565b60ff915060c01c165f6103e7565b915060ff8260b81c16916103b5565b5060208060031936011261028d5760043590600191600283541461084f5760028355805f526003825260405f206001600160a01b03908160025416803b1561028d575f6040517f704432c90000000000000000000000000000000000000000000000000000000081523360048201528181602494683635c9adc5dea00000868301528160449586925af1801561084457610814575b506006830190815460ff95868260b81c166107d257868260c01c1661079057600286015434101580610782575b15610740576104dc866113f1565b617080420180421161072d57610e106018910406908860a08160808401511692015116908210159182610723575b5050156106e1578a8080938193349160181c165af13d156106dc573d67ffffffffffffffff81116106c9576040519061054c601f8201601f19168b018361136b565b81528a893d92013e5b156106875750805476ffffffffffffffffffffffffffffffffffffffff00000019163360181b76ffffffffffffffffffffffffffffffffffffffff000000161781557701000000000000000000000000000000000000000000000060ff60b81b198254161790554260058301553387526004855260408720805491680100000000000000008310156106755787830180835583101561066357509084918852858820015533865260048452610617858060408920019201918383541690611592565b6106218154611584565b9055541691610633604051809461121b565b42908301527f2b6b59e9e3b93bd4ff38cc3502e1fa2606705a155cb514545fff555a841bd4c960403393a3805580f35b88634e487b7160e01b81526032600452fd5b88634e487b7160e01b81526041600452fd5b867f5472616e73666572206661696c65640000000000000000000000000000000000606492600f866040519462461bcd60e51b86526004860152840152820152fd5b848b634e487b7160e01b81526041600452fd5b610555565b6064897f4e6f742061646f7074696f6e2074696d65000000000000000000000000000000856011896040519462461bcd60e51b86526004860152840152820152fd5b1090505f8061050a565b868d634e487b7160e01b81526011600452fd5b6064897f496e76616c69642061646f7074696f6e20707269636500000000000000000000856016896040519462461bcd60e51b86526004860152840152820152fd5b5060038601543411156104ce565b6064897f506c616e7420697320616c72656164792073706c697400000000000000000000856016896040519462461bcd60e51b86526004860152840152820152fd5b6064897f506c616e7420697320616c72656164792061646f707465640000000000000000856018896040519462461bcd60e51b86526004860152840152820152fd5b90975067ffffffffffffffff8111610831576040525f965f6104a1565b50634e487b7160e01b5f5260416004525ffd5b6040513d5f823e3d90fd5b60046040517f3ee5aeb5000000000000000000000000000000000000000000000000000000008152fd5b3461028d57602036600319011261028d576004355f52600360205261018060405f2080549060ff90816001820154169082600282015460038301546004840154916108d86006600587015496015496604051998a5260208a019061121b565b60408801526060870152818116608087015260081c1660a085015260c084015281811660e084015261ffff8160081c166101008401526001600160a01b038160181c16610120840152818160b81c16151561014084015260c01c161515610160820152f35b3461028d575f36600319011261028d5760206001600160a01b035f5416604051908152f35b3461028d57602036600319011261028d576005546004351015610faa576004355f52600360205260405f2060068101546001600160a01b038160181c163303610f665760ff8160b81c1615610f2257600582015460788101809111610eca57421015610ede5761ffff60028301549160081c16808202908282041482151715610eca57606490048101809111610eca57806002830155670a688906bd8b000081115f14610d94575060405190610a178261131e565b600682525f5b60c080821015610a6857906020915f60405191610a398361131e565b81835281858401528160408401528160608401528160808401528160a084015282015282828601015201610a1d565b505090604051610a778161131e565b6611c37937e08000815266354a6ba7a180006020820152600e6040820152600f60608201525f6080820152600760a082015261083460c0820152610aba826114ff565b52610ac4816114ff565b50604051610ad18161131e565b6635a55eb81bc0008152669fdf42f6e480006020820152600f60408201526010606082015260016080820152600360a082015261038460c0820152610b1582611520565b52610b1f81611520565b50604051610b2c8161131e565b66a03a36075ec00081526701bc16d674ec80006020820152601060408201526011606082015260026080820152600560a08201526104e260c0820152610b7182611530565b52610b7b81611530565b50604051610b888161131e565b6701bc71c98566c0008152670429d069189e000090816020820152601160408201526012606082015260036080820152600c60a082015261083460c0820152610bd083611540565b52610bda82611540565b50604051610be78161131e565b67042a2b5c291840008152670a688906bd8b00006020820152601260408201526013606082015260046080820152601460a0820152610fa060c0820152610c2d83611550565b52610c3782611550565b50610c81610c78610c6f610c66610c5d6002880154610c55886114ff565b5151906115eb565b610c5587611520565b610c5586611530565b610c5585611540565b610c5584611550565b9060405191610c8f8361131e565b82526020820152601160408201526012606082015260036080820152600760a082015261083460c0820152610cc382611560565b52610ccd81611560565b505f5b8151811015610d1557600190610ce7600554611584565b600555610d0f610cf78285611570565b516001600160a01b03600687015460181c16906115f8565b01610cd0565b50506006810180547fffffffffffffff00ffffffffffffffffffffffffffffffffffffffffffffffff1678010000000000000000000000000000000000000000000000001790556002905b015460405190815233907f14ac6d84304037c1b2b045bc0ec013c584edaf1f3881c8c837c9c34c336a87b3602060043592a3005b908167042a2b5c291840006002931180610ec2575b15610dd3575060018101805460ff191660041790555b60068101805460ff60b81b19169055610d60565b6701bc71c98566c000811180610eb0575b15610dff575060018101805460ff191660031790555b610dbf565b66a03a36075ec000811180610e9e575b15610e28575060018101805460ff191683179055610dbf565b6635a55eb81bc000811180610e8d575b15610e52575060018101600160ff19825416179055610dbf565b6611c37937e080008110159081610e7b575b5015610dfa5760018101805460ff19169055610dbf565b66354a6ba7a180009150111583610e64565b50669fdf42f6e48000811115610e38565b506701bc16d674ec8000811115610e0f565b50670429d069189e0000811115610de4565b506001610da9565b634e487b7160e01b5f52601160045260245ffd5b606460405162461bcd60e51b815260206004820152601e60248201527f4e6f74207265616368696e672074686520636f6e7472616374207465726d00006044820152fd5b606460405162461bcd60e51b815260206004820152601460248201527f506c616e74206973206e6f742061646f707465640000000000000000000000006044820152fd5b606460405162461bcd60e51b815260206004820152600960248201527f4e6f74206f776e657200000000000000000000000000000000000000000000006044820152fd5b606460405162461bcd60e51b815260206004820152601060248201527f496e76616c696420706c616e74204944000000000000000000000000000000006044820152fd5b3461028d575f36600319011261028d5760055461100a816114b0565b905f905f5b818110611063575050611021816114b0565b915f5b82811061103957604051806102fa86826112d5565b8061104660019284611570565b516110518287611570565b5261105c8186611570565b5001611024565b805f52600360205260405f2060ff600682015460b81c1615611089575b5060010161100f565b600191936110996110ae926113f1565b6110a38288611570565b5261035a8187611570565b9290611080565b3461028d575f36600319011261028d576110cd6115a8565b5f6001600160a01b03815473ffffffffffffffffffffffffffffffffffffffff1981168355167f8be0079c531659141344cd1fd0a4f28419497f9722a3daafe3b4186f6b6457e08280a3005b3461028d57602036600319011261028d5761113261138d565b506004355f52600360205261018061114c60405f206113f1565b611159604051809261123c565bf35b3461028d576020908160031936011261028d576001600160a01b0361117e611205565b165f526004825260405f2080548083528383019081925f52845f20905f5b868282106111f15786866111b28288038361136b565b60405192839281840190828552518091526040840192915f5b8281106111da57505050500390f35b8351855286955093810193928101926001016111cb565b83548552909301926001928301920161119c565b600435906001600160a01b038216820361028d57565b9060058210156112285752565b634e487b7160e01b5f52602160045260245ffd5b805182526112526020820151602084019061121b565b604081015160408301526060810151606083015260ff608082015116608083015260ff60a08201511660a083015260c081015160c083015260ff60e08201511660e083015261010061ffff8183015116908301526101206001600160a01b0381830151169083015261014080820151151590830152610160809101511515910152565b60209060206040818301928281528551809452019301915f5b8281106112fc575050505090565b909192938261018082611312600194895161123c565b019501939291016112ee565b60e0810190811067ffffffffffffffff82111761133a57604052565b634e487b7160e01b5f52604160045260245ffd5b610180810190811067ffffffffffffffff82111761133a57604052565b90601f8019910116810190811067ffffffffffffffff82111761133a57604052565b6040519061139a8261134e565b5f610160838281528260208201528260408201528260608201528260808201528260a08201528260c08201528260e08201528261010082015282610120820152826101408201520152565b60058210156112285752565b906040516113fe8161134e565b610160819380548352600660ff9161141f83600183015416602087016113e5565b6002810154604086015260038101546060860152826004820154818116608088015260081c1660a0860152600581015460c0860152015481811660e085015261ffff8160081c166101008501526001600160a01b038160181c16610120850152818160b81c16151561014085015260c01c161515910152565b67ffffffffffffffff811161133a5760051b60200190565b906114ba82611498565b6114c7604051918261136b565b82815280926114d8601f1991611498565b01905f5b8281106114e857505050565b6020906114f361138d565b828285010152016114dc565b80511561150c5760200190565b634e487b7160e01b5f52603260045260245ffd5b80516001101561150c5760400190565b80516002101561150c5760600190565b80516003101561150c5760800190565b80516004101561150c5760a00190565b80516005101561150c5760c00190565b805182101561150c5760209160051b010190565b5f198114610eca5760010190565b906005811015611228575f5260205260405f2090565b6001600160a01b035f541633036115bb57565b60246040517f118cdaa7000000000000000000000000000000000000000000000000000000008152336004820152fd5b91908203918211610eca57565b6005805490925f1982101561182157825160208401519160ff908160408701511694826060880151166080880151938985101561122857895f9788978b9a61ffff60c08660a08f0151169d01511695604051936116548561134e565b888552611665602086019b8c6113e5565b60408501938452606085019081526080850192835260a0850191825260c08501938c855260e086019e8f5261010086019889526101208601996001600160a01b03809c168b5261014087019d8e5261016087019e8f525f52600360205260405f2095518655600186019b5196871015611228576117779b6006978960ff198354169116179055516002860155516003850155856004850192511661ff008354925160081b169161ffff191617179055518c8201550197511662ffff008854925160081b169162ffffff1916171786555116849076ffffffffffffffffffffffffffffffffffffffff0000001976ffffffffffffffffffffffffffffffffffffffff00000083549260181b169116179055565b511515907fffffffffffffff0000ffffffffffffffffffffffffffffffffffffffffffffff77ff000000000000000000000000000000000000000000000078ff00000000000000000000000000000000000000000000000085549351151560c01b169360b81b169116171790556117ee8254611584565b80925551906040519182527f3c7450b5b54d32b4163bbab3477be25d90dec07e4e10a7a7717c1463ae336b3660203093a3565b606460405162461bcd60e51b815260206004820152601160248201527f506c616e74204944206f766572666c6f770000000000000000000000000000006044820152fdfea26469706673582212200c1671438ee4c57d526de82ccc19cadd6018f4a2d2181e3a1e492b92615ad7ee64736f6c63430008180033",
  "linkReferences": {},
  "deployedLinkReferences": {}
}