{
  "_format": "hh-sol-artifact-1",
  "contractName": "PlantMarket",
  "sourceName": "contracts/PlantMarket.sol",
  "abi": [
    {
      "inputs": [
        {
          "internalType": "address",
          "name": "tokenContractAddress",
          "type": "address"
        }
      ],
      "stateMutability": "nonpayable",
      "type": "constructor"
    },
    {
      "inputs": [],
      "name": "InsufficientTokens",
      "type": "error"
    },
    {
      "inputs": [],
      "name": "InvalidAdoptionPrice",
      "type": "error"
    },
    {
      "inputs": [],
      "name": "InvalidPlantID",
      "type": "error"
    },
    {
      "inputs": [],
      "name": "InvalidPlantType",
      "type": "error"
    },
    {
      "inputs": [],
      "name": "MarketNoHavedThePlant",
      "type": "error"
    },
    {
      "inputs": [],
      "name": "NotAdoptionTime",
      "type": "error"
    },
    {
      "inputs": [],
      "name": "NotOwner",
      "type": "error"
    },
    {
      "inputs": [],
      "name": "NotReachingContractTerm",
      "type": "error"
    },
    {
      "inputs": [],
      "name": "OnlyScheduleAdoptionOncePerDay",
      "type": "error"
    },
    {
      "inputs": [
        {
          "internalType": "address",
          "name": "owner",
          "type": "address"
        }
      ],
      "name": "OwnableInvalidOwner",
      "type": "error"
    },
    {
      "inputs": [
        {
          "internalType": "address",
          "name": "account",
          "type": "address"
        }
      ],
      "name": "OwnableUnauthorizedAccount",
      "type": "error"
    },
    {
      "inputs": [],
      "name": "PlantAdoptedError",
      "type": "error"
    },
    {
      "inputs": [],
      "name": "PlantAlreadyAdopted",
      "type": "error"
    },
    {
      "inputs": [],
      "name": "PlantAlreadySplit",
      "type": "error"
    },
    {
      "inputs": [],
      "name": "PlantIDOverflow",
      "type": "error"
    },
    {
      "inputs": [],
      "name": "PlantNotAdopted",
      "type": "error"
    },
    {
      "inputs": [],
      "name": "ReentrancyGuardReentrantCall",
      "type": "error"
    },
    {
      "inputs": [],
      "name": "TransferFailed",
      "type": "error"
    },
    {
      "anonymous": false,
      "inputs": [
        {
          "indexed": true,
          "internalType": "address",
          "name": "previousOwner",
          "type": "address"
        },
        {
          "indexed": true,
          "internalType": "address",
          "name": "newOwner",
          "type": "address"
        }
      ],
      "name": "OwnershipTransferred",
      "type": "event"
    },
    {
      "anonymous": false,
      "inputs": [
        {
          "indexed": true,
          "internalType": "uint256",
          "name": "plantId",
          "type": "uint256"
        },
        {
          "indexed": true,
          "internalType": "address",
          "name": "owner",
          "type": "address"
        },
        {
          "indexed": false,
          "internalType": "enum PlantMarket.PlantType",
          "name": "plantType",
          "type": "uint8"
        },
        {
          "indexed": false,
          "internalType": "uint256",
          "name": "adoptionTime",
          "type": "uint256"
        }
      ],
      "name": "PlantAdopted",
      "type": "event"
    },
    {
      "anonymous": false,
      "inputs": [
        {
          "indexed": true,
          "internalType": "uint256",
          "name": "plantId",
          "type": "uint256"
        },
        {
          "indexed": true,
          "internalType": "address",
          "name": "seller",
          "type": "address"
        },
        {
          "indexed": false,
          "internalType": "uint256",
          "name": "price",
          "type": "uint256"
        }
      ],
      "name": "PlantCreated",
      "type": "event"
    },
    {
      "anonymous": false,
      "inputs": [
        {
          "indexed": true,
          "internalType": "uint256",
          "name": "plantId",
          "type": "uint256"
        },
        {
          "indexed": true,
          "internalType": "address",
          "name": "seller",
          "type": "address"
        },
        {
          "indexed": false,
          "internalType": "uint256",
          "name": "price",
          "type": "uint256"
        }
      ],
      "name": "PlantListed",
      "type": "event"
    },
    {
      "anonymous": false,
      "inputs": [
        {
          "indexed": true,
          "internalType": "uint256",
          "name": "plantId",
          "type": "uint256"
        },
        {
          "indexed": true,
          "internalType": "address",
          "name": "buyer",
          "type": "address"
        },
        {
          "indexed": true,
          "internalType": "address",
          "name": "seller",
          "type": "address"
        },
        {
          "indexed": false,
          "internalType": "uint256",
          "name": "price",
          "type": "uint256"
        }
      ],
      "name": "PlantSold",
      "type": "event"
    },
    {
      "inputs": [
        {
          "internalType": "uint256",
          "name": "_plantId",
          "type": "uint256"
        }
      ],
      "name": "adoptPlant",
      "outputs": [],
      "stateMutability": "payable",
      "type": "function"
    },
    {
      "inputs": [
        {
          "components": [
            {
              "internalType": "enum PlantMarket.PlantType",
              "name": "plantType",
              "type": "uint8"
            },
            {
              "internalType": "uint256",
              "name": "minEth",
              "type": "uint256"
            },
            {
              "internalType": "uint256",
              "name": "maxEth",
              "type": "uint256"
            }
          ],
          "internalType": "struct PlantMarket.PlantDTO",
          "name": "newPlantDTO",
          "type": "tuple"
        },
        {
          "internalType": "address",
          "name": "_owner",
          "type": "address"
        }
      ],
      "name": "createPlant",
      "outputs": [],
      "stateMutability": "nonpayable",
      "type": "function"
    },
    {
      "inputs": [],
      "name": "getMarketListings",
      "outputs": [
        {
          "components": [
            {
              "internalType": "uint256",
              "name": "plantId",
              "type": "uint256"
            },
            {
              "internalType": "enum PlantMarket.PlantType",
              "name": "plantType",
              "type": "uint8"
            },
            {
              "internalType": "uint256",
              "name": "valueEth",
              "type": "uint256"
            },
            {
              "internalType": "uint256",
              "name": "adoptedTimestamp",
              "type": "uint256"
            },
            {
              "internalType": "address",
              "name": "owner",
              "type": "address"
            },
            {
              "internalType": "bool",
              "name": "isAdopted",
              "type": "bool"
            },
            {
              "internalType": "bool",
              "name": "isSplit",
              "type": "bool"
            }
          ],
          "internalType": "struct PlantMarket.Plant[]",
          "name": "",
          "type": "tuple[]"
        }
      ],
      "stateMutability": "view",
      "type": "function"
    },
    {
      "inputs": [
        {
          "internalType": "uint256",
          "name": "_plantId",
          "type": "uint256"
        }
      ],
      "name": "getPlantInfoById",
      "outputs": [
        {
          "components": [
            {
              "internalType": "uint256",
              "name": "plantId",
              "type": "uint256"
            },
            {
              "internalType": "enum PlantMarket.PlantType",
              "name": "plantType",
              "type": "uint8"
            },
            {
              "internalType": "uint256",
              "name": "valueEth",
              "type": "uint256"
            },
            {
              "internalType": "uint256",
              "name": "adoptedTimestamp",
              "type": "uint256"
            },
            {
              "internalType": "address",
              "name": "owner",
              "type": "address"
            },
            {
              "internalType": "bool",
              "name": "isAdopted",
              "type": "bool"
            },
            {
              "internalType": "bool",
              "name": "isSplit",
              "type": "bool"
            }
          ],
          "internalType": "struct PlantMarket.Plant",
          "name": "",
          "type": "tuple"
        }
      ],
      "stateMutability": "view",
      "type": "function"
    },
    {
      "inputs": [
        {
          "internalType": "address",
          "name": "_user",
          "type": "address"
        },
        {
          "internalType": "bool",
          "name": "includeSplit",
          "type": "bool"
        }
      ],
      "name": "getUserAdoptedPlants",
      "outputs": [
        {
          "components": [
            {
              "internalType": "uint256",
              "name": "plantId",
              "type": "uint256"
            },
            {
              "internalType": "enum PlantMarket.PlantType",
              "name": "plantType",
              "type": "uint8"
            },
            {
              "internalType": "uint256",
              "name": "valueEth",
              "type": "uint256"
            },
            {
              "internalType": "uint256",
              "name": "adoptedTimestamp",
              "type": "uint256"
            },
            {
              "internalType": "address",
              "name": "owner",
              "type": "address"
            },
            {
              "internalType": "bool",
              "name": "isAdopted",
              "type": "bool"
            },
            {
              "internalType": "bool",
              "name": "isSplit",
              "type": "bool"
            }
          ],
          "internalType": "struct PlantMarket.Plant[]",
          "name": "",
          "type": "tuple[]"
        }
      ],
      "stateMutability": "view",
      "type": "function"
    },
    {
      "inputs": [
        {
          "internalType": "address",
          "name": "_user",
          "type": "address"
        }
      ],
      "name": "getUserAdoptionPlantIds",
      "outputs": [
        {
          "internalType": "uint256[]",
          "name": "",
          "type": "uint256[]"
        }
      ],
      "stateMutability": "view",
      "type": "function"
    },
    {
      "inputs": [
        {
          "internalType": "address",
          "name": "_user",
          "type": "address"
        },
        {
          "internalType": "enum PlantMarket.PlantType",
          "name": "_plantType",
          "type": "uint8"
        }
      ],
      "name": "getUserAdoptionRecord",
      "outputs": [
        {
          "internalType": "uint256",
          "name": "",
          "type": "uint256"
        }
      ],
      "stateMutability": "view",
      "type": "function"
    },
    {
      "inputs": [
        {
          "internalType": "uint256",
          "name": "plantId",
          "type": "uint256"
        }
      ],
      "name": "list",
      "outputs": [],
      "stateMutability": "nonpayable",
      "type": "function"
    },
    {
      "inputs": [],
      "name": "owner",
      "outputs": [
        {
          "internalType": "address",
          "name": "",
          "type": "address"
        }
      ],
      "stateMutability": "view",
      "type": "function"
    },
    {
      "inputs": [
        {
          "internalType": "uint256",
          "name": "",
          "type": "uint256"
        }
      ],
      "name": "plants",
      "outputs": [
        {
          "internalType": "uint256",
          "name": "plantId",
          "type": "uint256"
        },
        {
          "internalType": "enum PlantMarket.PlantType",
          "name": "plantType",
          "type": "uint8"
        },
        {
          "internalType": "uint256",
          "name": "valueEth",
          "type": "uint256"
        },
        {
          "internalType": "uint256",
          "name": "adoptedTimestamp",
          "type": "uint256"
        },
        {
          "internalType": "address",
          "name": "owner",
          "type": "address"
        },
        {
          "internalType": "bool",
          "name": "isAdopted",
          "type": "bool"
        },
        {
          "internalType": "bool",
          "name": "isSplit",
          "type": "bool"
        }
      ],
      "stateMutability": "view",
      "type": "function"
    },
    {
      "inputs": [
        {
          "internalType": "enum PlantMarket.PlantType",
          "name": "",
          "type": "uint8"
        }
      ],
      "name": "priceRanges",
      "outputs": [
        {
          "internalType": "uint256",
          "name": "minEth",
          "type": "uint256"
        },
        {
          "internalType": "uint256",
          "name": "maxEth",
          "type": "uint256"
        },
        {
          "internalType": "uint8",
          "name": "startTime",
          "type": "uint8"
        },
        {
          "internalType": "uint8",
          "name": "endTime",
          "type": "uint8"
        },
        {
          "internalType": "uint8",
          "name": "profitDays",
          "type": "uint8"
        },
        {
          "internalType": "uint16",
          "name": "profitRate",
          "type": "uint16"
        },
        {
          "internalType": "uint256",
          "name": "rewardAmounts",
          "type": "uint256"
        }
      ],
      "stateMutability": "view",
      "type": "function"
    },
    {
      "inputs": [],
      "name": "renounceOwnership",
      "outputs": [],
      "stateMutability": "nonpayable",
      "type": "function"
    },
    {
      "inputs": [
        {
          "internalType": "enum PlantMarket.PlantType",
          "name": "plantType",
          "type": "uint8"
        }
      ],
      "name": "scheduleAdoption",
      "outputs": [],
      "stateMutability": "nonpayable",
      "type": "function"
    },
    {
      "inputs": [
        {
          "internalType": "address",
          "name": "newOwner",
          "type": "address"
        }
      ],
      "name": "transferOwnership",
      "outputs": [],
      "stateMutability": "nonpayable",
      "type": "function"
    }
  ],
  "bytecode": "0x6080346200040b57601f62001c8f38819003918201601f19168301916001600160401b038311848410176200040f578084926020946040528339810103126200040b57516001600160a01b03808216918290036200040b573315620003f3575f5460018060a01b03199133838316175f553391167f8be0079c531659141344cd1fd0a4f28419497f9722a3daafe3b4186f6b6457e05f80a3600180556002541617600255620000ad62000423565b6611c37937e080008152600360c0602083019266354a6ba7a180008452604081016007815260ff6060830191601783526007608085015261083460a08501526103e8858501525f8052600760205260405f209684518855516001880155511662ff00006002870154925161ff0060808601519364ffff00000060a088015160181b169564ffffffffff1916179160081b16179160101b161717600285015501519101556200015a62000423565b6635a55eb81bc0008152600360208201669fdf42f6e480008152604083016007815260608401601781526080850184815260a0860190610384825260c0870194610bb8865260015f52600760205260405f209751885551600188015560ff6002880194511664ffff00000062ff000061ff008754965160081b16935160101b16935160181b169364ffffffffff191617171717905551910155620001fd62000423565b66a03a36075ec00081526003602082016701bc16d674ec8000815260408301600781526060840160178152608085016005815260a08601906104e2825260c0870194611388865260025f52600760205260405f209751885551600188015560ff6002880194511664ffff00000062ff000061ff008754965160081b16935160101b16935160181b169364ffffffffff191617171717905551910155620002a262000423565b6701bc71c98566c0008152600360208201670429d069189e000081526040830160078152606084016017815260808501600c815260a0860190610834825260c08701946127108652865f52600760205260405f209751885551600188015560ff6002880194511664ffff00000062ff000061ff008754965160081b16935160101b16935160181b169364ffffffffff1916171717179055519101556200034762000423565b67042a2b5c291840008152600360208201670a688906bd8b0000815260408301600781526060840160178152608085016014815260a0860190610fa0825260c0870194614e20865260045f52600760205260405f209751885551600188015560ff6002880194511664ffff00000062ff000061ff008754965160081b16935160101b16935160181b169364ffffffffff19161717171790555191015560405161184b9081620004448239f35b604051631e4fbdf760e01b81525f6004820152602490fd5b5f80fd5b634e487b7160e01b5f52604160045260245ffd5b6040519060e082016001600160401b038111838210176200040f5760405256fe6080604081815260049182361015610015575f80fd5b5f905f3560e01c908163227a5c481461124b575080634f05caa3146111a157806365f5d1b414611162578063715018a6146110fe57806378c0dc921461103957806380c9419e14610b055780638da5cb5b14610adf5780638dd2361c14610a5f578063abee210c1461088f578063c0cdaf51146103df578063d06d55ed14610268578063d8156ba6146101ec578063f2fde38b1461013f5763fa23bf17146100bb575f80fd5b3461013c578160031936011261013c576100d361132a565b60243593600585101561013857808511610111575092600183610109936001600160a01b0360209716815260058752200161142d565b549051908152f35b83517f36a7e4e5000000000000000000000000000000000000000000000000000000008152fd5b8280fd5b80fd5b5091346101385760203660031901126101385761015a61132a565b906101636117d2565b6001600160a01b038092169283156101bd5750505f548273ffffffffffffffffffffffffffffffffffffffff198216175f55167f8be0079c531659141344cd1fd0a4f28419497f9722a3daafe3b4186f6b6457e05f80a380f35b908460249251917f1e4fbdf7000000000000000000000000000000000000000000000000000000008352820152fd5b509134610138576020366003190112610138573591600583101561013c575061021660e0926113ff565b9061ffff82549260018101549260036002830154920154938151958652602086015260ff82169085015260ff8160081c16606085015260ff8160101c16608085015260181c1660a083015260c0820152f35b5091903461013857806003193601126101385761028361132a565b9160243593841594851581036103db57600654956001600160a01b039586169583805b89811061036a57506102b790611762565b9684805b8a81106102d3578851806102cf8c826113b7565b0390f35b808252876020528989832089810154878688831614918261035b575b8261033c575b5050610306575b50506001016102bb565b97610332916103218261031b6001969c6116e1565b926117b1565b5261032c818d6117b1565b506114be565b969050895f6102fc565b8a92509061034d575b50875f6102f5565b60ff915060a81c165f610345565b915060ff8260a01c16916102ef565b80865286602052868887200154848a8583161491826103cc575b826103ad575b5050610399575b6001016102a6565b906103a56001916114be565b919050610391565b879250906103be575b50845f61038a565b60ff915060a81c165f6103b6565b915060ff8260a01c1691610384565b5080fd5b50906020806003193601126101385783356001926002845414610867576002845581855285835280852086810180549160ff92838160a01c1661083f5760a81c8316610817578681019183835416610436816113ff565b5434108015610803575b6107db5761708042018042116107c857610e106018910406856002610464846113ff565b01541681101590816107ad575b5015610785576104826003916113ff565b0154670de0b6b3a764000090818102918183041490151715610772576001600160a01b0390816002541687517f70a082310000000000000000000000000000000000000000000000000000000081528d33908201528a81602481855afa908115610768579083918e91610733575b501061070b57803b156107075787517f79cc679000000000000000000000000000000000000000000000000000000000815233818f019081526020810193909352918c91839182908490829060400103925af180156106fd57908b916106e5575b508080809334908654165af13d156106e0573d67ffffffffffffffff81116106cd57865190610589601f8201601f19168b0183611308565b81528a893d92013e5b156106a5577401000000000000000000000000000000000000000081547fffffffffffffffffffffff00000000000000000000000000000000000000000060ff60a01b1933169116171790556105ea83835416611416565b8054908115610692577f2b6b59e9e3b93bd4ff38cc3502e1fa2606705a155cb514545fff555a841bd4c9969798999a505f198092019161062a838361145c565b909182549160031b1b19169055556003429101553388526005865261065185848a20611485565b3388526005865261066a87848a2001838354169061142d565b61067481546114be565b905554169361068582518096611340565b42908501523393a3805580f35b60248a60318d634e487b7160e01b835252fd5b8985517f90b8ec18000000000000000000000000000000000000000000000000000000008152fd5b60248b60418e634e487b7160e01b835252fd5b610592565b6106ee906112d8565b6106f957895f610551565b8980fd5b87513d8d823e3d90fd5b8b80fd5b8c88517ff1b7e15e000000000000000000000000000000000000000000000000000000008152fd5b8092508c8092503d8311610761575b61074c8183611308565b8101031261075d578290515f6104f0565b5f80fd5b503d610742565b89513d8f823e3d90fd5b60248a60118d634e487b7160e01b835252fd5b8a86517fad7abdcb000000000000000000000000000000000000000000000000000000008152fd5b90508560026107bb846113ff565b015460081c16115f610471565b60248b60118e634e487b7160e01b835252fd5b8a86517f6b0574f2000000000000000000000000000000000000000000000000000000008152fd5b508861080e826113ff565b01543411610440565b8884517f0f6a68e3000000000000000000000000000000000000000000000000000000008152fd5b8985517f1164df37000000000000000000000000000000000000000000000000000000008152fd5b8590517f3ee5aeb5000000000000000000000000000000000000000000000000000000008152fd5b5091903461075d57602036600319011261075d57813591600583101561075d576108b883611416565b5415610a38576001600160a01b0360025416928251907f31ed9d5d0000000000000000000000000000000000000000000000000000000082526020828481885afa918215610a2e575f926109fa575b506003610913826113ff565b0154670de0b6b3a764000092838202918083048514901517156109e757101561093a578580f35b6109456003916113ff565b01548181029181830414901517156109d457833b1561075d5782517f40c10f19000000000000000000000000000000000000000000000000000000008152339281019283526020830191909152925f9184919082908490829060400103925af19081156109cb57506109ba575b808080808580f35b6109c491506112d8565b5f806109b2565b513d5f823e3d90fd5b601182634e487b7160e01b5f525260245ffd5b601185634e487b7160e01b5f525260245ffd5b9091506020813d602011610a26575b81610a1660209383611308565b8101031261075d5751905f610907565b3d9150610a09565b84513d5f823e3d90fd5b90517ff15bb2f8000000000000000000000000000000000000000000000000000000008152fd5b82843461075d57602036600319011261075d5760ff60e09282355f5282602052805f208054938360018301541692610aae60028401549260038501549401549482519788526020880190611340565b85015260608401526001600160a01b0381166080840152818160a01c16151560a084015260a81c16151560c0820152f35b823461075d575f36600319011261075d576020906001600160a01b035f54169051908152f35b50503461075d5760208060031936011261075d57823590600654821161101157815f52838152825f2084810180546001600160a01b03908181163303610fe95760a01c60ff1615610fc25760038301549660018085019485549560ff87169660029b60ff8d610b738b6113ff565b015460101c1690603c820291808304603c1490151715610f875790610b97916117c5565b4210610f9a578b83019761ffff8d610bb08b54936113ff565b015460181c16808202908282041482151715610f875790612710610bd59204906117c5565b808955670a688906bd8b0000811115610e1b575050505087519860c08a018a811067ffffffffffffffff821117610e0857895260058a52868a0160a03682378a5115610df5575f90528951821015610de25781898b01528951811015610de25760608a0152885160031015610dcf57600360808a01528851821015610dcf578160a08a0152805f995f925b610d24575b5050508354978803978811610d1157508596610cc7917f14ac6d84304037c1b2b045bc0ec013c584edaf1f3881c8c837c9c34c336a87b396975191610ca9836112a8565b6003835286830152670429d069189e000089830152835416906114e0565b75010000000000000000000000000000000000000000007fffffffffffffffffffff00ffffffffffffffffffffffffffffffffffffffffff8254161790555b5493519384523393a3005b601190634e487b7160e01b5f525260245ffd5b90919981515f1981019081116109e7578b1015610dc9579082610d648193610d5d610d588f610d5390876117b1565b611443565b6113ff565b54906117c5565b9b610dc28c8b610d77610d5385886117b1565b91610d88610d58610d53878a6117b1565b5486610d9a610d58610d53898c6117b1565b015492610db2835195610dac876112a8565b86611450565b840152820152888a5416906114e0565b0192610c60565b99610c65565b603282634e487b7160e01b5f525260245ffd5b603283634e487b7160e01b5f525260245ffd5b603284634e487b7160e01b5f525260245ffd5b604184634e487b7160e01b5f525260245ffd5b610e8d97929396509b60ff94610e8596928e7f14ac6d84304037c1b2b045bc0ec013c584edaf1f3881c8c837c9c34c336a87b39d9e9f67042a2b5c291840001080610f80575b15610e92575050505083198354161782555b60ff60a01b1981541690555416611416565b905490611485565b610d06565b90919293506701bc71c98566c000811180610f6e575b15610ec0575050505060038319835416178255610e73565b66a03a36075ec000811180610f5c575b15610ee5575050508319835416178255610e73565b909192506635a55eb81bc000811180610f4b575b15610f0d5750508319835416178255610e73565b9091506611c37937e080008110159081610f39575b50610f2e575b50610e73565b83191682555f610f28565b66354a6ba7a18000915011155f610f22565b50669fdf42f6e48000811115610ef9565b506701bc16d674ec8000811115610ed0565b50670429d069189e0000811115610ea8565b5082610e61565b601187634e487b7160e01b5f525260245ffd5b848b517f95c8b03d000000000000000000000000000000000000000000000000000000008152fd5b8686517e9c5685000000000000000000000000000000000000000000000000000000008152fd5b8787517f30cd7471000000000000000000000000000000000000000000000000000000008152fd5b5050517fe8fd6b9d000000000000000000000000000000000000000000000000000000008152fd5b82843461075d575f36600319011261075d576006545f805b8281106110c9575061106290611762565b915f805b83811061107a578551806102cf87826113b7565b805f5282602052855f2060ff8482015460a01c161561109d575b50600101611066565b600191926110ad6110c2926116e1565b6110b782896117b1565b5261032c81886117b1565b9190611094565b805f528360205260ff84865f20015460a01c16156110ea575b600101611051565b906110f66001916114be565b9190506110e2565b3461075d575f36600319011261075d576111166117d2565b5f6001600160a01b03815473ffffffffffffffffffffffffffffffffffffffff1981168355167f8be0079c531659141344cd1fd0a4f28419497f9722a3daafe3b4186f6b6457e08280a3005b50503461075d57602036600319011261075d5760e0916111806116ab565b5080355f5260205261119f611196825f206116e1565b91518092611361565bf35b823461075d5760208060031936011261075d57906001600160a01b036111c561132a565b165f5260058252805f208151928381835491828152019081935f52825f20905f5b81811061123757505050846111fc910385611308565b825181815293518185018190528493840192915f5b82811061122057505050500390f35b835185528695509381019392810192600101611211565b8254845292840192600192830192016111e6565b83853461075d5736600319016080811261075d5760601361075d5761126f836112a8565b35600581101561075d5782526024356020830152604435908201526064356001600160a01b038116810361075d576112a6916114e0565b005b6060810190811067ffffffffffffffff8211176112c457604052565b634e487b7160e01b5f52604160045260245ffd5b67ffffffffffffffff81116112c457604052565b60e0810190811067ffffffffffffffff8211176112c457604052565b90601f8019910116810190811067ffffffffffffffff8211176112c457604052565b600435906001600160a01b038216820361075d57565b90600582101561134d5752565b634e487b7160e01b5f52602160045260245ffd5b60c080918051845261137b60208201516020860190611340565b60408101516040850152606081015160608501526001600160a01b03608082015116608085015260a0810151151560a085015201511515910152565b60209060206040818301928281528551809452019301915f5b8281106113de575050505090565b909192938260e0826113f36001948951611361565b019501939291016113d0565b600581101561134d575f52600760205260405f2090565b600581101561134d575f52600360205260405f2090565b90600581101561134d575f5260205260405f2090565b51600581101561134d5790565b600582101561134d5752565b8054821015611471575f5260205f2001905f90565b634e487b7160e01b5f52603260045260245ffd5b8054680100000000000000008110156112c4576114a79160018201815561145c565b819291549060031b91821b915f19901b1916179055565b5f1981146114cc5760010190565b634e487b7160e01b5f52601160045260245ffd5b8051600581101561134d576114f4906113ff565b90604092835192611504846112ec565b60038154918286526001810154602087015261ffff600282015460ff81168989015260ff8160081c16606089015260ff8160101c16608089015260181c1660a0870152015460c0850152600654835192600584101561134d57865193611569856112ec565b82855261157a602086019182611450565b87850193845260608501945f865260808101956001600160a01b03809416875260a08201955f875260c08301955f87525f5260046020528a5f209251835560018301935193600585101561134d5760049460ff80198354169116179055516002830155516003820155019351167fffffffffffffffffffff0000000000000000000000000000000000000000000075ff00000000000000000000000000000000000000000074ff000000000000000000000000000000000000000086549551151560a01b169351151560a81b169316171717905551600581101561134d5761166461166d91611416565b60065490611485565b6116786006546114be565b90816006555191519182527f3c7450b5b54d32b4163bbab3477be25d90dec07e4e10a7a7717c1463ae336b3660203093a3565b604051906116b8826112ec565b5f60c0838281528260208201528260408201528260608201528260808201528260a08201520152565b906040516116ee816112ec565b60c060ff600483958054855261170d8360018301541660208701611450565b600281015460408601526003810154606086015201546001600160a01b0381166080850152818160a01c16151560a085015260a81c161515910152565b67ffffffffffffffff81116112c45760051b60200190565b9061176c8261174a565b6117796040519182611308565b828152809261178a601f199161174a565b01905f5b82811061179a57505050565b6020906117a56116ab565b8282850101520161178e565b80518210156114715760209160051b010190565b919082018092116114cc57565b6001600160a01b035f541633036117e557565b60246040517f118cdaa7000000000000000000000000000000000000000000000000000000008152336004820152fdfea2646970667358221220295b5e7b9082f5b1795e40e59029a56962f483869f4835a61f83d47a8475022264736f6c63430008180033",
  "linkReferences": {},
  "deployedLinkReferences": {}
}