{
  "_format": "hh-sol-artifact-1",
  "contractName": "PlantMarketV1",
  "sourceName": "contracts/PlantMarketV1.sol",
  "abi": [
    {
      "inputs": [
        {
          "internalType": "address",
          "name": "tokenContractAddress",
          "type": "address"
        }
      ],
      "stateMutability": "nonpayable",
      "type": "constructor"
    },
    {
      "inputs": [],
      "name": "InsufficientTokens",
      "type": "error"
    },
    {
      "inputs": [],
      "name": "InvalidAdoptionPrice",
      "type": "error"
    },
    {
      "inputs": [],
      "name": "InvalidPlantID",
      "type": "error"
    },
    {
      "inputs": [],
      "name": "InvalidPlantType",
      "type": "error"
    },
    {
      "inputs": [],
      "name": "NotAdoptionTime",
      "type": "error"
    },
    {
      "inputs": [],
      "name": "NotOwner",
      "type": "error"
    },
    {
      "inputs": [],
      "name": "NotReachingContractTerm",
      "type": "error"
    },
    {
      "inputs": [],
      "name": "OnlyScheduleAdoptionOncePerDay",
      "type": "error"
    },
    {
      "inputs": [
        {
          "internalType": "address",
          "name": "owner",
          "type": "address"
        }
      ],
      "name": "OwnableInvalidOwner",
      "type": "error"
    },
    {
      "inputs": [
        {
          "internalType": "address",
          "name": "account",
          "type": "address"
        }
      ],
      "name": "OwnableUnauthorizedAccount",
      "type": "error"
    },
    {
      "inputs": [],
      "name": "PlantAdoptedError",
      "type": "error"
    },
    {
      "inputs": [],
      "name": "PlantAlreadyAdopted",
      "type": "error"
    },
    {
      "inputs": [],
      "name": "PlantAlreadySplit",
      "type": "error"
    },
    {
      "inputs": [],
      "name": "PlantIDOverflow",
      "type": "error"
    },
    {
      "inputs": [],
      "name": "PlantNotAdopted",
      "type": "error"
    },
    {
      "inputs": [],
      "name": "ReentrancyGuardReentrantCall",
      "type": "error"
    },
    {
      "inputs": [],
      "name": "TransferFailed",
      "type": "error"
    },
    {
      "anonymous": false,
      "inputs": [
        {
          "indexed": true,
          "internalType": "address",
          "name": "previousOwner",
          "type": "address"
        },
        {
          "indexed": true,
          "internalType": "address",
          "name": "newOwner",
          "type": "address"
        }
      ],
      "name": "OwnershipTransferred",
      "type": "event"
    },
    {
      "anonymous": false,
      "inputs": [
        {
          "indexed": true,
          "internalType": "uint256",
          "name": "plantId",
          "type": "uint256"
        },
        {
          "indexed": true,
          "internalType": "address",
          "name": "owner",
          "type": "address"
        },
        {
          "indexed": false,
          "internalType": "enum PlantMarketV1.PlantType",
          "name": "plantType",
          "type": "uint8"
        },
        {
          "indexed": false,
          "internalType": "uint256",
          "name": "adoptionTime",
          "type": "uint256"
        }
      ],
      "name": "PlantAdopted",
      "type": "event"
    },
    {
      "anonymous": false,
      "inputs": [
        {
          "indexed": true,
          "internalType": "uint256",
          "name": "plantId",
          "type": "uint256"
        },
        {
          "indexed": true,
          "internalType": "address",
          "name": "seller",
          "type": "address"
        },
        {
          "indexed": false,
          "internalType": "uint256",
          "name": "price",
          "type": "uint256"
        }
      ],
      "name": "PlantCreated",
      "type": "event"
    },
    {
      "anonymous": false,
      "inputs": [
        {
          "indexed": true,
          "internalType": "uint256",
          "name": "plantId",
          "type": "uint256"
        },
        {
          "indexed": true,
          "internalType": "address",
          "name": "seller",
          "type": "address"
        },
        {
          "indexed": false,
          "internalType": "uint256",
          "name": "price",
          "type": "uint256"
        }
      ],
      "name": "PlantListed",
      "type": "event"
    },
    {
      "anonymous": false,
      "inputs": [
        {
          "indexed": true,
          "internalType": "uint256",
          "name": "plantId",
          "type": "uint256"
        },
        {
          "indexed": true,
          "internalType": "address",
          "name": "buyer",
          "type": "address"
        },
        {
          "indexed": true,
          "internalType": "address",
          "name": "seller",
          "type": "address"
        },
        {
          "indexed": false,
          "internalType": "uint256",
          "name": "price",
          "type": "uint256"
        }
      ],
      "name": "PlantSold",
      "type": "event"
    },
    {
      "inputs": [
        {
          "internalType": "uint256",
          "name": "_plantId",
          "type": "uint256"
        }
      ],
      "name": "adoptPlant",
      "outputs": [],
      "stateMutability": "payable",
      "type": "function"
    },
    {
      "inputs": [
        {
          "components": [
            {
              "internalType": "enum PlantMarketV1.PlantType",
              "name": "plantType",
              "type": "uint8"
            },
            {
              "internalType": "uint256",
              "name": "minEth",
              "type": "uint256"
            },
            {
              "internalType": "uint256",
              "name": "maxEth",
              "type": "uint256"
            }
          ],
          "internalType": "struct PlantMarketV1.PlantDTO",
          "name": "newPlantDTO",
          "type": "tuple"
        },
        {
          "internalType": "address",
          "name": "_owner",
          "type": "address"
        }
      ],
      "name": "createPlant",
      "outputs": [],
      "stateMutability": "nonpayable",
      "type": "function"
    },
    {
      "inputs": [],
      "name": "getLastPlantId",
      "outputs": [
        {
          "internalType": "uint256",
          "name": "",
          "type": "uint256"
        }
      ],
      "stateMutability": "view",
      "type": "function"
    },
    {
      "inputs": [],
      "name": "getMarketListings",
      "outputs": [
        {
          "components": [
            {
              "internalType": "uint256",
              "name": "plantId",
              "type": "uint256"
            },
            {
              "internalType": "enum PlantMarketV1.PlantType",
              "name": "plantType",
              "type": "uint8"
            },
            {
              "internalType": "uint256",
              "name": "valueEth",
              "type": "uint256"
            },
            {
              "internalType": "uint256",
              "name": "adoptedTimestamp",
              "type": "uint256"
            },
            {
              "internalType": "address",
              "name": "owner",
              "type": "address"
            },
            {
              "internalType": "bool",
              "name": "isAdopted",
              "type": "bool"
            },
            {
              "internalType": "bool",
              "name": "isSplit",
              "type": "bool"
            }
          ],
          "internalType": "struct PlantMarketV1.Plant[]",
          "name": "",
          "type": "tuple[]"
        }
      ],
      "stateMutability": "view",
      "type": "function"
    },
    {
      "inputs": [
        {
          "internalType": "uint256",
          "name": "_plantId",
          "type": "uint256"
        }
      ],
      "name": "getPlantInfoById",
      "outputs": [
        {
          "internalType": "uint256",
          "name": "plantId",
          "type": "uint256"
        },
        {
          "internalType": "enum PlantMarketV1.PlantType",
          "name": "plantType",
          "type": "uint8"
        },
        {
          "internalType": "uint256",
          "name": "valueEth",
          "type": "uint256"
        },
        {
          "internalType": "uint256",
          "name": "adoptedTimestamp",
          "type": "uint256"
        },
        {
          "internalType": "address",
          "name": "owner",
          "type": "address"
        },
        {
          "internalType": "bool",
          "name": "isAdopted",
          "type": "bool"
        },
        {
          "internalType": "bool",
          "name": "isSplit",
          "type": "bool"
        }
      ],
      "stateMutability": "view",
      "type": "function"
    },
    {
      "inputs": [
        {
          "internalType": "address",
          "name": "_user",
          "type": "address"
        },
        {
          "internalType": "bool",
          "name": "includeSplit",
          "type": "bool"
        }
      ],
      "name": "getUserAdoptedCurrentPlants",
      "outputs": [
        {
          "components": [
            {
              "internalType": "uint256",
              "name": "plantId",
              "type": "uint256"
            },
            {
              "internalType": "enum PlantMarketV1.PlantType",
              "name": "plantType",
              "type": "uint8"
            },
            {
              "internalType": "uint256",
              "name": "valueEth",
              "type": "uint256"
            },
            {
              "internalType": "uint256",
              "name": "adoptedTimestamp",
              "type": "uint256"
            },
            {
              "internalType": "address",
              "name": "owner",
              "type": "address"
            },
            {
              "internalType": "bool",
              "name": "isAdopted",
              "type": "bool"
            },
            {
              "internalType": "bool",
              "name": "isSplit",
              "type": "bool"
            }
          ],
          "internalType": "struct PlantMarketV1.Plant[]",
          "name": "",
          "type": "tuple[]"
        }
      ],
      "stateMutability": "view",
      "type": "function"
    },
    {
      "inputs": [
        {
          "internalType": "address",
          "name": "_user",
          "type": "address"
        }
      ],
      "name": "getUserAdoptionRecordPlantIds",
      "outputs": [
        {
          "internalType": "uint256[]",
          "name": "",
          "type": "uint256[]"
        }
      ],
      "stateMutability": "view",
      "type": "function"
    },
    {
      "inputs": [
        {
          "internalType": "uint256",
          "name": "plantId",
          "type": "uint256"
        }
      ],
      "name": "list",
      "outputs": [],
      "stateMutability": "nonpayable",
      "type": "function"
    },
    {
      "inputs": [],
      "name": "owner",
      "outputs": [
        {
          "internalType": "address",
          "name": "",
          "type": "address"
        }
      ],
      "stateMutability": "view",
      "type": "function"
    },
    {
      "inputs": [
        {
          "internalType": "uint256",
          "name": "",
          "type": "uint256"
        }
      ],
      "name": "plants",
      "outputs": [
        {
          "internalType": "uint256",
          "name": "plantId",
          "type": "uint256"
        },
        {
          "internalType": "enum PlantMarketV1.PlantType",
          "name": "plantType",
          "type": "uint8"
        },
        {
          "internalType": "uint256",
          "name": "valueEth",
          "type": "uint256"
        },
        {
          "internalType": "uint256",
          "name": "adoptedTimestamp",
          "type": "uint256"
        },
        {
          "internalType": "address",
          "name": "owner",
          "type": "address"
        },
        {
          "internalType": "bool",
          "name": "isAdopted",
          "type": "bool"
        },
        {
          "internalType": "bool",
          "name": "isSplit",
          "type": "bool"
        }
      ],
      "stateMutability": "view",
      "type": "function"
    },
    {
      "inputs": [
        {
          "internalType": "enum PlantMarketV1.PlantType",
          "name": "",
          "type": "uint8"
        }
      ],
      "name": "priceRanges",
      "outputs": [
        {
          "internalType": "uint256",
          "name": "minEth",
          "type": "uint256"
        },
        {
          "internalType": "uint256",
          "name": "maxEth",
          "type": "uint256"
        },
        {
          "internalType": "uint8",
          "name": "startTime",
          "type": "uint8"
        },
        {
          "internalType": "uint8",
          "name": "endTime",
          "type": "uint8"
        },
        {
          "internalType": "uint8",
          "name": "profitDays",
          "type": "uint8"
        },
        {
          "internalType": "uint16",
          "name": "profitRate",
          "type": "uint16"
        },
        {
          "internalType": "uint256",
          "name": "rewardAmounts",
          "type": "uint256"
        }
      ],
      "stateMutability": "view",
      "type": "function"
    },
    {
      "inputs": [],
      "name": "renounceOwnership",
      "outputs": [],
      "stateMutability": "nonpayable",
      "type": "function"
    },
    {
      "inputs": [
        {
          "internalType": "enum PlantMarketV1.PlantType",
          "name": "plantType",
          "type": "uint8"
        }
      ],
      "name": "scheduleAdoption",
      "outputs": [],
      "stateMutability": "nonpayable",
      "type": "function"
    },
    {
      "inputs": [
        {
          "internalType": "address",
          "name": "newOwner",
          "type": "address"
        }
      ],
      "name": "transferOwnership",
      "outputs": [],
      "stateMutability": "nonpayable",
      "type": "function"
    }
  ],
  "bytecode": "0x6080346200050557601f62001e8238819003918201601f19168301916001600160401b0383118484101762000509578084926020946040528339810103126200050557516001600160a01b038082169182900362000505573315620004ed575f5460018060a01b03199133838316175f553391167f8be0079c531659141344cd1fd0a4f28419497f9722a3daafe3b4186f6b6457e05f80a36001805560016006556002541617600255620000b26200051d565b6611c37937e08000815266354a6ba7a18000602082015260076040820152601760608201526007608082015261083460a08201526103e860c08201525f80526007602052600360c060405f2092805184556020810151600185015560ff60408201511660028501549062ff0000606084015161ff0060808601519364ffff00000060a088015160181b169564ffffffffff1916179160081b16179160101b16171760028501550151910155620001676200051d565b6635a55eb81bc0008152669fdf42f6e48000602082015260076040820152601760608201526003608082015261038460a0820152610bb860c082015260015f526007602052600360c060405f209280518455602081015160018501556002840160ff60408301511681549061ff00606085015160081b1662ff0000608086015160101b169164ffff00000060a087015160181b169364ffffffffff19161717171790550151910155620002196200051d565b66a03a36075ec00081526701bc16d674ec800060208201526007604082015260176060820152600160808201526101f460a082015261138860c082015260025f526007602052600360c060405f209280518455602081015160018501556002840160ff60408301511681549061ff00606085015160081b1662ff0000608086015160101b169164ffff00000060a087015160181b169364ffffffffff19161717171790550151910155620002cc6200051d565b66a03a36075ec00081526701bc16d674ec800060208201526007604082015260176060820152600560808201526104e260a082015261138860c082015260035f526007602052600360c060405f209280518455602081015160018501556002840160ff60408301511681549061ff00606085015160081b1662ff0000608086015160101b169164ffff00000060a087015160181b169364ffffffffff191617171717905501519101556200037f6200051d565b6701bc71c98566c0008152670429d069189e000060208201526007604082015260176060820152600c608082015261083460a082015261271060c082015260045f526007602052600360c060405f209280518455602081015160018501556002840160ff60408301511681549061ff00606085015160081b1662ff0000608086015160101b169164ffff00000060a087015160181b169364ffffffffff19161717171790550151910155620004336200051d565b67042a2b5c291840008152670a688906bd8b00006020820152600760408201526017606082015260146080820152610fa060a0820152614e2060c082015260055f526007602052600360c060405f209280518455602081015160018501556002840160ff60408301511681549061ff00606085015160081b1662ff0000608086015160101b169164ffff00000060a087015160181b169364ffffffffff1916171717179055015191015560405161194490816200053e8239f35b604051631e4fbdf760e01b81525f6004820152602490fd5b5f80fd5b634e487b7160e01b5f52604160045260245ffd5b6040519060e082016001600160401b03811183821017620005095760405256fe60806040818152600480361015610014575f80fd5b5f925f3560e01c908163227a5c48146111ea575080634173d071146111405780635ac9a43614610f9a57806365f5d1b414610eb0578063715018a614610e4c57806371f2954814610e2e57806378c0dc9214610d3357806380c9419e1461087b5780638da5cb5b146108555780638dd2361c146107f1578063abee210c14610673578063c0cdaf51146101e7578063d8156ba6146101695763f2fde38b146100ba575f80fd5b34610165576020366003190112610165576100d36112c9565b906100dc611794565b6001600160a01b038092169283156101365750505f548273ffffffffffffffffffffffffffffffffffffffff198216175f55167f8be0079c531659141344cd1fd0a4f28419497f9722a3daafe3b4186f6b6457e05f80a380f35b908460249251917f1e4fbdf7000000000000000000000000000000000000000000000000000000008352820152fd5b8280fd5b503461016557602036600319011261016557359160068310156101e4575061019260e0926113d9565b9061ffff82549260018101549260036002830154920154938151958652602086015260ff82169085015260ff8160081c16606085015260ff8160101c16608085015260181c1660a083015260c0820152f35b80fd5b509190602080600319360112610165578335600192600284541461064b576002845581855285835280852086810180549160ff92838160a01c166106235760a81c83166105fb57868101918383541661023f816113d9565b54341080156105e7575b6105bf5761708042018042116105ac57610e10601891040685600261026d846113d9565b0154168110159081610591575b50156105695761028b6003916113d9565b0154670de0b6b3a764000090818102918183041490151715610556576001600160a01b0390816002541687517f70a082310000000000000000000000000000000000000000000000000000000081528d33908201528a81602481855afa90811561054c579083918e91610517575b50106104ef57803b156104eb5787517f79cc679000000000000000000000000000000000000000000000000000000000815233818f019081526020810193909352918c91839182908490829060400103925af180156104e157908b916104c9575b508080809334908654165af13d156104c4573d67ffffffffffffffff81116104b157865190610392601f8201601f19168b01836112a7565b81528a893d92013e5b15610489577401000000000000000000000000000000000000000081547fffffffffffffffffffffff00000000000000000000000000000000000000000060ff60a01b1933169116171790556103f3838354166113f0565b8054908115610476577f2b6b59e9e3b93bd4ff38cc3502e1fa2606705a155cb514545fff555a841bd4c9969798999a505f19809201916104338383611420565b909182549160031b1b19169055556003429101553388526005865261045a85848a20611449565b541693610469825180966112df565b42908501523393a3805580f35b60248a60318d634e487b7160e01b835252fd5b8985517f90b8ec18000000000000000000000000000000000000000000000000000000008152fd5b60248b60418e634e487b7160e01b835252fd5b61039b565b6104d290611277565b6104dd57895f61035a565b8980fd5b87513d8d823e3d90fd5b8b80fd5b8c88517ff1b7e15e000000000000000000000000000000000000000000000000000000008152fd5b8092508c8092503d8311610545575b61053081836112a7565b81010312610541578290515f6102f9565b5f80fd5b503d610526565b89513d8f823e3d90fd5b60248a60118d634e487b7160e01b835252fd5b8a86517fad7abdcb000000000000000000000000000000000000000000000000000000008152fd5b905085600261059f846113d9565b015460081c16115f61027a565b60248b60118e634e487b7160e01b835252fd5b8a86517f6b0574f2000000000000000000000000000000000000000000000000000000008152fd5b50886105f2826113d9565b01543411610249565b8884517f0f6a68e3000000000000000000000000000000000000000000000000000000008152fd5b8985517f1164df37000000000000000000000000000000000000000000000000000000008152fd5b8590517f3ee5aeb5000000000000000000000000000000000000000000000000000000008152fd5b50903461054157602036600319011261054157813560068110156105415761069a816113f0565b546107de57506103e8915b6001600160a01b03600254169282517f31ed9d5d0000000000000000000000000000000000000000000000000000000081526020818481885afa9081156107d4575f916107a2575b50670de0b6b3a76400009182810292818404149015171561078f57811115610713578480f35b833b156105415782517f40c10f19000000000000000000000000000000000000000000000000000000008152339281019283526020830191909152925f9184919082908490829060400103925af19081156107865750610775575b8080808480f35b61077f9150611277565b5f8061076e565b513d5f823e3d90fd5b601183634e487b7160e01b5f525260245ffd5b90506020813d6020116107cc575b816107bd602093836112a7565b8101031261054157515f6106ed565b3d91506107b0565b84513d5f823e3d90fd5b6107e96003916113d9565b0154916106a5565b50346105415760203660031901126105415780355f5280602052610851825f209283549060ff600186015416916002860154946003870154960154915195869560ff8460a81c16946001600160a01b0360ff8660a01c1695169388611394565b0390f35b8234610541575f366003190112610541576020906001600160a01b035f54169051908152f35b50903461054157602080600319360112610541578235906006548211610d0b57815f52838152825f2084810180546001600160a01b03908181163303610ce35760a01c60ff1615610cbc5760038301546001918285019460ff865416956108f660029460ff866108ea8b6113d9565b015460101c1690611787565b4210610c94578382019661ffff8561090f8a54936113d9565b015460181c16808202908282041482151715610b6057670a688906bd8b00009161271061093d920490611787565b8089551115610c375750508751926109548461128b565b6006845286840160c0368237845115610c24575f90528351811015610c115780898501528351831015610c1157826060850152835160031015610c11576003608085015283518a1015610c11578960a0850152835160051015610c1157600560c0850152805f945f915b610b73575b5050895f5260078752885f20938185549501548a51956109e287611247565b858752898701528a8601528a5f5260078852610a1f8a5f20918383549301548c5193610a0d85611247565b8785528b8501528c840152885461166a565b845f52600789528a5f20549081841b91808304871490151715610b605791610a5d610a52610a6793610a9597969561166a565b97858a5416906114a4565b83885416906114a4565b8a5f5260078852895f20015490895191610a8083611247565b8b835285898401528a830152855416906114a4565b6006545f1990818101908111610b4d575f52888652610ab5885f206117d7565b600654908101908111610b3a57977f14ac6d84304037c1b2b045bc0ec013c584edaf1f3881c8c837c9c34c336a87b39697985f528552875f20015575010000000000000000000000000000000000000000007fffffffffffffffffffff00ffffffffffffffffffffffffffffffffffffffffff8254161790555b5493519384523393a3005b601189634e487b7160e01b5f525260245ffd5b60118a634e487b7160e01b5f525260245ffd5b60118d634e487b7160e01b5f525260245ffd5b90948151861015610c0b579082610ba68193610b9f610b9a610b958b8761170a565b611407565b6113d9565b5490611787565b96610c048d8c610bb9610b95858861170a565b91610bca610b9a610b95878a61170a565b5486610bdc610b9a610b95898c61170a565b015492610bf4835195610bee87611247565b86611414565b840152820152878b5416906114a4565b01916109be565b946109c3565b60328a634e487b7160e01b5f525260245ffd5b60328b634e487b7160e01b5f525260245ffd5b9093507f14ac6d84304037c1b2b045bc0ec013c584edaf1f3881c8c837c9c34c336a87b397989950610c87925060ff9150610c8f94610c75856117d7565b60ff60a01b19815416905554166113f0565b905490611449565b610b2f565b8a8a517f95c8b03d000000000000000000000000000000000000000000000000000000008152fd5b8686517e9c5685000000000000000000000000000000000000000000000000000000008152fd5b8787517f30cd7471000000000000000000000000000000000000000000000000000000008152fd5b5050517fe8fd6b9d000000000000000000000000000000000000000000000000000000008152fd5b5034610541575f366003190112610541576006545f198101908111915f9182845b61078f5790818186931015610d9a57805f528360205260ff84885f20015460a01c1615610d86575b6001019091610d54565b93610d92600191611482565b949050610d7c565b509192610da7915061168f565b5f9182855b610e1b5781811015610e0e57805f5284602052865f2060ff8682015460a01c1615610ddc575b5060010185610dac565b60019194610dec610e079261171e565b610df6828761170a565b52610e01818661170a565b50611482565b9390610dd2565b8651806108518582611300565b601185634e487b7160e01b5f525260245ffd5b8234610541575f366003190112610541576020906006549051908152f35b34610541575f36600319011261054157610e64611794565b5f6001600160a01b03815473ffffffffffffffffffffffffffffffffffffffff1981168355167f8be0079c531659141344cd1fd0a4f28419497f9722a3daafe3b4186f6b6457e08280a3005b509034610541576020366003190112610541578135600654811015610f3d575f5281602052610ee0815f2061171e565b908151916020810151936006851015610f2a575090818161085193015160608201516001600160a01b036080840151169160c060a085015115159401511515945197889788611394565b602190634e487b7160e01b5f525260245ffd5b60648360208451917f08c379a0000000000000000000000000000000000000000000000000000000008352820152601060248201527f496e76616c696420706c616e74204944000000000000000000000000000000006044820152fd5b5034610541578160031936011261054157610fb36112c9565b602490602435908115158203610541576006545f198101908111945f946001600160a01b039384169286885b61112e579081818a9493101561106157805f5284602052848b5f20015486888216149081611052575b81611033575b5061101f575b600101909192610fdf565b9761102b600191611482565b989050611014565b60ff915089156110485760a81c165b8c61100e565b60a81c1615611042565b905060ff8160a01c1690611008565b50949296611072919694925061168f565b935f95885f905b61111c578281101561110f57805f52886020528a5f208981015485878216149081611100575b816110e1575b506110b5575b5060010189611079565b600191986110c56110da9261171e565b6110cf828b61170a565b52610e01818a61170a565b97906110ab565b60ff915088156110f65760a81c165b8d6110a5565b60a81c16156110f0565b905060ff8160a01c169061109f565b8a51806108518982611300565b50601188634e487b7160e01b5f52525ffd5b82601185634e487b7160e01b5f52525ffd5b82346105415760208060031936011261054157906001600160a01b036111646112c9565b165f5260058252805f208151928381835491828152019081935f52825f20905f5b8181106111d6575050508461119b9103856112a7565b825181815293518185018190528493840192915f5b8281106111bf57505050500390f35b8351855286955093810193928101926001016111b0565b825484529284019260019283019201611185565b83833461054157366003190160808112610541576060136105415761120e83611247565b3560068110156105415782526024356020830152604435908201526064356001600160a01b038116810361054157611245916114a4565b005b6060810190811067ffffffffffffffff82111761126357604052565b634e487b7160e01b5f52604160045260245ffd5b67ffffffffffffffff811161126357604052565b60e0810190811067ffffffffffffffff82111761126357604052565b90601f8019910116810190811067ffffffffffffffff82111761126357604052565b600435906001600160a01b038216820361054157565b9060068210156112ec5752565b634e487b7160e01b5f52602160045260245ffd5b60208082019080835283518092528060408094019401925f905b83821061132957505050505090565b90919293948360e060019288518051825261134a84820151858401906112df565b8086015182870152606080820151908301526080808201516001600160a01b03169083015260a08082015115159083015260c090810151151590820152019601949392019061131a565b95929360c095919897946113bb6001600160a01b039460e08a019b8a5260208a01906112df565b60408801526060870152166080850152151560a08401521515910152565b60068110156112ec575f52600760205260405f2090565b60068110156112ec575f52600360205260405f2090565b5160068110156112ec5790565b60068210156112ec5752565b8054821015611435575f5260205f2001905f90565b634e487b7160e01b5f52603260045260245ffd5b8054680100000000000000008110156112635761146b91600182018155611420565b819291549060031b91821b915f19901b1916179055565b5f1981146114905760010190565b634e487b7160e01b5f52601160045260245ffd5b805190600691828110156112ec576114bb906113d9565b906040938451926114cb8461128b565b60038154918286526001810154602087015261ffff600282015460ff81168a89015260ff8160081c16606089015260ff8160101c16608089015260181c1660a0870152015460c08501528454835192868410156112ec5787519361152e8561128b565b82855261153f602086019182611414565b88850193845260608501945f865260808101956001600160a01b03809416875260a08201955f875260c08301955f87525f5260046020528b5f2092518355600183019351938b8510156112ec5760049460ff80198354169116179055516002830155516003820155019351167fffffffffffffffffffff0000000000000000000000000000000000000000000075ff00000000000000000000000000000000000000000074ff000000000000000000000000000000000000000086549551151560a01b169351151560a81b169316171717905551828110156112ec5761162761162f916113f0565b835490611449565b6116398254611482565b8092555191519182527f3c7450b5b54d32b4163bbab3477be25d90dec07e4e10a7a7717c1463ae336b3660203093a3565b9190820391821161149057565b67ffffffffffffffff81116112635760051b60200190565b9061169982611677565b6040906116a960405191826112a7565b83815280936116ba601f1991611677565b01915f5b8381106116cb5750505050565b60209082516116d98161128b565b5f8152825f818301525f858301525f60608301525f60808301525f60a08301525f60c08301528286010152016116be565b80518210156114355760209160051b010190565b9060405161172b8161128b565b60c060ff600483958054855261174a8360018301541660208701611414565b600281015460408601526003810154606086015201546001600160a01b0381166080850152818160a01c16151560a085015260a81c161515910152565b9190820180921161149057565b6001600160a01b035f541633036117a757565b60246040517f118cdaa7000000000000000000000000000000000000000000000000000000008152336004820152fd5b600281015467042a2b5c291840008111806118fc575b156118035750600101805460ff19166005179055565b6701bc71c98566c0008111806118ea575b1561182a5750600101805460ff19166004179055565b66a03a36075ec0008111806118d8575b156118685750600101805460ff811660068110156112ec5760020361185d575050565b60ff19166003179055565b6635a55eb81bc0008111806118c7575b1561188e5750600101600160ff19825416179055565b6611c37937e0800081101590816118b5575b506118a85750565b600101805460ff19169055565b66354a6ba7a18000915011155f6118a0565b50669fdf42f6e48000811115611878565b506701bc16d674ec800081111561183a565b50670429d069189e0000811115611814565b50670a688906bd8b00008111156117ed56fea2646970667358221220534f30a203a2d217da5d2cad4a5ba0d21ed1a56298c9c8d718366241cb7b63b164736f6c63430008180033",
  "linkReferences": {},
  "deployedLinkReferences": {}
}