{
  "_format": "hh-sol-artifact-1",
  "contractName": "PlantMarket",
  "sourceName": "contracts/PlantMarket.sol",
  "abi": [
    {
      "inputs": [],
      "stateMutability": "nonpayable",
      "type": "constructor"
    },
    {
      "inputs": [
        {
          "internalType": "address",
          "name": "account",
          "type": "address"
        }
      ],
      "name": "AddressInsufficientBalance",
      "type": "error"
    },
    {
      "inputs": [],
      "name": "FailedInnerCall",
      "type": "error"
    },
    {
      "inputs": [
        {
          "internalType": "address",
          "name": "owner",
          "type": "address"
        }
      ],
      "name": "OwnableInvalidOwner",
      "type": "error"
    },
    {
      "inputs": [
        {
          "internalType": "address",
          "name": "account",
          "type": "address"
        }
      ],
      "name": "OwnableUnauthorizedAccount",
      "type": "error"
    },
    {
      "inputs": [],
      "name": "ReentrancyGuardReentrantCall",
      "type": "error"
    },
    {
      "anonymous": false,
      "inputs": [
        {
          "indexed": true,
          "internalType": "address",
          "name": "previousOwner",
          "type": "address"
        },
        {
          "indexed": true,
          "internalType": "address",
          "name": "newOwner",
          "type": "address"
        }
      ],
      "name": "OwnershipTransferred",
      "type": "event"
    },
    {
      "anonymous": false,
      "inputs": [
        {
          "indexed": true,
          "internalType": "uint256",
          "name": "plantId",
          "type": "uint256"
        },
        {
          "indexed": true,
          "internalType": "address",
          "name": "owner",
          "type": "address"
        },
        {
          "indexed": false,
          "internalType": "enum PlantMarket.PlantType",
          "name": "plantType",
          "type": "uint8"
        },
        {
          "indexed": false,
          "internalType": "uint256",
          "name": "adoptionTime",
          "type": "uint256"
        }
      ],
      "name": "PlantAdopted",
      "type": "event"
    },
    {
      "anonymous": false,
      "inputs": [
        {
          "indexed": true,
          "internalType": "uint256",
          "name": "plantId",
          "type": "uint256"
        },
        {
          "indexed": true,
          "internalType": "address",
          "name": "seller",
          "type": "address"
        },
        {
          "indexed": false,
          "internalType": "uint256",
          "name": "price",
          "type": "uint256"
        }
      ],
      "name": "PlantListed",
      "type": "event"
    },
    {
      "anonymous": false,
      "inputs": [
        {
          "indexed": true,
          "internalType": "uint256",
          "name": "plantId",
          "type": "uint256"
        },
        {
          "indexed": true,
          "internalType": "address",
          "name": "buyer",
          "type": "address"
        },
        {
          "indexed": true,
          "internalType": "address",
          "name": "seller",
          "type": "address"
        },
        {
          "indexed": false,
          "internalType": "uint256",
          "name": "price",
          "type": "uint256"
        }
      ],
      "name": "PlantSold",
      "type": "event"
    },
    {
      "inputs": [
        {
          "internalType": "uint256",
          "name": "_plantId",
          "type": "uint256"
        }
      ],
      "name": "adoptPlant",
      "outputs": [],
      "stateMutability": "payable",
      "type": "function"
    },
    {
      "inputs": [
        {
          "components": [
            {
              "internalType": "uint256",
              "name": "minEth",
              "type": "uint256"
            },
            {
              "internalType": "uint256",
              "name": "maxEth",
              "type": "uint256"
            },
            {
              "internalType": "uint8",
              "name": "startTime",
              "type": "uint8"
            },
            {
              "internalType": "uint8",
              "name": "endTime",
              "type": "uint8"
            },
            {
              "internalType": "enum PlantMarket.PlantType",
              "name": "plantType",
              "type": "uint8"
            },
            {
              "internalType": "uint8",
              "name": "profitDays",
              "type": "uint8"
            },
            {
              "internalType": "uint16",
              "name": "profitRate",
              "type": "uint16"
            }
          ],
          "internalType": "struct PlantMarket.PlantDTO",
          "name": "plantDTO",
          "type": "tuple"
        }
      ],
      "name": "createPlant",
      "outputs": [],
      "stateMutability": "nonpayable",
      "type": "function"
    },
    {
      "inputs": [],
      "name": "getMarketListings",
      "outputs": [
        {
          "components": [
            {
              "internalType": "uint256",
              "name": "plantId",
              "type": "uint256"
            },
            {
              "internalType": "enum PlantMarket.PlantType",
              "name": "plantType",
              "type": "uint8"
            },
            {
              "internalType": "uint256",
              "name": "minEth",
              "type": "uint256"
            },
            {
              "internalType": "uint256",
              "name": "maxEth",
              "type": "uint256"
            },
            {
              "internalType": "uint8",
              "name": "startTime",
              "type": "uint8"
            },
            {
              "internalType": "uint8",
              "name": "endTime",
              "type": "uint8"
            },
            {
              "internalType": "uint256",
              "name": "adoptedTimestamp",
              "type": "uint256"
            },
            {
              "internalType": "uint8",
              "name": "profitDays",
              "type": "uint8"
            },
            {
              "internalType": "uint16",
              "name": "profitRate",
              "type": "uint16"
            },
            {
              "internalType": "address",
              "name": "owner",
              "type": "address"
            },
            {
              "internalType": "bool",
              "name": "isAdopted",
              "type": "bool"
            },
            {
              "internalType": "bool",
              "name": "isSplit",
              "type": "bool"
            }
          ],
          "internalType": "struct PlantMarket.Plant[]",
          "name": "",
          "type": "tuple[]"
        }
      ],
      "stateMutability": "view",
      "type": "function"
    },
    {
      "inputs": [
        {
          "internalType": "uint256",
          "name": "_plantId",
          "type": "uint256"
        }
      ],
      "name": "getPlantInfoById",
      "outputs": [
        {
          "components": [
            {
              "internalType": "uint256",
              "name": "plantId",
              "type": "uint256"
            },
            {
              "internalType": "enum PlantMarket.PlantType",
              "name": "plantType",
              "type": "uint8"
            },
            {
              "internalType": "uint256",
              "name": "minEth",
              "type": "uint256"
            },
            {
              "internalType": "uint256",
              "name": "maxEth",
              "type": "uint256"
            },
            {
              "internalType": "uint8",
              "name": "startTime",
              "type": "uint8"
            },
            {
              "internalType": "uint8",
              "name": "endTime",
              "type": "uint8"
            },
            {
              "internalType": "uint256",
              "name": "adoptedTimestamp",
              "type": "uint256"
            },
            {
              "internalType": "uint8",
              "name": "profitDays",
              "type": "uint8"
            },
            {
              "internalType": "uint16",
              "name": "profitRate",
              "type": "uint16"
            },
            {
              "internalType": "address",
              "name": "owner",
              "type": "address"
            },
            {
              "internalType": "bool",
              "name": "isAdopted",
              "type": "bool"
            },
            {
              "internalType": "bool",
              "name": "isSplit",
              "type": "bool"
            }
          ],
          "internalType": "struct PlantMarket.Plant",
          "name": "",
          "type": "tuple"
        }
      ],
      "stateMutability": "view",
      "type": "function"
    },
    {
      "inputs": [
        {
          "internalType": "address",
          "name": "_user",
          "type": "address"
        },
        {
          "internalType": "bool",
          "name": "includeSplit",
          "type": "bool"
        }
      ],
      "name": "getUserAdoptedPlants",
      "outputs": [
        {
          "components": [
            {
              "internalType": "uint256",
              "name": "plantId",
              "type": "uint256"
            },
            {
              "internalType": "enum PlantMarket.PlantType",
              "name": "plantType",
              "type": "uint8"
            },
            {
              "internalType": "uint256",
              "name": "minEth",
              "type": "uint256"
            },
            {
              "internalType": "uint256",
              "name": "maxEth",
              "type": "uint256"
            },
            {
              "internalType": "uint8",
              "name": "startTime",
              "type": "uint8"
            },
            {
              "internalType": "uint8",
              "name": "endTime",
              "type": "uint8"
            },
            {
              "internalType": "uint256",
              "name": "adoptedTimestamp",
              "type": "uint256"
            },
            {
              "internalType": "uint8",
              "name": "profitDays",
              "type": "uint8"
            },
            {
              "internalType": "uint16",
              "name": "profitRate",
              "type": "uint16"
            },
            {
              "internalType": "address",
              "name": "owner",
              "type": "address"
            },
            {
              "internalType": "bool",
              "name": "isAdopted",
              "type": "bool"
            },
            {
              "internalType": "bool",
              "name": "isSplit",
              "type": "bool"
            }
          ],
          "internalType": "struct PlantMarket.Plant[]",
          "name": "",
          "type": "tuple[]"
        }
      ],
      "stateMutability": "view",
      "type": "function"
    },
    {
      "inputs": [
        {
          "internalType": "address",
          "name": "_user",
          "type": "address"
        }
      ],
      "name": "getUserAdoptionPlantIds",
      "outputs": [
        {
          "internalType": "uint256[]",
          "name": "",
          "type": "uint256[]"
        }
      ],
      "stateMutability": "view",
      "type": "function"
    },
    {
      "inputs": [
        {
          "internalType": "address",
          "name": "_user",
          "type": "address"
        },
        {
          "internalType": "enum PlantMarket.PlantType",
          "name": "_plantType",
          "type": "uint8"
        }
      ],
      "name": "getUserAdoptionRecord",
      "outputs": [
        {
          "internalType": "uint256",
          "name": "",
          "type": "uint256"
        }
      ],
      "stateMutability": "view",
      "type": "function"
    },
    {
      "inputs": [
        {
          "internalType": "uint256",
          "name": "plantId",
          "type": "uint256"
        }
      ],
      "name": "list",
      "outputs": [],
      "stateMutability": "nonpayable",
      "type": "function"
    },
    {
      "inputs": [],
      "name": "owner",
      "outputs": [
        {
          "internalType": "address",
          "name": "",
          "type": "address"
        }
      ],
      "stateMutability": "view",
      "type": "function"
    },
    {
      "inputs": [
        {
          "internalType": "uint256",
          "name": "",
          "type": "uint256"
        }
      ],
      "name": "plants",
      "outputs": [
        {
          "internalType": "uint256",
          "name": "plantId",
          "type": "uint256"
        },
        {
          "internalType": "enum PlantMarket.PlantType",
          "name": "plantType",
          "type": "uint8"
        },
        {
          "internalType": "uint256",
          "name": "minEth",
          "type": "uint256"
        },
        {
          "internalType": "uint256",
          "name": "maxEth",
          "type": "uint256"
        },
        {
          "internalType": "uint8",
          "name": "startTime",
          "type": "uint8"
        },
        {
          "internalType": "uint8",
          "name": "endTime",
          "type": "uint8"
        },
        {
          "internalType": "uint256",
          "name": "adoptedTimestamp",
          "type": "uint256"
        },
        {
          "internalType": "uint8",
          "name": "profitDays",
          "type": "uint8"
        },
        {
          "internalType": "uint16",
          "name": "profitRate",
          "type": "uint16"
        },
        {
          "internalType": "address",
          "name": "owner",
          "type": "address"
        },
        {
          "internalType": "bool",
          "name": "isAdopted",
          "type": "bool"
        },
        {
          "internalType": "bool",
          "name": "isSplit",
          "type": "bool"
        }
      ],
      "stateMutability": "view",
      "type": "function"
    },
    {
      "inputs": [],
      "name": "renounceOwnership",
      "outputs": [],
      "stateMutability": "nonpayable",
      "type": "function"
    },
    {
      "inputs": [
        {
          "internalType": "address",
          "name": "newOwner",
          "type": "address"
        }
      ],
      "name": "transferOwnership",
      "outputs": [],
      "stateMutability": "nonpayable",
      "type": "function"
    }
  ],
  "bytecode": "0x6080806040523461007c573315610067575f8054336001600160a01b03198216811783556040519290916001600160a01b0316907f8be0079c531659141344cd1fd0a4f28419497f9722a3daafe3b4186f6b6457e09080a3600180556117ac90816100818239f35b631e4fbdf760e01b81525f6004820152602490fd5b5f80fdfe608060409080825260049081361015610016575f80fd5b5f3560e01c9081634f05caa3146110295750806365f5d1b414610fe8578063715018a614610f8457806378c0dc9214610ec057806380c9419e146108c05780638da5cb5b1461089a5780638dd2361c146107d9578063c0cdaf51146103f4578063d06d55ed1461027d578063ea2c36b1146101ec578063f2fde38b146101415763fa23bf17146100a4575f80fd5b3461013d578160031936011261013d576100bc6110d3565b60243591600583101561013d578083116100fa576020846100f2856001600160a01b0386165f52600384526001835f2001611474565b549051908152f35b606490602085519162461bcd60e51b8352820152601260248201527f496e76616c696420706c616e74207479706500000000000000000000000000006044820152fd5b5f80fd5b503461013d57602036600319011261013d5761015b6110d3565b9061016461148a565b6001600160a01b038092169283156101bd5750505f548273ffffffffffffffffffffffffffffffffffffffff198216175f55167f8be0079c531659141344cd1fd0a4f28419497f9722a3daafe3b4186f6b6457e05f80a3005b905f60249251917f1e4fbdf7000000000000000000000000000000000000000000000000000000008352820152fd5b50903461013d5760e036600319011261013d5780519161020b836111ec565b35825260243560208301526044359060ff8216820361013d5782015260643560ff8116810361013d576060820152608435600581101561013d57608082015260a43560ff8116810361013d5760a082015260c4359061ffff8216820361013d5761027b9160c082015230906114da565b005b50903461013d578060031936011261013d576102976110d3565b90602435928315928315850361013d575f945f9254956001600160a01b03809316935b87811061037e57506102cb9061137e565b945f925f5b8881106102e8578651806102e48a826111a3565b0390f35b805f526002602052865f2060068101548488858360181c1614918261036f575b82610350575b505061031e575b506001016102d0565b6001919561032e610349926112bf565b610338828c61143e565b52610343818b61143e565b50611452565b9490610315565b87925090610361575b50845f61030e565b60ff915060c01c165f610359565b915060ff8260b81c1691610308565b805f5260026020526006865f2001548786868360181c161491826103e5575b826103c6575b50506103b2575b6001016102ba565b906103be600191611452565b9190506103aa565b859250906103d7575b50875f6103a3565b60ff915060c01c165f6103cf565b915060ff8260b81c169161039d565b506020918260031936011261013d5781359260019360028554146107b15760028555805f5260028252825f2090600682019182549060ff91828160b81c1661076f5760c01c821661072d5760028101543410158061071f575b156106dd5761045b816112bf565b61708042018042116106ca57610e106018910406908360a081608084015116920151169082101591826106c0575b50501561067e57835476ffffffffffffffffffffffffffffffffffffffff00000019163360181b76ffffffffffffffffffffffffffffffffffffffff000000161784557701000000000000000000000000000000000000000000000060ff60b81b19855416178455335f5260038552855f208054906801000000000000000082101561066b578982018082558210156106585793809392916001600160a01b0396955f52875f200155335f526003865261054f8980895f20019201918383541690611474565b6105598154611452565b905554169061056a865180936110e9565b42858301527f2b6b59e9e3b93bd4ff38cc3502e1fa2606705a155cb514545fff555a841bd4c9863393a35460181c16344710610629575f8080809334905af1903d15610623573d9067ffffffffffffffff8211610610575f908451926105d982601f19601f8401160185611239565b83523d92013e5b156105ea57828055005b517f1425ea42000000000000000000000000000000000000000000000000000000008152fd5b604185634e487b7160e01b5f525260245ffd5b506105e0565b82517fcd7860590000000000000000000000000000000000000000000000000000000081523081860152602490fd5b603289634e487b7160e01b5f525260245ffd5b604189634e487b7160e01b5f525260245ffd5b6064878688519162461bcd60e51b8352820152601160248201527f4e6f742061646f7074696f6e2074696d650000000000000000000000000000006044820152fd5b1090505f80610489565b601189634e487b7160e01b5f525260245ffd5b6064878688519162461bcd60e51b8352820152601660248201527f496e76616c69642061646f7074696f6e207072696365000000000000000000006044820152fd5b50600381015434111561044d565b6064878688519162461bcd60e51b8352820152601660248201527f506c616e7420697320616c72656164792073706c6974000000000000000000006044820152fd5b6064888789519162461bcd60e51b8352820152601860248201527f506c616e7420697320616c72656164792061646f7074656400000000000000006044820152fd5b5050517f3ee5aeb5000000000000000000000000000000000000000000000000000000008152fd5b503461013d57602036600319011261013d576101809181355f526002602052805f209182549260ff80938160018401541693600284015460038501549185015492610837600660058801549701549782519a8b5260208b01906110e9565b8801526060870152818116608087015260081c1660a085015260c084015281811660e084015261ffff8160081c166101008401526001600160a01b038160181c16610120840152818160b81c16151561014084015260c01c161515610160820152f35b823461013d575f36600319011261013d576020906001600160a01b035f54169051908152f35b503461013d576020918260031936011261013d578135918054831015610e7f57825f52600284526001600160a01b036006835f200154938160189560181c163303610e3d575f5260028552825f209360068501908154926001918260ff8660b81c1615151480610e24575b61093157005b600288019761ffff89549660081c16808702908782041487151715610e115761271090048601809611610dfe57858955670a688906bd8b00009586811115610cc7575050865195610981876111ec565b600687525f5b60c0808210156109cf57908b915f8b51916109a1836111ec565b8183528185840152818d8401528160608401528160808401528160a084015282015282828b01015201610987565b5050929687969891949992958151916109e7836111ec565b6611c37937e08000835284830166354a6ba7a180009052808301600e90526060808401600f90526080918285015f905260a093848601600790528d6108349760c0978989820152610a37836113cd565b52610a41826113cd565b5083518e610a4e826111ec565b6635a55eb81bc0008252669fdf42f6e480008c830152600f868301526010878301528782015260038882015261038489820152610a8a836113ee565b52610a94826113ee565b508351610aa0816111ec565b66a03a36075ec00081526701bc16d674ec80008b8201526010858201526011868201526002878201526005888201526104e289820152610adf836113fe565b52610ae9826113fe565b50835192610af6846111ec565b6701bc71c98566c0008452670429d069189e00008b8501819052601186860152601287860152600388860152600c898601528985018b905293610b388461140e565b52610b428361140e565b50845190610b4f826111ec565b67042a2b5c2918400082528b8201526012858201526013868201528681018c9052601488820152610fa089820152610b868361141e565b52610b908261141e565b5054610b9b826113cd565b5151610ba6916114cd565b610baf826113ee565b5151610bba916114cd565b610bc3826113fe565b5151610bce916114cd565b610bd78261140e565b5151610be2916114cd565b90610bec9061141e565b5151610bf7916114cd565b97825198610c048a6111ec565b8952880152860160119052850160129052840160039052830160079052820152610c2d8761142e565b52610c378661142e565b505f935b610c89575b50505050505078010000000000000000000000000000000000000000000000007fffffffffffffff00ffffffffffffffffffffffffffffffffffffffffffffffff825416179055005b8551841015610cc257848094610c9f8354611452565b8355610cbb610cae828a61143e565b51868b54871c16906114da565b0193610c3b565b610c40565b955095975050509350945067042a2b5c29184000811180610df7575b15610d025750019060ff198254161790555b60ff60b81b198154169055005b8293506701bc71c98566c000811180610de5575b15610d2f5750905001600360ff19825416179055610cf5565b66a03a36075ec000811180610dd3575b15610d585750905001600260ff19825416179055610cf5565b6635a55eb81bc000811180610dc2575b15610d7e5750019060ff19825416179055610cf5565b9091506611c37937e080008110159081610db0575b50610da0575b5050610cf5565b01805460ff191690555f80610d99565b66354a6ba7a18000915011155f610d93565b50669fdf42f6e48000811115610d68565b506701bc16d674ec8000811115610d3f565b50670429d069189e0000811115610d16565b5082610ce3565b601187634e487b7160e01b5f525260245ffd5b601188634e487b7160e01b5f525260245ffd5b506005880154603c8101809111610dfe5742101561092b565b6064838786519162461bcd60e51b8352820152600960248201527f4e6f74206f776e657200000000000000000000000000000000000000000000006044820152fd5b83606492519162461bcd60e51b8352820152601060248201527f496e76616c696420706c616e74204944000000000000000000000000000000006044820152fd5b503461013d575f36600319011261013d5754610edb8161137e565b915f915f5b818110610f33575050610ef28261137e565b915f5b818110610f09578251806102e486826111a3565b80610f166001928761143e565b51610f21828761143e565b52610f2c818661143e565b5001610ef5565b805f526002602052825f2060ff600682015460b81c1615610f58575b50600101610ee0565b60019194610f68610f7d926112bf565b610f72828961143e565b52610343818861143e565b9390610f4f565b3461013d575f36600319011261013d57610f9c61148a565b5f6001600160a01b03815473ffffffffffffffffffffffffffffffffffffffff1981168355167f8be0079c531659141344cd1fd0a4f28419497f9722a3daafe3b4186f6b6457e08280a3005b50903461013d57602036600319011261013d576101809161100761125b565b50355f52600260205261102761101e825f206112bf565b9151809261110a565bf35b83903461013d576020908160031936011261013d5791906001600160a01b036110506110d3565b165f5260038152815f209081548085528185019081935f52825f20905f5b8181106110bf5750505084611084910385611239565b825181815293518185018190528493840192915f5b8281106110a857505050500390f35b835185528695509381019392810192600101611099565b82548452928401926001928301920161106e565b600435906001600160a01b038216820361013d57565b9060058210156110f65752565b634e487b7160e01b5f52602160045260245ffd5b80518252611120602082015160208401906110e9565b604081015160408301526060810151606083015260ff608082015116608083015260ff60a08201511660a083015260c081015160c083015260ff60e08201511660e083015261010061ffff8183015116908301526101206001600160a01b0381830151169083015261014080820151151590830152610160809101511515910152565b60209060206040818301928281528551809452019301915f5b8281106111ca575050505090565b9091929382610180826111e0600194895161110a565b019501939291016111bc565b60e0810190811067ffffffffffffffff82111761120857604052565b634e487b7160e01b5f52604160045260245ffd5b610180810190811067ffffffffffffffff82111761120857604052565b90601f8019910116810190811067ffffffffffffffff82111761120857604052565b604051906112688261121c565b5f610160838281528260208201528260408201528260608201528260808201528260a08201528260c08201528260e08201528261010082015282610120820152826101408201520152565b60058210156110f65752565b906040516112cc8161121c565b610160819380548352600660ff916112ed83600183015416602087016112b3565b6002810154604086015260038101546060860152826004820154818116608088015260081c1660a0860152600581015460c0860152015481811660e085015261ffff8160081c166101008501526001600160a01b038160181c16610120850152818160b81c16151561014085015260c01c161515910152565b67ffffffffffffffff81116112085760051b60200190565b9061138882611366565b6113956040519182611239565b82815280926113a6601f1991611366565b01905f5b8281106113b657505050565b6020906113c161125b565b828285010152016113aa565b8051156113da5760200190565b634e487b7160e01b5f52603260045260245ffd5b8051600110156113da5760400190565b8051600210156113da5760600190565b8051600310156113da5760800190565b8051600410156113da5760a00190565b8051600510156113da5760c00190565b80518210156113da5760209160051b010190565b5f1981146114605760010190565b634e487b7160e01b5f52601160045260245ffd5b9060058110156110f6575f5260205260405f2090565b6001600160a01b035f5416330361149d57565b60246040517f118cdaa7000000000000000000000000000000000000000000000000000000008152336004820152fd5b9190820391821161146057565b60049182545f1981101561173257825160208401519260ff6040860151169160ff60608701511692608087015193600585101561171f5760ff60a0890151169661ffff60c08a01511692604051926115318461121c565b8884526115426020850198896112b3565b60408401958652606084019283526080840191825260a0840190815260c08401925f845260e085019a8b5261010085019586526101208501966001600160a01b0380991688526101408601995f8b5261016087019b5f8d525f52600260205260405f2096518755600187019051600581101561170b578f60ff9794600697946116619d9c9b9a97948a948580198354169116179055516002880155516003870155850192511661ff008354925160081b169161ffff1916171790555160058201550197511662ffff008854925160081b169162ffffff1916171786555116849076ffffffffffffffffffffffffffffffffffffffff0000001976ffffffffffffffffffffffffffffffffffffffff00000083549260181b169116179055565b511515907fffffffffffffff0000ffffffffffffffffffffffffffffffffffffffffffffff77ff000000000000000000000000000000000000000000000078ff00000000000000000000000000000000000000000000000085549351151560c01b169360b81b169116171790556116d88254611452565b80925551906040519182527f14ac6d84304037c1b2b045bc0ec013c584edaf1f3881c8c837c9c34c336a87b360203093a3565b5060218f634e487b7160e01b5f525260245ffd5b602189634e487b7160e01b5f525260245ffd5b60648460206040519162461bcd60e51b8352820152601160248201527f506c616e74204944206f766572666c6f770000000000000000000000000000006044820152fdfea26469706673582212209abbe22e04098be3f155eb5ac973793edb3699324830ac6577cef331609e730764736f6c63430008180033",
  "linkReferences": {},
  "deployedLinkReferences": {}
}