{
  "_format": "hh-sol-artifact-1",
  "contractName": "PlantMarket",
  "sourceName": "contracts/PlantMarket.sol",
  "abi": [
    {
      "inputs": [],
      "stateMutability": "nonpayable",
      "type": "constructor"
    },
    {
      "inputs": [
        {
          "internalType": "address",
          "name": "account",
          "type": "address"
        }
      ],
      "name": "AddressInsufficientBalance",
      "type": "error"
    },
    {
      "inputs": [],
      "name": "FailedInnerCall",
      "type": "error"
    },
    {
      "inputs": [
        {
          "internalType": "address",
          "name": "owner",
          "type": "address"
        }
      ],
      "name": "OwnableInvalidOwner",
      "type": "error"
    },
    {
      "inputs": [
        {
          "internalType": "address",
          "name": "account",
          "type": "address"
        }
      ],
      "name": "OwnableUnauthorizedAccount",
      "type": "error"
    },
    {
      "inputs": [],
      "name": "ReentrancyGuardReentrantCall",
      "type": "error"
    },
    {
      "anonymous": false,
      "inputs": [
        {
          "indexed": true,
          "internalType": "address",
          "name": "previousOwner",
          "type": "address"
        },
        {
          "indexed": true,
          "internalType": "address",
          "name": "newOwner",
          "type": "address"
        }
      ],
      "name": "OwnershipTransferred",
      "type": "event"
    },
    {
      "anonymous": false,
      "inputs": [
        {
          "indexed": true,
          "internalType": "uint256",
          "name": "plantId",
          "type": "uint256"
        },
        {
          "indexed": true,
          "internalType": "address",
          "name": "owner",
          "type": "address"
        },
        {
          "indexed": false,
          "internalType": "enum PlantMarket.PlantType",
          "name": "plantType",
          "type": "uint8"
        },
        {
          "indexed": false,
          "internalType": "uint256",
          "name": "adoptionTime",
          "type": "uint256"
        }
      ],
      "name": "PlantAdopted",
      "type": "event"
    },
    {
      "anonymous": false,
      "inputs": [
        {
          "indexed": true,
          "internalType": "uint256",
          "name": "plantId",
          "type": "uint256"
        },
        {
          "indexed": true,
          "internalType": "address",
          "name": "seller",
          "type": "address"
        },
        {
          "indexed": false,
          "internalType": "uint256",
          "name": "price",
          "type": "uint256"
        }
      ],
      "name": "PlantListed",
      "type": "event"
    },
    {
      "anonymous": false,
      "inputs": [
        {
          "indexed": true,
          "internalType": "uint256",
          "name": "plantId",
          "type": "uint256"
        },
        {
          "indexed": true,
          "internalType": "address",
          "name": "buyer",
          "type": "address"
        },
        {
          "indexed": true,
          "internalType": "address",
          "name": "seller",
          "type": "address"
        },
        {
          "indexed": false,
          "internalType": "uint256",
          "name": "price",
          "type": "uint256"
        }
      ],
      "name": "PlantSold",
      "type": "event"
    },
    {
      "inputs": [
        {
          "internalType": "uint256",
          "name": "_plantId",
          "type": "uint256"
        }
      ],
      "name": "adoptPlant",
      "outputs": [],
      "stateMutability": "payable",
      "type": "function"
    },
    {
      "inputs": [],
      "name": "autoSplitAndSettle",
      "outputs": [],
      "stateMutability": "nonpayable",
      "type": "function"
    },
    {
      "inputs": [
        {
          "components": [
            {
              "internalType": "uint256",
              "name": "minEth",
              "type": "uint256"
            },
            {
              "internalType": "uint256",
              "name": "maxEth",
              "type": "uint256"
            },
            {
              "internalType": "uint8",
              "name": "startTime",
              "type": "uint8"
            },
            {
              "internalType": "uint8",
              "name": "endTime",
              "type": "uint8"
            },
            {
              "internalType": "enum PlantMarket.PlantType",
              "name": "plantType",
              "type": "uint8"
            },
            {
              "internalType": "uint8",
              "name": "profitDays",
              "type": "uint8"
            },
            {
              "internalType": "uint16",
              "name": "profitRate",
              "type": "uint16"
            }
          ],
          "internalType": "struct PlantMarket.PlantDTO",
          "name": "plantDTO",
          "type": "tuple"
        }
      ],
      "name": "createPlant",
      "outputs": [],
      "stateMutability": "nonpayable",
      "type": "function"
    },
    {
      "inputs": [],
      "name": "getMarketListings",
      "outputs": [
        {
          "components": [
            {
              "internalType": "uint256",
              "name": "plantId",
              "type": "uint256"
            },
            {
              "internalType": "enum PlantMarket.PlantType",
              "name": "plantType",
              "type": "uint8"
            },
            {
              "internalType": "uint256",
              "name": "minEth",
              "type": "uint256"
            },
            {
              "internalType": "uint256",
              "name": "maxEth",
              "type": "uint256"
            },
            {
              "internalType": "uint8",
              "name": "startTime",
              "type": "uint8"
            },
            {
              "internalType": "uint8",
              "name": "endTime",
              "type": "uint8"
            },
            {
              "internalType": "uint256",
              "name": "adoptedTimestamp",
              "type": "uint256"
            },
            {
              "internalType": "uint8",
              "name": "profitDays",
              "type": "uint8"
            },
            {
              "internalType": "uint16",
              "name": "profitRate",
              "type": "uint16"
            },
            {
              "internalType": "address",
              "name": "owner",
              "type": "address"
            },
            {
              "internalType": "bool",
              "name": "isAdopted",
              "type": "bool"
            },
            {
              "internalType": "bool",
              "name": "hasSplit",
              "type": "bool"
            }
          ],
          "internalType": "struct PlantMarket.Plant[]",
          "name": "",
          "type": "tuple[]"
        }
      ],
      "stateMutability": "view",
      "type": "function"
    },
    {
      "inputs": [
        {
          "internalType": "uint256",
          "name": "_plantId",
          "type": "uint256"
        }
      ],
      "name": "getPlantInfoById",
      "outputs": [
        {
          "components": [
            {
              "internalType": "uint256",
              "name": "plantId",
              "type": "uint256"
            },
            {
              "internalType": "enum PlantMarket.PlantType",
              "name": "plantType",
              "type": "uint8"
            },
            {
              "internalType": "uint256",
              "name": "minEth",
              "type": "uint256"
            },
            {
              "internalType": "uint256",
              "name": "maxEth",
              "type": "uint256"
            },
            {
              "internalType": "uint8",
              "name": "startTime",
              "type": "uint8"
            },
            {
              "internalType": "uint8",
              "name": "endTime",
              "type": "uint8"
            },
            {
              "internalType": "uint256",
              "name": "adoptedTimestamp",
              "type": "uint256"
            },
            {
              "internalType": "uint8",
              "name": "profitDays",
              "type": "uint8"
            },
            {
              "internalType": "uint16",
              "name": "profitRate",
              "type": "uint16"
            },
            {
              "internalType": "address",
              "name": "owner",
              "type": "address"
            },
            {
              "internalType": "bool",
              "name": "isAdopted",
              "type": "bool"
            },
            {
              "internalType": "bool",
              "name": "hasSplit",
              "type": "bool"
            }
          ],
          "internalType": "struct PlantMarket.Plant",
          "name": "",
          "type": "tuple"
        }
      ],
      "stateMutability": "view",
      "type": "function"
    },
    {
      "inputs": [
        {
          "internalType": "address",
          "name": "_user",
          "type": "address"
        },
        {
          "internalType": "bool",
          "name": "includeSplit",
          "type": "bool"
        }
      ],
      "name": "getUserAdoptedPlants",
      "outputs": [
        {
          "components": [
            {
              "internalType": "uint256",
              "name": "plantId",
              "type": "uint256"
            },
            {
              "internalType": "enum PlantMarket.PlantType",
              "name": "plantType",
              "type": "uint8"
            },
            {
              "internalType": "uint256",
              "name": "minEth",
              "type": "uint256"
            },
            {
              "internalType": "uint256",
              "name": "maxEth",
              "type": "uint256"
            },
            {
              "internalType": "uint8",
              "name": "startTime",
              "type": "uint8"
            },
            {
              "internalType": "uint8",
              "name": "endTime",
              "type": "uint8"
            },
            {
              "internalType": "uint256",
              "name": "adoptedTimestamp",
              "type": "uint256"
            },
            {
              "internalType": "uint8",
              "name": "profitDays",
              "type": "uint8"
            },
            {
              "internalType": "uint16",
              "name": "profitRate",
              "type": "uint16"
            },
            {
              "internalType": "address",
              "name": "owner",
              "type": "address"
            },
            {
              "internalType": "bool",
              "name": "isAdopted",
              "type": "bool"
            },
            {
              "internalType": "bool",
              "name": "hasSplit",
              "type": "bool"
            }
          ],
          "internalType": "struct PlantMarket.Plant[]",
          "name": "",
          "type": "tuple[]"
        }
      ],
      "stateMutability": "view",
      "type": "function"
    },
    {
      "inputs": [
        {
          "internalType": "address",
          "name": "_user",
          "type": "address"
        }
      ],
      "name": "getUserAdoptionPlantIds",
      "outputs": [
        {
          "internalType": "uint256[]",
          "name": "",
          "type": "uint256[]"
        }
      ],
      "stateMutability": "view",
      "type": "function"
    },
    {
      "inputs": [
        {
          "internalType": "address",
          "name": "_user",
          "type": "address"
        },
        {
          "internalType": "enum PlantMarket.PlantType",
          "name": "_plantType",
          "type": "uint8"
        }
      ],
      "name": "getUserAdoptionRecord",
      "outputs": [
        {
          "internalType": "uint256",
          "name": "",
          "type": "uint256"
        }
      ],
      "stateMutability": "view",
      "type": "function"
    },
    {
      "inputs": [],
      "name": "owner",
      "outputs": [
        {
          "internalType": "address",
          "name": "",
          "type": "address"
        }
      ],
      "stateMutability": "view",
      "type": "function"
    },
    {
      "inputs": [
        {
          "internalType": "uint256",
          "name": "",
          "type": "uint256"
        }
      ],
      "name": "plants",
      "outputs": [
        {
          "internalType": "uint256",
          "name": "plantId",
          "type": "uint256"
        },
        {
          "internalType": "enum PlantMarket.PlantType",
          "name": "plantType",
          "type": "uint8"
        },
        {
          "internalType": "uint256",
          "name": "minEth",
          "type": "uint256"
        },
        {
          "internalType": "uint256",
          "name": "maxEth",
          "type": "uint256"
        },
        {
          "internalType": "uint8",
          "name": "startTime",
          "type": "uint8"
        },
        {
          "internalType": "uint8",
          "name": "endTime",
          "type": "uint8"
        },
        {
          "internalType": "uint256",
          "name": "adoptedTimestamp",
          "type": "uint256"
        },
        {
          "internalType": "uint8",
          "name": "profitDays",
          "type": "uint8"
        },
        {
          "internalType": "uint16",
          "name": "profitRate",
          "type": "uint16"
        },
        {
          "internalType": "address",
          "name": "owner",
          "type": "address"
        },
        {
          "internalType": "bool",
          "name": "isAdopted",
          "type": "bool"
        },
        {
          "internalType": "bool",
          "name": "hasSplit",
          "type": "bool"
        }
      ],
      "stateMutability": "view",
      "type": "function"
    },
    {
      "inputs": [],
      "name": "renounceOwnership",
      "outputs": [],
      "stateMutability": "nonpayable",
      "type": "function"
    },
    {
      "inputs": [
        {
          "internalType": "address",
          "name": "newOwner",
          "type": "address"
        }
      ],
      "name": "transferOwnership",
      "outputs": [],
      "stateMutability": "nonpayable",
      "type": "function"
    }
  ],
  "bytecode": "0x6080806040523461007c573315610067575f8054336001600160a01b03198216811783556040519290916001600160a01b0316907f8be0079c531659141344cd1fd0a4f28419497f9722a3daafe3b4186f6b6457e09080a36001805561168d90816100818239f35b631e4fbdf760e01b81525f6004820152602490fd5b5f80fdfe6080806040526004361015610012575f80fd5b5f3560e01c9081634f05caa314610f395750806365f5d1b414610ef7578063715018a614610e9357806378c0dc9214610dcc5780638da5cb5b14610da75780638dd2361c14610ce3578063c0cdaf5114610918578063d06d55ed146107d7578063d0e631501461027b578063ea2c36b1146101e9578063f2fde38b146101415763fa23bf17146100a0575f80fd5b3461013d57604036600319011261013d576100b9610fe3565b60243590600582101561013d57600482116100f9576020916001600160a01b036100f092165f5260038352600160405f2001611348565b54604051908152f35b606460405162461bcd60e51b815260206004820152601260248201527f496e76616c696420706c616e74207479706500000000000000000000000000006044820152fd5b5f80fd5b3461013d57602036600319011261013d5761015a610fe3565b61016261136b565b6001600160a01b038091169081156101b9575f548273ffffffffffffffffffffffffffffffffffffffff198216175f55167f8be0079c531659141344cd1fd0a4f28419497f9722a3daafe3b4186f6b6457e05f80a3005b60246040517f1e4fbdf70000000000000000000000000000000000000000000000000000000081525f6004820152fd5b3461013d5760e036600319011261013d57604051610206816110fc565b6004358152602435602082015260443560ff8116810361013d57604082015260643560ff8116810361013d576060820152608435600581101561013d57608082015260a43560ff8116810361013d5760a082015260c4359061ffff8216820361013d576102799160c082015230906113bb565b005b3461013d575f36600319011261013d575f5b60045481101561027957805f52600260205260405f2090600680830190815460ff6001818360b81c1615151490816107ae575b506102d3575b505050600191500161028d565b61ffff60028601549160081c169081810291818304148115171561079a5760646102fe92049061135e565b806002860155670a688906bd8b000081115f1461066c575060405190610323826110fc565b81525f5b60c08082101561037257906020915f60405191610343836110fc565b81835281858401528160408401528160608401528160808401528160a084015282015282828501015201610327565b505061058861057f61057661056d6105646002600199604051610394816110fc565b6611c37937e08000815266354a6ba7a180006020820152600e6040820152600f60608201525f6080820152600760a082015261083460c08201526103d7896112c9565b526103e1886112c9565b506040516103ee816110fc565b6635a55eb81bc0008152669fdf42f6e480006020820152600f6040820152601060608201528b6080820152600360a082015261038460c0820152610431896112d6565b5261043b886112d6565b50604051610448816110fc565b66a03a36075ec00081526701bc16d674ec800060208201526010604082015260116060820152826080820152600560a08201526104e260c082015261048c896112e6565b52610496886112e6565b506040516104a3816110fc565b6701bc71c98566c0008152670429d069189e00006020820152601160408201526012606082015260036080820152600c60a082015261083460c08201526104e9896112f6565b526104f3886112f6565b50604051610500816110fc565b67042a2b5c291840008152670a688906bd8b00006020820152601260408201526013606082015260046080820152601460a0820152610fa060c082015261054689611306565b5261055088611306565b50015461055c876112c9565b5151906113ae565b61055c866112d6565b61055c856112e6565b61055c846112f6565b61055c83611306565b60405190610595826110fc565b8152670429d069189e00006020820152601160408201526012606082015260036080820152600760a082015261083460c08201526105d282611316565b526105dc81611316565b505f5b81518110156106205784906105f560045461133a565b60045561061a6106058285611326565b516001600160a01b03865460181c16906113bb565b016105df565b505078010000000000000000000000000000000000000000000000007fffffffffffffff00ffffffffffffffffffffffffffffffffffffffffffffffff8254161790555b8280806102c6565b600194915067042a2b5c29184000811180610793575b156106a657508301805460ff191660041790555b60ff60b81b198154169055610664565b6701bc71c98566c000811180610781575b156106cf57508301805460ff19166003179055610696565b66a03a36075ec00081118061076f575b156106f757508301805460ff19166002179055610696565b6635a55eb81bc00081118061075e575b1561071e57508301805460ff191684179055610696565b6611c37937e08000811015908161074c575b5061073c575b50610696565b8301805460ff1916905583610736565b66354a6ba7a180009150111585610730565b50669fdf42f6e48000811115610707565b506701bc16d674ec80008111156106df565b50670429d069189e00008111156106b7565b5084610682565b634e487b7160e01b5f52601160045260245ffd5b60058701549150828116603c0290811690810361079a576107ce9161135e565b421015866102c0565b3461013d57604036600319011261013d576107f0610fe3565b602435801515810361013d575f905f90600454926001600160a01b03809516925b8481106108bc57506108229061127a565b935f915f5b858110610840576040518061083c89826110b3565b0390f35b805f52600260205260405f20600681015486858260181c161490816108ae575b50806108a7575b610875575b50600101610827565b600191946108856108a0926111bb565b61088f828b611326565b5261089a818a611326565b5061133a565b939061086c565b5082610867565b60ff915060b81c1689610860565b805f526002602052600660405f20015484878260181c1614908161090a575b5080610903575b6108ef575b600101610811565b906108fb60019161133a565b9190506108e7565b50826108e2565b60ff915060b81c16876108db565b60208060031936011261013d57600435906001916002835414610cb95760028355805f526002825260405f20600681019081549160ff92838160b81c16610c755760c01c8316610c3157600282015434101580610c23575b15610bdf5761097e826111bb565b617080420180421161079a57610e106018910406908460a08160808401511692015116908210159182610bd5575b505015610b9157805476ffffffffffffffffffffffffffffffffffffffff00000019163360181b76ffffffffffffffffffffffffffffffffffffffff000000161781557701000000000000000000000000000000000000000000000060ff60b81b19825416179055335f526003845260405f20805468010000000000000000811015610b3357868101808355811015610b7d5784915f52855f200155335f5260038452610a66858060405f20019201918383541690611348565b610a70815461133a565b9055541690610a826040518093610ff9565b42838301527f2b6b59e9e3b93bd4ff38cc3502e1fa2606705a155cb514545fff555a841bd4c960403393a36001600160a01b035f5416344710610b4d575f8080809334905af1903d15610b47573d9067ffffffffffffffff8211610b33575f9060405192610af982601f19601f8401160185611135565b83523d92013e5b15610b09578055005b60046040517f1425ea42000000000000000000000000000000000000000000000000000000008152fd5b634e487b7160e01b5f52604160045260245ffd5b50610b00565b60246040517fcd786059000000000000000000000000000000000000000000000000000000008152306004820152fd5b634e487b7160e01b5f52603260045260245ffd5b6064856040519062461bcd60e51b82526004820152601160248201527f4e6f742061646f7074696f6e2074696d650000000000000000000000000000006044820152fd5b10905087806109ac565b6064856040519062461bcd60e51b82526004820152601660248201527f496e76616c69642061646f7074696f6e207072696365000000000000000000006044820152fd5b506003820154341115610970565b6064856040519062461bcd60e51b82526004820152601660248201527f506c616e7420697320616c72656164792073706c6974000000000000000000006044820152fd5b6064866040519062461bcd60e51b82526004820152601860248201527f506c616e7420697320616c72656164792061646f7074656400000000000000006044820152fd5b60046040517f3ee5aeb5000000000000000000000000000000000000000000000000000000008152fd5b3461013d57602036600319011261013d576004355f52600260205261018060405f2080549060ff9081600182015416908260028201546003830154600484015491610d426006600587015496015496604051998a5260208a0190610ff9565b60408801526060870152818116608087015260081c1660a085015260c084015281811660e084015261ffff8160081c166101008401526001600160a01b038160181c16610120840152818160b81c16151561014084015260c01c161515610160820152f35b3461013d575f36600319011261013d5760206001600160a01b035f5416604051908152f35b3461013d575f36600319011261013d57600454610de88161127a565b905f905f5b818110610e41575050610dff8161127a565b915f5b828110610e17576040518061083c86826110b3565b80610e2460019284611326565b51610e2f8287611326565b52610e3a8186611326565b5001610e02565b805f52600260205260405f2060ff600682015460b81c1615610e67575b50600101610ded565b60019193610e77610e8c926111bb565b610e818288611326565b5261089a8187611326565b9290610e5e565b3461013d575f36600319011261013d57610eab61136b565b5f6001600160a01b03815473ffffffffffffffffffffffffffffffffffffffff1981168355167f8be0079c531659141344cd1fd0a4f28419497f9722a3daafe3b4186f6b6457e08280a3005b3461013d57602036600319011261013d57610f10611157565b506004355f526002602052610180610f2a60405f206111bb565b610f37604051809261101a565bf35b3461013d576020908160031936011261013d576001600160a01b03610f5c610fe3565b165f526003825260405f2080548083528383019081925f52845f20905f5b86828210610fcf578686610f9082880383611135565b60405192839281840190828552518091526040840192915f5b828110610fb857505050500390f35b835185528695509381019392810192600101610fa9565b835485529093019260019283019201610f7a565b600435906001600160a01b038216820361013d57565b9060058210156110065752565b634e487b7160e01b5f52602160045260245ffd5b8051825261103060208201516020840190610ff9565b604081015160408301526060810151606083015260ff608082015116608083015260ff60a08201511660a083015260c081015160c083015260ff60e08201511660e083015261010061ffff8183015116908301526101206001600160a01b0381830151169083015261014080820151151590830152610160809101511515910152565b60209060206040818301928281528551809452019301915f5b8281106110da575050505090565b9091929382610180826110f0600194895161101a565b019501939291016110cc565b60e0810190811067ffffffffffffffff821117610b3357604052565b610180810190811067ffffffffffffffff821117610b3357604052565b90601f8019910116810190811067ffffffffffffffff821117610b3357604052565b6040519061116482611118565b5f610160838281528260208201528260408201528260608201528260808201528260a08201528260c08201528260e08201528261010082015282610120820152826101408201520152565b60058210156110065752565b906040516111c881611118565b610160819380548352600660ff916111e983600183015416602087016111af565b6002810154604086015260038101546060860152826004820154818116608088015260081c1660a0860152600581015460c0860152015481811660e085015261ffff8160081c166101008501526001600160a01b038160181c16610120850152818160b81c16151561014085015260c01c161515910152565b67ffffffffffffffff8111610b335760051b60200190565b9061128482611262565b6112916040519182611135565b82815280926112a2601f1991611262565b01905f5b8281106112b257505050565b6020906112bd611157565b828285010152016112a6565b805115610b7d5760200190565b805160011015610b7d5760400190565b805160021015610b7d5760600190565b805160031015610b7d5760800190565b805160041015610b7d5760a00190565b805160051015610b7d5760c00190565b8051821015610b7d5760209160051b010190565b5f19811461079a5760010190565b906005811015611006575f5260205260405f2090565b9190820180921161079a57565b6001600160a01b035f5416330361137e57565b60246040517f118cdaa7000000000000000000000000000000000000000000000000000000008152336004820152fd5b9190820391821161079a57565b60049182545f1981101561161357825160208401519260ff6040860151169160ff6060870151169260808701519360058510156116005760ff60a0890151169661ffff60c08a015116926040519261141284611118565b8884526114236020850198896111af565b60408401958652606084019283526080840191825260a0840190815260c08401925f845260e085019a8b5261010085019586526101208501966001600160a01b0380991688526101408601995f8b5261016087019b5f8d525f52600260205260405f209651875560018701905160058110156115ec578f60ff9794600697946115429d9c9b9a97948a948580198354169116179055516002880155516003870155850192511661ff008354925160081b169161ffff1916171790555160058201550197511662ffff008854925160081b169162ffffff1916171786555116849076ffffffffffffffffffffffffffffffffffffffff0000001976ffffffffffffffffffffffffffffffffffffffff00000083549260181b169116179055565b511515907fffffffffffffff0000ffffffffffffffffffffffffffffffffffffffffffffff77ff000000000000000000000000000000000000000000000078ff00000000000000000000000000000000000000000000000085549351151560c01b169360b81b169116171790556115b9825461133a565b80925551906040519182527f14ac6d84304037c1b2b045bc0ec013c584edaf1f3881c8c837c9c34c336a87b360203093a3565b5060218f634e487b7160e01b5f525260245ffd5b602189634e487b7160e01b5f525260245ffd5b60648460206040519162461bcd60e51b8352820152601160248201527f506c616e74204944206f766572666c6f770000000000000000000000000000006044820152fdfea2646970667358221220f8c7bb130188bfb26b3707f40996dfcafc3925e5bba94812fc2773a5a7f13f1164736f6c63430008180033",
  "linkReferences": {},
  "deployedLinkReferences": {}
}