{
  "_format": "hh-sol-artifact-1",
  "contractName": "PlantERC20",
  "sourceName": "contracts/PlantERC20.sol",
  "abi": [
    {
      "inputs": [],
      "stateMutability": "nonpayable",
      "type": "constructor"
    },
    {
      "inputs": [
        {
          "internalType": "address",
          "name": "spender",
          "type": "address"
        },
        {
          "internalType": "uint256",
          "name": "allowance",
          "type": "uint256"
        },
        {
          "internalType": "uint256",
          "name": "needed",
          "type": "uint256"
        }
      ],
      "name": "ERC20InsufficientAllowance",
      "type": "error"
    },
    {
      "inputs": [
        {
          "internalType": "address",
          "name": "sender",
          "type": "address"
        },
        {
          "internalType": "uint256",
          "name": "balance",
          "type": "uint256"
        },
        {
          "internalType": "uint256",
          "name": "needed",
          "type": "uint256"
        }
      ],
      "name": "ERC20InsufficientBalance",
      "type": "error"
    },
    {
      "inputs": [
        {
          "internalType": "address",
          "name": "approver",
          "type": "address"
        }
      ],
      "name": "ERC20InvalidApprover",
      "type": "error"
    },
    {
      "inputs": [
        {
          "internalType": "address",
          "name": "receiver",
          "type": "address"
        }
      ],
      "name": "ERC20InvalidReceiver",
      "type": "error"
    },
    {
      "inputs": [
        {
          "internalType": "address",
          "name": "sender",
          "type": "address"
        }
      ],
      "name": "ERC20InvalidSender",
      "type": "error"
    },
    {
      "inputs": [
        {
          "internalType": "address",
          "name": "spender",
          "type": "address"
        }
      ],
      "name": "ERC20InvalidSpender",
      "type": "error"
    },
    {
      "inputs": [],
      "name": "ExceedsSupplyLimit",
      "type": "error"
    },
    {
      "inputs": [
        {
          "internalType": "address",
          "name": "owner",
          "type": "address"
        }
      ],
      "name": "OwnableInvalidOwner",
      "type": "error"
    },
    {
      "inputs": [
        {
          "internalType": "address",
          "name": "account",
          "type": "address"
        }
      ],
      "name": "OwnableUnauthorizedAccount",
      "type": "error"
    },
    {
      "inputs": [],
      "name": "UnauthorizedAccess",
      "type": "error"
    },
    {
      "anonymous": false,
      "inputs": [
        {
          "indexed": true,
          "internalType": "address",
          "name": "owner",
          "type": "address"
        },
        {
          "indexed": true,
          "internalType": "address",
          "name": "spender",
          "type": "address"
        },
        {
          "indexed": false,
          "internalType": "uint256",
          "name": "value",
          "type": "uint256"
        }
      ],
      "name": "Approval",
      "type": "event"
    },
    {
      "anonymous": false,
      "inputs": [
        {
          "indexed": true,
          "internalType": "address",
          "name": "previousOwner",
          "type": "address"
        },
        {
          "indexed": true,
          "internalType": "address",
          "name": "newOwner",
          "type": "address"
        }
      ],
      "name": "OwnershipTransferred",
      "type": "event"
    },
    {
      "anonymous": false,
      "inputs": [
        {
          "indexed": true,
          "internalType": "address",
          "name": "from",
          "type": "address"
        },
        {
          "indexed": true,
          "internalType": "address",
          "name": "to",
          "type": "address"
        },
        {
          "indexed": false,
          "internalType": "uint256",
          "name": "value",
          "type": "uint256"
        }
      ],
      "name": "Transfer",
      "type": "event"
    },
    {
      "inputs": [
        {
          "internalType": "address",
          "name": "owner",
          "type": "address"
        },
        {
          "internalType": "address",
          "name": "spender",
          "type": "address"
        }
      ],
      "name": "allowance",
      "outputs": [
        {
          "internalType": "uint256",
          "name": "",
          "type": "uint256"
        }
      ],
      "stateMutability": "view",
      "type": "function"
    },
    {
      "inputs": [
        {
          "internalType": "address",
          "name": "spender",
          "type": "address"
        },
        {
          "internalType": "uint256",
          "name": "value",
          "type": "uint256"
        }
      ],
      "name": "approve",
      "outputs": [
        {
          "internalType": "bool",
          "name": "",
          "type": "bool"
        }
      ],
      "stateMutability": "nonpayable",
      "type": "function"
    },
    {
      "inputs": [
        {
          "internalType": "address",
          "name": "account",
          "type": "address"
        }
      ],
      "name": "balanceOf",
      "outputs": [
        {
          "internalType": "uint256",
          "name": "",
          "type": "uint256"
        }
      ],
      "stateMutability": "view",
      "type": "function"
    },
    {
      "inputs": [
        {
          "internalType": "uint256",
          "name": "value",
          "type": "uint256"
        }
      ],
      "name": "burn",
      "outputs": [],
      "stateMutability": "nonpayable",
      "type": "function"
    },
    {
      "inputs": [
        {
          "internalType": "address",
          "name": "account",
          "type": "address"
        },
        {
          "internalType": "uint256",
          "name": "value",
          "type": "uint256"
        }
      ],
      "name": "burnFrom",
      "outputs": [],
      "stateMutability": "nonpayable",
      "type": "function"
    },
    {
      "inputs": [],
      "name": "decimals",
      "outputs": [
        {
          "internalType": "uint8",
          "name": "",
          "type": "uint8"
        }
      ],
      "stateMutability": "view",
      "type": "function"
    },
    {
      "inputs": [
        {
          "internalType": "address",
          "name": "account",
          "type": "address"
        },
        {
          "internalType": "uint256",
          "name": "amount",
          "type": "uint256"
        }
      ],
      "name": "mintFromMarket",
      "outputs": [],
      "stateMutability": "nonpayable",
      "type": "function"
    },
    {
      "inputs": [],
      "name": "mintableBalance",
      "outputs": [
        {
          "internalType": "uint256",
          "name": "",
          "type": "uint256"
        }
      ],
      "stateMutability": "view",
      "type": "function"
    },
    {
      "inputs": [],
      "name": "name",
      "outputs": [
        {
          "internalType": "string",
          "name": "",
          "type": "string"
        }
      ],
      "stateMutability": "view",
      "type": "function"
    },
    {
      "inputs": [],
      "name": "owner",
      "outputs": [
        {
          "internalType": "address",
          "name": "",
          "type": "address"
        }
      ],
      "stateMutability": "view",
      "type": "function"
    },
    {
      "inputs": [],
      "name": "renounceOwnership",
      "outputs": [],
      "stateMutability": "nonpayable",
      "type": "function"
    },
    {
      "inputs": [
        {
          "internalType": "address",
          "name": "plantMarketContract",
          "type": "address"
        }
      ],
      "name": "setPlantMarketContract",
      "outputs": [],
      "stateMutability": "nonpayable",
      "type": "function"
    },
    {
      "inputs": [],
      "name": "symbol",
      "outputs": [
        {
          "internalType": "string",
          "name": "",
          "type": "string"
        }
      ],
      "stateMutability": "view",
      "type": "function"
    },
    {
      "inputs": [],
      "name": "totalSupply",
      "outputs": [
        {
          "internalType": "uint256",
          "name": "",
          "type": "uint256"
        }
      ],
      "stateMutability": "view",
      "type": "function"
    },
    {
      "inputs": [
        {
          "internalType": "address",
          "name": "to",
          "type": "address"
        },
        {
          "internalType": "uint256",
          "name": "value",
          "type": "uint256"
        }
      ],
      "name": "transfer",
      "outputs": [
        {
          "internalType": "bool",
          "name": "",
          "type": "bool"
        }
      ],
      "stateMutability": "nonpayable",
      "type": "function"
    },
    {
      "inputs": [
        {
          "internalType": "address",
          "name": "from",
          "type": "address"
        },
        {
          "internalType": "address",
          "name": "to",
          "type": "address"
        },
        {
          "internalType": "uint256",
          "name": "value",
          "type": "uint256"
        }
      ],
      "name": "transferFrom",
      "outputs": [
        {
          "internalType": "bool",
          "name": "",
          "type": "bool"
        }
      ],
      "stateMutability": "nonpayable",
      "type": "function"
    },
    {
      "inputs": [
        {
          "internalType": "address",
          "name": "newOwner",
          "type": "address"
        }
      ],
      "name": "transferOwnership",
      "outputs": [],
      "stateMutability": "nonpayable",
      "type": "function"
    }
  ],
  "bytecode": "0x6080604052346200032857620000146200032c565b6200001e6200032c565b8151906001600160401b039081831162000233576003908154906001948583811c93169687156200031d575b6020978885101462000309578190601f94858111620002b6575b50889085831160011462000253575f9262000247575b50505f1982861b1c191690861b1783555b8051938411620002335760049586548681811c9116801562000228575b828210146200021557838111620001cd575b50809285116001146200016357509383949184925f9562000157575b50501b925f19911b1c19161781555b3315620001405760058054336001600160a01b03198216811790925560405191906001600160a01b03167f8be0079c531659141344cd1fd0a4f28419497f9722a3daafe3b4186f6b6457e05f80a3610b6d90816200035e8239f35b6024905f60405191631e4fbdf760e01b8352820152fd5b015193505f80620000d6565b92919084601f198116885f52855f20955f905b89838310620001b2575050501062000198575b50505050811b018155620000e5565b01519060f8845f19921b161c191690555f80808062000189565b85870151895590970196948501948893509081019062000176565b875f52815f208480880160051c8201928489106200020b575b0160051c019087905b828110620001ff575050620000ba565b5f8155018790620001ef565b92508192620001e6565b602288634e487b7160e01b5f525260245ffd5b90607f1690620000a8565b634e487b7160e01b5f52604160045260245ffd5b015190505f806200007a565b90889350601f19831691875f528a5f20925f5b8c8282106200029f575050841162000287575b505050811b0183556200008b565b01515f1983881b60f8161c191690555f808062000279565b8385015186558c9790950194938401930162000266565b909150855f52885f208580850160051c8201928b8610620002ff575b918a91869594930160051c01915b828110620002f057505062000064565b5f81558594508a9101620002e0565b92508192620002d2565b634e487b7160e01b5f52602260045260245ffd5b92607f16926200004a565b5f80fd5b60408051919082016001600160401b03811183821017620002335760405260048252635452454560e01b602083015256fe608060409080825260049081361015610016575f80fd5b5f3560e01c90816306fdde03146106f457508063095ea7b31461064b578063111b6834146105ff57806318160ddd146105e157806323b872dd146105a5578063313ce5671461058a57806331ed9d5d1461054057806342966c6814610523578063704432c91461041957806370a08231146103e3578063715018a61461037d57806379cc67901461034c5780638da5cb5b1461032557806395d89b4114610205578063a9059cbb146101d5578063dd62ed3e1461018b5763f2fde38b146100db575f80fd5b34610187576020366003190112610187576100f4610831565b906100fd61087e565b6001600160a01b038092169283156101585750506005548273ffffffffffffffffffffffffffffffffffffffff19821617600555167f8be0079c531659141344cd1fd0a4f28419497f9722a3daafe3b4186f6b6457e05f80a3005b905f60249251917f1e4fbdf7000000000000000000000000000000000000000000000000000000008352820152fd5b5f80fd5b82346101875780600319360112610187576020906101a7610831565b6101af610847565b906001600160a01b038091165f5260018452825f2091165f528252805f20549051908152f35b82346101875780600319360112610187576020906101fe6101f4610831565b60243590336109a7565b5160018152f35b509034610187575f366003190112610187578051905f835460018160011c906001831692831561031b575b6020938484108114610308578388529081156102ec5750600114610298575b505050829003601f01601f191682019267ffffffffffffffff84118385101761028557508291826102819252826107ea565b0390f35b604190634e487b7160e01b5f525260245ffd5b5f878152929350837f8a35acfbc15ff81a39ae7d344fd709f28e8600b4aa8c65c6b64bfe7fe36bd19b5b8385106102d857505050508301015f808061024f565b8054888601830152930192849082016102c2565b60ff1916878501525050151560051b84010190505f808061024f565b602289634e487b7160e01b5f525260245ffd5b91607f1691610230565b8234610187575f366003190112610187576020906001600160a01b03600554169051908152f35b8234610187573660031901126101875761037b610367610831565b602435906103768233836108c2565b610a98565b005b34610187575f3660031901126101875761039561087e565b5f6001600160a01b0360055473ffffffffffffffffffffffffffffffffffffffff198116600555167f8be0079c531659141344cd1fd0a4f28419497f9722a3daafe3b4186f6b6457e08280a3005b8234610187576020366003190112610187576020906001600160a01b03610408610831565b165f525f8252805f20549051908152f35b509034610187578060031936011261018757610433610831565b90602435916001600160a01b03806006541633036104fb57600254916b033b2e3c9fd0803ce8000000610466868561085d565b116104d357169384156104bd5750827fddf252ad1be2c89b69c2b068fc378daa952ba7f163c4a11628f55a4df523b3ef926104a45f9560209461085d565b60025585855284835280852082815401905551908152a3005b6024905f84519163ec442f0560e01b8352820152fd5b8584517f0d069d94000000000000000000000000000000000000000000000000000000008152fd5b8483517f344fd586000000000000000000000000000000000000000000000000000000008152fd5b50346101875760203660031901126101875761037b903533610a98565b509034610187575f36600319011261018757600254906b033b2e3c9fd0803ce8000000918203918211610577576020925051908152f35b601183634e487b7160e01b5f525260245ffd5b8234610187575f366003190112610187576020905160128152f35b8234610187576060366003190112610187576020906101fe6105c5610831565b6105cd610847565b604435916105dc8333836108c2565b6109a7565b8234610187575f366003190112610187576020906002549051908152f35b34610187576020366003190112610187576001600160a01b03610620610831565b61062861087e565b1673ffffffffffffffffffffffffffffffffffffffff1960065416176006555f80f35b509034610187578060031936011261018757610665610831565b6024359033156106de576001600160a01b03169081156106c85760209350335f5260018452825f20825f52845280835f205582519081527f8c5be1e5ebec7d5bd14f71427d1e84f3dd0314c0f7b2291e5b200ac8c7c3b925843392a35160018152f35b6024845f855191634a1406b160e11b8352820152fd5b6024845f85519163e602df0560e01b8352820152fd5b90508234610187575f366003190112610187575f60035460018160011c90600183169283156107e0575b6020938484108114610308578388529081156107c4575060011461076e57505050829003601f01601f191682019267ffffffffffffffff84118385101761028557508291826102819252826107ea565b60035f908152929350837fc2575a0e9e593c00f959f8c92f12db2869c3395a3b0502d05e2516446f71f85b5b8385106107b0575050505083010184808061024f565b80548886018301529301928490820161079a565b60ff1916878501525050151560051b840101905084808061024f565b91607f169161071e565b602080825282518183018190529093925f5b82811061081d57505060409293505f838284010152601f8019910116010190565b8181018601518482016040015285016107fc565b600435906001600160a01b038216820361018757565b602435906001600160a01b038216820361018757565b9190820180921161086a57565b634e487b7160e01b5f52601160045260245ffd5b6001600160a01b0360055416330361089257565b60246040517f118cdaa7000000000000000000000000000000000000000000000000000000008152336004820152fd5b91906001600160a01b0380931692835f526001602052604093845f2091831691825f52602052845f2054925f1984036108fe575b505050505050565b84841061095e57508015610948578115610932575f526001602052835f20905f5260205203905f20555f80808080806108f6565b60248551634a1406b160e11b81525f6004820152fd5b6024855163e602df0560e01b81525f6004820152fd5b85517ffb8f41b20000000000000000000000000000000000000000000000000000000081526001600160a01b039190911660048201526024810184905260448101859052606490fd5b916001600160a01b03808416928315610a685716928315610a5157825f525f60205260405f205490828210610a1f5750817fddf252ad1be2c89b69c2b068fc378daa952ba7f163c4a11628f55a4df523b3ef92602092855f525f84520360405f2055845f5260405f20818154019055604051908152a3565b60405163391434e360e21b81526001600160a01b03919091166004820152602481019190915260448101829052606490fd5b602460405163ec442f0560e01b81525f6004820152fd5b60246040517f96c6fd1e0000000000000000000000000000000000000000000000000000000081525f6004820152fd5b91906001600160a01b038316908115610a6857815f525f60205260405f205493818510610b0557506020817fddf252ad1be2c89b69c2b068fc378daa952ba7f163c4a11628f55a4df523b3ef925f95968587528684520360408620558060025403600255604051908152a3565b60405163391434e360e21b81526001600160a01b03919091166004820152602481018590526044810191909152606490fdfea2646970667358221220b70474d3cb40b0ce4fcf2dcdaa9295f372f79a3a5d7d207f09211242f4efb70a64736f6c63430008180033",
  "linkReferences": {},
  "deployedLinkReferences": {}
}