{
  "_format": "hh-sol-artifact-1",
  "contractName": "PlantMarket",
  "sourceName": "contracts/PlantMarket.sol",
  "abi": [
    {
      "inputs": [],
      "stateMutability": "nonpayable",
      "type": "constructor"
    },
    {
      "inputs": [
        {
          "internalType": "address",
          "name": "account",
          "type": "address"
        }
      ],
      "name": "AddressInsufficientBalance",
      "type": "error"
    },
    {
      "inputs": [],
      "name": "FailedInnerCall",
      "type": "error"
    },
    {
      "inputs": [
        {
          "internalType": "address",
          "name": "owner",
          "type": "address"
        }
      ],
      "name": "OwnableInvalidOwner",
      "type": "error"
    },
    {
      "inputs": [
        {
          "internalType": "address",
          "name": "account",
          "type": "address"
        }
      ],
      "name": "OwnableUnauthorizedAccount",
      "type": "error"
    },
    {
      "inputs": [],
      "name": "ReentrancyGuardReentrantCall",
      "type": "error"
    },
    {
      "anonymous": false,
      "inputs": [
        {
          "indexed": true,
          "internalType": "address",
          "name": "previousOwner",
          "type": "address"
        },
        {
          "indexed": true,
          "internalType": "address",
          "name": "newOwner",
          "type": "address"
        }
      ],
      "name": "OwnershipTransferred",
      "type": "event"
    },
    {
      "anonymous": false,
      "inputs": [
        {
          "indexed": true,
          "internalType": "uint256",
          "name": "plantId",
          "type": "uint256"
        },
        {
          "indexed": true,
          "internalType": "address",
          "name": "owner",
          "type": "address"
        },
        {
          "indexed": false,
          "internalType": "enum PlantMarket.PlantType",
          "name": "plantType",
          "type": "uint8"
        },
        {
          "indexed": false,
          "internalType": "uint256",
          "name": "adoptionTime",
          "type": "uint256"
        }
      ],
      "name": "PlantAdopted",
      "type": "event"
    },
    {
      "anonymous": false,
      "inputs": [
        {
          "indexed": true,
          "internalType": "uint256",
          "name": "plantId",
          "type": "uint256"
        },
        {
          "indexed": true,
          "internalType": "address",
          "name": "seller",
          "type": "address"
        },
        {
          "indexed": false,
          "internalType": "uint256",
          "name": "price",
          "type": "uint256"
        }
      ],
      "name": "PlantListed",
      "type": "event"
    },
    {
      "anonymous": false,
      "inputs": [
        {
          "indexed": true,
          "internalType": "uint256",
          "name": "plantId",
          "type": "uint256"
        },
        {
          "indexed": true,
          "internalType": "address",
          "name": "buyer",
          "type": "address"
        },
        {
          "indexed": true,
          "internalType": "address",
          "name": "seller",
          "type": "address"
        },
        {
          "indexed": false,
          "internalType": "uint256",
          "name": "price",
          "type": "uint256"
        }
      ],
      "name": "PlantSold",
      "type": "event"
    },
    {
      "inputs": [
        {
          "internalType": "uint256",
          "name": "_plantId",
          "type": "uint256"
        }
      ],
      "name": "adoptPlant",
      "outputs": [],
      "stateMutability": "payable",
      "type": "function"
    },
    {
      "inputs": [
        {
          "internalType": "enum PlantMarket.PlantType",
          "name": "_plantType",
          "type": "uint8"
        }
      ],
      "name": "createPlant",
      "outputs": [],
      "stateMutability": "nonpayable",
      "type": "function"
    },
    {
      "inputs": [],
      "name": "getMarketListings",
      "outputs": [
        {
          "components": [
            {
              "internalType": "uint256",
              "name": "plantId",
              "type": "uint256"
            },
            {
              "internalType": "enum PlantMarket.PlantType",
              "name": "plantType",
              "type": "uint8"
            }
          ],
          "internalType": "struct PlantMarket.MarketPlantInfo[]",
          "name": "",
          "type": "tuple[]"
        }
      ],
      "stateMutability": "view",
      "type": "function"
    },
    {
      "inputs": [
        {
          "internalType": "uint256",
          "name": "_plantId",
          "type": "uint256"
        }
      ],
      "name": "getPlantInfoById",
      "outputs": [
        {
          "components": [
            {
              "internalType": "uint256",
              "name": "plantId",
              "type": "uint256"
            },
            {
              "internalType": "enum PlantMarket.PlantType",
              "name": "plantType",
              "type": "uint8"
            },
            {
              "internalType": "address",
              "name": "owner",
              "type": "address"
            },
            {
              "internalType": "bool",
              "name": "isAdopted",
              "type": "bool"
            }
          ],
          "internalType": "struct PlantMarket.Plant",
          "name": "",
          "type": "tuple"
        }
      ],
      "stateMutability": "view",
      "type": "function"
    },
    {
      "inputs": [
        {
          "internalType": "address",
          "name": "_user",
          "type": "address"
        },
        {
          "internalType": "enum PlantMarket.PlantType",
          "name": "_plantType",
          "type": "uint8"
        }
      ],
      "name": "getUserAdoptionRecord",
      "outputs": [
        {
          "internalType": "uint256",
          "name": "",
          "type": "uint256"
        }
      ],
      "stateMutability": "view",
      "type": "function"
    },
    {
      "inputs": [],
      "name": "owner",
      "outputs": [
        {
          "internalType": "address",
          "name": "",
          "type": "address"
        }
      ],
      "stateMutability": "view",
      "type": "function"
    },
    {
      "inputs": [
        {
          "internalType": "uint256",
          "name": "",
          "type": "uint256"
        }
      ],
      "name": "plants",
      "outputs": [
        {
          "internalType": "uint256",
          "name": "plantId",
          "type": "uint256"
        },
        {
          "internalType": "enum PlantMarket.PlantType",
          "name": "plantType",
          "type": "uint8"
        },
        {
          "internalType": "address",
          "name": "owner",
          "type": "address"
        },
        {
          "internalType": "bool",
          "name": "isAdopted",
          "type": "bool"
        }
      ],
      "stateMutability": "view",
      "type": "function"
    },
    {
      "inputs": [
        {
          "internalType": "enum PlantMarket.PlantType",
          "name": "",
          "type": "uint8"
        }
      ],
      "name": "priceRanges",
      "outputs": [
        {
          "internalType": "uint256",
          "name": "minEth",
          "type": "uint256"
        },
        {
          "internalType": "uint256",
          "name": "maxEth",
          "type": "uint256"
        },
        {
          "internalType": "uint256",
          "name": "startTime",
          "type": "uint256"
        },
        {
          "internalType": "uint256",
          "name": "endTime",
          "type": "uint256"
        },
        {
          "internalType": "uint256",
          "name": "profitDays",
          "type": "uint256"
        },
        {
          "internalType": "uint256",
          "name": "profitRate",
          "type": "uint256"
        }
      ],
      "stateMutability": "view",
      "type": "function"
    },
    {
      "inputs": [],
      "name": "renounceOwnership",
      "outputs": [],
      "stateMutability": "nonpayable",
      "type": "function"
    },
    {
      "inputs": [
        {
          "internalType": "address",
          "name": "newOwner",
          "type": "address"
        }
      ],
      "name": "transferOwnership",
      "outputs": [],
      "stateMutability": "nonpayable",
      "type": "function"
    }
  ],
  "bytecode": "0x60806040908082523461029057331561027b57505f8054336001600160a01b0319821681178355916001600160a01b03909116907f8be0079c531659141344cd1fd0a4f28419497f9722a3daafe3b4186f6b6457e09080a36001808055610064610294565b6611c37937e08000815260208082019166354a6ba7a18000835284810192600e845260608201600f815260808301926007845260a0810195601587525f8052600293848752895f2092518355518883015551838201556003915182820155600493518482015560058096519101556100da610294565b6635a55eb81bc000815285858201669fdf42f6e480008152898301600f81526060840160108152608085019186835260a0860193600985528c5f52888b528d5f2096518755518c8701555187860155518585015551868401555191015561013f610294565b66a03a36075ec0008152858582016701bc16d674ec80008152898301601081526060840160118152608085019184835260a0860193600d8552885f52888b528d5f2096518755518c870155518786015551858501555186840155519101556101a5610294565b6701bc71c98566c000815285858201670429d069189e000081528983016011815260608401601281526080850191600c835260a086019360158552875f52888b528d5f2096518755518c8701555187860155518585015551868401555191015561020d610294565b9567042a2b5c29184000875284870192670a688906bd8b000084528888016012815260608901926013845260808a0195601487528360a08c019960288b52895f52528b5f209a518b5551908a01555190880155519086015551908401555191015551610b6990816102c88239f35b631e4fbdf760e01b81525f6004820152602490fd5b5f80fd5b6040519060c082016001600160401b038111838210176102b357604052565b634e487b7160e01b5f52604160045260245ffdfe60406080815260049081361015610014575f80fd5b5f3560e01c806365f5d1b4146108ab578063715018a61461084757806378c0dc92146107165780638da5cb5b146106f05780638dd2361c14610693578063c0cdaf5114610370578063d8156ba61461030a578063e121dd2a14610182578063f2fde38b146100d65763fa23bf171461008a575f80fd5b346100d257806003193601126100d2576100a26109a0565b60243560058110156100d2576020936001600160a01b036100ca93165f528452825f2061098a565b549051908152f35b5f80fd5b5090346100d25760203660031901126100d2576100f16109a0565b906100fa610af0565b6001600160a01b038092169283156101535750505f548273ffffffffffffffffffffffffffffffffffffffff198216175f55167f8be0079c531659141344cd1fd0a4f28419497f9722a3daafe3b4186f6b6457e05f80a3005b905f60249251917f1e4fbdf7000000000000000000000000000000000000000000000000000000008352820152fd5b5090346100d25760203660031901126100d25780359060058210156100d2576101a9610af0565b600554905f198210156102c7576101be6109b6565b908282526101d0602083019485610a30565b60018583019230845260608101945f86525f526003602052865f20905181550193519060058210156102b45750835491517fffffffffffffffffffffff00000000000000000000000000000000000000000090921660ff9091161760089190911b74ffffffffffffffffffffffffffffffffffffffff001617825551151560ff60a81b1975ff00000000000000000000000000000000000000000083549260a81b169116179055610282600554610ace565b908160055551905f82527f14ac6d84304037c1b2b045bc0ec013c584edaf1f3881c8c837c9c34c336a87b360203093a3005b602190634e487b7160e01b5f525260245ffd5b606490602085519162461bcd60e51b8352820152601160248201527f506c616e74204944206f766572666c6f770000000000000000000000000000006044820152fd5b5090346100d25760203660031901126100d25780359160058310156100d25761033460c093610973565b805492600182015492600283015490600560038501549385015494015494815196875260208701528501526060840152608083015260a0820152f35b5090602091826003193601126100d257813592600193600285541461066b5760028555805f526003825284835f2001805460ff8160a81c166106295760ff166103b881610973565b5434101580610614575b156105d2576018610e104204069060036103e860026103e084610973565b015492610973565b01549082101591826105c8575b5050156105865780547fffffffffffffffffffffff0000000000000000000000000000000000000000ff163360081b74ffffffffffffffffffffffffffffffffffffffff001617815560ff9061047a8154750100000000000000000000000000000000000000000060ff60a81b198216178355335f5287865283875f2091169061098a565b6104848154610ace565b905554169061049584518093610952565b42838301527f2b6b59e9e3b93bd4ff38cc3502e1fa2606705a155cb514545fff555a841bd4c9843393a36001600160a01b035f5416344710610557575f8080809334905af1903d15610551573d9067ffffffffffffffff821161053e575f90610506601f8401601f19168201610a0a565b9283523d92013e5b1561051857828055005b517f1425ea42000000000000000000000000000000000000000000000000000000008152fd5b604185634e487b7160e01b5f525260245ffd5b5061050e565b82517fcd7860590000000000000000000000000000000000000000000000000000000081523081860152602490fd5b6064858486519162461bcd60e51b8352820152601160248201527f4e6f742061646f7074696f6e2074696d650000000000000000000000000000006044820152fd5b1090505f806103f5565b6064868587519162461bcd60e51b8352820152601660248201527f496e76616c69642061646f7074696f6e207072696365000000000000000000006044820152fd5b508661061f82610973565b01543411156103c2565b6064868587519162461bcd60e51b8352820152601860248201527f506c616e7420697320616c72656164792061646f7074656400000000000000006044820152fd5b5050517f3ee5aeb5000000000000000000000000000000000000000000000000000000008152fd5b50346100d25760203660031901126100d257608091355f52600360205260ff815f2091600183549301549080519384526106d260208501848416610952565b6001600160a01b038260081c169084015260a81c1615156060820152f35b50346100d2575f3660031901126100d2576020906001600160a01b035f54169051908152f35b50346100d2575f3660031901126100d25760055461073381610a54565b905f905f5b8181106107d757505061074a81610a54565b915f5b8281106107ad57845160208082528551818301819052829182890191818901915f8b5b83821061077d5786860387f35b9184965082600192949661079d8380985180518452015184830190610952565b0196019201869594929391610770565b806107ba60019284610aa6565b516107c58287610aa6565b526107d08186610aa6565b500161074d565b805f526020600381526001865f2001549060ff808360a81c1615610801575b505050600101610738565b91610823600194969261083e946108166109ea565b9389855216908301610a30565b61082d8288610aa6565b526108388187610aa6565b50610ace565b929086806107f6565b346100d2575f3660031901126100d25761085f610af0565b5f6001600160a01b03815473ffffffffffffffffffffffffffffffffffffffff1981168355167f8be0079c531659141344cd1fd0a4f28419497f9722a3daafe3b4186f6b6457e08280a3005b50346100d25760203660031901126100d2576080915f60606108cb6109b6565b82815282602082015282858201520152355f526003602052805f209060016108f16109b6565b92805484520154906020830161090a60ff841682610a30565b6001600160a01b039061094283860191838660081c16835260ff606088019660a81c1615158652845196518752516020870190610952565b5116908301525115156060820152f35b90600582101561095f5752565b634e487b7160e01b5f52602160045260245ffd5b600581101561095f575f52600260205260405f2090565b90600581101561095f575f5260205260405f2090565b600435906001600160a01b03821682036100d257565b604051906080820182811067ffffffffffffffff8211176109d657604052565b634e487b7160e01b5f52604160045260245ffd5b604051906040820182811067ffffffffffffffff8211176109d657604052565b6040519190601f01601f1916820167ffffffffffffffff8111838210176109d657604052565b600582101561095f5752565b67ffffffffffffffff81116109d65760051b60200190565b90610a66610a6183610a3c565b610a0a565b8281528092610a77601f1991610a3c565b01905f5b828110610a8757505050565b602090610a926109ea565b5f8152825f81830152828501015201610a7b565b8051821015610aba5760209160051b010190565b634e487b7160e01b5f52603260045260245ffd5b5f198114610adc5760010190565b634e487b7160e01b5f52601160045260245ffd5b6001600160a01b035f54163303610b0357565b60246040517f118cdaa7000000000000000000000000000000000000000000000000000000008152336004820152fdfea2646970667358221220d0ad5f19fc6621b22b1420d887512bcbf7021fcacb3b2302051f23e5f4fe8eb264736f6c63430008180033",
  "linkReferences": {},
  "deployedLinkReferences": {}
}