{
  "_format": "hh-sol-artifact-1",
  "contractName": "PlantERC20",
  "sourceName": "contracts/PlantERC20.sol",
  "abi": [
    {
      "inputs": [],
      "stateMutability": "nonpayable",
      "type": "constructor"
    },
    {
      "inputs": [
        {
          "internalType": "address",
          "name": "spender",
          "type": "address"
        },
        {
          "internalType": "uint256",
          "name": "allowance",
          "type": "uint256"
        },
        {
          "internalType": "uint256",
          "name": "needed",
          "type": "uint256"
        }
      ],
      "name": "ERC20InsufficientAllowance",
      "type": "error"
    },
    {
      "inputs": [
        {
          "internalType": "address",
          "name": "sender",
          "type": "address"
        },
        {
          "internalType": "uint256",
          "name": "balance",
          "type": "uint256"
        },
        {
          "internalType": "uint256",
          "name": "needed",
          "type": "uint256"
        }
      ],
      "name": "ERC20InsufficientBalance",
      "type": "error"
    },
    {
      "inputs": [
        {
          "internalType": "address",
          "name": "approver",
          "type": "address"
        }
      ],
      "name": "ERC20InvalidApprover",
      "type": "error"
    },
    {
      "inputs": [
        {
          "internalType": "address",
          "name": "receiver",
          "type": "address"
        }
      ],
      "name": "ERC20InvalidReceiver",
      "type": "error"
    },
    {
      "inputs": [
        {
          "internalType": "address",
          "name": "sender",
          "type": "address"
        }
      ],
      "name": "ERC20InvalidSender",
      "type": "error"
    },
    {
      "inputs": [
        {
          "internalType": "address",
          "name": "spender",
          "type": "address"
        }
      ],
      "name": "ERC20InvalidSpender",
      "type": "error"
    },
    {
      "inputs": [
        {
          "internalType": "address",
          "name": "owner",
          "type": "address"
        }
      ],
      "name": "OwnableInvalidOwner",
      "type": "error"
    },
    {
      "inputs": [
        {
          "internalType": "address",
          "name": "account",
          "type": "address"
        }
      ],
      "name": "OwnableUnauthorizedAccount",
      "type": "error"
    },
    {
      "anonymous": false,
      "inputs": [
        {
          "indexed": true,
          "internalType": "address",
          "name": "owner",
          "type": "address"
        },
        {
          "indexed": true,
          "internalType": "address",
          "name": "spender",
          "type": "address"
        },
        {
          "indexed": false,
          "internalType": "uint256",
          "name": "value",
          "type": "uint256"
        }
      ],
      "name": "Approval",
      "type": "event"
    },
    {
      "anonymous": false,
      "inputs": [
        {
          "indexed": true,
          "internalType": "address",
          "name": "previousOwner",
          "type": "address"
        },
        {
          "indexed": true,
          "internalType": "address",
          "name": "newOwner",
          "type": "address"
        }
      ],
      "name": "OwnershipTransferred",
      "type": "event"
    },
    {
      "anonymous": false,
      "inputs": [
        {
          "indexed": true,
          "internalType": "address",
          "name": "from",
          "type": "address"
        },
        {
          "indexed": true,
          "internalType": "address",
          "name": "to",
          "type": "address"
        },
        {
          "indexed": false,
          "internalType": "uint256",
          "name": "value",
          "type": "uint256"
        }
      ],
      "name": "Transfer",
      "type": "event"
    },
    {
      "inputs": [
        {
          "internalType": "address",
          "name": "owner",
          "type": "address"
        },
        {
          "internalType": "address",
          "name": "spender",
          "type": "address"
        }
      ],
      "name": "allowance",
      "outputs": [
        {
          "internalType": "uint256",
          "name": "",
          "type": "uint256"
        }
      ],
      "stateMutability": "view",
      "type": "function"
    },
    {
      "inputs": [
        {
          "internalType": "address",
          "name": "spender",
          "type": "address"
        },
        {
          "internalType": "uint256",
          "name": "value",
          "type": "uint256"
        }
      ],
      "name": "approve",
      "outputs": [
        {
          "internalType": "bool",
          "name": "",
          "type": "bool"
        }
      ],
      "stateMutability": "nonpayable",
      "type": "function"
    },
    {
      "inputs": [
        {
          "internalType": "address",
          "name": "account",
          "type": "address"
        }
      ],
      "name": "balanceOf",
      "outputs": [
        {
          "internalType": "uint256",
          "name": "",
          "type": "uint256"
        }
      ],
      "stateMutability": "view",
      "type": "function"
    },
    {
      "inputs": [
        {
          "internalType": "uint256",
          "name": "value",
          "type": "uint256"
        }
      ],
      "name": "burn",
      "outputs": [],
      "stateMutability": "nonpayable",
      "type": "function"
    },
    {
      "inputs": [
        {
          "internalType": "address",
          "name": "account",
          "type": "address"
        },
        {
          "internalType": "uint256",
          "name": "value",
          "type": "uint256"
        }
      ],
      "name": "burnFrom",
      "outputs": [],
      "stateMutability": "nonpayable",
      "type": "function"
    },
    {
      "inputs": [],
      "name": "decimals",
      "outputs": [
        {
          "internalType": "uint8",
          "name": "",
          "type": "uint8"
        }
      ],
      "stateMutability": "view",
      "type": "function"
    },
    {
      "inputs": [
        {
          "internalType": "address",
          "name": "account",
          "type": "address"
        },
        {
          "internalType": "uint256",
          "name": "amount",
          "type": "uint256"
        }
      ],
      "name": "mintFromMarket",
      "outputs": [],
      "stateMutability": "nonpayable",
      "type": "function"
    },
    {
      "inputs": [],
      "name": "name",
      "outputs": [
        {
          "internalType": "string",
          "name": "",
          "type": "string"
        }
      ],
      "stateMutability": "view",
      "type": "function"
    },
    {
      "inputs": [],
      "name": "owner",
      "outputs": [
        {
          "internalType": "address",
          "name": "",
          "type": "address"
        }
      ],
      "stateMutability": "view",
      "type": "function"
    },
    {
      "inputs": [],
      "name": "renounceOwnership",
      "outputs": [],
      "stateMutability": "nonpayable",
      "type": "function"
    },
    {
      "inputs": [
        {
          "internalType": "address",
          "name": "plantMarketContract",
          "type": "address"
        }
      ],
      "name": "setPlantMarketContract",
      "outputs": [],
      "stateMutability": "nonpayable",
      "type": "function"
    },
    {
      "inputs": [],
      "name": "symbol",
      "outputs": [
        {
          "internalType": "string",
          "name": "",
          "type": "string"
        }
      ],
      "stateMutability": "view",
      "type": "function"
    },
    {
      "inputs": [],
      "name": "totalSupply",
      "outputs": [
        {
          "internalType": "uint256",
          "name": "",
          "type": "uint256"
        }
      ],
      "stateMutability": "view",
      "type": "function"
    },
    {
      "inputs": [
        {
          "internalType": "address",
          "name": "to",
          "type": "address"
        },
        {
          "internalType": "uint256",
          "name": "value",
          "type": "uint256"
        }
      ],
      "name": "transfer",
      "outputs": [
        {
          "internalType": "bool",
          "name": "",
          "type": "bool"
        }
      ],
      "stateMutability": "nonpayable",
      "type": "function"
    },
    {
      "inputs": [
        {
          "internalType": "address",
          "name": "from",
          "type": "address"
        },
        {
          "internalType": "address",
          "name": "to",
          "type": "address"
        },
        {
          "internalType": "uint256",
          "name": "value",
          "type": "uint256"
        }
      ],
      "name": "transferFrom",
      "outputs": [
        {
          "internalType": "bool",
          "name": "",
          "type": "bool"
        }
      ],
      "stateMutability": "nonpayable",
      "type": "function"
    },
    {
      "inputs": [
        {
          "internalType": "address",
          "name": "newOwner",
          "type": "address"
        }
      ],
      "name": "transferOwnership",
      "outputs": [],
      "stateMutability": "nonpayable",
      "type": "function"
    }
  ],
  "bytecode": "0x60806040523462000351576200001462000355565b6200001e62000355565b81516001600160401b038082116200025c57600380546001938482811c921696871562000346575b6020978884101462000332578190601f93848111620002df575b5088908483116001146200027c575f9262000270575b50505f1982851b1c191690851b1782555b84519283116200025c5760049485548581811c9116801562000251575b888210146200023e57828111620001f6575b50869184116001146200018f579383949184925f9562000183575b50501b925f19911b1c19161781555b33156200016c575060058054336001600160a01b0319821681179092556001600160a01b03167f8be0079c531659141344cd1fd0a4f28419497f9722a3daafe3b4186f6b6457e05f80a3335f525f81525f7fddf252ad1be2c89b69c2b068fc378daa952ba7f163c4a11628f55a4df523b3ef604051928284523393a3604051610b4e9081620003878239f35b6024905f60405191631e4fbdf760e01b8352820152fd5b015193505f80620000d1565b9190601f19841692865f5284885f20945f5b8a89838310620001de5750505010620001c4575b50505050811b018155620000e0565b01519060f8845f19921b161c191690555f808080620001b5565b868601518955909701969485019488935001620001a1565b865f52875f208380870160051c8201928a881062000234575b0160051c019086905b82811062000228575050620000b6565b5f815501869062000218565b925081926200020f565b602287634e487b7160e01b5f525260245ffd5b90607f1690620000a4565b634e487b7160e01b5f52604160045260245ffd5b015190505f8062000076565b90879350601f19831691865f528a5f20925f5b8c828210620002c85750508411620002b0575b505050811b01825562000087565b01515f1983871b60f8161c191690555f8080620002a2565b8385015186558b979095019493840193016200028f565b909150845f52885f208480850160051c8201928b861062000328575b918991869594930160051c01915b8281106200031957505062000060565b5f815585945089910162000309565b92508192620002fb565b634e487b7160e01b5f52602260045260245ffd5b91607f169162000046565b5f80fd5b60408051919082016001600160401b038111838210176200025c5760405260048252635452454560e01b602083015256fe608060409080825260049081361015610016575f80fd5b5f3560e01c90816306fdde03146106d557508063095ea7b31461062c578063111b6834146105e057806318160ddd146105c257806323b872dd14610586578063313ce5671461056b57806342966c681461054e578063704432c91461040e57806370a08231146103d8578063715018a61461037257806379cc6790146103415780638da5cb5b1461031a57806395d89b41146101fa578063a9059cbb146101ca578063dd62ed3e146101805763f2fde38b146100d0575f80fd5b3461017c57602036600319011261017c576100e9610812565b906100f261085f565b6001600160a01b0380921692831561014d5750506005548273ffffffffffffffffffffffffffffffffffffffff19821617600555167f8be0079c531659141344cd1fd0a4f28419497f9722a3daafe3b4186f6b6457e05f80a3005b905f60249251917f1e4fbdf7000000000000000000000000000000000000000000000000000000008352820152fd5b5f80fd5b823461017c578060031936011261017c5760209061019c610812565b6101a4610828565b906001600160a01b038091165f5260018452825f2091165f528252805f20549051908152f35b823461017c578060031936011261017c576020906101f36101e9610812565b6024359033610988565b5160018152f35b50903461017c575f36600319011261017c578051905f835460018160011c9060018316928315610310575b60209384841081146102fd578388529081156102e1575060011461028d575b505050829003601f01601f191682019267ffffffffffffffff84118385101761027a57508291826102769252826107cb565b0390f35b604190634e487b7160e01b5f525260245ffd5b5f878152929350837f8a35acfbc15ff81a39ae7d344fd709f28e8600b4aa8c65c6b64bfe7fe36bd19b5b8385106102cd57505050508301015f8080610244565b8054888601830152930192849082016102b7565b60ff1916878501525050151560051b84010190505f8080610244565b602289634e487b7160e01b5f525260245ffd5b91607f1691610225565b823461017c575f36600319011261017c576020906001600160a01b03600554169051908152f35b823461017c5736600319011261017c5761037061035c610812565b6024359061036b8233836108a3565b610a79565b005b3461017c575f36600319011261017c5761038a61085f565b5f6001600160a01b0360055473ffffffffffffffffffffffffffffffffffffffff198116600555167f8be0079c531659141344cd1fd0a4f28419497f9722a3daafe3b4186f6b6457e08280a3005b823461017c57602036600319011261017c576020906001600160a01b036103fd610812565b165f525f8252805f20549051908152f35b50903461017c578060031936011261017c57610428610812565b90602435916001600160a01b038060065416330361050b57600254916b033b2e3c9fd0803ce800000061045b868561083e565b116104c857169384156104b25750827fddf252ad1be2c89b69c2b068fc378daa952ba7f163c4a11628f55a4df523b3ef926104995f9560209461083e565b60025585855284835280852082815401905551908152a3005b6024905f84519163ec442f0560e01b8352820152fd5b606486602086519162461bcd60e51b8352820152601460248201527f4578636565647320737570706c79206c696d69740000000000000000000000006044820152fd5b606485602085519162461bcd60e51b8352820152600c60248201527f556e617574686f72697a656400000000000000000000000000000000000000006044820152fd5b503461017c57602036600319011261017c57610370903533610a79565b823461017c575f36600319011261017c576020905160128152f35b823461017c57606036600319011261017c576020906101f36105a6610812565b6105ae610828565b604435916105bd8333836108a3565b610988565b823461017c575f36600319011261017c576020906002549051908152f35b3461017c57602036600319011261017c576001600160a01b03610601610812565b61060961085f565b1673ffffffffffffffffffffffffffffffffffffffff1960065416176006555f80f35b50903461017c578060031936011261017c57610646610812565b6024359033156106bf576001600160a01b03169081156106a95760209350335f5260018452825f20825f52845280835f205582519081527f8c5be1e5ebec7d5bd14f71427d1e84f3dd0314c0f7b2291e5b200ac8c7c3b925843392a35160018152f35b6024845f855191634a1406b160e11b8352820152fd5b6024845f85519163e602df0560e01b8352820152fd5b9050823461017c575f36600319011261017c575f60035460018160011c90600183169283156107c1575b60209384841081146102fd578388529081156107a5575060011461074f57505050829003601f01601f191682019267ffffffffffffffff84118385101761027a57508291826102769252826107cb565b60035f908152929350837fc2575a0e9e593c00f959f8c92f12db2869c3395a3b0502d05e2516446f71f85b5b8385106107915750505050830101848080610244565b80548886018301529301928490820161077b565b60ff1916878501525050151560051b8401019050848080610244565b91607f16916106ff565b602080825282518183018190529093925f5b8281106107fe57505060409293505f838284010152601f8019910116010190565b8181018601518482016040015285016107dd565b600435906001600160a01b038216820361017c57565b602435906001600160a01b038216820361017c57565b9190820180921161084b57565b634e487b7160e01b5f52601160045260245ffd5b6001600160a01b0360055416330361087357565b60246040517f118cdaa7000000000000000000000000000000000000000000000000000000008152336004820152fd5b91906001600160a01b0380931692835f526001602052604093845f2091831691825f52602052845f2054925f1984036108df575b505050505050565b84841061093f57508015610929578115610913575f526001602052835f20905f5260205203905f20555f80808080806108d7565b60248551634a1406b160e11b81525f6004820152fd5b6024855163e602df0560e01b81525f6004820152fd5b85517ffb8f41b20000000000000000000000000000000000000000000000000000000081526001600160a01b039190911660048201526024810184905260448101859052606490fd5b916001600160a01b03808416928315610a495716928315610a3257825f525f60205260405f205490828210610a005750817fddf252ad1be2c89b69c2b068fc378daa952ba7f163c4a11628f55a4df523b3ef92602092855f525f84520360405f2055845f5260405f20818154019055604051908152a3565b60405163391434e360e21b81526001600160a01b03919091166004820152602481019190915260448101829052606490fd5b602460405163ec442f0560e01b81525f6004820152fd5b60246040517f96c6fd1e0000000000000000000000000000000000000000000000000000000081525f6004820152fd5b91906001600160a01b038316908115610a4957815f525f60205260405f205493818510610ae657506020817fddf252ad1be2c89b69c2b068fc378daa952ba7f163c4a11628f55a4df523b3ef925f95968587528684520360408620558060025403600255604051908152a3565b60405163391434e360e21b81526001600160a01b03919091166004820152602481018590526044810191909152606490fdfea26469706673582212201a60f92f08e373fad46868384ede38ae7989c163d7636f6712c9f736f3d5c6b164736f6c63430008180033",
  "linkReferences": {},
  "deployedLinkReferences": {}
}