{
  "_format": "hh-sol-artifact-1",
  "contractName": "PlantMarket",
  "sourceName": "contracts/PlantMarket.sol",
  "abi": [
    {
      "inputs": [],
      "stateMutability": "nonpayable",
      "type": "constructor"
    },
    {
      "inputs": [
        {
          "internalType": "address",
          "name": "account",
          "type": "address"
        }
      ],
      "name": "AddressInsufficientBalance",
      "type": "error"
    },
    {
      "inputs": [],
      "name": "FailedInnerCall",
      "type": "error"
    },
    {
      "inputs": [
        {
          "internalType": "address",
          "name": "owner",
          "type": "address"
        }
      ],
      "name": "OwnableInvalidOwner",
      "type": "error"
    },
    {
      "inputs": [
        {
          "internalType": "address",
          "name": "account",
          "type": "address"
        }
      ],
      "name": "OwnableUnauthorizedAccount",
      "type": "error"
    },
    {
      "inputs": [],
      "name": "ReentrancyGuardReentrantCall",
      "type": "error"
    },
    {
      "anonymous": false,
      "inputs": [
        {
          "indexed": true,
          "internalType": "address",
          "name": "previousOwner",
          "type": "address"
        },
        {
          "indexed": true,
          "internalType": "address",
          "name": "newOwner",
          "type": "address"
        }
      ],
      "name": "OwnershipTransferred",
      "type": "event"
    },
    {
      "anonymous": false,
      "inputs": [
        {
          "indexed": true,
          "internalType": "uint256",
          "name": "plantId",
          "type": "uint256"
        },
        {
          "indexed": true,
          "internalType": "address",
          "name": "owner",
          "type": "address"
        },
        {
          "indexed": false,
          "internalType": "enum PlantMarket.PlantType",
          "name": "plantType",
          "type": "uint8"
        },
        {
          "indexed": false,
          "internalType": "uint256",
          "name": "adoptionTime",
          "type": "uint256"
        }
      ],
      "name": "PlantAdopted",
      "type": "event"
    },
    {
      "anonymous": false,
      "inputs": [
        {
          "indexed": true,
          "internalType": "uint256",
          "name": "plantId",
          "type": "uint256"
        },
        {
          "indexed": true,
          "internalType": "address",
          "name": "seller",
          "type": "address"
        },
        {
          "indexed": false,
          "internalType": "uint256",
          "name": "price",
          "type": "uint256"
        }
      ],
      "name": "PlantListed",
      "type": "event"
    },
    {
      "anonymous": false,
      "inputs": [
        {
          "indexed": true,
          "internalType": "uint256",
          "name": "plantId",
          "type": "uint256"
        },
        {
          "indexed": true,
          "internalType": "address",
          "name": "buyer",
          "type": "address"
        },
        {
          "indexed": true,
          "internalType": "address",
          "name": "seller",
          "type": "address"
        },
        {
          "indexed": false,
          "internalType": "uint256",
          "name": "price",
          "type": "uint256"
        }
      ],
      "name": "PlantSold",
      "type": "event"
    },
    {
      "inputs": [
        {
          "internalType": "uint256",
          "name": "_plantId",
          "type": "uint256"
        }
      ],
      "name": "adoptPlant",
      "outputs": [],
      "stateMutability": "payable",
      "type": "function"
    },
    {
      "inputs": [
        {
          "components": [
            {
              "internalType": "uint256",
              "name": "minEth",
              "type": "uint256"
            },
            {
              "internalType": "uint256",
              "name": "maxEth",
              "type": "uint256"
            },
            {
              "internalType": "uint8",
              "name": "startTime",
              "type": "uint8"
            },
            {
              "internalType": "uint8",
              "name": "endTime",
              "type": "uint8"
            },
            {
              "internalType": "enum PlantMarket.PlantType",
              "name": "plantType",
              "type": "uint8"
            },
            {
              "internalType": "uint8",
              "name": "profitDays",
              "type": "uint8"
            },
            {
              "internalType": "uint16",
              "name": "profitRate",
              "type": "uint16"
            }
          ],
          "internalType": "struct PlantMarket.PlantDTO",
          "name": "plantDTO",
          "type": "tuple"
        }
      ],
      "name": "createPlant",
      "outputs": [],
      "stateMutability": "nonpayable",
      "type": "function"
    },
    {
      "inputs": [],
      "name": "getMarketListings",
      "outputs": [
        {
          "components": [
            {
              "internalType": "uint256",
              "name": "plantId",
              "type": "uint256"
            },
            {
              "internalType": "enum PlantMarket.PlantType",
              "name": "plantType",
              "type": "uint8"
            },
            {
              "internalType": "uint256",
              "name": "minEth",
              "type": "uint256"
            },
            {
              "internalType": "uint256",
              "name": "maxEth",
              "type": "uint256"
            },
            {
              "internalType": "uint8",
              "name": "startTime",
              "type": "uint8"
            },
            {
              "internalType": "uint8",
              "name": "endTime",
              "type": "uint8"
            },
            {
              "internalType": "uint256",
              "name": "adoptedTimestamp",
              "type": "uint256"
            },
            {
              "internalType": "uint8",
              "name": "profitDays",
              "type": "uint8"
            },
            {
              "internalType": "uint16",
              "name": "profitRate",
              "type": "uint16"
            },
            {
              "internalType": "address",
              "name": "owner",
              "type": "address"
            },
            {
              "internalType": "bool",
              "name": "isAdopted",
              "type": "bool"
            }
          ],
          "internalType": "struct PlantMarket.Plant[]",
          "name": "",
          "type": "tuple[]"
        }
      ],
      "stateMutability": "view",
      "type": "function"
    },
    {
      "inputs": [
        {
          "internalType": "uint256",
          "name": "_plantId",
          "type": "uint256"
        }
      ],
      "name": "getPlantInfoById",
      "outputs": [
        {
          "components": [
            {
              "internalType": "uint256",
              "name": "plantId",
              "type": "uint256"
            },
            {
              "internalType": "enum PlantMarket.PlantType",
              "name": "plantType",
              "type": "uint8"
            },
            {
              "internalType": "uint256",
              "name": "minEth",
              "type": "uint256"
            },
            {
              "internalType": "uint256",
              "name": "maxEth",
              "type": "uint256"
            },
            {
              "internalType": "uint8",
              "name": "startTime",
              "type": "uint8"
            },
            {
              "internalType": "uint8",
              "name": "endTime",
              "type": "uint8"
            },
            {
              "internalType": "uint256",
              "name": "adoptedTimestamp",
              "type": "uint256"
            },
            {
              "internalType": "uint8",
              "name": "profitDays",
              "type": "uint8"
            },
            {
              "internalType": "uint16",
              "name": "profitRate",
              "type": "uint16"
            },
            {
              "internalType": "address",
              "name": "owner",
              "type": "address"
            },
            {
              "internalType": "bool",
              "name": "isAdopted",
              "type": "bool"
            }
          ],
          "internalType": "struct PlantMarket.Plant",
          "name": "",
          "type": "tuple"
        }
      ],
      "stateMutability": "view",
      "type": "function"
    },
    {
      "inputs": [
        {
          "internalType": "address",
          "name": "_user",
          "type": "address"
        }
      ],
      "name": "getUserAdoptedPlants",
      "outputs": [
        {
          "components": [
            {
              "internalType": "uint256",
              "name": "plantId",
              "type": "uint256"
            },
            {
              "internalType": "enum PlantMarket.PlantType",
              "name": "plantType",
              "type": "uint8"
            },
            {
              "internalType": "uint256",
              "name": "minEth",
              "type": "uint256"
            },
            {
              "internalType": "uint256",
              "name": "maxEth",
              "type": "uint256"
            },
            {
              "internalType": "uint8",
              "name": "startTime",
              "type": "uint8"
            },
            {
              "internalType": "uint8",
              "name": "endTime",
              "type": "uint8"
            },
            {
              "internalType": "uint256",
              "name": "adoptedTimestamp",
              "type": "uint256"
            },
            {
              "internalType": "uint8",
              "name": "profitDays",
              "type": "uint8"
            },
            {
              "internalType": "uint16",
              "name": "profitRate",
              "type": "uint16"
            },
            {
              "internalType": "address",
              "name": "owner",
              "type": "address"
            },
            {
              "internalType": "bool",
              "name": "isAdopted",
              "type": "bool"
            }
          ],
          "internalType": "struct PlantMarket.Plant[]",
          "name": "",
          "type": "tuple[]"
        }
      ],
      "stateMutability": "view",
      "type": "function"
    },
    {
      "inputs": [
        {
          "internalType": "address",
          "name": "_user",
          "type": "address"
        }
      ],
      "name": "getUserAdoptionPlantIds",
      "outputs": [
        {
          "internalType": "uint256[]",
          "name": "",
          "type": "uint256[]"
        }
      ],
      "stateMutability": "view",
      "type": "function"
    },
    {
      "inputs": [
        {
          "internalType": "address",
          "name": "_user",
          "type": "address"
        },
        {
          "internalType": "enum PlantMarket.PlantType",
          "name": "_plantType",
          "type": "uint8"
        }
      ],
      "name": "getUserAdoptionRecord",
      "outputs": [
        {
          "internalType": "uint256",
          "name": "",
          "type": "uint256"
        }
      ],
      "stateMutability": "view",
      "type": "function"
    },
    {
      "inputs": [],
      "name": "owner",
      "outputs": [
        {
          "internalType": "address",
          "name": "",
          "type": "address"
        }
      ],
      "stateMutability": "view",
      "type": "function"
    },
    {
      "inputs": [
        {
          "internalType": "uint256",
          "name": "",
          "type": "uint256"
        }
      ],
      "name": "plants",
      "outputs": [
        {
          "internalType": "uint256",
          "name": "plantId",
          "type": "uint256"
        },
        {
          "internalType": "enum PlantMarket.PlantType",
          "name": "plantType",
          "type": "uint8"
        },
        {
          "internalType": "uint256",
          "name": "minEth",
          "type": "uint256"
        },
        {
          "internalType": "uint256",
          "name": "maxEth",
          "type": "uint256"
        },
        {
          "internalType": "uint8",
          "name": "startTime",
          "type": "uint8"
        },
        {
          "internalType": "uint8",
          "name": "endTime",
          "type": "uint8"
        },
        {
          "internalType": "uint256",
          "name": "adoptedTimestamp",
          "type": "uint256"
        },
        {
          "internalType": "uint8",
          "name": "profitDays",
          "type": "uint8"
        },
        {
          "internalType": "uint16",
          "name": "profitRate",
          "type": "uint16"
        },
        {
          "internalType": "address",
          "name": "owner",
          "type": "address"
        },
        {
          "internalType": "bool",
          "name": "isAdopted",
          "type": "bool"
        }
      ],
      "stateMutability": "view",
      "type": "function"
    },
    {
      "inputs": [],
      "name": "renounceOwnership",
      "outputs": [],
      "stateMutability": "nonpayable",
      "type": "function"
    },
    {
      "inputs": [
        {
          "internalType": "address",
          "name": "newOwner",
          "type": "address"
        }
      ],
      "name": "transferOwnership",
      "outputs": [],
      "stateMutability": "nonpayable",
      "type": "function"
    }
  ],
  "bytecode": "0x6080806040523461007c573315610067575f8054336001600160a01b03198216811783556040519290916001600160a01b0316907f8be0079c531659141344cd1fd0a4f28419497f9722a3daafe3b4186f6b6457e09080a360018055610ffa90816100818239f35b631e4fbdf760e01b81525f6004820152602490fd5b5f80fdfe608060409080825260049081361015610016575f80fd5b5f3560e01c9081634f05caa314610bbc575080635e1f992d14610aaf57806365f5d1b414610a6e578063715018a614610a0a57806378c0dc921461093c5780638da5cb5b146109165780638dd2361c14610864578063c0cdaf51146104d2578063ea2c36b1146101e1578063f2fde38b146101365763fa23bf1714610099575f80fd5b346101325781600319360112610132576100b1610c66565b602435916005831015610132578083116100ef576020846100e7856001600160a01b0386165f52600384526001835f2001610f6b565b549051908152f35b606490602085519162461bcd60e51b8352820152601260248201527f496e76616c696420706c616e74207479706500000000000000000000000000006044820152fd5b5f80fd5b503461013257602036600319011261013257610150610c66565b90610159610f81565b6001600160a01b038092169283156101b25750505f548273ffffffffffffffffffffffffffffffffffffffff198216175f55167f8be0079c531659141344cd1fd0a4f28419497f9722a3daafe3b4186f6b6457e05f80a3005b905f60249251917f1e4fbdf7000000000000000000000000000000000000000000000000000000008352820152fd5b50346101325760e036600319011261013257815160e0810181811067ffffffffffffffff8211176104bf578352813581526020810160243581526044359060ff918281168103610132578584019081526064359280841684036101325760608501938452608435926005841015610132576080860193845260a43582811681036101325760a0870190815260c4359561ffff9586881688036101325760c0890197885261028c610f81565b8954965f1988101561047c5785808b51965198511693511691519360058510156104695790868d989796959493925116995116958751946102cc86610d72565b8986526102dd602087019586610ec7565b888601908152606086019182526080860193845260a0860192835260c08601945f865260e087019b8c526101008701988952610120870199308b5261014088019b5f8d525f5260026020525f2096518755600187019051600581101561045657978e819794600697946001600160a01b039c9a97946103ed9e9c8560ff198354169116179055516002880155516003870155850192511661ff008354925160081b169161ffff1916171790555160058201550196511662ffff008754925160081b169162ffffff1916171785555116839076ffffffffffffffffffffffffffffffffffffffff0000001976ffffffffffffffffffffffffffffffffffffffff00000083549260181b169116179055565b51151560ff60b81b1977ff000000000000000000000000000000000000000000000083549260b81b1691161790556104258254610dc5565b8092555191519182527f14ac6d84304037c1b2b045bc0ec013c584edaf1f3881c8c837c9c34c336a87b360203093a3005b60218f634e487b7160e01b5f525260245ffd5b60218c634e487b7160e01b5f525260245ffd5b60648b60208e519162461bcd60e51b8352820152601160248201527f506c616e74204944206f766572666c6f770000000000000000000000000000006044820152fd5b604183634e487b7160e01b5f525260245ffd5b506020918260031936011261013257813592600193600285541461083c5760028555805f5260028252825f206006810160ff815460b81c166107fa576002820154341015806107ec575b156107aa5761052a82610ed3565b617080420180421161079757610e1060189104069060ff60a0816080840151169201511690821015918261078d575b50501561074b57805476ffffffffffffffffffffffffffffffffffffffff00000019163360181b76ffffffffffffffffffffffffffffffffffffffff000000161781557701000000000000000000000000000000000000000000000060ff60b81b19825416179055335f5260038352835f2080549068010000000000000000821015610738578782018082558210156107255760ff929184915f52855f200155335f52600384526106168780875f20019201918383541690610f6b565b6106208154610dc5565b905554169061063184518093610c7c565b42838301527f2b6b59e9e3b93bd4ff38cc3502e1fa2606705a155cb514545fff555a841bd4c9843393a36001600160a01b035f54163447106106f6575f8080809334905af1903d156106f0573d9067ffffffffffffffff82116106dd575f908451926106a682601f19601f8401160185610da3565b83523d92013e5b156106b757828055005b517f1425ea42000000000000000000000000000000000000000000000000000000008152fd5b604185634e487b7160e01b5f525260245ffd5b506106ad565b82517fcd7860590000000000000000000000000000000000000000000000000000000081523081860152602490fd5b603287634e487b7160e01b5f525260245ffd5b604187634e487b7160e01b5f525260245ffd5b6064868587519162461bcd60e51b8352820152601160248201527f4e6f742061646f7074696f6e2074696d650000000000000000000000000000006044820152fd5b1090505f80610559565b601188634e487b7160e01b5f525260245ffd5b6064868587519162461bcd60e51b8352820152601660248201527f496e76616c69642061646f7074696f6e207072696365000000000000000000006044820152fd5b50600382015434111561051c565b6064868587519162461bcd60e51b8352820152601860248201527f506c616e7420697320616c72656164792061646f7074656400000000000000006044820152fd5b5050517f3ee5aeb5000000000000000000000000000000000000000000000000000000008152fd5b5090346101325760203660031901126101325760ff8261016093355f526002602052825f208281549481600184015416936002840154600385015491850154926108c1600660058801549701549782519a8b5260208b0190610c7c565b8801526060870152818116608087015260081c1660a085015260c084015281811660e084015261ffff8160081c166101008401526001600160a01b038160181c1661012084015260b81c161515610140820152f35b8234610132575f366003190112610132576020906001600160a01b035f54169051908152f35b5034610132575f366003190112610132575461095781610e50565b915f915f5b8181106109b357505061096e82610e50565b915f5b818110610989578251806109858682610d29565b0390f35b8061099660019287610e9f565b516109a18287610e9f565b526109ac8186610e9f565b5001610971565b805f526002602052825f2060ff600682015460b81c16156109d8575b5060010161095c565b600191946109e8610a0392610ed3565b6109f28289610e9f565b526109fd8188610e9f565b50610dc5565b93906109cf565b34610132575f36600319011261013257610a22610f81565b5f6001600160a01b03815473ffffffffffffffffffffffffffffffffffffffff1981168355167f8be0079c531659141344cd1fd0a4f28419497f9722a3daafe3b4186f6b6457e08280a3005b5090346101325760203660031901126101325761016091610a8d610dff565b50355f526002602052610aad610aa4825f20610ed3565b91518092610c9d565bf35b503461013257602091602060031936011261013257610acc610c66565b9154926001600160a01b03928316905f805b868110610b6f5750610aef90610e50565b935f915f5b878110610b08578551806109858982610d29565b805f5260028252855f20600681015486858260181c16149081610b61575b50610b35575b50600101610af4565b60019194610b45610b5a92610ed3565b610b4f828b610e9f565b526109fd818a610e9f565b9390610b2c565b60ff915060b81c165f610b26565b805f52600283526006855f20015484878260181c16149081610bae575b50610b9a575b600101610ade565b90610ba6600191610dc5565b919050610b92565b60ff915060b81c165f610b8c565b83903461013257602090816003193601126101325791906001600160a01b03610be3610c66565b165f5260038152815f209081548085528185019081935f52825f20905f5b818110610c525750505084610c17910385610da3565b825181815293518185018190528493840192915f5b828110610c3b57505050500390f35b835185528695509381019392810192600101610c2c565b825484529284019260019283019201610c01565b600435906001600160a01b038216820361013257565b906005821015610c895752565b634e487b7160e01b5f52602160045260245ffd5b80518252610cb360208201516020840190610c7c565b604081015160408301526060810151606083015260ff608082015116608083015260ff60a08201511660a083015260c081015160c083015260ff60e08201511660e083015261010061ffff8183015116908301526101206001600160a01b03818301511690830152610140809101511515910152565b60209060206040818301928281528551809452019301915f5b828110610d50575050505090565b909192938261016082610d666001948951610c9d565b01950193929101610d42565b610160810190811067ffffffffffffffff821117610d8f57604052565b634e487b7160e01b5f52604160045260245ffd5b90601f8019910116810190811067ffffffffffffffff821117610d8f57604052565b5f198114610dd35760010190565b634e487b7160e01b5f52601160045260245ffd5b67ffffffffffffffff8111610d8f5760051b60200190565b60405190610e0c82610d72565b5f610140838281528260208201528260408201528260608201528260808201528260a08201528260c08201528260e082015282610100820152826101208201520152565b90610e5a82610de7565b610e676040519182610da3565b8281528092610e78601f1991610de7565b01905f5b828110610e8857505050565b602090610e93610dff565b82828501015201610e7c565b8051821015610eb35760209160051b010190565b634e487b7160e01b5f52603260045260245ffd5b6005821015610c895752565b90604051610ee081610d72565b61014060ff6006839580548552610f008360018301541660208701610ec7565b6002810154604086015260038101546060860152826004820154818116608088015260081c1660a0860152600581015460c0860152015481811660e085015261ffff8160081c166101008501526001600160a01b038160181c1661012085015260b81c161515910152565b906005811015610c89575f5260205260405f2090565b6001600160a01b035f54163303610f9457565b60246040517f118cdaa7000000000000000000000000000000000000000000000000000000008152336004820152fdfea2646970667358221220612bd60e963800993312a310b7bd2f7ff1fc2da1b0afd4080d918e5859244c8964736f6c63430008180033",
  "linkReferences": {},
  "deployedLinkReferences": {}
}