{
  "_format": "hh-sol-artifact-1",
  "contractName": "PlantMarket",
  "sourceName": "contracts/PlantMarket.sol",
  "abi": [
    {
      "inputs": [
        {
          "internalType": "address",
          "name": "tokenContractAddress",
          "type": "address"
        }
      ],
      "stateMutability": "nonpayable",
      "type": "constructor"
    },
    {
      "inputs": [],
      "name": "InvalidAdoptionPrice",
      "type": "error"
    },
    {
      "inputs": [],
      "name": "InvalidPlantID",
      "type": "error"
    },
    {
      "inputs": [],
      "name": "InvalidPlantType",
      "type": "error"
    },
    {
      "inputs": [],
      "name": "NotAdoptionTime",
      "type": "error"
    },
    {
      "inputs": [],
      "name": "NotOwner",
      "type": "error"
    },
    {
      "inputs": [],
      "name": "NotReachingContractTerm",
      "type": "error"
    },
    {
      "inputs": [
        {
          "internalType": "address",
          "name": "owner",
          "type": "address"
        }
      ],
      "name": "OwnableInvalidOwner",
      "type": "error"
    },
    {
      "inputs": [
        {
          "internalType": "address",
          "name": "account",
          "type": "address"
        }
      ],
      "name": "OwnableUnauthorizedAccount",
      "type": "error"
    },
    {
      "inputs": [],
      "name": "PlantAlreadyAdopted",
      "type": "error"
    },
    {
      "inputs": [],
      "name": "PlantAlreadySplit",
      "type": "error"
    },
    {
      "inputs": [],
      "name": "PlantIDOverflow",
      "type": "error"
    },
    {
      "inputs": [],
      "name": "PlantNotAdopted",
      "type": "error"
    },
    {
      "inputs": [],
      "name": "ReentrancyGuardReentrantCall",
      "type": "error"
    },
    {
      "inputs": [],
      "name": "TransferFailed",
      "type": "error"
    },
    {
      "anonymous": false,
      "inputs": [
        {
          "indexed": true,
          "internalType": "address",
          "name": "previousOwner",
          "type": "address"
        },
        {
          "indexed": true,
          "internalType": "address",
          "name": "newOwner",
          "type": "address"
        }
      ],
      "name": "OwnershipTransferred",
      "type": "event"
    },
    {
      "anonymous": false,
      "inputs": [
        {
          "indexed": true,
          "internalType": "uint256",
          "name": "plantId",
          "type": "uint256"
        },
        {
          "indexed": true,
          "internalType": "address",
          "name": "owner",
          "type": "address"
        },
        {
          "indexed": false,
          "internalType": "enum PlantMarket.PlantType",
          "name": "plantType",
          "type": "uint8"
        },
        {
          "indexed": false,
          "internalType": "uint256",
          "name": "adoptionTime",
          "type": "uint256"
        }
      ],
      "name": "PlantAdopted",
      "type": "event"
    },
    {
      "anonymous": false,
      "inputs": [
        {
          "indexed": true,
          "internalType": "uint256",
          "name": "plantId",
          "type": "uint256"
        },
        {
          "indexed": true,
          "internalType": "address",
          "name": "seller",
          "type": "address"
        },
        {
          "indexed": false,
          "internalType": "uint256",
          "name": "price",
          "type": "uint256"
        }
      ],
      "name": "PlantCreated",
      "type": "event"
    },
    {
      "anonymous": false,
      "inputs": [
        {
          "indexed": true,
          "internalType": "uint256",
          "name": "plantId",
          "type": "uint256"
        },
        {
          "indexed": true,
          "internalType": "address",
          "name": "seller",
          "type": "address"
        },
        {
          "indexed": false,
          "internalType": "uint256",
          "name": "price",
          "type": "uint256"
        }
      ],
      "name": "PlantListed",
      "type": "event"
    },
    {
      "anonymous": false,
      "inputs": [
        {
          "indexed": true,
          "internalType": "uint256",
          "name": "plantId",
          "type": "uint256"
        },
        {
          "indexed": true,
          "internalType": "address",
          "name": "buyer",
          "type": "address"
        },
        {
          "indexed": true,
          "internalType": "address",
          "name": "seller",
          "type": "address"
        },
        {
          "indexed": false,
          "internalType": "uint256",
          "name": "price",
          "type": "uint256"
        }
      ],
      "name": "PlantSold",
      "type": "event"
    },
    {
      "inputs": [
        {
          "internalType": "uint256",
          "name": "_plantId",
          "type": "uint256"
        }
      ],
      "name": "adoptPlant",
      "outputs": [],
      "stateMutability": "payable",
      "type": "function"
    },
    {
      "inputs": [
        {
          "components": [
            {
              "internalType": "enum PlantMarket.PlantType",
              "name": "plantType",
              "type": "uint8"
            },
            {
              "internalType": "uint256",
              "name": "minEth",
              "type": "uint256"
            },
            {
              "internalType": "uint256",
              "name": "maxEth",
              "type": "uint256"
            }
          ],
          "internalType": "struct PlantMarket.PlantDTO",
          "name": "newPlantDTO",
          "type": "tuple"
        },
        {
          "internalType": "address",
          "name": "_owner",
          "type": "address"
        }
      ],
      "name": "createPlant",
      "outputs": [],
      "stateMutability": "nonpayable",
      "type": "function"
    },
    {
      "inputs": [],
      "name": "getMarketListings",
      "outputs": [
        {
          "components": [
            {
              "internalType": "uint256",
              "name": "plantId",
              "type": "uint256"
            },
            {
              "internalType": "enum PlantMarket.PlantType",
              "name": "plantType",
              "type": "uint8"
            },
            {
              "internalType": "uint256",
              "name": "valueEth",
              "type": "uint256"
            },
            {
              "internalType": "uint256",
              "name": "adoptedTimestamp",
              "type": "uint256"
            },
            {
              "internalType": "address",
              "name": "owner",
              "type": "address"
            },
            {
              "internalType": "bool",
              "name": "isAdopted",
              "type": "bool"
            },
            {
              "internalType": "bool",
              "name": "isSplit",
              "type": "bool"
            }
          ],
          "internalType": "struct PlantMarket.Plant[]",
          "name": "",
          "type": "tuple[]"
        }
      ],
      "stateMutability": "view",
      "type": "function"
    },
    {
      "inputs": [
        {
          "internalType": "uint256",
          "name": "_plantId",
          "type": "uint256"
        }
      ],
      "name": "getPlantInfoById",
      "outputs": [
        {
          "components": [
            {
              "internalType": "uint256",
              "name": "plantId",
              "type": "uint256"
            },
            {
              "internalType": "enum PlantMarket.PlantType",
              "name": "plantType",
              "type": "uint8"
            },
            {
              "internalType": "uint256",
              "name": "valueEth",
              "type": "uint256"
            },
            {
              "internalType": "uint256",
              "name": "adoptedTimestamp",
              "type": "uint256"
            },
            {
              "internalType": "address",
              "name": "owner",
              "type": "address"
            },
            {
              "internalType": "bool",
              "name": "isAdopted",
              "type": "bool"
            },
            {
              "internalType": "bool",
              "name": "isSplit",
              "type": "bool"
            }
          ],
          "internalType": "struct PlantMarket.Plant",
          "name": "",
          "type": "tuple"
        }
      ],
      "stateMutability": "view",
      "type": "function"
    },
    {
      "inputs": [
        {
          "internalType": "address",
          "name": "_user",
          "type": "address"
        },
        {
          "internalType": "bool",
          "name": "includeSplit",
          "type": "bool"
        }
      ],
      "name": "getUserAdoptedPlants",
      "outputs": [
        {
          "components": [
            {
              "internalType": "uint256",
              "name": "plantId",
              "type": "uint256"
            },
            {
              "internalType": "enum PlantMarket.PlantType",
              "name": "plantType",
              "type": "uint8"
            },
            {
              "internalType": "uint256",
              "name": "valueEth",
              "type": "uint256"
            },
            {
              "internalType": "uint256",
              "name": "adoptedTimestamp",
              "type": "uint256"
            },
            {
              "internalType": "address",
              "name": "owner",
              "type": "address"
            },
            {
              "internalType": "bool",
              "name": "isAdopted",
              "type": "bool"
            },
            {
              "internalType": "bool",
              "name": "isSplit",
              "type": "bool"
            }
          ],
          "internalType": "struct PlantMarket.Plant[]",
          "name": "",
          "type": "tuple[]"
        }
      ],
      "stateMutability": "view",
      "type": "function"
    },
    {
      "inputs": [
        {
          "internalType": "address",
          "name": "_user",
          "type": "address"
        }
      ],
      "name": "getUserAdoptionPlantIds",
      "outputs": [
        {
          "internalType": "uint256[]",
          "name": "",
          "type": "uint256[]"
        }
      ],
      "stateMutability": "view",
      "type": "function"
    },
    {
      "inputs": [
        {
          "internalType": "address",
          "name": "_user",
          "type": "address"
        },
        {
          "internalType": "enum PlantMarket.PlantType",
          "name": "_plantType",
          "type": "uint8"
        }
      ],
      "name": "getUserAdoptionRecord",
      "outputs": [
        {
          "internalType": "uint256",
          "name": "",
          "type": "uint256"
        }
      ],
      "stateMutability": "view",
      "type": "function"
    },
    {
      "inputs": [
        {
          "internalType": "uint256",
          "name": "plantId",
          "type": "uint256"
        }
      ],
      "name": "list",
      "outputs": [],
      "stateMutability": "nonpayable",
      "type": "function"
    },
    {
      "inputs": [],
      "name": "owner",
      "outputs": [
        {
          "internalType": "address",
          "name": "",
          "type": "address"
        }
      ],
      "stateMutability": "view",
      "type": "function"
    },
    {
      "inputs": [
        {
          "internalType": "uint256",
          "name": "",
          "type": "uint256"
        }
      ],
      "name": "plants",
      "outputs": [
        {
          "internalType": "uint256",
          "name": "plantId",
          "type": "uint256"
        },
        {
          "internalType": "enum PlantMarket.PlantType",
          "name": "plantType",
          "type": "uint8"
        },
        {
          "internalType": "uint256",
          "name": "valueEth",
          "type": "uint256"
        },
        {
          "internalType": "uint256",
          "name": "adoptedTimestamp",
          "type": "uint256"
        },
        {
          "internalType": "address",
          "name": "owner",
          "type": "address"
        },
        {
          "internalType": "bool",
          "name": "isAdopted",
          "type": "bool"
        },
        {
          "internalType": "bool",
          "name": "isSplit",
          "type": "bool"
        }
      ],
      "stateMutability": "view",
      "type": "function"
    },
    {
      "inputs": [
        {
          "internalType": "enum PlantMarket.PlantType",
          "name": "",
          "type": "uint8"
        }
      ],
      "name": "priceRanges",
      "outputs": [
        {
          "internalType": "uint256",
          "name": "minEth",
          "type": "uint256"
        },
        {
          "internalType": "uint256",
          "name": "maxEth",
          "type": "uint256"
        },
        {
          "internalType": "uint8",
          "name": "startTime",
          "type": "uint8"
        },
        {
          "internalType": "uint8",
          "name": "endTime",
          "type": "uint8"
        },
        {
          "internalType": "uint8",
          "name": "profitDays",
          "type": "uint8"
        },
        {
          "internalType": "uint16",
          "name": "profitRate",
          "type": "uint16"
        },
        {
          "internalType": "uint256",
          "name": "rewardAmounts",
          "type": "uint256"
        }
      ],
      "stateMutability": "view",
      "type": "function"
    },
    {
      "inputs": [],
      "name": "renounceOwnership",
      "outputs": [],
      "stateMutability": "nonpayable",
      "type": "function"
    },
    {
      "inputs": [
        {
          "internalType": "enum PlantMarket.PlantType",
          "name": "plantType",
          "type": "uint8"
        }
      ],
      "name": "scheduleAdoption",
      "outputs": [],
      "stateMutability": "nonpayable",
      "type": "function"
    },
    {
      "inputs": [
        {
          "internalType": "address",
          "name": "newOwner",
          "type": "address"
        }
      ],
      "name": "transferOwnership",
      "outputs": [],
      "stateMutability": "nonpayable",
      "type": "function"
    }
  ],
  "bytecode": "0x608034620003c857601f62001bc538819003918201601f1916830192916001600160401b03841183851017620003cc5780839260409586528339602092839181010312620003c857516001600160a01b039182821691829003620003c8573315620003b1575f54600160a01b60019003199333858316175f553391167f8be0079c531659141344cd1fd0a4f28419497f9722a3daafe3b4186f6b6457e05f80a3600191828055600293845416178355620000b8620003e0565b926611c37937e0800084528184019266354a6ba7a18000845285850191866007938481526060880190601782526080890198868a5260a08101906015825260c08101996103e88b525f805260068a52855f20915182555187820155858101925160ff1692805461ff00955162ff0000809e51918864ffff0000009889985164ffffffffff199a8b9160181b169616179160081b16179160101b16171790556003809a519101558989898989888a6200016f620003e0565b966635a55eb81bc00088528989878a0193669fdf42f6e480008552858b0197885260608b01966017885260808c01958b875260a08d01978d60098a5260c0019b610bb88d52835f52600690525f209c518d5551908c01558a01965160ff16928d8854975160081b16945160101b16945160181b169416171717179055519101558989898989888a62000200620003e0565b9666a03a36075ec00088528989878a01936701bc16d674ec80008552858b0197885260608b01966017885260808c01956005875260a08d01978d600d8a5260c0019b6113888d52845f52600690525f209c518d5551908c01558a01965160ff16928d8854975160081b16945160101b16945160181b169416171717179055519101558989898989888a62000293620003e0565b966701bc71c98566c00088528989878a0193670429d069189e00008552858b0197885260608b01966017885260808c0195600c875260a08d01978d60158a5260c0019b6127108d528d5f52600690525f209c518d5551908c01558a01965160ff16928d8854975160081b16945160101b16945160181b1694161717171790555191015562000320620003e0565b998a9567042a2b5c29184000875289870197670a688906bd8b00008952868801998a52606088019860178a5260808901976014895260a08a019960288b5260c0019c614e208e5260045f52600690525f20809e51905551908d01558b01975160ff16938854975160081b16945160101b16945160181b16941617171717905551910155516117c49081620004018239f35b8351631e4fbdf760e01b81525f6004820152602490fd5b5f80fd5b634e487b7160e01b5f52604160045260245ffd5b6040519060e082016001600160401b03811183821017620003cc5760405256fe6080604081815260049182361015610015575f80fd5b5f905f3560e01c908163227a5c481461121a575080634f05caa31461116f57806365f5d1b41461112f578063715018a6146110cb57806378c0dc921461100357806380c9419e14610ad35780638da5cb5b14610aad5780638dd2361c14610a2c578063abee210c1461088c578063c0cdaf51146103a7578063d06d55ed1461026d578063d8156ba6146101f1578063f2fde38b146101405763fa23bf17146100bb575f80fd5b3461013d578160031936011261013d576100d36112f9565b9060243591600583101561013957848311610110578361010893926020966001600160a01b03600194168252875220016113e5565b549051908152f35b505050517f36a7e4e5000000000000000000000000000000000000000000000000000000008152fd5b5080fd5b80fd5b5091346101ed5760203660031901126101ed5761015b6112f9565b9061016461174b565b6001600160a01b038092169283156101be5750505f548273ffffffffffffffffffffffffffffffffffffffff198216175f55167f8be0079c531659141344cd1fd0a4f28419497f9722a3daafe3b4186f6b6457e05f80a380f35b908460249251917f1e4fbdf7000000000000000000000000000000000000000000000000000000008352820152fd5b8280fd5b5091346101ed5760203660031901126101ed573591600583101561013d575061021b60e0926113ce565b9061ffff82549260018101549260036002830154920154938151958652602086015260ff82169085015260ff8160081c16606085015260ff8160101c16608085015260181c1660a083015260c0820152f35b5090346101395780600319360112610139576102876112f9565b9260243590811590811583036103a3578492600554926102a6846116c7565b976001600160a01b03908116885b86811061030c578a8a8a8a6102c8816116c7565b925b8181106102e2578251806102de8682611386565b0390f35b806102ef60019287611716565b516102fa8287611716565b526103058186611716565b50016102ca565b808a5260036020528a898b20878101548685878316149182610394575b82610375575b5050610340575b50506001016102b4565b986103658161036b936103556001969d611646565b61035f8383611716565b52611716565b50611414565b9790508a5f610336565b89925090610386575b50865f61032f565b60ff915060a81c165f61037e565b915060ff8260a01c1691610329565b8480fd5b50906020806003193601126101ed578335600192600284541461086457600284558185526003835280852086810180549160ff92838160a01c1661083c5760a81c83166108145786810191838354166103ff816113ce565b5434108015610800575b6107d85761708042018042116107c557610e10601891040685600261042d846113ce565b01541681101590816107aa575b501561078257600361044d6064926113ce565b015404670de0b6b3a76400009081810291818304149015171561076f576001600160a01b0390816002541687517f70a082310000000000000000000000000000000000000000000000000000000081528d33908201528a81602481855afa908115610765579083918e91610730575b50106106d457803b156106d05787517f79cc679000000000000000000000000000000000000000000000000000000000815233818f019081526020810193909352918c91839182908490829060400103925af180156106c657908b916106ae575b508080809334908654165af13d156106a9573d67ffffffffffffffff811161069657865190610555601f8201601f19168b01836112d7565b81528a893d92013e5b1561066e577401000000000000000000000000000000000000000081547fffffffffffffffffffffff00000000000000000000000000000000000000000060ff60a01b1933169116171790556003429101553387528785528287208054906801000000000000000082101561065b5787820180825582101561064857857f2b6b59e9e3b93bd4ff38cc3502e1fa2606705a155cb514545fff555a841bd4c9959493928b928b52888b200155338952865261062087848a200183835416906113e5565b61062a8154611414565b905554169361063b8251809661130f565b42908501523393a3805580f35b60248960328c634e487b7160e01b835252fd5b60248960418c634e487b7160e01b835252fd5b8985517f90b8ec18000000000000000000000000000000000000000000000000000000008152fd5b60248b60418e634e487b7160e01b835252fd5b61055e565b6106b7906112a7565b6106c257895f61051d565b8980fd5b87513d8d823e3d90fd5b8b80fd5b60648d8b8a51917f08c379a0000000000000000000000000000000000000000000000000000000008352820152601360248201527f496e73756666696369656e7420746f6b656e73000000000000000000000000006044820152fd5b8092508c8092503d831161075e575b61074981836112d7565b8101031261075a578290515f6104bc565b5f80fd5b503d61073f565b89513d8f823e3d90fd5b60248a60118d634e487b7160e01b835252fd5b8a86517fad7abdcb000000000000000000000000000000000000000000000000000000008152fd5b90508560026107b8846113ce565b015460081c16115f61043a565b60248b60118e634e487b7160e01b835252fd5b8a86517f6b0574f2000000000000000000000000000000000000000000000000000000008152fd5b508861080b826113ce565b01543411610409565b8884517f0f6a68e3000000000000000000000000000000000000000000000000000000008152fd5b8985517f1164df37000000000000000000000000000000000000000000000000000000008152fd5b8590517f3ee5aeb5000000000000000000000000000000000000000000000000000000008152fd5b5091903461075a57602036600319011261075a57813591600583101561075a576001600160a01b0360025416928251907f31ed9d5d0000000000000000000000000000000000000000000000000000000082526020828481885afa918215610a22575f926109ee575b5060646003610903836113ce565b015404670de0b6b3a764000092838202918083048514901517156109db57101561092b578580f35b60036109386064926113ce565b0154048181029181830414901517156109c857833b1561075a5782517f704432c9000000000000000000000000000000000000000000000000000000008152339281019283526020830191909152925f9184919082908490829060400103925af19081156109bf57506109ae575b808080808580f35b6109b891506112a7565b5f806109a6565b513d5f823e3d90fd5b601182634e487b7160e01b5f525260245ffd5b601185634e487b7160e01b5f525260245ffd5b9091506020813d602011610a1a575b81610a0a602093836112d7565b8101031261075a5751905f6108f5565b3d91506109fd565b84513d5f823e3d90fd5b82843461075a57602036600319011261075a5760ff60e09282355f526003602052805f208054938360018301541692610a7c6002840154926003850154940154948251978852602088019061130f565b85015260608401526001600160a01b0381166080840152818160a01c16151560a084015260a81c16151560c0820152f35b823461075a575f36600319011261075a576020906001600160a01b035f54169051908152f35b50503461075a5760208060031936011261075a578235906005548211610fdb57815f52600393848252835f2090808201908154906001600160a01b03918281163303610fb35760a01c60ff1615610f8d5787840154906001808601805460ff811697600295603c60ff88610b468d6113ce565b015460101c16029060ff8216918203610f7a5790610b639161173e565b421015610f525785019761ffff86610b7c8b54936113ce565b015460181c16808202908282041482151715610f3f57906064610ba092049061173e565b808955670a688906bd8b0000811115610de15750505088519260c0840184811067ffffffffffffffff821117610dce578a526005845287840160a0368237845115610dbb575f90528351821015610da857818a8501528351811015610da857606084015282518a1015610d95578960808401528251821015610d95578160a0840152805f935f925b610ceb575b5050508454918203918211610cd8575096610c8e9187987f14ac6d84304037c1b2b045bc0ec013c584edaf1f3881c8c837c9c34c336a87b397985192610c7284611277565b835286830152670429d069189e00008983015283541690611436565b75010000000000000000000000000000000000000000007fffffffffffffffffffff00ffffffffffffffffffffffffffffffffffffffffff8254161790555b5493519384523393a3005b601190634e487b7160e01b5f525260245ffd5b90919381515f1981019081116109db57851015610d8f579082610d2a8193610d23610d1e610d198a87611716565b6113fb565b6113ce565b549061173e565b95610d888d8c610d3d610d198588611716565b91610d4e610d1e610d19878a611716565b5486610d60610d1e610d19898c611716565b015492610d78835195610d7287611277565b86611408565b840152820152898b541690611436565b0192610c28565b93610c2d565b603282634e487b7160e01b5f525260245ffd5b603283634e487b7160e01b5f525260245ffd5b603284634e487b7160e01b5f525260245ffd5b604184634e487b7160e01b5f525260245ffd5b7f14ac6d84304037c1b2b045bc0ec013c584edaf1f3881c8c837c9c34c336a87b39a9b9c94959392965067042a2b5c29184000811180610f38575b15610e4057505050505060ff198254161790555b60ff60a01b198154169055610ccd565b9091929394506701bc71c98566c000811180610f26575b15610e6e575050505060ff19825416179055610e30565b909192935066a03a36075ec000811180610f14575b15610e995750505060ff19825416179055610e30565b909192506635a55eb81bc000811180610f03575b15610ec2575050815460ff1916179055610e30565b9091506611c37937e080008110159081610ef1575b50610ee4575b5050610e30565b60ff191690555f80610edd565b66354a6ba7a18000915011155f610ed7565b50669fdf42f6e48000811115610ead565b506701bc16d674ec8000811115610e83565b50670429d069189e0000811115610e57565b5082610e1c565b601186634e487b7160e01b5f525260245ffd5b848c517f95c8b03d000000000000000000000000000000000000000000000000000000008152fd5b601187634e487b7160e01b5f525260245ffd5b86517e9c5685000000000000000000000000000000000000000000000000000000008152fd5b5086517f30cd7471000000000000000000000000000000000000000000000000000000008152fd5b5050517fe8fd6b9d000000000000000000000000000000000000000000000000000000008152fd5b82843461075a575f36600319011261075a5760055491611022836116c7565b925f925f5b82811061107b5750505061103a826116c7565b915f5b818110611051578251806102de8682611386565b8061105e60019287611716565b516110698287611716565b526110748186611716565b500161103d565b805f526003602052835f2060ff8382015460a01c161561109f575b50600101611027565b600191956110af6110c492611646565b6110b9828a611716565b526103658189611716565b9490611096565b3461075a575f36600319011261075a576110e361174b565b5f6001600160a01b03815473ffffffffffffffffffffffffffffffffffffffff1981168355167f8be0079c531659141344cd1fd0a4f28419497f9722a3daafe3b4186f6b6457e08280a3005b50503461075a57602036600319011261075a5760e09161114d611610565b50355f52600360205261116d611164825f20611646565b91518092611330565bf35b82843461075a576020908160031936011261075a5782906001600160a01b036111966112f9565b165f528252805f208151928381835491828152019081935f52825f20905f5b81811061120657505050846111cb9103856112d7565b825181815293518185018190528493840192915f5b8281106111ef57505050500390f35b8351855286955093810193928101926001016111e0565b8254845292840192600192830192016111b5565b83853461075a5736600319016080811261075a5760601361075a5761123e83611277565b35600581101561075a5782526024356020830152604435908201526064356001600160a01b038116810361075a5761127591611436565b005b6060810190811067ffffffffffffffff82111761129357604052565b634e487b7160e01b5f52604160045260245ffd5b67ffffffffffffffff811161129357604052565b60e0810190811067ffffffffffffffff82111761129357604052565b90601f8019910116810190811067ffffffffffffffff82111761129357604052565b600435906001600160a01b038216820361075a57565b90600582101561131c5752565b634e487b7160e01b5f52602160045260245ffd5b60c080918051845261134a6020820151602086019061130f565b60408101516040850152606081015160608501526001600160a01b03608082015116608085015260a0810151151560a085015201511515910152565b60209060206040818301928281528551809452019301915f5b8281106113ad575050505090565b909192938260e0826113c26001948951611330565b0195019392910161139f565b600581101561131c575f52600660205260405f2090565b90600581101561131c575f5260205260405f2090565b51600581101561131c5790565b600582101561131c5752565b5f1981146114225760010190565b634e487b7160e01b5f52601160045260245ffd5b6005908154925f198410156115e65781518381101561131c57611458906113ce565b604094855193611467856112bb565b60038354938487526001810154602088015261ffff600282015460ff81168b8a015260ff8160081c1660608a015260ff8160101c1660808a015260181c1660a0880152015460c086015251928584101561131c578651936114c7856112bb565b8285526114d8602086019182611408565b87850193845260608501945f865260808101956001600160a01b03809416875260a08201955f875260c08301955f87525f5260036020528a5f2092518355600183019351938a85101561131c5760049460ff80198354169116179055516002830155516003820155019351167fffffffffffffffffffff0000000000000000000000000000000000000000000075ff00000000000000000000000000000000000000000074ff000000000000000000000000000000000000000086549551151560a01b169351151560a81b16931617171790556115b58254611414565b8092555191519182527f3c7450b5b54d32b4163bbab3477be25d90dec07e4e10a7a7717c1463ae336b3660203093a3565b60046040517f929fd583000000000000000000000000000000000000000000000000000000008152fd5b6040519061161d826112bb565b5f60c0838281528260208201528260408201528260608201528260808201528260a08201520152565b90604051611653816112bb565b60c060ff60048395805485526116728360018301541660208701611408565b600281015460408601526003810154606086015201546001600160a01b0381166080850152818160a01c16151560a085015260a81c161515910152565b67ffffffffffffffff81116112935760051b60200190565b906116d1826116af565b6116de60405191826112d7565b82815280926116ef601f19916116af565b01905f5b8281106116ff57505050565b60209061170a611610565b828285010152016116f3565b805182101561172a5760209160051b010190565b634e487b7160e01b5f52603260045260245ffd5b9190820180921161142257565b6001600160a01b035f5416330361175e57565b60246040517f118cdaa7000000000000000000000000000000000000000000000000000000008152336004820152fdfea2646970667358221220ccaebd8df6da10bed484dcedfbe047d35a1210bdc16959d5bb1aa6214e160f9364736f6c63430008180033",
  "linkReferences": {},
  "deployedLinkReferences": {}
}