{
  "_format": "hh-sol-artifact-1",
  "contractName": "PlantMarket",
  "sourceName": "contracts/PlantMarket.sol",
  "abi": [
    {
      "inputs": [],
      "stateMutability": "nonpayable",
      "type": "constructor"
    },
    {
      "inputs": [
        {
          "internalType": "address",
          "name": "account",
          "type": "address"
        }
      ],
      "name": "AddressInsufficientBalance",
      "type": "error"
    },
    {
      "inputs": [],
      "name": "FailedInnerCall",
      "type": "error"
    },
    {
      "inputs": [
        {
          "internalType": "address",
          "name": "owner",
          "type": "address"
        }
      ],
      "name": "OwnableInvalidOwner",
      "type": "error"
    },
    {
      "inputs": [
        {
          "internalType": "address",
          "name": "account",
          "type": "address"
        }
      ],
      "name": "OwnableUnauthorizedAccount",
      "type": "error"
    },
    {
      "inputs": [],
      "name": "ReentrancyGuardReentrantCall",
      "type": "error"
    },
    {
      "anonymous": false,
      "inputs": [
        {
          "indexed": true,
          "internalType": "address",
          "name": "previousOwner",
          "type": "address"
        },
        {
          "indexed": true,
          "internalType": "address",
          "name": "newOwner",
          "type": "address"
        }
      ],
      "name": "OwnershipTransferred",
      "type": "event"
    },
    {
      "anonymous": false,
      "inputs": [
        {
          "indexed": true,
          "internalType": "uint256",
          "name": "plantId",
          "type": "uint256"
        },
        {
          "indexed": true,
          "internalType": "address",
          "name": "owner",
          "type": "address"
        },
        {
          "indexed": false,
          "internalType": "enum PlantMarket.PlantType",
          "name": "plantType",
          "type": "uint8"
        },
        {
          "indexed": false,
          "internalType": "uint256",
          "name": "adoptionTime",
          "type": "uint256"
        }
      ],
      "name": "PlantAdopted",
      "type": "event"
    },
    {
      "anonymous": false,
      "inputs": [
        {
          "indexed": true,
          "internalType": "uint256",
          "name": "plantId",
          "type": "uint256"
        },
        {
          "indexed": true,
          "internalType": "address",
          "name": "seller",
          "type": "address"
        },
        {
          "indexed": false,
          "internalType": "uint256",
          "name": "price",
          "type": "uint256"
        }
      ],
      "name": "PlantCreated",
      "type": "event"
    },
    {
      "anonymous": false,
      "inputs": [
        {
          "indexed": true,
          "internalType": "uint256",
          "name": "plantId",
          "type": "uint256"
        },
        {
          "indexed": true,
          "internalType": "address",
          "name": "seller",
          "type": "address"
        },
        {
          "indexed": false,
          "internalType": "uint256",
          "name": "price",
          "type": "uint256"
        }
      ],
      "name": "PlantListed",
      "type": "event"
    },
    {
      "anonymous": false,
      "inputs": [
        {
          "indexed": true,
          "internalType": "uint256",
          "name": "plantId",
          "type": "uint256"
        },
        {
          "indexed": true,
          "internalType": "address",
          "name": "buyer",
          "type": "address"
        },
        {
          "indexed": true,
          "internalType": "address",
          "name": "seller",
          "type": "address"
        },
        {
          "indexed": false,
          "internalType": "uint256",
          "name": "price",
          "type": "uint256"
        }
      ],
      "name": "PlantSold",
      "type": "event"
    },
    {
      "inputs": [
        {
          "internalType": "uint256",
          "name": "_plantId",
          "type": "uint256"
        }
      ],
      "name": "adoptPlant",
      "outputs": [],
      "stateMutability": "payable",
      "type": "function"
    },
    {
      "inputs": [
        {
          "components": [
            {
              "internalType": "uint256",
              "name": "minEth",
              "type": "uint256"
            },
            {
              "internalType": "uint256",
              "name": "maxEth",
              "type": "uint256"
            },
            {
              "internalType": "uint8",
              "name": "startTime",
              "type": "uint8"
            },
            {
              "internalType": "uint8",
              "name": "endTime",
              "type": "uint8"
            },
            {
              "internalType": "enum PlantMarket.PlantType",
              "name": "plantType",
              "type": "uint8"
            },
            {
              "internalType": "uint8",
              "name": "profitDays",
              "type": "uint8"
            },
            {
              "internalType": "uint16",
              "name": "profitRate",
              "type": "uint16"
            }
          ],
          "internalType": "struct PlantMarket.PlantDTO",
          "name": "plantDTO",
          "type": "tuple"
        }
      ],
      "name": "createPlant",
      "outputs": [],
      "stateMutability": "nonpayable",
      "type": "function"
    },
    {
      "inputs": [],
      "name": "getMarketListings",
      "outputs": [
        {
          "components": [
            {
              "internalType": "uint256",
              "name": "plantId",
              "type": "uint256"
            },
            {
              "internalType": "enum PlantMarket.PlantType",
              "name": "plantType",
              "type": "uint8"
            },
            {
              "internalType": "uint256",
              "name": "minEth",
              "type": "uint256"
            },
            {
              "internalType": "uint256",
              "name": "maxEth",
              "type": "uint256"
            },
            {
              "internalType": "uint8",
              "name": "startTime",
              "type": "uint8"
            },
            {
              "internalType": "uint8",
              "name": "endTime",
              "type": "uint8"
            },
            {
              "internalType": "uint256",
              "name": "adoptedTimestamp",
              "type": "uint256"
            },
            {
              "internalType": "uint8",
              "name": "profitDays",
              "type": "uint8"
            },
            {
              "internalType": "uint16",
              "name": "profitRate",
              "type": "uint16"
            },
            {
              "internalType": "address",
              "name": "owner",
              "type": "address"
            },
            {
              "internalType": "bool",
              "name": "isAdopted",
              "type": "bool"
            },
            {
              "internalType": "bool",
              "name": "isSplit",
              "type": "bool"
            }
          ],
          "internalType": "struct PlantMarket.Plant[]",
          "name": "",
          "type": "tuple[]"
        }
      ],
      "stateMutability": "view",
      "type": "function"
    },
    {
      "inputs": [
        {
          "internalType": "uint256",
          "name": "_plantId",
          "type": "uint256"
        }
      ],
      "name": "getPlantInfoById",
      "outputs": [
        {
          "components": [
            {
              "internalType": "uint256",
              "name": "plantId",
              "type": "uint256"
            },
            {
              "internalType": "enum PlantMarket.PlantType",
              "name": "plantType",
              "type": "uint8"
            },
            {
              "internalType": "uint256",
              "name": "minEth",
              "type": "uint256"
            },
            {
              "internalType": "uint256",
              "name": "maxEth",
              "type": "uint256"
            },
            {
              "internalType": "uint8",
              "name": "startTime",
              "type": "uint8"
            },
            {
              "internalType": "uint8",
              "name": "endTime",
              "type": "uint8"
            },
            {
              "internalType": "uint256",
              "name": "adoptedTimestamp",
              "type": "uint256"
            },
            {
              "internalType": "uint8",
              "name": "profitDays",
              "type": "uint8"
            },
            {
              "internalType": "uint16",
              "name": "profitRate",
              "type": "uint16"
            },
            {
              "internalType": "address",
              "name": "owner",
              "type": "address"
            },
            {
              "internalType": "bool",
              "name": "isAdopted",
              "type": "bool"
            },
            {
              "internalType": "bool",
              "name": "isSplit",
              "type": "bool"
            }
          ],
          "internalType": "struct PlantMarket.Plant",
          "name": "",
          "type": "tuple"
        }
      ],
      "stateMutability": "view",
      "type": "function"
    },
    {
      "inputs": [
        {
          "internalType": "address",
          "name": "_user",
          "type": "address"
        },
        {
          "internalType": "bool",
          "name": "includeSplit",
          "type": "bool"
        }
      ],
      "name": "getUserAdoptedPlants",
      "outputs": [
        {
          "components": [
            {
              "internalType": "uint256",
              "name": "plantId",
              "type": "uint256"
            },
            {
              "internalType": "enum PlantMarket.PlantType",
              "name": "plantType",
              "type": "uint8"
            },
            {
              "internalType": "uint256",
              "name": "minEth",
              "type": "uint256"
            },
            {
              "internalType": "uint256",
              "name": "maxEth",
              "type": "uint256"
            },
            {
              "internalType": "uint8",
              "name": "startTime",
              "type": "uint8"
            },
            {
              "internalType": "uint8",
              "name": "endTime",
              "type": "uint8"
            },
            {
              "internalType": "uint256",
              "name": "adoptedTimestamp",
              "type": "uint256"
            },
            {
              "internalType": "uint8",
              "name": "profitDays",
              "type": "uint8"
            },
            {
              "internalType": "uint16",
              "name": "profitRate",
              "type": "uint16"
            },
            {
              "internalType": "address",
              "name": "owner",
              "type": "address"
            },
            {
              "internalType": "bool",
              "name": "isAdopted",
              "type": "bool"
            },
            {
              "internalType": "bool",
              "name": "isSplit",
              "type": "bool"
            }
          ],
          "internalType": "struct PlantMarket.Plant[]",
          "name": "",
          "type": "tuple[]"
        }
      ],
      "stateMutability": "view",
      "type": "function"
    },
    {
      "inputs": [
        {
          "internalType": "address",
          "name": "_user",
          "type": "address"
        }
      ],
      "name": "getUserAdoptionPlantIds",
      "outputs": [
        {
          "internalType": "uint256[]",
          "name": "",
          "type": "uint256[]"
        }
      ],
      "stateMutability": "view",
      "type": "function"
    },
    {
      "inputs": [
        {
          "internalType": "address",
          "name": "_user",
          "type": "address"
        },
        {
          "internalType": "enum PlantMarket.PlantType",
          "name": "_plantType",
          "type": "uint8"
        }
      ],
      "name": "getUserAdoptionRecord",
      "outputs": [
        {
          "internalType": "uint256",
          "name": "",
          "type": "uint256"
        }
      ],
      "stateMutability": "view",
      "type": "function"
    },
    {
      "inputs": [
        {
          "internalType": "uint256",
          "name": "plantId",
          "type": "uint256"
        }
      ],
      "name": "list",
      "outputs": [],
      "stateMutability": "nonpayable",
      "type": "function"
    },
    {
      "inputs": [],
      "name": "owner",
      "outputs": [
        {
          "internalType": "address",
          "name": "",
          "type": "address"
        }
      ],
      "stateMutability": "view",
      "type": "function"
    },
    {
      "inputs": [
        {
          "internalType": "uint256",
          "name": "",
          "type": "uint256"
        }
      ],
      "name": "plants",
      "outputs": [
        {
          "internalType": "uint256",
          "name": "plantId",
          "type": "uint256"
        },
        {
          "internalType": "enum PlantMarket.PlantType",
          "name": "plantType",
          "type": "uint8"
        },
        {
          "internalType": "uint256",
          "name": "minEth",
          "type": "uint256"
        },
        {
          "internalType": "uint256",
          "name": "maxEth",
          "type": "uint256"
        },
        {
          "internalType": "uint8",
          "name": "startTime",
          "type": "uint8"
        },
        {
          "internalType": "uint8",
          "name": "endTime",
          "type": "uint8"
        },
        {
          "internalType": "uint256",
          "name": "adoptedTimestamp",
          "type": "uint256"
        },
        {
          "internalType": "uint8",
          "name": "profitDays",
          "type": "uint8"
        },
        {
          "internalType": "uint16",
          "name": "profitRate",
          "type": "uint16"
        },
        {
          "internalType": "address",
          "name": "owner",
          "type": "address"
        },
        {
          "internalType": "bool",
          "name": "isAdopted",
          "type": "bool"
        },
        {
          "internalType": "bool",
          "name": "isSplit",
          "type": "bool"
        }
      ],
      "stateMutability": "view",
      "type": "function"
    },
    {
      "inputs": [],
      "name": "renounceOwnership",
      "outputs": [],
      "stateMutability": "nonpayable",
      "type": "function"
    },
    {
      "inputs": [
        {
          "internalType": "address",
          "name": "newOwner",
          "type": "address"
        }
      ],
      "name": "transferOwnership",
      "outputs": [],
      "stateMutability": "nonpayable",
      "type": "function"
    },
    {
      "inputs": [
        {
          "internalType": "address",
          "name": "receiver",
          "type": "address"
        },
        {
          "internalType": "uint256",
          "name": "amount",
          "type": "uint256"
        }
      ],
      "name": "withdrawBalance",
      "outputs": [],
      "stateMutability": "nonpayable",
      "type": "function"
    },
    {
      "stateMutability": "payable",
      "type": "receive"
    }
  ],
  "bytecode": "0x6080806040523461007c573315610067575f8054336001600160a01b03198216811783556040519290916001600160a01b0316907f8be0079c531659141344cd1fd0a4f28419497f9722a3daafe3b4186f6b6457e09080a36001805561189790816100818239f35b631e4fbdf760e01b81525f6004820152602490fd5b5f80fdfe608080604052600436101561001c575b50361561001a575f80fd5b005b5f3560e01c9081630cf20cc9146110ca575080634f05caa31461101c57806365f5d1b414610fda578063715018a614610f7657806378c0dc9214610eaf57806380c9419e146108365780638da5cb5b146108115780638dd2361c1461074d578063c0cdaf5114610408578063d06d55ed14610290578063ea2c36b114610200578063f2fde38b146101585763fa23bf17146100b7575f61000f565b34610154576040366003190112610154576100d0611144565b6024359060058210156101545760048211610110576020916001600160a01b0361010792165f5260038352600160405f20016114a9565b54604051908152f35b606460405162461bcd60e51b815260206004820152601260248201527f496e76616c696420706c616e74207479706500000000000000000000000000006044820152fd5b5f80fd5b3461015457602036600319011261015457610171611144565b610179611575565b6001600160a01b038091169081156101d0575f548273ffffffffffffffffffffffffffffffffffffffff198216175f55167f8be0079c531659141344cd1fd0a4f28419497f9722a3daafe3b4186f6b6457e05f80a3005b60246040517f1e4fbdf70000000000000000000000000000000000000000000000000000000081525f6004820152fd5b346101545760e03660031901126101545760405161021d8161125d565b6004358152602435602082015260443560ff8116810361015457604082015260643560ff81168103610154576060820152608435600581101561015457608082015260a43560ff811681036101545760a082015260c4359061ffff821682036101545761001a9160c082015230906115c5565b34610154576040366003190112610154576102a9611144565b602435908115918215810361015457600454916001600160a01b03908116915f805b85811061039157506102dc906113db565b945f925f5b8681106102fa57604051806102f68a82611214565b0390f35b805f52600260205260405f2060068101548488858360181c16149182610382575b82610363575b5050610331575b506001016102e1565b6001919561034161035c9261131c565b61034b828c611487565b52610356818b611487565b5061149b565b9490610328565b87925090610374575b50848b610321565b60ff915060c01c168a61036c565b915060ff8260b81c169161031b565b805f526002602052600660405f2001548786868360181c161491826103f9575b826103da575b50506103c6575b6001016102cb565b906103d260019161149b565b9190506103be565b859250906103eb575b5087896103b7565b60ff915060c01c16886103e3565b915060ff8260b81c16916103b1565b602080600319360112610154576004359060019160028354146107235760028355805f526002825260405f20600681019081549160ff92838160b81c166106df57838160c01c1661069b5760028301543410158061068d575b156106495761046f8361131c565b617080420180421161063557610e106018910406908560a0816080840151169201511690821015918261062b575b5050156105e7576104bb906001600160a01b03349160181c166114bf565b805476ffffffffffffffffffffffffffffffffffffffff00000019163360181b76ffffffffffffffffffffffffffffffffffffffff000000161781557701000000000000000000000000000000000000000000000060ff60b81b19825416179055426005820155335f526003845260405f208054680100000000000000008110156105d3578681018083558110156105bf5784915f52855f200155335f5260038452610574858060405f200192019183835416906114a9565b61057e815461149b565b9055541691610590604051809461115a565b42908301527f2b6b59e9e3b93bd4ff38cc3502e1fa2606705a155cb514545fff555a841bd4c960403393a38055005b634e487b7160e01b5f52603260045260245ffd5b634e487b7160e01b5f52604160045260245ffd5b6064866040519062461bcd60e51b82526004820152601160248201527f4e6f742061646f7074696f6e2074696d650000000000000000000000000000006044820152fd5b109050888061049d565b634e487b7160e01b5f52601160045260245ffd5b6064866040519062461bcd60e51b82526004820152601660248201527f496e76616c69642061646f7074696f6e207072696365000000000000000000006044820152fd5b506003830154341115610461565b6064866040519062461bcd60e51b82526004820152601660248201527f506c616e7420697320616c72656164792073706c6974000000000000000000006044820152fd5b6064866040519062461bcd60e51b82526004820152601860248201527f506c616e7420697320616c72656164792061646f7074656400000000000000006044820152fd5b60046040517f3ee5aeb5000000000000000000000000000000000000000000000000000000008152fd5b34610154576020366003190112610154576004355f52600260205261018060405f2080549060ff90816001820154169082600282015460038301546004840154916107ac6006600587015496015496604051998a5260208a019061115a565b60408801526060870152818116608087015260081c1660a085015260c084015281811660e084015261ffff8160081c166101008401526001600160a01b038160181c16610120840152818160b81c16151561014084015260c01c161515610160820152f35b34610154575f3660031901126101545760206001600160a01b035f5416604051908152f35b34610154576020366003190112610154576004546004351015610e6b576004355f52600260205260405f2060068101546001600160a01b038160181c163303610e275760ff8160b81c1615610de35760058201546078810180911161063557421015610d9f5761ffff60028301549160081c16808202908282041482151715610635576127109004810180911161063557806002830155670a688906bd8b000081115f14610c695750604051906108ec8261125d565b600682525f5b60c08082101561093d57906020915f6040519161090e8361125d565b81835281858401528160408401528160608401528160808401528160a0840152820152828286010152016108f2565b50509060405161094c8161125d565b6611c37937e08000815266354a6ba7a180006020820152600e6040820152600f60608201525f6080820152600760a082015261083460c082015261098f8261142a565b526109998161142a565b506040516109a68161125d565b6635a55eb81bc0008152669fdf42f6e480006020820152600f60408201526010606082015260016080820152600360a082015261038460c08201526109ea82611437565b526109f481611437565b50604051610a018161125d565b66a03a36075ec00081526701bc16d674ec80006020820152601060408201526011606082015260026080820152600560a08201526104e260c0820152610a4682611447565b52610a5081611447565b50604051610a5d8161125d565b6701bc71c98566c0008152670429d069189e000090816020820152601160408201526012606082015260036080820152600c60a082015261083460c0820152610aa583611457565b52610aaf82611457565b50604051610abc8161125d565b67042a2b5c291840008152670a688906bd8b00006020820152601260408201526013606082015260046080820152601460a0820152610fa060c0820152610b0283611467565b52610b0c82611467565b50610b56610b4d610b44610b3b610b326002880154610b2a8861142a565b5151906115b8565b610b2a87611437565b610b2a86611447565b610b2a85611457565b610b2a84611467565b9060405191610b648361125d565b82526020820152601160408201526012606082015260036080820152600760a082015261083460c0820152610b9882611477565b52610ba281611477565b505f5b8151811015610bea57600190610bbc60045461149b565b600455610be4610bcc8285611487565b516001600160a01b03600687015460181c16906115c5565b01610ba5565b50506006810180547fffffffffffffff00ffffffffffffffffffffffffffffffffffffffffffffffff1678010000000000000000000000000000000000000000000000001790556002905b015460405190815233907f14ac6d84304037c1b2b045bc0ec013c584edaf1f3881c8c837c9c34c336a87b3602060043592a3005b908167042a2b5c291840006002931180610d97575b15610ca8575060018101805460ff191660041790555b60068101805460ff60b81b19169055610c35565b6701bc71c98566c000811180610d85575b15610cd4575060018101805460ff191660031790555b610c94565b66a03a36075ec000811180610d73575b15610cfd575060018101805460ff191683179055610c94565b6635a55eb81bc000811180610d62575b15610d27575060018101600160ff19825416179055610c94565b6611c37937e080008110159081610d50575b5015610ccf5760018101805460ff19169055610c94565b66354a6ba7a180009150111583610d39565b50669fdf42f6e48000811115610d0d565b506701bc16d674ec8000811115610ce4565b50670429d069189e0000811115610cb9565b506001610c7e565b606460405162461bcd60e51b815260206004820152601e60248201527f4e6f74207265616368696e672074686520636f6e7472616374207465726d00006044820152fd5b606460405162461bcd60e51b815260206004820152601460248201527f506c616e74206973206e6f742061646f707465640000000000000000000000006044820152fd5b606460405162461bcd60e51b815260206004820152600960248201527f4e6f74206f776e657200000000000000000000000000000000000000000000006044820152fd5b606460405162461bcd60e51b815260206004820152601060248201527f496e76616c696420706c616e74204944000000000000000000000000000000006044820152fd5b34610154575f36600319011261015457600454610ecb816113db565b905f905f5b818110610f24575050610ee2816113db565b915f5b828110610efa57604051806102f68682611214565b80610f0760019284611487565b51610f128287611487565b52610f1d8186611487565b5001610ee5565b805f52600260205260405f2060ff600682015460b81c1615610f4a575b50600101610ed0565b60019193610f5a610f6f9261131c565b610f648288611487565b526103568187611487565b9290610f41565b34610154575f36600319011261015457610f8e611575565b5f6001600160a01b03815473ffffffffffffffffffffffffffffffffffffffff1981168355167f8be0079c531659141344cd1fd0a4f28419497f9722a3daafe3b4186f6b6457e08280a3005b3461015457602036600319011261015457610ff36112b8565b506004355f52600260205261018061100d60405f2061131c565b61101a604051809261117b565bf35b3461015457602080600319360112610154576001600160a01b0361103e611144565b165f526003815260405f20604051908183825491828152019081925f52845f20905f5b868282106110b657868661107782880383611296565b60405192839281840190828552518091526040840192915f5b82811061109f57505050500390f35b835185528695509381019392810192600101611090565b835485529093019260019283019201611061565b34610154576040366003190112610154576110e3611144565b906024359081471061110257506001600160a01b0361001a92166114bf565b8062461bcd60e51b6064925260206004820152601460248201527f496e73756666696369656e742062616c616e63650000000000000000000000006044820152fd5b600435906001600160a01b038216820361015457565b9060058210156111675752565b634e487b7160e01b5f52602160045260245ffd5b805182526111916020820151602084019061115a565b604081015160408301526060810151606083015260ff608082015116608083015260ff60a08201511660a083015260c081015160c083015260ff60e08201511660e083015261010061ffff8183015116908301526101206001600160a01b0381830151169083015261014080820151151590830152610160809101511515910152565b60209060206040818301928281528551809452019301915f5b82811061123b575050505090565b909192938261018082611251600194895161117b565b0195019392910161122d565b60e0810190811067ffffffffffffffff8211176105d357604052565b610180810190811067ffffffffffffffff8211176105d357604052565b90601f8019910116810190811067ffffffffffffffff8211176105d357604052565b604051906112c582611279565b5f610160838281528260208201528260408201528260608201528260808201528260a08201528260c08201528260e08201528261010082015282610120820152826101408201520152565b60058210156111675752565b9060405161132981611279565b610160819380548352600660ff9161134a8360018301541660208701611310565b6002810154604086015260038101546060860152826004820154818116608088015260081c1660a0860152600581015460c0860152015481811660e085015261ffff8160081c166101008501526001600160a01b038160181c16610120850152818160b81c16151561014085015260c01c161515910152565b67ffffffffffffffff81116105d35760051b60200190565b906113e5826113c3565b6113f26040519182611296565b8281528092611403601f19916113c3565b01905f5b82811061141357505050565b60209061141e6112b8565b82828501015201611407565b8051156105bf5760200190565b8051600110156105bf5760400190565b8051600210156105bf5760600190565b8051600310156105bf5760800190565b8051600410156105bf5760a00190565b8051600510156105bf5760c00190565b80518210156105bf5760209160051b010190565b5f1981146106355760010190565b906005811015611167575f5260205260405f2090565b814710611545575f8080936001600160a01b038294165af13d15611540573d67ffffffffffffffff81116105d35760405190611505601f8201601f191660200183611296565b81525f60203d92013e5b1561151657565b60046040517f1425ea42000000000000000000000000000000000000000000000000000000008152fd5b61150f565b60246040517fcd786059000000000000000000000000000000000000000000000000000000008152306004820152fd5b6001600160a01b035f5416330361158857565b60246040517f118cdaa7000000000000000000000000000000000000000000000000000000008152336004820152fd5b9190820391821161063557565b60049182545f1981101561181d57825160208401519260ff6040860151169160ff60608701511692608087015193600585101561180a5760ff60a0890151169661ffff60c08a015116926040519261161c84611279565b88845261162d602085019889611310565b60408401958652606084019283526080840191825260a0840190815260c08401925f845260e085019a8b5261010085019586526101208501966001600160a01b0380991688526101408601995f8b5261016087019b5f8d525f52600260205260405f209651875560018701905160058110156117f6578f60ff97946006979461174c9d9c9b9a97948a948580198354169116179055516002880155516003870155850192511661ff008354925160081b169161ffff1916171790555160058201550197511662ffff008854925160081b169162ffffff1916171786555116849076ffffffffffffffffffffffffffffffffffffffff0000001976ffffffffffffffffffffffffffffffffffffffff00000083549260181b169116179055565b511515907fffffffffffffff0000ffffffffffffffffffffffffffffffffffffffffffffff77ff000000000000000000000000000000000000000000000078ff00000000000000000000000000000000000000000000000085549351151560c01b169360b81b169116171790556117c3825461149b565b80925551906040519182527f3c7450b5b54d32b4163bbab3477be25d90dec07e4e10a7a7717c1463ae336b3660203093a3565b5060218f634e487b7160e01b5f525260245ffd5b602189634e487b7160e01b5f525260245ffd5b60648460206040519162461bcd60e51b8352820152601160248201527f506c616e74204944206f766572666c6f770000000000000000000000000000006044820152fdfea2646970667358221220a528619e4600b4bec5273d4c9c6e5ad10b3eb77c3f4bbfb4e5e23651bd8e9f1c64736f6c63430008180033",
  "linkReferences": {},
  "deployedLinkReferences": {}
}