{
  "_format": "hh-sol-artifact-1",
  "contractName": "PlantMarket",
  "sourceName": "contracts/PlantMarket.sol",
  "abi": [
    {
      "inputs": [
        {
          "internalType": "address",
          "name": "tokenContractAddress",
          "type": "address"
        }
      ],
      "stateMutability": "nonpayable",
      "type": "constructor"
    },
    {
      "inputs": [],
      "name": "InvalidAdoptionPrice",
      "type": "error"
    },
    {
      "inputs": [],
      "name": "InvalidPlantID",
      "type": "error"
    },
    {
      "inputs": [],
      "name": "InvalidPlantType",
      "type": "error"
    },
    {
      "inputs": [],
      "name": "NotAdoptionTime",
      "type": "error"
    },
    {
      "inputs": [],
      "name": "NotOwner",
      "type": "error"
    },
    {
      "inputs": [],
      "name": "NotReachingContractTerm",
      "type": "error"
    },
    {
      "inputs": [
        {
          "internalType": "address",
          "name": "owner",
          "type": "address"
        }
      ],
      "name": "OwnableInvalidOwner",
      "type": "error"
    },
    {
      "inputs": [
        {
          "internalType": "address",
          "name": "account",
          "type": "address"
        }
      ],
      "name": "OwnableUnauthorizedAccount",
      "type": "error"
    },
    {
      "inputs": [],
      "name": "PlantAlreadyAdopted",
      "type": "error"
    },
    {
      "inputs": [],
      "name": "PlantAlreadySplit",
      "type": "error"
    },
    {
      "inputs": [],
      "name": "PlantIDOverflow",
      "type": "error"
    },
    {
      "inputs": [],
      "name": "PlantNotAdopted",
      "type": "error"
    },
    {
      "inputs": [],
      "name": "ReentrancyGuardReentrantCall",
      "type": "error"
    },
    {
      "inputs": [],
      "name": "TransferFailed",
      "type": "error"
    },
    {
      "anonymous": false,
      "inputs": [
        {
          "indexed": true,
          "internalType": "address",
          "name": "previousOwner",
          "type": "address"
        },
        {
          "indexed": true,
          "internalType": "address",
          "name": "newOwner",
          "type": "address"
        }
      ],
      "name": "OwnershipTransferred",
      "type": "event"
    },
    {
      "anonymous": false,
      "inputs": [
        {
          "indexed": true,
          "internalType": "uint256",
          "name": "plantId",
          "type": "uint256"
        },
        {
          "indexed": true,
          "internalType": "address",
          "name": "owner",
          "type": "address"
        },
        {
          "indexed": false,
          "internalType": "enum PlantMarket.PlantType",
          "name": "plantType",
          "type": "uint8"
        },
        {
          "indexed": false,
          "internalType": "uint256",
          "name": "adoptionTime",
          "type": "uint256"
        }
      ],
      "name": "PlantAdopted",
      "type": "event"
    },
    {
      "anonymous": false,
      "inputs": [
        {
          "indexed": true,
          "internalType": "uint256",
          "name": "plantId",
          "type": "uint256"
        },
        {
          "indexed": true,
          "internalType": "address",
          "name": "seller",
          "type": "address"
        },
        {
          "indexed": false,
          "internalType": "uint256",
          "name": "price",
          "type": "uint256"
        }
      ],
      "name": "PlantCreated",
      "type": "event"
    },
    {
      "anonymous": false,
      "inputs": [
        {
          "indexed": true,
          "internalType": "uint256",
          "name": "plantId",
          "type": "uint256"
        },
        {
          "indexed": true,
          "internalType": "address",
          "name": "seller",
          "type": "address"
        },
        {
          "indexed": false,
          "internalType": "uint256",
          "name": "price",
          "type": "uint256"
        }
      ],
      "name": "PlantListed",
      "type": "event"
    },
    {
      "anonymous": false,
      "inputs": [
        {
          "indexed": true,
          "internalType": "uint256",
          "name": "plantId",
          "type": "uint256"
        },
        {
          "indexed": true,
          "internalType": "address",
          "name": "buyer",
          "type": "address"
        },
        {
          "indexed": true,
          "internalType": "address",
          "name": "seller",
          "type": "address"
        },
        {
          "indexed": false,
          "internalType": "uint256",
          "name": "price",
          "type": "uint256"
        }
      ],
      "name": "PlantSold",
      "type": "event"
    },
    {
      "inputs": [
        {
          "internalType": "uint256",
          "name": "_plantId",
          "type": "uint256"
        }
      ],
      "name": "adoptPlant",
      "outputs": [],
      "stateMutability": "payable",
      "type": "function"
    },
    {
      "inputs": [
        {
          "components": [
            {
              "internalType": "enum PlantMarket.PlantType",
              "name": "plantType",
              "type": "uint8"
            },
            {
              "internalType": "uint256",
              "name": "minEth",
              "type": "uint256"
            },
            {
              "internalType": "uint256",
              "name": "maxEth",
              "type": "uint256"
            }
          ],
          "internalType": "struct PlantMarket.PlantDTO",
          "name": "newPlantDTO",
          "type": "tuple"
        },
        {
          "internalType": "address",
          "name": "_owner",
          "type": "address"
        }
      ],
      "name": "createPlant",
      "outputs": [],
      "stateMutability": "nonpayable",
      "type": "function"
    },
    {
      "inputs": [],
      "name": "getMarketListings",
      "outputs": [
        {
          "components": [
            {
              "internalType": "uint256",
              "name": "plantId",
              "type": "uint256"
            },
            {
              "internalType": "enum PlantMarket.PlantType",
              "name": "plantType",
              "type": "uint8"
            },
            {
              "internalType": "uint256",
              "name": "valueEth",
              "type": "uint256"
            },
            {
              "internalType": "uint256",
              "name": "adoptedTimestamp",
              "type": "uint256"
            },
            {
              "internalType": "address",
              "name": "owner",
              "type": "address"
            },
            {
              "internalType": "bool",
              "name": "isAdopted",
              "type": "bool"
            },
            {
              "internalType": "bool",
              "name": "isSplit",
              "type": "bool"
            }
          ],
          "internalType": "struct PlantMarket.Plant[]",
          "name": "",
          "type": "tuple[]"
        }
      ],
      "stateMutability": "view",
      "type": "function"
    },
    {
      "inputs": [
        {
          "internalType": "uint256",
          "name": "_plantId",
          "type": "uint256"
        }
      ],
      "name": "getPlantInfoById",
      "outputs": [
        {
          "components": [
            {
              "internalType": "uint256",
              "name": "plantId",
              "type": "uint256"
            },
            {
              "internalType": "enum PlantMarket.PlantType",
              "name": "plantType",
              "type": "uint8"
            },
            {
              "internalType": "uint256",
              "name": "valueEth",
              "type": "uint256"
            },
            {
              "internalType": "uint256",
              "name": "adoptedTimestamp",
              "type": "uint256"
            },
            {
              "internalType": "address",
              "name": "owner",
              "type": "address"
            },
            {
              "internalType": "bool",
              "name": "isAdopted",
              "type": "bool"
            },
            {
              "internalType": "bool",
              "name": "isSplit",
              "type": "bool"
            }
          ],
          "internalType": "struct PlantMarket.Plant",
          "name": "",
          "type": "tuple"
        }
      ],
      "stateMutability": "view",
      "type": "function"
    },
    {
      "inputs": [
        {
          "internalType": "address",
          "name": "_user",
          "type": "address"
        },
        {
          "internalType": "bool",
          "name": "includeSplit",
          "type": "bool"
        }
      ],
      "name": "getUserAdoptedPlants",
      "outputs": [
        {
          "components": [
            {
              "internalType": "uint256",
              "name": "plantId",
              "type": "uint256"
            },
            {
              "internalType": "enum PlantMarket.PlantType",
              "name": "plantType",
              "type": "uint8"
            },
            {
              "internalType": "uint256",
              "name": "valueEth",
              "type": "uint256"
            },
            {
              "internalType": "uint256",
              "name": "adoptedTimestamp",
              "type": "uint256"
            },
            {
              "internalType": "address",
              "name": "owner",
              "type": "address"
            },
            {
              "internalType": "bool",
              "name": "isAdopted",
              "type": "bool"
            },
            {
              "internalType": "bool",
              "name": "isSplit",
              "type": "bool"
            }
          ],
          "internalType": "struct PlantMarket.Plant[]",
          "name": "",
          "type": "tuple[]"
        }
      ],
      "stateMutability": "view",
      "type": "function"
    },
    {
      "inputs": [
        {
          "internalType": "address",
          "name": "_user",
          "type": "address"
        }
      ],
      "name": "getUserAdoptionPlantIds",
      "outputs": [
        {
          "internalType": "uint256[]",
          "name": "",
          "type": "uint256[]"
        }
      ],
      "stateMutability": "view",
      "type": "function"
    },
    {
      "inputs": [
        {
          "internalType": "address",
          "name": "_user",
          "type": "address"
        },
        {
          "internalType": "enum PlantMarket.PlantType",
          "name": "_plantType",
          "type": "uint8"
        }
      ],
      "name": "getUserAdoptionRecord",
      "outputs": [
        {
          "internalType": "uint256",
          "name": "",
          "type": "uint256"
        }
      ],
      "stateMutability": "view",
      "type": "function"
    },
    {
      "inputs": [
        {
          "internalType": "uint256",
          "name": "plantId",
          "type": "uint256"
        }
      ],
      "name": "list",
      "outputs": [],
      "stateMutability": "nonpayable",
      "type": "function"
    },
    {
      "inputs": [],
      "name": "owner",
      "outputs": [
        {
          "internalType": "address",
          "name": "",
          "type": "address"
        }
      ],
      "stateMutability": "view",
      "type": "function"
    },
    {
      "inputs": [
        {
          "internalType": "uint256",
          "name": "",
          "type": "uint256"
        }
      ],
      "name": "plants",
      "outputs": [
        {
          "internalType": "uint256",
          "name": "plantId",
          "type": "uint256"
        },
        {
          "internalType": "enum PlantMarket.PlantType",
          "name": "plantType",
          "type": "uint8"
        },
        {
          "internalType": "uint256",
          "name": "valueEth",
          "type": "uint256"
        },
        {
          "internalType": "uint256",
          "name": "adoptedTimestamp",
          "type": "uint256"
        },
        {
          "internalType": "address",
          "name": "owner",
          "type": "address"
        },
        {
          "internalType": "bool",
          "name": "isAdopted",
          "type": "bool"
        },
        {
          "internalType": "bool",
          "name": "isSplit",
          "type": "bool"
        }
      ],
      "stateMutability": "view",
      "type": "function"
    },
    {
      "inputs": [
        {
          "internalType": "enum PlantMarket.PlantType",
          "name": "",
          "type": "uint8"
        }
      ],
      "name": "priceRanges",
      "outputs": [
        {
          "internalType": "uint256",
          "name": "minEth",
          "type": "uint256"
        },
        {
          "internalType": "uint256",
          "name": "maxEth",
          "type": "uint256"
        },
        {
          "internalType": "uint8",
          "name": "startTime",
          "type": "uint8"
        },
        {
          "internalType": "uint8",
          "name": "endTime",
          "type": "uint8"
        },
        {
          "internalType": "uint8",
          "name": "profitDays",
          "type": "uint8"
        },
        {
          "internalType": "uint16",
          "name": "profitRate",
          "type": "uint16"
        },
        {
          "internalType": "uint256",
          "name": "rewardAmounts",
          "type": "uint256"
        }
      ],
      "stateMutability": "view",
      "type": "function"
    },
    {
      "inputs": [],
      "name": "renounceOwnership",
      "outputs": [],
      "stateMutability": "nonpayable",
      "type": "function"
    },
    {
      "inputs": [
        {
          "internalType": "address",
          "name": "newOwner",
          "type": "address"
        }
      ],
      "name": "transferOwnership",
      "outputs": [],
      "stateMutability": "nonpayable",
      "type": "function"
    }
  ],
  "bytecode": "0x608034620003c857601f620019a038819003918201601f1916830192916001600160401b03841183851017620003cc5780839260409586528339602092839181010312620003c857516001600160a01b039182821691829003620003c8573315620003b1575f54600160a01b60019003199333858316175f553391167f8be0079c531659141344cd1fd0a4f28419497f9722a3daafe3b4186f6b6457e05f80a3600191828055600293845416178355620000b8620003e0565b926611c37937e0800084528184019266354a6ba7a18000845285850191866007938481526060880190601782526080890198868a5260a08101906015825260c08101996103e88b525f805260068a52855f20915182555187820155858101925160ff1692805461ff00955162ff0000809e51918864ffff0000009889985164ffffffffff199a8b9160181b169616179160081b16179160101b16171790556003809a519101558989898989888a6200016f620003e0565b966635a55eb81bc00088528989878a0193669fdf42f6e480008552858b0197885260608b01966017885260808c01958b875260a08d01978d60098a5260c0019b610bb88d52835f52600690525f209c518d5551908c01558a01965160ff16928d8854975160081b16945160101b16945160181b169416171717179055519101558989898989888a62000200620003e0565b9666a03a36075ec00088528989878a01936701bc16d674ec80008552858b0197885260608b01966017885260808c01956005875260a08d01978d600d8a5260c0019b6113888d52845f52600690525f209c518d5551908c01558a01965160ff16928d8854975160081b16945160101b16945160181b169416171717179055519101558989898989888a62000293620003e0565b966701bc71c98566c00088528989878a0193670429d069189e00008552858b0197885260608b01966017885260808c0195600c875260a08d01978d60158a5260c0019b6127108d528d5f52600690525f209c518d5551908c01558a01965160ff16928d8854975160081b16945160101b16945160181b1694161717171790555191015562000320620003e0565b998a9567042a2b5c29184000875289870197670a688906bd8b00008952868801998a52606088019860178a5260808901976014895260a08a019960288b5260c0019c614e208e5260045f52600690525f20809e51905551908d01558b01975160ff16938854975160081b16945160101b16945160181b169416171717179055519101555161159f9081620004018239f35b8351631e4fbdf760e01b81525f6004820152602490fd5b5f80fd5b634e487b7160e01b5f52604160045260245ffd5b6040519060e082016001600160401b03811183821017620003cc5760405256fe6080604081815260049182361015610015575f80fd5b5f905f3560e01c908163227a5c4814611009575080634f05caa314610f5e57806365f5d1b414610f1e578063715018a614610eba57806378c0dc9214610df257806380c9419e1461090d5780638da5cb5b146108e75780638dd2361c14610866578063c0cdaf511461039c578063d06d55ed14610262578063d8156ba6146101e6578063f2fde38b146101355763fa23bf17146100b0575f80fd5b346101325781600319360112610132576100c86110d4565b9060243591600583101561012e5784831161010557836100fd93926020966001600160a01b03600194168252875220016111c0565b549051908152f35b505050517f36a7e4e5000000000000000000000000000000000000000000000000000000008152fd5b5080fd5b80fd5b5091346101e25760203660031901126101e2576101506110d4565b90610159611526565b6001600160a01b038092169283156101b35750505f548273ffffffffffffffffffffffffffffffffffffffff198216175f55167f8be0079c531659141344cd1fd0a4f28419497f9722a3daafe3b4186f6b6457e05f80a380f35b908460249251917f1e4fbdf7000000000000000000000000000000000000000000000000000000008352820152fd5b8280fd5b5091346101e25760203660031901126101e25735916005831015610132575061021060e0926111a9565b9061ffff82549260018101549260036002830154920154938151958652602086015260ff82169085015260ff8160081c16606085015260ff8160101c16608085015260181c1660a083015260c0820152f35b50903461012e578060031936011261012e5761027c6110d4565b9260243590811590811583036103985784926005549261029b846114a2565b976001600160a01b03908116885b868110610301578a8a8a8a6102bd816114a2565b925b8181106102d7578251806102d38682611161565b0390f35b806102e4600192876114f1565b516102ef82876114f1565b526102fa81866114f1565b50016102bf565b808a5260036020528a898b20878101548685878316149182610389575b8261036a575b5050610335575b50506001016102a9565b9861035a816103609361034a6001969d611421565b61035483836114f1565b526114f1565b506111ef565b9790508a5f61032b565b8992509061037b575b50865f610324565b60ff915060a81c165f610373565b915060ff8260a01c169161031e565b8480fd5b50906020806003193601126107db578335600192600284541461083e5760028455815f5260038352805f2084810160ff91828254166001600160a01b03908a82600254169189885180937f31ed9d5d00000000000000000000000000000000000000000000000000000000825281865afa918215610834575f92610805575b506003610427826111a9565b0154670de0b6b3a764000092838202918083048514901517156107f2571015610730575b50505089820190815490858260a01c1661070857858260a81c166106e05785855416610476816111a9565b54341080156106cc575b6106a457617080420180421161069057610e106018910406878060026104a5856111a9565b0154168210159283610672575b5050501561064a578a80809381933491165af13d15610645573d67ffffffffffffffff8111610632578651906104f1601f8201601f19168b01836110b2565b81528a893d92013e5b1561060a577401000000000000000000000000000000000000000081547fffffffffffffffffffffff00000000000000000000000000000000000000000060ff60a01b193316911617179055600342910155338752878552828720805490680100000000000000008210156105f7578782018082558210156105e457857f2b6b59e9e3b93bd4ff38cc3502e1fa2606705a155cb514545fff555a841bd4c9959493928b928b52888b20015533895286526105bc87848a200183835416906111c0565b6105c681546111ef565b90555416936105d7825180966110ea565b42908501523393a3805580f35b60248960328c634e487b7160e01b835252fd5b60248960418c634e487b7160e01b835252fd5b8985517f90b8ec18000000000000000000000000000000000000000000000000000000008152fd5b60248b60418e634e487b7160e01b835252fd5b6104fa565b8b87517fad7abdcb000000000000000000000000000000000000000000000000000000008152fd5b600291929350610681906111a9565b015460081c16115f87816104b2565b5060248c60118f634e487b7160e01b835252fd5b8c88517f6b0574f2000000000000000000000000000000000000000000000000000000008152fd5b508a6106d7826111a9565b01543411610480565b8b87517f0f6a68e3000000000000000000000000000000000000000000000000000000008152fd5b8b87517f1164df37000000000000000000000000000000000000000000000000000000008152fd5b61073b6003916111a9565b01548181029181830414901517156107df57813b156107db575f9060448d838a5195869485937f704432c9000000000000000000000000000000000000000000000000000000008552339085015260248401525af180156107d1576107a2575b808061044b565b90985067ffffffffffffffff81116107be5784525f975f61079b565b60418a634e487b7160e01b5f525260245ffd5b86513d5f823e3d90fd5b5f80fd5b60118c634e487b7160e01b5f525260245ffd5b60118f634e487b7160e01b5f525260245ffd5b9091508981813d831161082d575b61081d81836110b2565b810103126107db5751905f61041b565b503d610813565b88513d5f823e3d90fd5b8590517f3ee5aeb5000000000000000000000000000000000000000000000000000000008152fd5b8284346107db5760203660031901126107db5760ff60e09282355f526003602052805f2080549383600183015416926108b6600284015492600385015494015494825197885260208801906110ea565b85015260608401526001600160a01b0381166080840152818160a01c16151560a084015260a81c16151560c0820152f35b82346107db575f3660031901126107db576020906001600160a01b035f54169051908152f35b5050346107db576020806003193601126107db578235906005548211610dca57815f52600393848252835f20818101908154906001600160a01b03918281163303610da25760a01c60ff1615610d7b578781015460788101809111610bb057421015610d53576002810193845460018093019081549061ffff600261099460ff85166111a9565b015460181c16808202908282041482151715610bb0579060646109b8920490611519565b808855670a688906bd8b0000811115610bfc5750505087519160c0830183811067ffffffffffffffff821117610be95789526005835286830160a0368237835115610bd6575f90528251811015610bc3578089840152825160021015610bc3576002606084015282518a1015610bc3578960808401528251821015610bc3578160a0840152805f935f925b610b06575b5050508454918203918211610af3575096610aa99187987f14ac6d84304037c1b2b045bc0ec013c584edaf1f3881c8c837c9c34c336a87b397985192610a8d84611066565b835286830152670429d069189e00008983015283541690611211565b75010000000000000000000000000000000000000000007fffffffffffffffffffff00ffffffffffffffffffffffffffffffffffffffffff8254161790555b5493519384523393a3005b601190634e487b7160e01b5f525260245ffd5b90919381515f198101908111610bb057851015610baa579082610b458193610b3e610b39610b348a876114f1565b6111d6565b6111a9565b5490611519565b95610ba38d8c610b58610b3485886114f1565b91610b69610b39610b34878a6114f1565b5486610b7b610b39610b34898c6114f1565b015492610b93835195610b8d87611066565b866111e3565b840152820152898b541690611211565b0192610a43565b93610a48565b601185634e487b7160e01b5f525260245ffd5b603282634e487b7160e01b5f525260245ffd5b603283634e487b7160e01b5f525260245ffd5b604183634e487b7160e01b5f525260245ffd5b7f14ac6d84304037c1b2b045bc0ec013c584edaf1f3881c8c837c9c34c336a87b3999a9b939492955067042a2b5c29184000811180610d4c575b15610c59575050505060ff198254161790555b60ff60a01b198154169055610ae8565b90919293506701bc71c98566c000811180610d3a575b15610c855750505060ff19825416179055610c49565b9091925066a03a36075ec000811180610d28575b15610cb157505050600260ff19825416179055610c49565b6635a55eb81bc000811180610d17575b15610cd6575050815460ff1916179055610c49565b9091506611c37937e080008110159081610d05575b50610cf8575b5050610c49565b60ff191690555f80610cf1565b66354a6ba7a18000915011155f610ceb565b50669fdf42f6e48000811115610cc1565b506701bc16d674ec8000811115610c99565b50670429d069189e0000811115610c6f565b5082610c36565b8387517f95c8b03d000000000000000000000000000000000000000000000000000000008152fd5b8387517e9c5685000000000000000000000000000000000000000000000000000000008152fd5b8488517f30cd7471000000000000000000000000000000000000000000000000000000008152fd5b5050517fe8fd6b9d000000000000000000000000000000000000000000000000000000008152fd5b8284346107db575f3660031901126107db5760055491610e11836114a2565b925f925f5b828110610e6a57505050610e29826114a2565b915f5b818110610e40578251806102d38682611161565b80610e4d600192876114f1565b51610e5882876114f1565b52610e6381866114f1565b5001610e2c565b805f526003602052835f2060ff8382015460a01c1615610e8e575b50600101610e16565b60019195610e9e610eb392611421565b610ea8828a6114f1565b5261035a81896114f1565b9490610e85565b346107db575f3660031901126107db57610ed2611526565b5f6001600160a01b03815473ffffffffffffffffffffffffffffffffffffffff1981168355167f8be0079c531659141344cd1fd0a4f28419497f9722a3daafe3b4186f6b6457e08280a3005b5050346107db5760203660031901126107db5760e091610f3c6113eb565b50355f526003602052610f5c610f53825f20611421565b9151809261110b565bf35b8284346107db57602090816003193601126107db5782906001600160a01b03610f856110d4565b165f528252805f208151928381835491828152019081935f52825f20905f5b818110610ff55750505084610fba9103856110b2565b825181815293518185018190528493840192915f5b828110610fde57505050500390f35b835185528695509381019392810192600101610fcf565b825484529284019260019283019201610fa4565b8385346107db573660031901608081126107db576060136107db5761102d83611066565b3560058110156107db5782526024356020830152604435908201526064356001600160a01b03811681036107db5761106491611211565b005b6060810190811067ffffffffffffffff82111761108257604052565b634e487b7160e01b5f52604160045260245ffd5b60e0810190811067ffffffffffffffff82111761108257604052565b90601f8019910116810190811067ffffffffffffffff82111761108257604052565b600435906001600160a01b03821682036107db57565b9060058210156110f75752565b634e487b7160e01b5f52602160045260245ffd5b60c0809180518452611125602082015160208601906110ea565b60408101516040850152606081015160608501526001600160a01b03608082015116608085015260a0810151151560a085015201511515910152565b60209060206040818301928281528551809452019301915f5b828110611188575050505090565b909192938260e08261119d600194895161110b565b0195019392910161117a565b60058110156110f7575f52600660205260405f2090565b9060058110156110f7575f5260205260405f2090565b5160058110156110f75790565b60058210156110f75752565b5f1981146111fd5760010190565b634e487b7160e01b5f52601160045260245ffd5b6005908154925f198410156113c1578151838110156110f757611233906111a9565b60409485519361124285611096565b60038354938487526001810154602088015261ffff600282015460ff81168b8a015260ff8160081c1660608a015260ff8160101c1660808a015260181c1660a0880152015460c08601525192858410156110f7578651936112a285611096565b8285526112b36020860191826111e3565b87850193845260608501945f865260808101956001600160a01b03809416875260a08201955f875260c08301955f87525f5260036020528a5f2092518355600183019351938a8510156110f75760049460ff80198354169116179055516002830155516003820155019351167fffffffffffffffffffff0000000000000000000000000000000000000000000075ff00000000000000000000000000000000000000000074ff000000000000000000000000000000000000000086549551151560a01b169351151560a81b169316171717905561139082546111ef565b8092555191519182527f3c7450b5b54d32b4163bbab3477be25d90dec07e4e10a7a7717c1463ae336b3660203093a3565b60046040517f929fd583000000000000000000000000000000000000000000000000000000008152fd5b604051906113f882611096565b5f60c0838281528260208201528260408201528260608201528260808201528260a08201520152565b9060405161142e81611096565b60c060ff600483958054855261144d83600183015416602087016111e3565b600281015460408601526003810154606086015201546001600160a01b0381166080850152818160a01c16151560a085015260a81c161515910152565b67ffffffffffffffff81116110825760051b60200190565b906114ac8261148a565b6114b960405191826110b2565b82815280926114ca601f199161148a565b01905f5b8281106114da57505050565b6020906114e56113eb565b828285010152016114ce565b80518210156115055760209160051b010190565b634e487b7160e01b5f52603260045260245ffd5b919082018092116111fd57565b6001600160a01b035f5416330361153957565b60246040517f118cdaa7000000000000000000000000000000000000000000000000000000008152336004820152fdfea2646970667358221220b6fa42816baaf8799dbe07b34aaf1ac6498689da398cb6af80c0d5fbdeff3f1964736f6c63430008180033",
  "linkReferences": {},
  "deployedLinkReferences": {}
}