{
  "_format": "hh-sol-artifact-1",
  "contractName": "PlantMarket",
  "sourceName": "contracts/PlantMarket.sol",
  "abi": [
    {
      "inputs": [],
      "stateMutability": "nonpayable",
      "type": "constructor"
    },
    {
      "inputs": [
        {
          "internalType": "address",
          "name": "account",
          "type": "address"
        }
      ],
      "name": "AddressInsufficientBalance",
      "type": "error"
    },
    {
      "inputs": [],
      "name": "FailedInnerCall",
      "type": "error"
    },
    {
      "inputs": [
        {
          "internalType": "address",
          "name": "owner",
          "type": "address"
        }
      ],
      "name": "OwnableInvalidOwner",
      "type": "error"
    },
    {
      "inputs": [
        {
          "internalType": "address",
          "name": "account",
          "type": "address"
        }
      ],
      "name": "OwnableUnauthorizedAccount",
      "type": "error"
    },
    {
      "inputs": [],
      "name": "ReentrancyGuardReentrantCall",
      "type": "error"
    },
    {
      "anonymous": false,
      "inputs": [
        {
          "indexed": true,
          "internalType": "address",
          "name": "previousOwner",
          "type": "address"
        },
        {
          "indexed": true,
          "internalType": "address",
          "name": "newOwner",
          "type": "address"
        }
      ],
      "name": "OwnershipTransferred",
      "type": "event"
    },
    {
      "anonymous": false,
      "inputs": [
        {
          "indexed": true,
          "internalType": "uint256",
          "name": "plantId",
          "type": "uint256"
        },
        {
          "indexed": true,
          "internalType": "address",
          "name": "owner",
          "type": "address"
        },
        {
          "indexed": false,
          "internalType": "enum PlantMarket.PlantType",
          "name": "plantType",
          "type": "uint8"
        },
        {
          "indexed": false,
          "internalType": "uint256",
          "name": "adoptionTime",
          "type": "uint256"
        }
      ],
      "name": "PlantAdopted",
      "type": "event"
    },
    {
      "anonymous": false,
      "inputs": [
        {
          "indexed": true,
          "internalType": "uint256",
          "name": "plantId",
          "type": "uint256"
        },
        {
          "indexed": true,
          "internalType": "address",
          "name": "seller",
          "type": "address"
        },
        {
          "indexed": false,
          "internalType": "uint256",
          "name": "price",
          "type": "uint256"
        }
      ],
      "name": "PlantCreated",
      "type": "event"
    },
    {
      "anonymous": false,
      "inputs": [
        {
          "indexed": true,
          "internalType": "uint256",
          "name": "plantId",
          "type": "uint256"
        },
        {
          "indexed": true,
          "internalType": "address",
          "name": "seller",
          "type": "address"
        },
        {
          "indexed": false,
          "internalType": "uint256",
          "name": "price",
          "type": "uint256"
        }
      ],
      "name": "PlantListed",
      "type": "event"
    },
    {
      "anonymous": false,
      "inputs": [
        {
          "indexed": true,
          "internalType": "uint256",
          "name": "plantId",
          "type": "uint256"
        },
        {
          "indexed": true,
          "internalType": "address",
          "name": "buyer",
          "type": "address"
        },
        {
          "indexed": true,
          "internalType": "address",
          "name": "seller",
          "type": "address"
        },
        {
          "indexed": false,
          "internalType": "uint256",
          "name": "price",
          "type": "uint256"
        }
      ],
      "name": "PlantSold",
      "type": "event"
    },
    {
      "inputs": [
        {
          "internalType": "uint256",
          "name": "_plantId",
          "type": "uint256"
        }
      ],
      "name": "adoptPlant",
      "outputs": [],
      "stateMutability": "payable",
      "type": "function"
    },
    {
      "inputs": [
        {
          "components": [
            {
              "internalType": "uint256",
              "name": "minEth",
              "type": "uint256"
            },
            {
              "internalType": "uint256",
              "name": "maxEth",
              "type": "uint256"
            },
            {
              "internalType": "uint8",
              "name": "startTime",
              "type": "uint8"
            },
            {
              "internalType": "uint8",
              "name": "endTime",
              "type": "uint8"
            },
            {
              "internalType": "enum PlantMarket.PlantType",
              "name": "plantType",
              "type": "uint8"
            },
            {
              "internalType": "uint8",
              "name": "profitDays",
              "type": "uint8"
            },
            {
              "internalType": "uint16",
              "name": "profitRate",
              "type": "uint16"
            }
          ],
          "internalType": "struct PlantMarket.PlantDTO",
          "name": "plantDTO",
          "type": "tuple"
        }
      ],
      "name": "createPlant",
      "outputs": [],
      "stateMutability": "nonpayable",
      "type": "function"
    },
    {
      "inputs": [],
      "name": "getMarketListings",
      "outputs": [
        {
          "components": [
            {
              "internalType": "uint256",
              "name": "plantId",
              "type": "uint256"
            },
            {
              "internalType": "enum PlantMarket.PlantType",
              "name": "plantType",
              "type": "uint8"
            },
            {
              "internalType": "uint256",
              "name": "minEth",
              "type": "uint256"
            },
            {
              "internalType": "uint256",
              "name": "maxEth",
              "type": "uint256"
            },
            {
              "internalType": "uint8",
              "name": "startTime",
              "type": "uint8"
            },
            {
              "internalType": "uint8",
              "name": "endTime",
              "type": "uint8"
            },
            {
              "internalType": "uint256",
              "name": "adoptedTimestamp",
              "type": "uint256"
            },
            {
              "internalType": "uint8",
              "name": "profitDays",
              "type": "uint8"
            },
            {
              "internalType": "uint16",
              "name": "profitRate",
              "type": "uint16"
            },
            {
              "internalType": "address",
              "name": "owner",
              "type": "address"
            },
            {
              "internalType": "bool",
              "name": "isAdopted",
              "type": "bool"
            },
            {
              "internalType": "bool",
              "name": "isSplit",
              "type": "bool"
            }
          ],
          "internalType": "struct PlantMarket.Plant[]",
          "name": "",
          "type": "tuple[]"
        }
      ],
      "stateMutability": "view",
      "type": "function"
    },
    {
      "inputs": [
        {
          "internalType": "uint256",
          "name": "_plantId",
          "type": "uint256"
        }
      ],
      "name": "getPlantInfoById",
      "outputs": [
        {
          "components": [
            {
              "internalType": "uint256",
              "name": "plantId",
              "type": "uint256"
            },
            {
              "internalType": "enum PlantMarket.PlantType",
              "name": "plantType",
              "type": "uint8"
            },
            {
              "internalType": "uint256",
              "name": "minEth",
              "type": "uint256"
            },
            {
              "internalType": "uint256",
              "name": "maxEth",
              "type": "uint256"
            },
            {
              "internalType": "uint8",
              "name": "startTime",
              "type": "uint8"
            },
            {
              "internalType": "uint8",
              "name": "endTime",
              "type": "uint8"
            },
            {
              "internalType": "uint256",
              "name": "adoptedTimestamp",
              "type": "uint256"
            },
            {
              "internalType": "uint8",
              "name": "profitDays",
              "type": "uint8"
            },
            {
              "internalType": "uint16",
              "name": "profitRate",
              "type": "uint16"
            },
            {
              "internalType": "address",
              "name": "owner",
              "type": "address"
            },
            {
              "internalType": "bool",
              "name": "isAdopted",
              "type": "bool"
            },
            {
              "internalType": "bool",
              "name": "isSplit",
              "type": "bool"
            }
          ],
          "internalType": "struct PlantMarket.Plant",
          "name": "",
          "type": "tuple"
        }
      ],
      "stateMutability": "view",
      "type": "function"
    },
    {
      "inputs": [
        {
          "internalType": "address",
          "name": "_user",
          "type": "address"
        },
        {
          "internalType": "bool",
          "name": "includeSplit",
          "type": "bool"
        }
      ],
      "name": "getUserAdoptedPlants",
      "outputs": [
        {
          "components": [
            {
              "internalType": "uint256",
              "name": "plantId",
              "type": "uint256"
            },
            {
              "internalType": "enum PlantMarket.PlantType",
              "name": "plantType",
              "type": "uint8"
            },
            {
              "internalType": "uint256",
              "name": "minEth",
              "type": "uint256"
            },
            {
              "internalType": "uint256",
              "name": "maxEth",
              "type": "uint256"
            },
            {
              "internalType": "uint8",
              "name": "startTime",
              "type": "uint8"
            },
            {
              "internalType": "uint8",
              "name": "endTime",
              "type": "uint8"
            },
            {
              "internalType": "uint256",
              "name": "adoptedTimestamp",
              "type": "uint256"
            },
            {
              "internalType": "uint8",
              "name": "profitDays",
              "type": "uint8"
            },
            {
              "internalType": "uint16",
              "name": "profitRate",
              "type": "uint16"
            },
            {
              "internalType": "address",
              "name": "owner",
              "type": "address"
            },
            {
              "internalType": "bool",
              "name": "isAdopted",
              "type": "bool"
            },
            {
              "internalType": "bool",
              "name": "isSplit",
              "type": "bool"
            }
          ],
          "internalType": "struct PlantMarket.Plant[]",
          "name": "",
          "type": "tuple[]"
        }
      ],
      "stateMutability": "view",
      "type": "function"
    },
    {
      "inputs": [
        {
          "internalType": "address",
          "name": "_user",
          "type": "address"
        }
      ],
      "name": "getUserAdoptionPlantIds",
      "outputs": [
        {
          "internalType": "uint256[]",
          "name": "",
          "type": "uint256[]"
        }
      ],
      "stateMutability": "view",
      "type": "function"
    },
    {
      "inputs": [
        {
          "internalType": "address",
          "name": "_user",
          "type": "address"
        },
        {
          "internalType": "enum PlantMarket.PlantType",
          "name": "_plantType",
          "type": "uint8"
        }
      ],
      "name": "getUserAdoptionRecord",
      "outputs": [
        {
          "internalType": "uint256",
          "name": "",
          "type": "uint256"
        }
      ],
      "stateMutability": "view",
      "type": "function"
    },
    {
      "inputs": [
        {
          "internalType": "uint256",
          "name": "plantId",
          "type": "uint256"
        }
      ],
      "name": "list",
      "outputs": [],
      "stateMutability": "nonpayable",
      "type": "function"
    },
    {
      "inputs": [],
      "name": "owner",
      "outputs": [
        {
          "internalType": "address",
          "name": "",
          "type": "address"
        }
      ],
      "stateMutability": "view",
      "type": "function"
    },
    {
      "inputs": [
        {
          "internalType": "uint256",
          "name": "",
          "type": "uint256"
        }
      ],
      "name": "plants",
      "outputs": [
        {
          "internalType": "uint256",
          "name": "plantId",
          "type": "uint256"
        },
        {
          "internalType": "enum PlantMarket.PlantType",
          "name": "plantType",
          "type": "uint8"
        },
        {
          "internalType": "uint256",
          "name": "minEth",
          "type": "uint256"
        },
        {
          "internalType": "uint256",
          "name": "maxEth",
          "type": "uint256"
        },
        {
          "internalType": "uint8",
          "name": "startTime",
          "type": "uint8"
        },
        {
          "internalType": "uint8",
          "name": "endTime",
          "type": "uint8"
        },
        {
          "internalType": "uint256",
          "name": "adoptedTimestamp",
          "type": "uint256"
        },
        {
          "internalType": "uint8",
          "name": "profitDays",
          "type": "uint8"
        },
        {
          "internalType": "uint16",
          "name": "profitRate",
          "type": "uint16"
        },
        {
          "internalType": "address",
          "name": "owner",
          "type": "address"
        },
        {
          "internalType": "bool",
          "name": "isAdopted",
          "type": "bool"
        },
        {
          "internalType": "bool",
          "name": "isSplit",
          "type": "bool"
        }
      ],
      "stateMutability": "view",
      "type": "function"
    },
    {
      "inputs": [],
      "name": "renounceOwnership",
      "outputs": [],
      "stateMutability": "nonpayable",
      "type": "function"
    },
    {
      "inputs": [
        {
          "internalType": "address",
          "name": "newOwner",
          "type": "address"
        }
      ],
      "name": "transferOwnership",
      "outputs": [],
      "stateMutability": "nonpayable",
      "type": "function"
    },
    {
      "inputs": [
        {
          "internalType": "uint256",
          "name": "amount",
          "type": "uint256"
        }
      ],
      "name": "withdrawBalance",
      "outputs": [],
      "stateMutability": "nonpayable",
      "type": "function"
    }
  ],
  "bytecode": "0x6080806040523461007c573315610067575f8054336001600160a01b03198216811783556040519290916001600160a01b0316907f8be0079c531659141344cd1fd0a4f28419497f9722a3daafe3b4186f6b6457e09080a36001805561188490816100818239f35b631e4fbdf760e01b81525f6004820152602490fd5b5f80fdfe6080806040526004361015610012575f80fd5b5f3560e01c9081634f05caa3146110875750806365f5d1b414611045578063715018a614610fe157806378c0dc9214610f1a57806380c9419e146108a15780638da5cb5b1461087c5780638dd2361c146107b8578063c0cdaf5114610479578063d06d55ed14610301578063da76d5cd14610286578063ea2c36b1146101f4578063f2fde38b1461014c5763fa23bf17146100ab575f80fd5b34610148576040366003190112610148576100c4611131565b6024359060058210156101485760048211610104576020916001600160a01b036100fb92165f5260038352600160405f2001611496565b54604051908152f35b606460405162461bcd60e51b815260206004820152601260248201527f496e76616c696420706c616e74207479706500000000000000000000000000006044820152fd5b5f80fd5b3461014857602036600319011261014857610165611131565b61016d6114ac565b6001600160a01b038091169081156101c4575f548273ffffffffffffffffffffffffffffffffffffffff198216175f55167f8be0079c531659141344cd1fd0a4f28419497f9722a3daafe3b4186f6b6457e05f80a3005b60246040517f1e4fbdf70000000000000000000000000000000000000000000000000000000081525f6004820152fd5b346101485760e0366003190112610148576040516102118161124a565b6004358152602435602082015260443560ff8116810361014857604082015260643560ff81168103610148576060820152608435600581101561014857608082015260a43560ff811681036101485760a082015260c4359061ffff82168203610148576102849160c082015230906115b2565b005b34610148576020366003190112610148576004356102a26114ac565b8047106102bd57610284906001600160a01b035f54166114fc565b606460405162461bcd60e51b815260206004820152601460248201527f496e73756666696369656e742062616c616e63650000000000000000000000006044820152fd5b346101485760403660031901126101485761031a611131565b602435908115918215810361014857600454916001600160a01b03908116915f805b858110610402575061034d906113c8565b945f925f5b86811061036b57604051806103678a82611201565b0390f35b805f52600260205260405f2060068101548488858360181c161491826103f3575b826103d4575b50506103a2575b50600101610352565b600191956103b26103cd92611309565b6103bc828c611474565b526103c7818b611474565b50611488565b9490610399565b879250906103e5575b50848b610392565b60ff915060c01c168a6103dd565b915060ff8260b81c169161038c565b805f526002602052600660405f2001548786868360181c1614918261046a575b8261044b575b5050610437575b60010161033c565b90610443600191611488565b91905061042f565b8592509061045c575b508789610428565b60ff915060c01c1688610454565b915060ff8260b81c1691610422565b6020806003193601126101485760043590600191600283541461078e5760028355805f526002825260405f20600681019081549160ff92838160b81c1661074a57838160c01c16610706576002830154341015806106f8575b156106b4576104e083611309565b61708042018042116106a057610e106018910406908560a08160808401511692015116908210159182610696575b5050156106525761052c906001600160a01b03349160181c166114fc565b805476ffffffffffffffffffffffffffffffffffffffff00000019163360181b76ffffffffffffffffffffffffffffffffffffffff000000161781557701000000000000000000000000000000000000000000000060ff60b81b19825416179055335f526003845260405f2080546801000000000000000081101561063e5786810180835581101561062a5784915f52855f200155335f52600384526105df858060405f20019201918383541690611496565b6105e98154611488565b90555416916105fb6040518094611147565b42908301527f2b6b59e9e3b93bd4ff38cc3502e1fa2606705a155cb514545fff555a841bd4c960403393a38055005b634e487b7160e01b5f52603260045260245ffd5b634e487b7160e01b5f52604160045260245ffd5b6064866040519062461bcd60e51b82526004820152601160248201527f4e6f742061646f7074696f6e2074696d650000000000000000000000000000006044820152fd5b109050888061050e565b634e487b7160e01b5f52601160045260245ffd5b6064866040519062461bcd60e51b82526004820152601660248201527f496e76616c69642061646f7074696f6e207072696365000000000000000000006044820152fd5b5060038301543411156104d2565b6064866040519062461bcd60e51b82526004820152601660248201527f506c616e7420697320616c72656164792073706c6974000000000000000000006044820152fd5b6064866040519062461bcd60e51b82526004820152601860248201527f506c616e7420697320616c72656164792061646f7074656400000000000000006044820152fd5b60046040517f3ee5aeb5000000000000000000000000000000000000000000000000000000008152fd5b34610148576020366003190112610148576004355f52600260205261018060405f2080549060ff90816001820154169082600282015460038301546004840154916108176006600587015496015496604051998a5260208a0190611147565b60408801526060870152818116608087015260081c1660a085015260c084015281811660e084015261ffff8160081c166101008401526001600160a01b038160181c16610120840152818160b81c16151561014084015260c01c161515610160820152f35b34610148575f3660031901126101485760206001600160a01b035f5416604051908152f35b34610148576020366003190112610148576004546004351015610ed6576004355f52600260205260405f2060068101546001600160a01b038160181c163303610e925760ff8160b81c1615610e4e576005820154607881018091116106a057421015610e0a5761ffff60028301549160081c168082029082820414821517156106a057612710900481018091116106a057806002830155670a688906bd8b000081115f14610cd45750604051906109578261124a565b600682525f5b60c0808210156109a857906020915f604051916109798361124a565b81835281858401528160408401528160608401528160808401528160a08401528201528282860101520161095d565b5050906040516109b78161124a565b6611c37937e08000815266354a6ba7a180006020820152600e6040820152600f60608201525f6080820152600760a082015261083460c08201526109fa82611417565b52610a0481611417565b50604051610a118161124a565b6635a55eb81bc0008152669fdf42f6e480006020820152600f60408201526010606082015260016080820152600360a082015261038460c0820152610a5582611424565b52610a5f81611424565b50604051610a6c8161124a565b66a03a36075ec00081526701bc16d674ec80006020820152601060408201526011606082015260026080820152600560a08201526104e260c0820152610ab182611434565b52610abb81611434565b50604051610ac88161124a565b6701bc71c98566c0008152670429d069189e000090816020820152601160408201526012606082015260036080820152600c60a082015261083460c0820152610b1083611444565b52610b1a82611444565b50604051610b278161124a565b67042a2b5c291840008152670a688906bd8b00006020820152601260408201526013606082015260046080820152601460a0820152610fa060c0820152610b6d83611454565b52610b7782611454565b50610bc1610bb8610baf610ba6610b9d6002880154610b9588611417565b5151906114ef565b610b9587611424565b610b9586611434565b610b9585611444565b610b9584611454565b9060405191610bcf8361124a565b82526020820152601160408201526012606082015260036080820152600760a082015261083460c0820152610c0382611464565b52610c0d81611464565b505f5b8151811015610c5557600190610c27600454611488565b600455610c4f610c378285611474565b516001600160a01b03600687015460181c16906115b2565b01610c10565b50506006810180547fffffffffffffff00ffffffffffffffffffffffffffffffffffffffffffffffff1678010000000000000000000000000000000000000000000000001790556002905b015460405190815233907f14ac6d84304037c1b2b045bc0ec013c584edaf1f3881c8c837c9c34c336a87b3602060043592a3005b908167042a2b5c291840006002931180610e02575b15610d13575060018101805460ff191660041790555b60068101805460ff60b81b19169055610ca0565b6701bc71c98566c000811180610df0575b15610d3f575060018101805460ff191660031790555b610cff565b66a03a36075ec000811180610dde575b15610d68575060018101805460ff191683179055610cff565b6635a55eb81bc000811180610dcd575b15610d92575060018101600160ff19825416179055610cff565b6611c37937e080008110159081610dbb575b5015610d3a5760018101805460ff19169055610cff565b66354a6ba7a180009150111583610da4565b50669fdf42f6e48000811115610d78565b506701bc16d674ec8000811115610d4f565b50670429d069189e0000811115610d24565b506001610ce9565b606460405162461bcd60e51b815260206004820152601e60248201527f4e6f74207265616368696e672074686520636f6e7472616374207465726d00006044820152fd5b606460405162461bcd60e51b815260206004820152601460248201527f506c616e74206973206e6f742061646f707465640000000000000000000000006044820152fd5b606460405162461bcd60e51b815260206004820152600960248201527f4e6f74206f776e657200000000000000000000000000000000000000000000006044820152fd5b606460405162461bcd60e51b815260206004820152601060248201527f496e76616c696420706c616e74204944000000000000000000000000000000006044820152fd5b34610148575f36600319011261014857600454610f36816113c8565b905f905f5b818110610f8f575050610f4d816113c8565b915f5b828110610f6557604051806103678682611201565b80610f7260019284611474565b51610f7d8287611474565b52610f888186611474565b5001610f50565b805f52600260205260405f2060ff600682015460b81c1615610fb5575b50600101610f3b565b60019193610fc5610fda92611309565b610fcf8288611474565b526103c78187611474565b9290610fac565b34610148575f36600319011261014857610ff96114ac565b5f6001600160a01b03815473ffffffffffffffffffffffffffffffffffffffff1981168355167f8be0079c531659141344cd1fd0a4f28419497f9722a3daafe3b4186f6b6457e08280a3005b346101485760203660031901126101485761105e6112a5565b506004355f52600260205261018061107860405f20611309565b6110856040518092611168565bf35b346101485760209081600319360112610148576001600160a01b036110aa611131565b165f526003825260405f2080548083528383019081925f52845f20905f5b8682821061111d5786866110de82880383611283565b60405192839281840190828552518091526040840192915f5b82811061110657505050500390f35b8351855286955093810193928101926001016110f7565b8354855290930192600192830192016110c8565b600435906001600160a01b038216820361014857565b9060058210156111545752565b634e487b7160e01b5f52602160045260245ffd5b8051825261117e60208201516020840190611147565b604081015160408301526060810151606083015260ff608082015116608083015260ff60a08201511660a083015260c081015160c083015260ff60e08201511660e083015261010061ffff8183015116908301526101206001600160a01b0381830151169083015261014080820151151590830152610160809101511515910152565b60209060206040818301928281528551809452019301915f5b828110611228575050505090565b90919293826101808261123e6001948951611168565b0195019392910161121a565b60e0810190811067ffffffffffffffff82111761063e57604052565b610180810190811067ffffffffffffffff82111761063e57604052565b90601f8019910116810190811067ffffffffffffffff82111761063e57604052565b604051906112b282611266565b5f610160838281528260208201528260408201528260608201528260808201528260a08201528260c08201528260e08201528261010082015282610120820152826101408201520152565b60058210156111545752565b9060405161131681611266565b610160819380548352600660ff9161133783600183015416602087016112fd565b6002810154604086015260038101546060860152826004820154818116608088015260081c1660a0860152600581015460c0860152015481811660e085015261ffff8160081c166101008501526001600160a01b038160181c16610120850152818160b81c16151561014085015260c01c161515910152565b67ffffffffffffffff811161063e5760051b60200190565b906113d2826113b0565b6113df6040519182611283565b82815280926113f0601f19916113b0565b01905f5b82811061140057505050565b60209061140b6112a5565b828285010152016113f4565b80511561062a5760200190565b80516001101561062a5760400190565b80516002101561062a5760600190565b80516003101561062a5760800190565b80516004101561062a5760a00190565b80516005101561062a5760c00190565b805182101561062a5760209160051b010190565b5f1981146106a05760010190565b906005811015611154575f5260205260405f2090565b6001600160a01b035f541633036114bf57565b60246040517f118cdaa7000000000000000000000000000000000000000000000000000000008152336004820152fd5b919082039182116106a057565b814710611582575f8080936001600160a01b038294165af13d1561157d573d67ffffffffffffffff811161063e5760405190611542601f8201601f191660200183611283565b81525f60203d92013e5b1561155357565b60046040517f1425ea42000000000000000000000000000000000000000000000000000000008152fd5b61154c565b60246040517fcd786059000000000000000000000000000000000000000000000000000000008152306004820152fd5b60049182545f1981101561180a57825160208401519260ff6040860151169160ff6060870151169260808701519360058510156117f75760ff60a0890151169661ffff60c08a015116926040519261160984611266565b88845261161a6020850198896112fd565b60408401958652606084019283526080840191825260a0840190815260c08401925f845260e085019a8b5261010085019586526101208501966001600160a01b0380991688526101408601995f8b5261016087019b5f8d525f52600260205260405f209651875560018701905160058110156117e3578f60ff9794600697946117399d9c9b9a97948a948580198354169116179055516002880155516003870155850192511661ff008354925160081b169161ffff1916171790555160058201550197511662ffff008854925160081b169162ffffff1916171786555116849076ffffffffffffffffffffffffffffffffffffffff0000001976ffffffffffffffffffffffffffffffffffffffff00000083549260181b169116179055565b511515907fffffffffffffff0000ffffffffffffffffffffffffffffffffffffffffffffff77ff000000000000000000000000000000000000000000000078ff00000000000000000000000000000000000000000000000085549351151560c01b169360b81b169116171790556117b08254611488565b80925551906040519182527f3c7450b5b54d32b4163bbab3477be25d90dec07e4e10a7a7717c1463ae336b3660203093a3565b5060218f634e487b7160e01b5f525260245ffd5b602189634e487b7160e01b5f525260245ffd5b60648460206040519162461bcd60e51b8352820152601160248201527f506c616e74204944206f766572666c6f770000000000000000000000000000006044820152fdfea2646970667358221220df61dd21fba3124dbcd07eb81784fbb8379def7cc6aadb93aa8cfc1ef80ed4ef64736f6c63430008180033",
  "linkReferences": {},
  "deployedLinkReferences": {}
}