{
  "_format": "hh-sol-artifact-1",
  "contractName": "PlantMarketV1",
  "sourceName": "contracts/PlantMarketV1.sol",
  "abi": [
    {
      "inputs": [
        {
          "internalType": "address",
          "name": "tokenContractAddress",
          "type": "address"
        }
      ],
      "stateMutability": "nonpayable",
      "type": "constructor"
    },
    {
      "inputs": [],
      "name": "InsufficientTokens",
      "type": "error"
    },
    {
      "inputs": [],
      "name": "InvalidAdoptionPrice",
      "type": "error"
    },
    {
      "inputs": [],
      "name": "InvalidPlantID",
      "type": "error"
    },
    {
      "inputs": [],
      "name": "InvalidPlantType",
      "type": "error"
    },
    {
      "inputs": [],
      "name": "NotAdoptionTime",
      "type": "error"
    },
    {
      "inputs": [],
      "name": "NotOwner",
      "type": "error"
    },
    {
      "inputs": [],
      "name": "NotReachingContractTerm",
      "type": "error"
    },
    {
      "inputs": [],
      "name": "OnlyScheduleAdoptionOncePerDay",
      "type": "error"
    },
    {
      "inputs": [
        {
          "internalType": "address",
          "name": "owner",
          "type": "address"
        }
      ],
      "name": "OwnableInvalidOwner",
      "type": "error"
    },
    {
      "inputs": [
        {
          "internalType": "address",
          "name": "account",
          "type": "address"
        }
      ],
      "name": "OwnableUnauthorizedAccount",
      "type": "error"
    },
    {
      "inputs": [],
      "name": "PlantAdoptedError",
      "type": "error"
    },
    {
      "inputs": [],
      "name": "PlantAlreadyAdopted",
      "type": "error"
    },
    {
      "inputs": [],
      "name": "PlantAlreadySplit",
      "type": "error"
    },
    {
      "inputs": [],
      "name": "PlantIDOverflow",
      "type": "error"
    },
    {
      "inputs": [],
      "name": "PlantNotAdopted",
      "type": "error"
    },
    {
      "inputs": [],
      "name": "ReentrancyGuardReentrantCall",
      "type": "error"
    },
    {
      "inputs": [],
      "name": "TransferFailed",
      "type": "error"
    },
    {
      "anonymous": false,
      "inputs": [
        {
          "indexed": true,
          "internalType": "address",
          "name": "previousOwner",
          "type": "address"
        },
        {
          "indexed": true,
          "internalType": "address",
          "name": "newOwner",
          "type": "address"
        }
      ],
      "name": "OwnershipTransferred",
      "type": "event"
    },
    {
      "anonymous": false,
      "inputs": [
        {
          "indexed": true,
          "internalType": "uint256",
          "name": "plantId",
          "type": "uint256"
        },
        {
          "indexed": true,
          "internalType": "address",
          "name": "owner",
          "type": "address"
        },
        {
          "indexed": false,
          "internalType": "enum PlantMarketV1.PlantType",
          "name": "plantType",
          "type": "uint8"
        },
        {
          "indexed": false,
          "internalType": "uint256",
          "name": "adoptionTime",
          "type": "uint256"
        }
      ],
      "name": "PlantAdopted",
      "type": "event"
    },
    {
      "anonymous": false,
      "inputs": [
        {
          "indexed": true,
          "internalType": "uint256",
          "name": "plantId",
          "type": "uint256"
        },
        {
          "indexed": true,
          "internalType": "address",
          "name": "seller",
          "type": "address"
        },
        {
          "indexed": false,
          "internalType": "uint256",
          "name": "price",
          "type": "uint256"
        }
      ],
      "name": "PlantCreated",
      "type": "event"
    },
    {
      "anonymous": false,
      "inputs": [
        {
          "indexed": true,
          "internalType": "uint256",
          "name": "plantId",
          "type": "uint256"
        },
        {
          "indexed": true,
          "internalType": "address",
          "name": "seller",
          "type": "address"
        },
        {
          "indexed": false,
          "internalType": "uint256",
          "name": "price",
          "type": "uint256"
        }
      ],
      "name": "PlantListed",
      "type": "event"
    },
    {
      "anonymous": false,
      "inputs": [
        {
          "indexed": true,
          "internalType": "uint256",
          "name": "plantId",
          "type": "uint256"
        },
        {
          "indexed": true,
          "internalType": "address",
          "name": "buyer",
          "type": "address"
        },
        {
          "indexed": true,
          "internalType": "address",
          "name": "seller",
          "type": "address"
        },
        {
          "indexed": false,
          "internalType": "uint256",
          "name": "price",
          "type": "uint256"
        }
      ],
      "name": "PlantSold",
      "type": "event"
    },
    {
      "inputs": [
        {
          "internalType": "uint256",
          "name": "_plantId",
          "type": "uint256"
        }
      ],
      "name": "adoptPlant",
      "outputs": [],
      "stateMutability": "payable",
      "type": "function"
    },
    {
      "inputs": [
        {
          "components": [
            {
              "internalType": "enum PlantMarketV1.PlantType",
              "name": "plantType",
              "type": "uint8"
            },
            {
              "internalType": "uint256",
              "name": "minEth",
              "type": "uint256"
            },
            {
              "internalType": "uint256",
              "name": "maxEth",
              "type": "uint256"
            }
          ],
          "internalType": "struct PlantMarketV1.PlantDTO",
          "name": "newPlantDTO",
          "type": "tuple"
        },
        {
          "internalType": "address",
          "name": "_owner",
          "type": "address"
        }
      ],
      "name": "createPlant",
      "outputs": [],
      "stateMutability": "nonpayable",
      "type": "function"
    },
    {
      "inputs": [],
      "name": "getLastPlantId",
      "outputs": [
        {
          "internalType": "uint256",
          "name": "",
          "type": "uint256"
        }
      ],
      "stateMutability": "view",
      "type": "function"
    },
    {
      "inputs": [],
      "name": "getMarketListings",
      "outputs": [
        {
          "components": [
            {
              "internalType": "uint256",
              "name": "plantId",
              "type": "uint256"
            },
            {
              "internalType": "enum PlantMarketV1.PlantType",
              "name": "plantType",
              "type": "uint8"
            },
            {
              "internalType": "uint256",
              "name": "valueEth",
              "type": "uint256"
            },
            {
              "internalType": "uint256",
              "name": "adoptedTimestamp",
              "type": "uint256"
            },
            {
              "internalType": "address",
              "name": "owner",
              "type": "address"
            },
            {
              "internalType": "bool",
              "name": "isAdopted",
              "type": "bool"
            },
            {
              "internalType": "bool",
              "name": "isSplit",
              "type": "bool"
            }
          ],
          "internalType": "struct PlantMarketV1.Plant[]",
          "name": "",
          "type": "tuple[]"
        }
      ],
      "stateMutability": "view",
      "type": "function"
    },
    {
      "inputs": [
        {
          "internalType": "uint256",
          "name": "_plantId",
          "type": "uint256"
        }
      ],
      "name": "getPlantInfoById",
      "outputs": [
        {
          "internalType": "uint256",
          "name": "plantId",
          "type": "uint256"
        },
        {
          "internalType": "enum PlantMarketV1.PlantType",
          "name": "plantType",
          "type": "uint8"
        },
        {
          "internalType": "uint256",
          "name": "valueEth",
          "type": "uint256"
        },
        {
          "internalType": "uint256",
          "name": "adoptedTimestamp",
          "type": "uint256"
        },
        {
          "internalType": "address",
          "name": "owner",
          "type": "address"
        },
        {
          "internalType": "bool",
          "name": "isAdopted",
          "type": "bool"
        },
        {
          "internalType": "bool",
          "name": "isSplit",
          "type": "bool"
        }
      ],
      "stateMutability": "view",
      "type": "function"
    },
    {
      "inputs": [
        {
          "internalType": "address",
          "name": "_user",
          "type": "address"
        },
        {
          "internalType": "bool",
          "name": "includeSplit",
          "type": "bool"
        }
      ],
      "name": "getUserAdoptedCurrentPlants",
      "outputs": [
        {
          "components": [
            {
              "internalType": "uint256",
              "name": "plantId",
              "type": "uint256"
            },
            {
              "internalType": "enum PlantMarketV1.PlantType",
              "name": "plantType",
              "type": "uint8"
            },
            {
              "internalType": "uint256",
              "name": "valueEth",
              "type": "uint256"
            },
            {
              "internalType": "uint256",
              "name": "adoptedTimestamp",
              "type": "uint256"
            },
            {
              "internalType": "address",
              "name": "owner",
              "type": "address"
            },
            {
              "internalType": "bool",
              "name": "isAdopted",
              "type": "bool"
            },
            {
              "internalType": "bool",
              "name": "isSplit",
              "type": "bool"
            }
          ],
          "internalType": "struct PlantMarketV1.Plant[]",
          "name": "",
          "type": "tuple[]"
        }
      ],
      "stateMutability": "view",
      "type": "function"
    },
    {
      "inputs": [
        {
          "internalType": "address",
          "name": "_user",
          "type": "address"
        }
      ],
      "name": "getUserAdoptionRecordPlantIds",
      "outputs": [
        {
          "internalType": "uint256[]",
          "name": "",
          "type": "uint256[]"
        }
      ],
      "stateMutability": "view",
      "type": "function"
    },
    {
      "inputs": [
        {
          "internalType": "uint256",
          "name": "plantId",
          "type": "uint256"
        }
      ],
      "name": "list",
      "outputs": [],
      "stateMutability": "nonpayable",
      "type": "function"
    },
    {
      "inputs": [],
      "name": "owner",
      "outputs": [
        {
          "internalType": "address",
          "name": "",
          "type": "address"
        }
      ],
      "stateMutability": "view",
      "type": "function"
    },
    {
      "inputs": [
        {
          "internalType": "uint256",
          "name": "",
          "type": "uint256"
        }
      ],
      "name": "plants",
      "outputs": [
        {
          "internalType": "uint256",
          "name": "plantId",
          "type": "uint256"
        },
        {
          "internalType": "enum PlantMarketV1.PlantType",
          "name": "plantType",
          "type": "uint8"
        },
        {
          "internalType": "uint256",
          "name": "valueEth",
          "type": "uint256"
        },
        {
          "internalType": "uint256",
          "name": "adoptedTimestamp",
          "type": "uint256"
        },
        {
          "internalType": "address",
          "name": "owner",
          "type": "address"
        },
        {
          "internalType": "bool",
          "name": "isAdopted",
          "type": "bool"
        },
        {
          "internalType": "bool",
          "name": "isSplit",
          "type": "bool"
        }
      ],
      "stateMutability": "view",
      "type": "function"
    },
    {
      "inputs": [
        {
          "internalType": "enum PlantMarketV1.PlantType",
          "name": "",
          "type": "uint8"
        }
      ],
      "name": "priceRanges",
      "outputs": [
        {
          "internalType": "uint256",
          "name": "minEth",
          "type": "uint256"
        },
        {
          "internalType": "uint256",
          "name": "maxEth",
          "type": "uint256"
        },
        {
          "internalType": "uint8",
          "name": "startTime",
          "type": "uint8"
        },
        {
          "internalType": "uint8",
          "name": "endTime",
          "type": "uint8"
        },
        {
          "internalType": "uint8",
          "name": "profitDays",
          "type": "uint8"
        },
        {
          "internalType": "uint16",
          "name": "profitRate",
          "type": "uint16"
        },
        {
          "internalType": "uint256",
          "name": "rewardAmounts",
          "type": "uint256"
        }
      ],
      "stateMutability": "view",
      "type": "function"
    },
    {
      "inputs": [],
      "name": "renounceOwnership",
      "outputs": [],
      "stateMutability": "nonpayable",
      "type": "function"
    },
    {
      "inputs": [
        {
          "internalType": "enum PlantMarketV1.PlantType",
          "name": "plantType",
          "type": "uint8"
        }
      ],
      "name": "scheduleAdoption",
      "outputs": [],
      "stateMutability": "nonpayable",
      "type": "function"
    },
    {
      "inputs": [
        {
          "internalType": "address",
          "name": "newOwner",
          "type": "address"
        }
      ],
      "name": "transferOwnership",
      "outputs": [],
      "stateMutability": "nonpayable",
      "type": "function"
    }
  ],
  "bytecode": "0x6080346200050057601f6200236238819003918201601f19168301916001600160401b0383118484101762000504578084926020946040528339810103126200050057516001600160a01b038082169182900362000500573315620004e8575f5460018060a01b03199133838316175f553391167f8be0079c531659141344cd1fd0a4f28419497f9722a3daafe3b4186f6b6457e05f80a3600180556002541617600255620000ad62000518565b6611c37937e08000815266354a6ba7a180006020820152600e6040820152600f60608201526007608082015261083460a08201526103e860c08201525f80526007602052600360c060405f2092805184556020810151600185015560ff60408201511660028501549062ff0000606084015161ff0060808601519364ffff00000060a088015160181b169564ffffffffff1916179160081b16179160101b161717600285015501519101556200016262000518565b6635a55eb81bc0008152669fdf42f6e480006020820152600f6040820152601060608201526003608082015261038460a0820152610bb860c082015260015f526007602052600360c060405f209280518455602081015160018501556002840160ff60408301511681549061ff00606085015160081b1662ff0000608086015160101b169164ffff00000060a087015160181b169364ffffffffff191617171717905501519101556200021462000518565b66a03a36075ec00081526701bc16d674ec800060208201526014604082015260156060820152600160808201526101f460a082015261138860c082015260025f526007602052600360c060405f209280518455602081015160018501556002840160ff60408301511681549061ff00606085015160081b1662ff0000608086015160101b169164ffff00000060a087015160181b169364ffffffffff19161717171790550151910155620002c762000518565b66a03a36075ec00081526701bc16d674ec800060208201526010604082015260116060820152600560808201526104e260a082015261138860c082015260035f526007602052600360c060405f209280518455602081015160018501556002840160ff60408301511681549061ff00606085015160081b1662ff0000608086015160101b169164ffff00000060a087015160181b169364ffffffffff191617171717905501519101556200037a62000518565b6701bc71c98566c0008152670429d069189e0000602082015260126040820152601160608201526012608082015261083460a082015261271060c082015260045f526007602052600360c060405f209280518455602081015160018501556002840160ff60408301511681549061ff00606085015160081b1662ff0000608086015160101b169164ffff00000060a087015160181b169364ffffffffff191617171717905501519101556200042e62000518565b67042a2b5c291840008152670a688906bd8b00006020820152601260408201526013606082015260146080820152610fa060a0820152614e2060c082015260055f526007602052600360c060405f209280518455602081015160018501556002840160ff60408301511681549061ff00606085015160081b1662ff0000608086015160101b169164ffff00000060a087015160181b169364ffffffffff19161717171790550151910155604051611e299081620005398239f35b604051631e4fbdf760e01b81525f6004820152602490fd5b5f80fd5b634e487b7160e01b5f52604160045260245ffd5b6040519060e082016001600160401b03811183821017620005045760405256fe6080806040526004361015610012575f80fd5b5f905f3560e01c908163227a5c4814611708575080634173d0711461165a5780635ac9a436146114f857806365f5d1b41461141f578063715018a6146113bb57806371f295481461139e57806378c0dc92146112ce57806380c9419e146108715780638da5cb5b1461084c5780638dd2361c146107e5578063abee210c1461067f578063c0cdaf51146101e2578063d8156ba6146101655763f2fde38b146100b8575f80fd5b34610162576020366003190112610162576100d1611998565b6100d9611c6c565b6001600160a01b03809116908115610131575f548273ffffffffffffffffffffffffffffffffffffffff198216175f55167f8be0079c531659141344cd1fd0a4f28419497f9722a3daafe3b4186f6b6457e05f80a380f35b602483604051907f1e4fbdf70000000000000000000000000000000000000000000000000000000082526004820152fd5b80fd5b5034610162576020366003190112610162576004359060068210156101625760e061018f83611a94565b80549061ffff6001820154916003600282015491015492604051948552602085015260ff8116604085015260ff8160081c16606085015260ff8160101c16608085015260181c1660a083015260c0820152f35b506020806003193601126104d957600435906001916002835414610655576002835580845260048252604084206004810180549160ff92838160a01c1661062b5760a81c831661060157858101918383541661023d81611a94565b54341080156105ed575b6105c35761708042018042116105af57610e10601891040685600261026b84611a94565b0154168110159081610594575b501561056a57610289600391611a94565b0154670de0b6b3a764000090818102918183041490151715610556576001600160a01b038060025416916040517f70a082310000000000000000000000000000000000000000000000000000000081523360048201528981602481875afa801561054b5782918d91610516575b50106104ec57828b933b156104e8576040517f79cc6790000000000000000000000000000000000000000000000000000000008152336004820152602481019290925283908290604490829084905af19081156104dd5783916104c5575b5080809234908654165af13d156104c0573d67ffffffffffffffff81116104ac576040519061038c601f8201601f19168a0183611976565b815289883d92013e5b15610482577401000000000000000000000000000000000000000081547fffffffffffffffffffffff00000000000000000000000000000000000000000060ff60a01b1933169116171790556103ed83835416611aab565b805490811561046e575f19918201916104068383611af3565b909182549160031b1b19169055556003429101553386526005845261042e8360408820611b08565b54169161043e60405180946119ae565b42908301527f2b6b59e9e3b93bd4ff38cc3502e1fa2606705a155cb514545fff555a841bd4c960403393a3805580f35b602489634e487b7160e01b81526031600452fd5b60046040517f90b8ec18000000000000000000000000000000000000000000000000000000008152fd5b60248a634e487b7160e01b81526041600452fd5b610395565b6104ce90611962565b6104d957815f610354565b5080fd5b6040513d85823e3d90fd5b8380fd5b60046040517ff1b7e15e000000000000000000000000000000000000000000000000000000008152fd5b8092508b8092503d8311610544575b61052f8183611976565b81010312610540578190515f6102f6565b5f80fd5b503d610525565b6040513d8e823e3d90fd5b602489634e487b7160e01b81526011600452fd5b60046040517fad7abdcb000000000000000000000000000000000000000000000000000000008152fd5b90508560026105a284611a94565b015460081c16115f610278565b60248a634e487b7160e01b81526011600452fd5b60046040517f6b0574f2000000000000000000000000000000000000000000000000000000008152fd5b50876105f882611a94565b01543411610247565b60046040517f0f6a68e3000000000000000000000000000000000000000000000000000000008152fd5b60046040517f1164df37000000000000000000000000000000000000000000000000000000008152fd5b60046040517f3ee5aeb5000000000000000000000000000000000000000000000000000000008152fd5b5034610540576020366003190112610540576004356006811015610540576106a681611aab565b546107d357506103e85b6001600160a01b03600254166040517f31ed9d5d000000000000000000000000000000000000000000000000000000008152602081600481855afa908115610782575f916107a1575b50670de0b6b3a76400009283810293818504149015171561078d5782111561071f578280f35b803b15610540576040517f40c10f1900000000000000000000000000000000000000000000000000000000815233600482015260248101929092525f908290604490829084905af180156107825761077657808280f35b6107809150611962565b005b6040513d5f823e3d90fd5b634e487b7160e01b5f52601160045260245ffd5b90506020813d6020116107cb575b816107bc60209383611976565b8101031261054057515f6106f9565b3d91506107af565b6107de600391611a94565b01546106b0565b34610540576020366003190112610540576004355f52600460205260405f20805461084860ff600184015416600284015492600460038601549501549060405195869560ff8460a81c16946001600160a01b0360ff8660a01c1695169388611a4f565b0390f35b34610540575f3660031901126105405760206001600160a01b035f5416604051908152f35b3461054057602036600319011261054057600654600435116112a4576004355f52600460205260405f2060048101546001600160a01b038116330361127a5760a01c60ff161561125157600381015460018201906108e760ff8354169160ff60026108db85611a94565b015460101c1690611c5f565b42106112275761ffff60026108ff8186015493611a94565b015460181c1680820290828204148215171561078d57670a688906bd8b00009161271061092d920490611c5f565b806002850155115f146111ef57506040519061094882611946565b600682526020820160c03682378251156111db575f90528151600110156111db57600160408301528151600210156111db57600260608301528151600310156111db57600360808301528151600410156111db57600460a08301528151600510156111db57600560c08301525f90815b8351831015610c36576109e6906109df6109da6109d58688611be2565b611ac2565b611a94565b5490611c5f565b916109f46109d58286611be2565b90610a056109da6109d58388611be2565b546001610a186109da6109d5858a611be2565b015490610a3160405194610a2b86611916565b85611acf565b602084015260408301526001600160a01b0360048401541691610a52611c6c565b80516006811015610c2257610a6690611a94565b9260405193610a7485611946565b60038154918287526001810154602088015261ffff600282015460ff811660408a015260ff8160081c1660608a015260ff8160101c1660808a015260181c1660a0880152015460c08601526006548351926006841015610c225760405192610adb84611946565b828452610aec602085019586611acf565b60408401525f606084015260808301525f60a08301525f60c08301525f52600460205260405f20918151835551916006831015610c2257600481610b38610bbb95600160c09501611adb565b604084015160028201556060840151600382015501916001600160a01b0360808201511673ffffffffffffffffffffffffffffffffffffffff19845416178355610b9f60a08201511515849060ff60a01b1960ff60a01b835492151560a01b169116179055565b0151815460ff60a81b191690151560a81b60ff60a81b16179055565b51916006831015610c2257610bdd610bd4600194611aab565b60065490611b08565b610be8600654611b41565b908160065551906040519182527f3c7450b5b54d32b4163bbab3477be25d90dec07e4e10a7a7717c1463ae336b3660203093a301916109b8565b634e487b7160e01b5f52602160045260245ffd5b60045f5260076020527fb805995a7ec585a251200611a61d179cfd7fb105e1ab17dc415a7336783786f7547fb805995a7ec585a251200611a61d179cfd7fb105e1ab17dc415a7336783786f8546040519550929350909190610c9785611916565b600285526020850152604084015260045f526007602052610ce260405f20916001835493015460405193610cca85611916565b60028552602085015260408401526002840154611de6565b60025f52600760205260405f20548060011b908082046002149015171561078d57610d0c91611de6565b906001600160a01b0360048401541693610d24611c6c565b80516006811015610c2257610d3890611a94565b60405195610d4587611946565b6003825492838952600181015460208a015261ffff600282015460ff811660408c015260ff8160081c1660608c015260ff8160101c1660808c015260181c1660a08a0152015460c0880152600654908351926006841015610c2257610dbc60405194610db086611946565b84865260208601611acf565b60408401525f606084015260808301525f60a08301525f60c08301525f52600460205260405f2090805182556020810151916006831015610c2257600481610b38610e0c95600160c09501611adb565b516006811015610c2257610bd4610e2291611aab565b610e2d600654611b41565b938460065551604051908152847f3c7450b5b54d32b4163bbab3477be25d90dec07e4e10a7a7717c1463ae336b3660203093a36001600160a01b03600484015416610e76611c6c565b81516006811015610c2257610e8a90611a94565b60405195610e9787611946565b6003825492838952600181015460208a015261ffff600282015460ff811660408c015260ff8160081c1660608c015260ff8160101c1660808c015260181c1660a08a0152015460c08801528351926006841015610c225760405192610efb84611946565b828452610f0c602085019586611acf565b60408401525f606084015260808301525f60a08301525f60c08301525f52600460205260405f20918151835551916006831015610c2257600481610b38610f5895600160c09501611adb565b516006811015610c2257610bd4610f6e91611aab565b610f79600654611b41565b928360065551604051908152837f3c7450b5b54d32b4163bbab3477be25d90dec07e4e10a7a7717c1463ae336b3660203093a360045f5260076020527fb805995a7ec585a251200611a61d179cfd7fb105e1ab17dc415a7336783786f85460405190610fe482611916565b6004825282602083015260408201526001600160a01b03600484015416611009611c6c565b81516006811015610c225761101d90611a94565b6040519561102a87611946565b6003825492838952600181015460208a015261ffff600282015460ff811660408c015260ff8160081c1660608c015260ff8160101c1660808c015260181c1660a08a0152015460c08801528351926006841015610c22576040519261108e84611946565b82845261109f602085019586611acf565b60408401525f606084015260808301525f60a08301525f60c08301525f52600460205260405f20918151835551916006831015610c2257600481610b386110eb95600160c09501611adb565b516006811015610c2257610bd461110191611aab565b61110c600654611b41565b928360065551604051908152837f3c7450b5b54d32b4163bbab3477be25d90dec07e4e10a7a7717c1463ae336b3660203093a35f199280840190811161078d575f52600460205261115f60405f20611caf565b60065492830192831161078d576002925f5260046020528260405f200155750100000000000000000000000000000000000000000060ff60a81b196004830154161760048201555b015460405190815233907f14ac6d84304037c1b2b045bc0ec013c584edaf1f3881c8c837c9c34c336a87b3602060043592a3005b634e487b7160e01b5f52603260045260245ffd5b9061122261121a60ff60029461120485611caf565b60048501805460ff60a01b191690555416611aab565b825490611b08565b6111a7565b60046040517f95c8b03d000000000000000000000000000000000000000000000000000000008152fd5b60046040517e9c5685000000000000000000000000000000000000000000000000000000008152fd5b60046040517f30cd7471000000000000000000000000000000000000000000000000000000008152fd5b60046040517fe8fd6b9d000000000000000000000000000000000000000000000000000000008152fd5b34610540575f366003190112610540576006545f805b82811061136657506112f590611b67565b905f805b82811061130e576040518061084886826119bb565b805f52600460205260405f2060ff600482015460a01c1615611334575b506001016112f9565b6001919261134461135f92611bf6565b61134e8288611be2565b526113598187611be2565b50611b41565b919061132b565b805f52600460205260ff600460405f20015460a01c161561138a575b6001016112e4565b90611396600191611b41565b919050611382565b34610540575f366003190112610540576020600654604051908152f35b34610540575f366003190112610540576113d3611c6c565b5f6001600160a01b03815473ffffffffffffffffffffffffffffffffffffffff1981168355167f8be0079c531659141344cd1fd0a4f28419497f9722a3daafe3b4186f6b6457e08280a3005b346105405760203660031901126105405760043560065481101561149a575f52600460205261145060405f20611bf6565b80516020820151916006831015610c22578060406108489201519060608101516001600160a01b036080830151169060c060a0840151151593015115159360405197889788611a4f565b60646040517f08c379a000000000000000000000000000000000000000000000000000000000815260206004820152601060248201527f496e76616c696420706c616e74204944000000000000000000000000000000006044820152fd5b3461054057604036600319011261054057611511611998565b60243590811515820361054057600654906001600160a01b03908116905f805b8481106115e8575061154290611b67565b935f915f5b85811061155c576040518061084889826119bb565b805f52600460205260405f206004810154868482161490816115d9575b816115ba575b5061158e575b50600101611547565b6001919461159e6115b392611bf6565b6115a8828b611be2565b52611359818a611be2565b9390611585565b60ff915085156115cf5760a81c165b8961157f565b60a81c16156115c9565b905060ff8160a01c1690611579565b805f526004602052600460405f2001548484821614908161164b575b8161162c575b50611618575b600101611531565b90611624600191611b41565b919050611610565b60ff915087156116415760a81c165b8761160a565b60a81c161561163b565b905060ff8160a01c1690611604565b3461054057602080600319360112610540576001600160a01b0361167c611998565b165f526005815260405f20604051908183825491828152019081925f52845f20905f5b868282106116f45786866116b582880383611976565b60405192839281840190828552518091526040840192915f5b8281106116dd57505050500390f35b8351855286955093810193928101926001016116ce565b83548552909301926001928301920161169f565b3461054057366003190160808112610540576060136105405761172a81611916565b6006906004358281101561054057815260243560208201526044356040820152606435906001600160a01b0380831680930361054057611768611c6c565b815184811015610c225761177b90611a94565b926040519361178985611946565b60038154918287526001810154602088015261ffff600282015460ff811660408a015260ff8160081c1660608a015260ff8160101c1660808a015260181c1660a0880152015460c0860152855490845187811015610c2257604051946117ee86611946565b8386526117ff602087019283611acf565b6040860192835260608601955f87526080810195865260a08101925f845260c08201955f87525f52600460205260405f209151825551908a821015610c22576118bc976118a19561185560049460018501611adb565b5160028301555160038201550194511673ffffffffffffffffffffffffffffffffffffffff19855416178455511515839060ff60a01b1960ff60a01b835492151560a01b169116179055565b51815460ff60a81b191690151560a81b60ff60a81b16179055565b5182811015610c22576118d16118d991611aab565b835490611b08565b6118e38254611b41565b80925551906040519182527f3c7450b5b54d32b4163bbab3477be25d90dec07e4e10a7a7717c1463ae336b3660203093a3005b6060810190811067ffffffffffffffff82111761193257604052565b634e487b7160e01b5f52604160045260245ffd5b60e0810190811067ffffffffffffffff82111761193257604052565b67ffffffffffffffff811161193257604052565b90601f8019910116810190811067ffffffffffffffff82111761193257604052565b600435906001600160a01b038216820361054057565b906006821015610c225752565b60208082019080835283518092528060408094019401925f905b8382106119e457505050505090565b90919293948360e0600192885180518252611a0584820151858401906119ae565b8086015182870152606080820151908301526080808201516001600160a01b03169083015260a08082015115159083015260c09081015115159082015201960194939201906119d5565b95929360c09591989794611a766001600160a01b039460e08a019b8a5260208a01906119ae565b60408801526060870152166080850152151560a08401521515910152565b6006811015610c22575f52600760205260405f2090565b6006811015610c22575f52600360205260405f2090565b516006811015610c225790565b6006821015610c225752565b906006811015610c225760ff80198354169116179055565b80548210156111db575f5260205f2001905f90565b80546801000000000000000081101561193257611b2a91600182018155611af3565b819291549060031b91821b915f19901b1916179055565b5f19811461078d5760010190565b67ffffffffffffffff81116119325760051b60200190565b90611b7182611b4f565b604090611b816040519182611976565b8381528093611b92601f1991611b4f565b01915f5b838110611ba35750505050565b6020908251611bb181611946565b5f8152825f818301525f858301525f60608301525f60808301525f60a08301525f60c0830152828601015201611b96565b80518210156111db5760209160051b010190565b90604051611c0381611946565b60c060ff6004839580548552611c228360018301541660208701611acf565b600281015460408601526003810154606086015201546001600160a01b0381166080850152818160a01c16151560a085015260a81c161515910152565b9190820180921161078d57565b6001600160a01b035f54163303611c7f57565b60246040517f118cdaa7000000000000000000000000000000000000000000000000000000008152336004820152fd5b600281015467042a2b5c29184000811180611dd4575b15611cdb5750600101805460ff19166005179055565b6701bc71c98566c000811180611dc2575b15611d025750600101805460ff19166004179055565b66a03a36075ec000811180611db0575b15611d405750600101805460ff81166006811015610c2257600203611d35575050565b60ff19166003179055565b6635a55eb81bc000811180611d9f575b15611d665750600101600160ff19825416179055565b6611c37937e080008110159081611d8d575b50611d805750565b600101805460ff19169055565b66354a6ba7a18000915011155f611d78565b50669fdf42f6e48000811115611d50565b506701bc16d674ec8000811115611d12565b50670429d069189e0000811115611cec565b50670a688906bd8b0000811115611cc5565b9190820391821161078d5756fea264697066735822122049a9e98ad54658c33ce2d794b9d43ae8a0ad8e4d07b29891c0e23c71ef97130664736f6c63430008180033",
  "linkReferences": {},
  "deployedLinkReferences": {}
}