{
  "_format": "hh-sol-artifact-1",
  "contractName": "PlantMarketV1",
  "sourceName": "contracts/PlantMarketV1.sol",
  "abi": [
    {
      "inputs": [
        {
          "internalType": "address",
          "name": "tokenContractAddress",
          "type": "address"
        },
        {
          "internalType": "address",
          "name": "_pointsOperator",
          "type": "address"
        }
      ],
      "stateMutability": "nonpayable",
      "type": "constructor"
    },
    {
      "inputs": [],
      "name": "InsufficientTokens",
      "type": "error"
    },
    {
      "inputs": [],
      "name": "InvalidAdoptionPrice",
      "type": "error"
    },
    {
      "inputs": [],
      "name": "InvalidPlantID",
      "type": "error"
    },
    {
      "inputs": [],
      "name": "InvalidPlantType",
      "type": "error"
    },
    {
      "inputs": [],
      "name": "NoBalance",
      "type": "error"
    },
    {
      "inputs": [],
      "name": "NotAdoptionTime",
      "type": "error"
    },
    {
      "inputs": [],
      "name": "NotOwner",
      "type": "error"
    },
    {
      "inputs": [],
      "name": "NotReachingContractTerm",
      "type": "error"
    },
    {
      "inputs": [],
      "name": "OnlyScheduleAdoptionOncePerDay",
      "type": "error"
    },
    {
      "inputs": [
        {
          "internalType": "address",
          "name": "owner",
          "type": "address"
        }
      ],
      "name": "OwnableInvalidOwner",
      "type": "error"
    },
    {
      "inputs": [
        {
          "internalType": "address",
          "name": "account",
          "type": "address"
        }
      ],
      "name": "OwnableUnauthorizedAccount",
      "type": "error"
    },
    {
      "inputs": [],
      "name": "PlantAdoptedError",
      "type": "error"
    },
    {
      "inputs": [],
      "name": "PlantAlreadyAdopted",
      "type": "error"
    },
    {
      "inputs": [],
      "name": "PlantAlreadySplit",
      "type": "error"
    },
    {
      "inputs": [],
      "name": "PlantIDOverflow",
      "type": "error"
    },
    {
      "inputs": [],
      "name": "PlantNotAdopted",
      "type": "error"
    },
    {
      "inputs": [],
      "name": "ReentrancyGuardReentrantCall",
      "type": "error"
    },
    {
      "inputs": [],
      "name": "TransferFailed",
      "type": "error"
    },
    {
      "anonymous": false,
      "inputs": [
        {
          "indexed": true,
          "internalType": "address",
          "name": "previousOwner",
          "type": "address"
        },
        {
          "indexed": true,
          "internalType": "address",
          "name": "newOwner",
          "type": "address"
        }
      ],
      "name": "OwnershipTransferred",
      "type": "event"
    },
    {
      "anonymous": false,
      "inputs": [
        {
          "indexed": true,
          "internalType": "uint256",
          "name": "plantId",
          "type": "uint256"
        },
        {
          "indexed": true,
          "internalType": "address",
          "name": "owner",
          "type": "address"
        },
        {
          "indexed": false,
          "internalType": "enum PlantMarketV1.PlantType",
          "name": "plantType",
          "type": "uint8"
        },
        {
          "indexed": false,
          "internalType": "uint256",
          "name": "adoptionTime",
          "type": "uint256"
        }
      ],
      "name": "PlantAdopted",
      "type": "event"
    },
    {
      "anonymous": false,
      "inputs": [
        {
          "indexed": true,
          "internalType": "uint256",
          "name": "plantId",
          "type": "uint256"
        },
        {
          "indexed": true,
          "internalType": "address",
          "name": "seller",
          "type": "address"
        },
        {
          "indexed": false,
          "internalType": "uint256",
          "name": "price",
          "type": "uint256"
        }
      ],
      "name": "PlantCreated",
      "type": "event"
    },
    {
      "anonymous": false,
      "inputs": [
        {
          "indexed": true,
          "internalType": "uint256",
          "name": "plantId",
          "type": "uint256"
        },
        {
          "indexed": true,
          "internalType": "address",
          "name": "seller",
          "type": "address"
        },
        {
          "indexed": false,
          "internalType": "uint256",
          "name": "price",
          "type": "uint256"
        }
      ],
      "name": "PlantListed",
      "type": "event"
    },
    {
      "anonymous": false,
      "inputs": [
        {
          "indexed": true,
          "internalType": "uint256",
          "name": "plantId",
          "type": "uint256"
        },
        {
          "indexed": true,
          "internalType": "address",
          "name": "buyer",
          "type": "address"
        },
        {
          "indexed": true,
          "internalType": "address",
          "name": "seller",
          "type": "address"
        },
        {
          "indexed": false,
          "internalType": "uint256",
          "name": "price",
          "type": "uint256"
        }
      ],
      "name": "PlantSold",
      "type": "event"
    },
    {
      "inputs": [],
      "name": "BLAST",
      "outputs": [
        {
          "internalType": "contract IBlast",
          "name": "",
          "type": "address"
        }
      ],
      "stateMutability": "view",
      "type": "function"
    },
    {
      "inputs": [
        {
          "internalType": "uint256",
          "name": "_plantId",
          "type": "uint256"
        }
      ],
      "name": "adoptPlant",
      "outputs": [],
      "stateMutability": "payable",
      "type": "function"
    },
    {
      "inputs": [],
      "name": "claimMyContractsGas",
      "outputs": [],
      "stateMutability": "nonpayable",
      "type": "function"
    },
    {
      "inputs": [
        {
          "components": [
            {
              "internalType": "enum PlantMarketV1.PlantType",
              "name": "plantType",
              "type": "uint8"
            },
            {
              "internalType": "uint256",
              "name": "minEth",
              "type": "uint256"
            },
            {
              "internalType": "uint256",
              "name": "maxEth",
              "type": "uint256"
            }
          ],
          "internalType": "struct PlantMarketV1.PlantDTO",
          "name": "newPlantDTO",
          "type": "tuple"
        },
        {
          "internalType": "address",
          "name": "_owner",
          "type": "address"
        }
      ],
      "name": "createPlant",
      "outputs": [],
      "stateMutability": "nonpayable",
      "type": "function"
    },
    {
      "inputs": [],
      "name": "getLastPlantId",
      "outputs": [
        {
          "internalType": "uint256",
          "name": "",
          "type": "uint256"
        }
      ],
      "stateMutability": "view",
      "type": "function"
    },
    {
      "inputs": [],
      "name": "getMarketListings",
      "outputs": [
        {
          "components": [
            {
              "internalType": "uint256",
              "name": "plantId",
              "type": "uint256"
            },
            {
              "internalType": "enum PlantMarketV1.PlantType",
              "name": "plantType",
              "type": "uint8"
            },
            {
              "internalType": "uint256",
              "name": "valueEth",
              "type": "uint256"
            },
            {
              "internalType": "uint256",
              "name": "adoptedTimestamp",
              "type": "uint256"
            },
            {
              "internalType": "address",
              "name": "owner",
              "type": "address"
            },
            {
              "internalType": "bool",
              "name": "isAdopted",
              "type": "bool"
            },
            {
              "internalType": "bool",
              "name": "isSplit",
              "type": "bool"
            }
          ],
          "internalType": "struct PlantMarketV1.Plant[]",
          "name": "",
          "type": "tuple[]"
        }
      ],
      "stateMutability": "view",
      "type": "function"
    },
    {
      "inputs": [
        {
          "internalType": "uint256",
          "name": "_plantId",
          "type": "uint256"
        }
      ],
      "name": "getPlantInfoById",
      "outputs": [
        {
          "internalType": "uint256",
          "name": "plantId",
          "type": "uint256"
        },
        {
          "internalType": "enum PlantMarketV1.PlantType",
          "name": "plantType",
          "type": "uint8"
        },
        {
          "internalType": "uint256",
          "name": "valueEth",
          "type": "uint256"
        },
        {
          "internalType": "uint256",
          "name": "adoptedTimestamp",
          "type": "uint256"
        },
        {
          "internalType": "address",
          "name": "owner",
          "type": "address"
        },
        {
          "internalType": "bool",
          "name": "isAdopted",
          "type": "bool"
        },
        {
          "internalType": "bool",
          "name": "isSplit",
          "type": "bool"
        }
      ],
      "stateMutability": "view",
      "type": "function"
    },
    {
      "inputs": [
        {
          "internalType": "address",
          "name": "_user",
          "type": "address"
        },
        {
          "internalType": "bool",
          "name": "includeSplit",
          "type": "bool"
        }
      ],
      "name": "getUserAdoptedCurrentPlants",
      "outputs": [
        {
          "components": [
            {
              "internalType": "uint256",
              "name": "plantId",
              "type": "uint256"
            },
            {
              "internalType": "enum PlantMarketV1.PlantType",
              "name": "plantType",
              "type": "uint8"
            },
            {
              "internalType": "uint256",
              "name": "valueEth",
              "type": "uint256"
            },
            {
              "internalType": "uint256",
              "name": "adoptedTimestamp",
              "type": "uint256"
            },
            {
              "internalType": "address",
              "name": "owner",
              "type": "address"
            },
            {
              "internalType": "bool",
              "name": "isAdopted",
              "type": "bool"
            },
            {
              "internalType": "bool",
              "name": "isSplit",
              "type": "bool"
            }
          ],
          "internalType": "struct PlantMarketV1.Plant[]",
          "name": "",
          "type": "tuple[]"
        }
      ],
      "stateMutability": "view",
      "type": "function"
    },
    {
      "inputs": [
        {
          "internalType": "address",
          "name": "_user",
          "type": "address"
        }
      ],
      "name": "getUserAdoptionRecordPlantIds",
      "outputs": [
        {
          "internalType": "uint256[]",
          "name": "",
          "type": "uint256[]"
        }
      ],
      "stateMutability": "view",
      "type": "function"
    },
    {
      "inputs": [
        {
          "internalType": "uint256",
          "name": "plantId",
          "type": "uint256"
        }
      ],
      "name": "list",
      "outputs": [],
      "stateMutability": "nonpayable",
      "type": "function"
    },
    {
      "inputs": [],
      "name": "owner",
      "outputs": [
        {
          "internalType": "address",
          "name": "",
          "type": "address"
        }
      ],
      "stateMutability": "view",
      "type": "function"
    },
    {
      "inputs": [
        {
          "internalType": "uint256",
          "name": "",
          "type": "uint256"
        }
      ],
      "name": "plants",
      "outputs": [
        {
          "internalType": "uint256",
          "name": "plantId",
          "type": "uint256"
        },
        {
          "internalType": "enum PlantMarketV1.PlantType",
          "name": "plantType",
          "type": "uint8"
        },
        {
          "internalType": "uint256",
          "name": "valueEth",
          "type": "uint256"
        },
        {
          "internalType": "uint256",
          "name": "adoptedTimestamp",
          "type": "uint256"
        },
        {
          "internalType": "address",
          "name": "owner",
          "type": "address"
        },
        {
          "internalType": "bool",
          "name": "isAdopted",
          "type": "bool"
        },
        {
          "internalType": "bool",
          "name": "isSplit",
          "type": "bool"
        }
      ],
      "stateMutability": "view",
      "type": "function"
    },
    {
      "inputs": [
        {
          "internalType": "enum PlantMarketV1.PlantType",
          "name": "",
          "type": "uint8"
        }
      ],
      "name": "priceRanges",
      "outputs": [
        {
          "internalType": "uint256",
          "name": "minEth",
          "type": "uint256"
        },
        {
          "internalType": "uint256",
          "name": "maxEth",
          "type": "uint256"
        },
        {
          "internalType": "uint8",
          "name": "startTime",
          "type": "uint8"
        },
        {
          "internalType": "uint8",
          "name": "endTime",
          "type": "uint8"
        },
        {
          "internalType": "uint8",
          "name": "profitDays",
          "type": "uint8"
        },
        {
          "internalType": "uint16",
          "name": "profitRate",
          "type": "uint16"
        },
        {
          "internalType": "uint256",
          "name": "rewardAmounts",
          "type": "uint256"
        }
      ],
      "stateMutability": "view",
      "type": "function"
    },
    {
      "inputs": [],
      "name": "renounceOwnership",
      "outputs": [],
      "stateMutability": "nonpayable",
      "type": "function"
    },
    {
      "inputs": [
        {
          "internalType": "enum PlantMarketV1.PlantType",
          "name": "plantType",
          "type": "uint8"
        }
      ],
      "name": "scheduleAdoption",
      "outputs": [],
      "stateMutability": "nonpayable",
      "type": "function"
    },
    {
      "inputs": [
        {
          "internalType": "address",
          "name": "newOwner",
          "type": "address"
        }
      ],
      "name": "transferOwnership",
      "outputs": [],
      "stateMutability": "nonpayable",
      "type": "function"
    },
    {
      "inputs": [],
      "name": "withdraw",
      "outputs": [],
      "stateMutability": "nonpayable",
      "type": "function"
    },
    {
      "stateMutability": "payable",
      "type": "receive"
    }
  ],
  "bytecode": "0x608034620005ea575f90601f620025ed38819003918201601f19168301916001600160401b0383118484101762000606578084926040948552833981010312620005ea576200005c602062000054836200064a565b92016200064a565b903315620005ee575f5460018060a01b03918260018060a01b03199133838516175f5560405193823391167f8be0079c531659141344cd1fd0a4f28419497f9722a3daafe3b4186f6b6457e05f80a36001805516906002541617600255734300000000000000000000000000000000000002803b15620005ea57816004815f8094634e606c4760e01b83525af18015620005df57620005c9575b508290732fc95838c71e76ec69ff817983bff17c710f34e092833b15620005c5576024908360405195869485936336b91f2b60e01b85521660048401525af18015620005ba576200059f575b60405162000150816200062e565b6611c37937e08000815266354a6ba7a180006020820152600e6040820152600f60608201526007608082015261083460a08201526103e860c08201525f80526007602052600360c060405f2092805184556020810151600185015560ff60408201511660028501549062ff0000606084015161ff0060808601519364ffff00000060a088015160181b169564ffffffffff1916179160081b16179160101b1617176002850155015191015560405162000209816200062e565b6635a55eb81bc0008152669fdf42f6e480006020820152600f6040820152601060608201526003608082015261038460a0820152610bb860c082015260015f526007602052600360c060405f209280518455602081015160018501556002840160ff60408301511681549061ff00606085015160081b1662ff0000608086015160101b169164ffff00000060a087015160181b169364ffffffffff19161717171790550151910155604051620002bf816200062e565b66a03a36075ec00081526701bc16d674ec800060208201526014604082015260156060820152600160808201526101f460a082015261138860c082015260025f526007602052600360c060405f209280518455602081015160018501556002840160ff60408301511681549061ff00606085015160081b1662ff0000608086015160101b169164ffff00000060a087015160181b169364ffffffffff1916171717179055015191015560405162000376816200062e565b66a03a36075ec00081526701bc16d674ec800060208201526010604082015260116060820152600560808201526104e260a082015261138860c082015260035f526007602052600360c060405f209280518455602081015160018501556002840160ff60408301511681549061ff00606085015160081b1662ff0000608086015160101b169164ffff00000060a087015160181b169364ffffffffff191617171717905501519101556040516200042d816200062e565b6701bc71c98566c0008152670429d069189e0000602082015260126040820152601160608201526012608082015261083460a082015261271060c082015260045f526007602052600360c060405f209280518455602081015160018501556002840160ff60408301511681549061ff00606085015160081b1662ff0000608086015160101b169164ffff00000060a087015160181b169364ffffffffff19161717171790550151910155604051620004e5816200062e565b67042a2b5c291840008152670a688906bd8b00006020820152601260408201526013606082015260146080820152610fa060a0820152614e2060c082015260055f526007602052600360c060405f209280518455602081015160018501556002840160ff60408301511681549061ff00606085015160081b1662ff0000608086015160101b169164ffff00000060a087015160181b169364ffffffffff19161717171790550151910155604051611f8d9081620006608239f35b620005ab82916200061a565b620005b7578062000142565b80fd5b6040513d84823e3d90fd5b8280fd5b620005d69193506200061a565b5f915f620000f6565b6040513d5f823e3d90fd5b5f80fd5b604051631e4fbdf760e01b81525f6004820152602490fd5b634e487b7160e01b5f52604160045260245ffd5b6001600160401b0381116200060657604052565b60e081019081106001600160401b038211176200060657604052565b51906001600160a01b0382168203620005ea5756fe608080604052600436101561001c575b50361561001a575f80fd5b005b5f905f3560e01c908163227a5c481461182d575080633ccfd60b146117d45780634173d071146117265780635ac9a436146115c457806365f5d1b4146114eb578063715018a61461148757806371f295481461146a57806377d5d2dc146113cf57806378c0dc92146112ff57806380c9419e1461087e5780638da5cb5b146108595780638dd2361c146107f257806397d75776146107c4578063abee210c14610660578063c0cdaf5114610209578063d8156ba61461018c5763f2fde38b0361000f5734610189576020366003190112610189576100f8611abd565b610100611dd0565b6001600160a01b03809116908115610158575f548273ffffffffffffffffffffffffffffffffffffffff198216175f55167f8be0079c531659141344cd1fd0a4f28419497f9722a3daafe3b4186f6b6457e05f80a380f35b602483604051907f1e4fbdf70000000000000000000000000000000000000000000000000000000082526004820152fd5b80fd5b5034610189576020366003190112610189576004359060068210156101895760e06101b683611bb9565b80549061ffff6001820154916003600282015491015492604051948552602085015260ff8116604085015260ff8160081c16606085015260ff8160101c16608085015260181c1660a083015260c0820152f35b506020806003193601126104ba57600435906001916002835414610636576002835580845260048252604084206004810180549160ff92838160a01c1661060c5760a81c83166105e257858101918383541661026481611bb9565b54341080156105ce575b6105a457617080420180421161059057610e10601891040685600261029284611bb9565b0154168110159081610575575b501561054b576102b0600391611bb9565b0154670de0b6b3a764000090818102918183041490151715610537576001600160a01b038060025416916040517f70a082310000000000000000000000000000000000000000000000000000000081523360048201528981602481875afa801561052c5782918d916104f7575b50106104cd57828b933b156104c9576040517f79cc6790000000000000000000000000000000000000000000000000000000008152336004820152602481019290925283908290604490829084905af19081156104be5783916104a6575b5080809234908654165af161038e611c74565b501561047c577401000000000000000000000000000000000000000081547fffffffffffffffffffffff00000000000000000000000000000000000000000060ff60a01b1933169116171790556103e783835416611bd0565b8054908115610468575f19918201916104008383611c18565b909182549160031b1b1916905555600342910155338652600584526104288360408820611c2d565b5416916104386040518094611ad3565b42908301527f2b6b59e9e3b93bd4ff38cc3502e1fa2606705a155cb514545fff555a841bd4c960403393a3805580f35b602489634e487b7160e01b81526031600452fd5b60046040517f90b8ec18000000000000000000000000000000000000000000000000000000008152fd5b6104af90611a87565b6104ba57815f61037b565b5080fd5b6040513d85823e3d90fd5b8380fd5b60046040517ff1b7e15e000000000000000000000000000000000000000000000000000000008152fd5b8092508b8092503d8311610525575b6105108183611a9b565b81010312610521578190515f61031d565b5f80fd5b503d610506565b6040513d8e823e3d90fd5b602489634e487b7160e01b81526011600452fd5b60046040517fad7abdcb000000000000000000000000000000000000000000000000000000008152fd5b905085600261058384611bb9565b015460081c16115f61029f565b60248a634e487b7160e01b81526011600452fd5b60046040517f6b0574f2000000000000000000000000000000000000000000000000000000008152fd5b50876105d982611bb9565b0154341161026e565b60046040517f0f6a68e3000000000000000000000000000000000000000000000000000000008152fd5b60046040517f1164df37000000000000000000000000000000000000000000000000000000008152fd5b60046040517f3ee5aeb5000000000000000000000000000000000000000000000000000000008152fd5b50346105215760203660031901126105215760043560068110156105215761068781611bd0565b546107b257506103e85b6001600160a01b03600254166040517f31ed9d5d000000000000000000000000000000000000000000000000000000008152602081600481855afa908115610761575f91610780575b50670de0b6b3a76400009283810293818504149015171561076c57821115610700578280f35b803b15610521576040517f40c10f1900000000000000000000000000000000000000000000000000000000815233600482015260248101929092525f908290604490829084905af180156107615761075757808280f35b61001a9150611a87565b6040513d5f823e3d90fd5b634e487b7160e01b5f52601160045260245ffd5b90506020813d6020116107aa575b8161079b60209383611a9b565b8101031261052157515f6106da565b3d915061078e565b6107bd600391611bb9565b0154610691565b34610521575f3660031901126105215760206040517343000000000000000000000000000000000000028152f35b34610521576020366003190112610521576004355f52600460205260405f20805461085560ff600184015416600284015492600460038601549501549060405195869560ff8460a81c16946001600160a01b0360ff8660a01c1695169388611b74565b0390f35b34610521575f3660031901126105215760206001600160a01b035f5416604051908152f35b3461052157602036600319011261052157600654600435116112d5576004355f52600460205260405f2060048101546001600160a01b03811633036112ab5760a01c60ff1615611282576003810154600182019060ff825416906201518060ff60026108e985611bb9565b015460101c16029062ffffff9182811690810361076c5761a8bf19019180831161076c57610918921690611dc3565b42106112585761ffff60026109308186015493611bb9565b015460181c1680820290828204148215171561076c57670a688906bd8b00009161271061095e920490611dc3565b806002850155115f1461122057506040519061097982611a6b565b600682526020820160c036823782511561120c575f905281516001101561120c576001604083015281516002101561120c576002606083015281516003101561120c576003608083015281516004101561120c57600460a083015281516005101561120c57600560c08301525f90815b8351831015610c6757610a1790610a10610a0b610a068688611d46565b611be7565b611bb9565b5490611dc3565b91610a25610a068286611d46565b90610a36610a0b610a068388611d46565b546001610a49610a0b610a06858a611d46565b015490610a6260405194610a5c86611a3b565b85611bf4565b602084015260408301526001600160a01b0360048401541691610a83611dd0565b80516006811015610c5357610a9790611bb9565b9260405193610aa585611a6b565b60038154918287526001810154602088015261ffff600282015460ff811660408a015260ff8160081c1660608a015260ff8160101c1660808a015260181c1660a0880152015460c08601526006548351926006841015610c535760405192610b0c84611a6b565b828452610b1d602085019586611bf4565b60408401525f606084015260808301525f60a08301525f60c08301525f52600460205260405f20918151835551916006831015610c5357600481610b69610bec95600160c09501611c00565b604084015160028201556060840151600382015501916001600160a01b0360808201511673ffffffffffffffffffffffffffffffffffffffff19845416178355610bd060a08201511515849060ff60a01b1960ff60a01b835492151560a01b169116179055565b0151815460ff60a81b191690151560a81b60ff60a81b16179055565b51916006831015610c5357610c0e610c05600194611bd0565b60065490611c2d565b610c19600654611c66565b908160065551906040519182527f3c7450b5b54d32b4163bbab3477be25d90dec07e4e10a7a7717c1463ae336b3660203093a301916109e9565b634e487b7160e01b5f52602160045260245ffd5b60045f5260076020527fb805995a7ec585a251200611a61d179cfd7fb105e1ab17dc415a7336783786f7547fb805995a7ec585a251200611a61d179cfd7fb105e1ab17dc415a7336783786f8546040519550929350909190610cc885611a3b565b600285526020850152604084015260045f526007602052610d1360405f20916001835493015460405193610cfb85611a3b565b60028552602085015260408401526002840154611f4a565b60025f52600760205260405f20548060011b908082046002149015171561076c57610d3d91611f4a565b906001600160a01b0360048401541693610d55611dd0565b80516006811015610c5357610d6990611bb9565b60405195610d7687611a6b565b6003825492838952600181015460208a015261ffff600282015460ff811660408c015260ff8160081c1660608c015260ff8160101c1660808c015260181c1660a08a0152015460c0880152600654908351926006841015610c5357610ded60405194610de186611a6b565b84865260208601611bf4565b60408401525f606084015260808301525f60a08301525f60c08301525f52600460205260405f2090805182556020810151916006831015610c5357600481610b69610e3d95600160c09501611c00565b516006811015610c5357610c05610e5391611bd0565b610e5e600654611c66565b938460065551604051908152847f3c7450b5b54d32b4163bbab3477be25d90dec07e4e10a7a7717c1463ae336b3660203093a36001600160a01b03600484015416610ea7611dd0565b81516006811015610c5357610ebb90611bb9565b60405195610ec887611a6b565b6003825492838952600181015460208a015261ffff600282015460ff811660408c015260ff8160081c1660608c015260ff8160101c1660808c015260181c1660a08a0152015460c08801528351926006841015610c535760405192610f2c84611a6b565b828452610f3d602085019586611bf4565b60408401525f606084015260808301525f60a08301525f60c08301525f52600460205260405f20918151835551916006831015610c5357600481610b69610f8995600160c09501611c00565b516006811015610c5357610c05610f9f91611bd0565b610faa600654611c66565b928360065551604051908152837f3c7450b5b54d32b4163bbab3477be25d90dec07e4e10a7a7717c1463ae336b3660203093a360045f5260076020527fb805995a7ec585a251200611a61d179cfd7fb105e1ab17dc415a7336783786f8546040519061101582611a3b565b6004825282602083015260408201526001600160a01b0360048401541661103a611dd0565b81516006811015610c535761104e90611bb9565b6040519561105b87611a6b565b6003825492838952600181015460208a015261ffff600282015460ff811660408c015260ff8160081c1660608c015260ff8160101c1660808c015260181c1660a08a0152015460c08801528351926006841015610c5357604051926110bf84611a6b565b8284526110d0602085019586611bf4565b60408401525f606084015260808301525f60a08301525f60c08301525f52600460205260405f20918151835551916006831015610c5357600481610b6961111c95600160c09501611c00565b516006811015610c5357610c0561113291611bd0565b61113d600654611c66565b928360065551604051908152837f3c7450b5b54d32b4163bbab3477be25d90dec07e4e10a7a7717c1463ae336b3660203093a35f199280840190811161076c575f52600460205261119060405f20611e13565b60065492830192831161076c576002925f5260046020528260405f200155750100000000000000000000000000000000000000000060ff60a81b196004830154161760048201555b015460405190815233907f14ac6d84304037c1b2b045bc0ec013c584edaf1f3881c8c837c9c34c336a87b3602060043592a3005b634e487b7160e01b5f52603260045260245ffd5b9061125361124b60ff60029461123585611e13565b60048501805460ff60a01b191690555416611bd0565b825490611c2d565b6111d8565b60046040517f95c8b03d000000000000000000000000000000000000000000000000000000008152fd5b60046040517e9c5685000000000000000000000000000000000000000000000000000000008152fd5b60046040517f30cd7471000000000000000000000000000000000000000000000000000000008152fd5b60046040517fe8fd6b9d000000000000000000000000000000000000000000000000000000008152fd5b34610521575f366003190112610521576006545f805b828110611397575061132690611ccb565b905f805b82811061133f57604051806108558682611ae0565b805f52600460205260405f2060ff600482015460a01c1615611365575b5060010161132a565b6001919261137561139092611d5a565b61137f8288611d46565b5261138a8187611d46565b50611c66565b919061135c565b805f52600460205260ff600460405f20015460a01c16156113bb575b600101611315565b906113c7600191611c66565b9190506113b3565b34610521575f366003190112610521576113e7611dd0565b6040517f954fa5ee0000000000000000000000000000000000000000000000000000000081523060048201523360248201526020816044815f7343000000000000000000000000000000000000025af180156107615761144357005b602090813d8311611463575b6114598183611a9b565b8101031261052157005b503d61144f565b34610521575f366003190112610521576020600654604051908152f35b34610521575f3660031901126105215761149f611dd0565b5f6001600160a01b03815473ffffffffffffffffffffffffffffffffffffffff1981168355167f8be0079c531659141344cd1fd0a4f28419497f9722a3daafe3b4186f6b6457e08280a3005b3461052157602036600319011261052157600435600654811015611566575f52600460205261151c60405f20611d5a565b80516020820151916006831015610c53578060406108559201519060608101516001600160a01b036080830151169060c060a0840151151593015115159360405197889788611b74565b60646040517f08c379a000000000000000000000000000000000000000000000000000000000815260206004820152601060248201527f496e76616c696420706c616e74204944000000000000000000000000000000006044820152fd5b34610521576040366003190112610521576115dd611abd565b60243590811515820361052157600654906001600160a01b03908116905f805b8481106116b4575061160e90611ccb565b935f915f5b85811061162857604051806108558982611ae0565b805f52600460205260405f206004810154868482161490816116a5575b81611686575b5061165a575b50600101611613565b6001919461166a61167f92611d5a565b611674828b611d46565b5261138a818a611d46565b9390611651565b60ff9150851561169b5760a81c165b8961164b565b60a81c1615611695565b905060ff8160a01c1690611645565b805f526004602052600460405f20015484848216149081611717575b816116f8575b506116e4575b6001016115fd565b906116f0600191611c66565b9190506116dc565b60ff9150871561170d5760a81c165b876116d6565b60a81c1615611707565b905060ff8160a01c16906116d0565b3461052157602080600319360112610521576001600160a01b03611748611abd565b165f526005815260405f20604051908183825491828152019081925f52845f20905f5b868282106117c057868661178182880383611a9b565b60405192839281840190828552518091526040840192915f5b8281106117a957505050500390f35b83518552869550938101939281019260010161179a565b83548552909301926001928301920161176b565b34610521575f36600319011261052157478015611803575f80808093335af16117fb611c74565b501561047c57005b60046040517fc2caa2a6000000000000000000000000000000000000000000000000000000008152fd5b3461052157366003190160808112610521576060136105215761184f81611a3b565b6006906004358281101561052157815260243560208201526044356040820152606435906001600160a01b038083168093036105215761188d611dd0565b815184811015610c53576118a090611bb9565b92604051936118ae85611a6b565b60038154918287526001810154602088015261ffff600282015460ff811660408a015260ff8160081c1660608a015260ff8160101c1660808a015260181c1660a0880152015460c0860152855490845187811015610c53576040519461191386611a6b565b838652611924602087019283611bf4565b6040860192835260608601955f87526080810195865260a08101925f845260c08201955f87525f52600460205260405f209151825551908a821015610c53576119e1976119c69561197a60049460018501611c00565b5160028301555160038201550194511673ffffffffffffffffffffffffffffffffffffffff19855416178455511515839060ff60a01b1960ff60a01b835492151560a01b169116179055565b51815460ff60a81b191690151560a81b60ff60a81b16179055565b5182811015610c53576119f66119fe91611bd0565b835490611c2d565b611a088254611c66565b80925551906040519182527f3c7450b5b54d32b4163bbab3477be25d90dec07e4e10a7a7717c1463ae336b3660203093a3005b6060810190811067ffffffffffffffff821117611a5757604052565b634e487b7160e01b5f52604160045260245ffd5b60e0810190811067ffffffffffffffff821117611a5757604052565b67ffffffffffffffff8111611a5757604052565b90601f8019910116810190811067ffffffffffffffff821117611a5757604052565b600435906001600160a01b038216820361052157565b906006821015610c535752565b60208082019080835283518092528060408094019401925f905b838210611b0957505050505090565b90919293948360e0600192885180518252611b2a8482015185840190611ad3565b8086015182870152606080820151908301526080808201516001600160a01b03169083015260a08082015115159083015260c0908101511515908201520196019493920190611afa565b95929360c09591989794611b9b6001600160a01b039460e08a019b8a5260208a0190611ad3565b60408801526060870152166080850152151560a08401521515910152565b6006811015610c53575f52600760205260405f2090565b6006811015610c53575f52600360205260405f2090565b516006811015610c535790565b6006821015610c535752565b906006811015610c535760ff80198354169116179055565b805482101561120c575f5260205f2001905f90565b805468010000000000000000811015611a5757611c4f91600182018155611c18565b819291549060031b91821b915f19901b1916179055565b5f19811461076c5760010190565b3d15611cae573d9067ffffffffffffffff8211611a575760405191611ca3601f8201601f191660200184611a9b565b82523d5f602084013e565b606090565b67ffffffffffffffff8111611a575760051b60200190565b90611cd582611cb3565b604090611ce56040519182611a9b565b8381528093611cf6601f1991611cb3565b01915f5b838110611d075750505050565b6020908251611d1581611a6b565b5f8152825f818301525f858301525f60608301525f60808301525f60a08301525f60c0830152828601015201611cfa565b805182101561120c5760209160051b010190565b90604051611d6781611a6b565b60c060ff6004839580548552611d868360018301541660208701611bf4565b600281015460408601526003810154606086015201546001600160a01b0381166080850152818160a01c16151560a085015260a81c161515910152565b9190820180921161076c57565b6001600160a01b035f54163303611de357565b60246040517f118cdaa7000000000000000000000000000000000000000000000000000000008152336004820152fd5b600281015467042a2b5c29184000811180611f38575b15611e3f5750600101805460ff19166005179055565b6701bc71c98566c000811180611f26575b15611e665750600101805460ff19166004179055565b66a03a36075ec000811180611f14575b15611ea45750600101805460ff81166006811015610c5357600203611e99575050565b60ff19166003179055565b6635a55eb81bc000811180611f03575b15611eca5750600101600160ff19825416179055565b6611c37937e080008110159081611ef1575b50611ee45750565b600101805460ff19169055565b66354a6ba7a18000915011155f611edc565b50669fdf42f6e48000811115611eb4565b506701bc16d674ec8000811115611e76565b50670429d069189e0000811115611e50565b50670a688906bd8b0000811115611e29565b9190820391821161076c5756fea2646970667358221220574f51132adb3a0c52fcbae5b5014febf2b8b0c61266eaa4371fbfc2d4b7084f64736f6c63430008180033",
  "linkReferences": {},
  "deployedLinkReferences": {}
}